S00F00004242526164696F2E73726563A2
S214400000501A4020250B4000A90B4000A90B400089
S214400010A90B4000A90B4000A90B400000000000BF
S214400020000000000000000000000000A90B400097
S214400030A90B400000000000A90B4000A90B40009F
S214400040A90B4000A90B4000A90B4000A90B40009B
S214400050A90B4000A90B4000A90B4000A90B40008B
S214400060A90B400000000000A90B40007139400079
S214400070A90B4000A90B4000A90B4000A90B40006B
S21440008081394000A90B4000A90B4000A90B400055
S214400090A90B4000A90B4000A90B4000A90B40004B
S2144000A0A90B4000A90B4000A90B4000A90B40003B
S2144000B0A90B4000A90B4000A90B4000A90B40002B
S2144000C0A90B4000A90B40007969400000000000E1
S2144000D000000000000000000000000000000000DB
S2144000E0A90B4000A90B4000A90B4000A90B4000FB
S2144000F0A90B4000A90B400079554000A90B4000D1
S214400100A90B4000A90B4000A90B4000A90B4000DA
S214400110A90B4000000000000000000000000000A6
S214400120A90B4000A90B4000C1774000A90B400036
S214400130A90B4000A90B4000A90B4000A90B4000AA
S214400140A90B4000A90B4000000000000000000082
S214400150A90B400010B5054C237833B9044B13B1B6
S2144001600448AFF300800123237010BD20004020D8
S21440017000000000F47D40000C4B43B10C480D4994
S21440018010B5AFF300800C48036823B910BD0A4889
S214400190036833B97047094B002BF7D0BDE81040D1
S2144001A01847064B002BF5D0184700BF000000004C
S2144001B0F47D400024004020F47D40000000000014
S2144001C080B487B000AFF860B9601346FB71FA7927
S2144001D013465B0013441B013F4A13443B61FB68D4
S2144001E0002B02D0BB68002B01D102236EE03B4BB4
S2144001F01B78032B01D1022368E03B6993F82C302F
S214400200012B01D1022361E0344B1B78002B25D013
S2144002100023FB751DE0FA7D13465B0013441B016B
S21440022028332D4A1A44BB689A4201D102234DE036
S214400230FA7D13465B0013441B012033264A1344C1
S2144002401A1DFB689A4201D102233FE0FB7D013331
S214400250FB75224B1B78FA7D9A42DCD31F4B1B78EA
S2144002600133DAB21D4B1A703B6900221A743B699F
S21440027000221A703B69002283F820203B69002246
S2144002809A803B6900229A823B6900229A753B69B4
S21440029000229A713B690122DA753B690122DA71C4
S2144002A03B693A69DA603B693A69DA61BB683A6940
S2144002B05A60FB683A695A603B69BA689A623B6919
S2144002C0FA685A62BB68064A9A60002318461C378A
S2144002D0BD465DF8047B70473C004020CC00402083
S2144002E0250A400090B585B000AF0346FB71FA7909
S2144002F013465B0013441B01794A1344FB60FB68BA
S21440030093F82030002B2ED0764B01221A70754B76
S21440031002225A70FB68586A0A23734A7149734C22
S214400320A04700BFFB685B6A1846714B9847034678
S214400330002BF7D16B4B02221A706A4B02225A707E
S214400340684B00229A70FB68586A0A23664A6549D9
S214400350664CA04700BFFB685B6A1846644B9847EC
S2144003600346002BF7D1634B1B889BB2002B00F053
S214400370AD805C4B00221A705A4B00225A70594B83
S21440038000229A70FB68586A0823574A5549574CCA
S214400390A04700BFFB685B6A1846554B9847034624
S2144003A0002BF7D1504B1B78002B42D14E4B5B783D
S2144003B0002B3ED14C4B9B78002B03D14A4B1B79EC
S2144003C0002B16D0484B9B781B029AB2FB689A804B
S2144003D0FB689B881AB2444B1B791BB263F0FF0341
S2144003E01BB213401BB29AB2FB689A80FB6801228C
S2144003F05A703D4BDB78002B03D13B4B5B79002B8F
S2144004005ED0394BDB781B029AB2FB689A82FB6857
S2144004109B8A1AB2344B5B791BB263F0FF031BB264
S21440042013401BB29AB2FB689A82FB6801225A7448
S21440043046E02D4B5B78002B43D12B4B9B78002B13
S2144004403FD1294BDB78002B03D1274B5B79002B20
S21440045016D0254BDB781B029AB2FB689A80FB6865
S2144004609B881AB2204B5B791BB263F0FF031BB22A
S21440047013401BB29AB2FB689A80FB6801225A70FE
S214400480194B1B79002B03D1174B9B79002B18D0A7
S214400490154B1B791B029AB2FB689A82FB689B8AB3
S2144004A01AB2114B9B791BB263F0FF031BB2134089
S2144004B01BB29AB2FB689A82FB6801225A7400E02B
S2144004C000BF0023FB720B4B00221A80FB791846B4
S2144004D0094B9847002318461437BD4690BD00BFC9
S2144004E03C004020D0004020D0084020C91A4000A0
S2144004F01D1B4000CE004020FD04400090B585B056
S21440050000AF0346FB71FA7913465B0013441B01A8
S214400510604A1344FB60FB6893F82030042B00F2DB
S214400520B28001A252F823F03D054000D5054000B8
S21440053035064000470640005B064000FA681D212D
S2144005400920554B9847FA6808210720524B984790
S214400550FA6812214FF440704F4B9847FA681F21B3
S2144005604FF480704C4B9847FA6812214FF48060E5
S214400570494B9847FA681F214FF40070464B9847FE
S214400580FA68902140F20620434B9847FA68D821F3
S21440059040F20520404B9847FA6800214FF402701D
S2144005A03D4B9847FB68586A03233C4A3C493D4CC0
S2144005B0A047FA6860214FF48A70374B9847FA682C
S2144005C060214FF40570344B9847FB68012283F84E
S2144005D0202059E0FB685B78002B0ED0FB685B7CE4
S2144005E0002B0AD0FB6800225A70FB6800225A741F
S2144005F0FB68042283F8202046E0FB685B78002BEB
S21440060007D0FB6800225A70FB68022283F820203D
S2144006103AE0FB685B7C002B07D0FB6800225A74EC
S214400620FB68032283F820202EE0FB68012283F833
S214400630202029E0FB6818461B4B9847FB680122A0
S21440064083F8202020E0FB6810331846164B984766
S214400650FB68012283F8202016E0FB68022283F81C
S2144006602020FB681846104B9847FB68032283F807
S2144006702020FB68103318460B4B9847FB68012236
S21440068083F8202000E0FEE7002318461437BD46D6
S21440069090BD00BF3C0040204D0A4000D00840209E
S2144006A0D0004020D1194000AD06400080B582B051
S2144006B000AF78607B681B78082B00F2AC8101A203
S2144006C052F823F0E9064000490740006D07400015
S2144006D091074000170A40005F0840009909400013
S2144006E0170A4000DB0940007B689B8803F4807350
S2144006F0002B00F083817B689A88A14B13409AB206
S2144007007B689A807B6801221A707B68DB6893F866
S2144007102030022B08D17B68DB681A46032140F262
S2144007200310984B984769E17B68DB6893F8203064
S214400730032B40F063817B68DB681A46032140F256
S2144007400320904B984759E17B689B8803F40073DD
S214400750002B00F055817B689A888B4B13409AB2E9
S2144007607B689A807B6803221A7011E07B689B88BE
S21440077003F40073002B00F045817B689A88824B17
S21440078013409AB27B689A807B6803221A7000BF37
S2144007907B689B8803F48053002B0AD07B689A883A
S2144007A07A4B13409AB27B689A807B6803221A7011
S2144007B00FE07B689B8803F40073002B09D07B68AE
S2144007C09A88714B13409AB27B689A807B68032262
S2144007D01A707B68DB79012B40F016817B68DB68FA
S2144007E093F82030022B18D17B68DB681A465021DC
S2144007F040F20130634B98477B68DB681A46052118
S21440080040F203105F4B98477B68DB681A4601212D
S2144008104FF487705B4B98471DE07B68DB6893F826
S2144008202030032B17D17B68DB681A46502140F2F4
S2144008300140544B98477B68DB681A46052140F2D6
S2144008400320504B98477B68DB681A46012140F2EC
S2144008500E204C4B98477B6805221A70DBE07B687D
S2144008609B8803F48063002B7BD07B689A88484B38
S21440087013409AB27B689A807B68DB79002B40D025
S2144008807B68DB6893F82030022B18D17B68DB68E6
S2144008901A46032140F20F103E4B98477B68DB68B0
S2144008A01A46FF2140F20F10364B98477B68DB68AC
S2144008B01A4601214FF48770324B98471DE07B68FB
S2144008C0DB6893F82030032B17D17B68DB681A4629
S2144008D0032140F20F202F4B98477B68DB681A466F
S2144008E0FF2140F20F20274B98477B68DB681A466B
S2144008F0012140F20E20234B98477B6805221A7050
S2144009002FE07B68DB6893F82030022B10D17B68A1
S214400910DB681A46542140F201301A4B98477B68F0
S214400920DB681A46032140F20310164B984715E041
S2144009307B68DB6893F82030032B0FD17B68DB683D
S2144009401A46502140F201400E4B98477B68DB68C0
S2144009501A46032140F203200A4B98477B6803223D
S2144009601A707B689B8803F00103002B4ED07B688F
S2144009709B8823F001039AB27B689A8046E000BFCA
S21440098000FEFFFF4D0A400000FDFFFF00EFFFFFA7
S21440099000FBFFFFB50A40007B689B8803F480633A
S2144009A0002B09D07B689B8823F480639AB27B68CF
S2144009B09A807B6805221A707B689B8803F4C06324
S2144009C0002B25D07B689B8823F4C0639AB27B6853
S2144009D09A807B6804221A701AE07B689B8803F42E
S2144009E08073002B16D07B689A880D4B13409AB2C2
S2144009F07B689A807B6803221A700BE000BF0AE08F
S214400A0000BF08E000BF06E000BF04E000BF02E011
S214400A1000BF00E000BF00BF18460837BD4680BD97
S214400A2000FEFFFF80B483B000AF0346FB71064B69
S214400A301B889BB201339AB2034B1A8000BF0C3717
S214400A40BD465DF8047B7047CE00402090B583B02D
S214400A5000AF03463A60FB800B467B71FB881B0A5F
S214400A609BB2DBB263F07F03DAB20E4B1A70FB88A0
S214400A70DAB20C4B5A700B4A7B7993703B68586AD3
S214400A800323094A0749094CA04700BF3B685B6AF5
S214400A901846074B98470346002BF7D100BF0C3744
S214400AA0BD4690BDD0004020D0084020C91A400026
S214400AB01D1B400090B583B000AF03463A60FB80F4
S214400AC00B46BB80FB881B0A9BB2DAB20D4B1A70F2
S214400AD0FB88DAB20B4B5A703B68586ABB880233C5
S214400AE09BB2094A0749094CA04700BF3B685B6A6E
S214400AF01846074B98470346002BF7D100BF0C37E4
S214400B00BD4690BDD0004020D0084020C91A4000C5
S214400B101D1B400080B500AF014B984700BF80BD0D
S214400B209915400080B582B000AF164B7B60164BDF
S214400B303B607A683B689A420CD007E03B681A1DD7
S214400B403A607A68111D796012681A603B680F4AED
S214400B509342F3D30E4B3B6004E03B681A1D3A6069
S214400B6000221A603B680B4A9342F6D30A4B7B60DE
S214400B700A4A7B6823F07F039360094B9847094BEA
S214400B809847FEE7F47D40000000402020004020CB
S214400B90200040204C1440200000400000ED00E0C3
S214400BA08D7A4000FD79400080B400AFFEE780B407
S214400BB083B000AF786039607B68D3F814213B6817
S214400BC01A437B68C3F8142100BF0C37BD465DF856
S214400BD0047B704780B483B000AF786039607B6830
S214400BE03A681A6000BF0C37BD465DF8047B704714
S214400BF080B483B000AF786039607B683A685A60EA
S214400C0000BF0C37BD465DF8047B704780B483B0A8
S214400C1000AF786039607B683A681A6100BF0C376D
S214400C20BD465DF8047B704780B483B000AF786003
S214400C3039607B683A685A6100BF0C37BD465DF83C
S214400C40047B704780B483B000AF786039607B68BF
S214400C503A681A6300BF0C37BD465DF8047B7047A0
S214400C6080B483B000AF786039607B683A685A6376
S214400C7000BF0C37BD465DF8047B704780B483B038
S214400C8000AF786039607B683A685A6600BF0C37B8
S214400C90BD465DF8047B704780B483B000AF786093
S214400CA039607B683A681A6600BF0C37BD465DF807
S214400CB0047B704780B483B000AF786039607B684F
S214400CC03A68C3F8942000BF0C37BD465DF8047BF5
S214400CD0704780B483B000AF786039607B683A680C
S214400CE0C3F8902000BF0C37BD465DF8047B7047C4
S214400CF080B485B000AFF8600B467A60FB72FA7A33
S214400D00F97AFB681C3153F821107B681943FB685D
S214400D101C3243F8221000BF1437BD465DF8047BF2
S214400D20704780B485B000AFF8600B467A60FB72BF
S214400D30FA7AF97AFB681C3153F821107B68DB435A
S214400D401940FB681C3243F8221000BF1437BD46DA
S214400D505DF8047B704780B483B000AF786039603C
S214400D607B683A681A6100BF0C37BD465DF8047B65
S214400D70704780B485B000AF786039607B689B6907
S214400D80FB60FA683B681340FB60FB681846143704
S214400D90BD465DF8047B704780B483B000AF786092
S214400DA039607B683A68C3F8002100BF0C37BD46FF
S214400DB05DF8047B704780B485B000AF78603960DA
S214400DC07B68D3F80831FB60FA683B681340FB60E9
S214400DD0FB6818461437BD465DF8047B704780B400
S214400DE083B000AF786039607B683A68C3F80C21FE
S214400DF000BF0C37BD465DF8047B704780B483B0B7
S214400E0000AF78607B68D3F80C3118460C37BD4687
S214400E105DF8047B704780B483B000AF78607B6831
S214400E205B6843F400427B685A6000BF0C37BD469F
S214400E305DF8047B7047000080B483B000AF034683
S214400E40FB71FB795B021A46034B134418460C377A
S214400E50BD465DF8047B7047000E0E4080B584B0FA
S214400E6000AF03463960FB711346BB71FB791846E9
S214400E700E4B9847F860BB79002B0EDB012B02DD4A
S214400E80022B05D009E03968F868094B984709E015
S214400E903968F868074B984704E041220649002025
S214400EA0064B984700BF1037BD4680BD390E400000
S214400EB0290C40000D0C4000FC7A4000412D4000BB
S214400EC080B584B000AF03463960FB711346BB71F2
S214400ED0FB791846094B9847F860BB79002B04D03D
S214400EE03968F868064B984703E03968F868054B58
S214400EF0984700BF1037BD4680BD00BF390E400042
S214400F00450C4000610C400080B584B000AF0346FD
S214400F10FB710B46BB7113467B71FB791846234B1E
S214400F209847F8607B79012B14D0022B23D0002BF6
S214400F3032D1BB79012202FA03F31946F8681C4BFA
S214400F409847BB79012202FA03F31946F868194B11
S214400F50984727E0BB79012202FA03F31946F8685E
S214400F60144B9847BB79012202FA03F31946F868F6
S214400F70114B984716E0BB79012202FA03F3194653
S214400F80F8680B4B9847BB79012202FA03F31946DF
S214400F90F8680A4B984705E0832209490020094B28
S214400FA0984700BF00BF1037BD4680BD390E400091
S214400FB0990C4000D30C40007D0C4000B50C40001E
S214400FC0FC7A4000412D400080B584B000AF786088
S214400FD039607B685B09FB737B68DBB203F01F03F9
S214400FE0BB73FB7B1846334B9847B860FB7B012BA3
S214400FF016D1BB7B042B0BD0BB7B052B08D0BB7B11
S214401000062B05D0BB7B072B02D0BB7B0C2B07D116
S214401010BB7B012202FA03F319462748274B984721
S2144010203B68B3F1FF3F08D1BB7B012202FA03F3D2
S2144010301946B868224B984737E03B6803F00103EF
S214401040002B09D0BB7B012202FA03F31A4600218B
S214401050B8681C4B984708E0BB7B012202FA03F3B2
S2144010601A460021B868184B98473B6803F00203BD
S214401070002B09D0BB7B012202FA03F31A4601215A
S214401080B868104B984708E0BB7B012202FA03F38E
S2144010901A460121B8680C4B9847BB7B012202FADE
S2144010A003F31946B868094B984700BF1037BD464A
S2144010B080BD00BF390E400000800840AF0B4000A6
S2144010C0D50B4000F10C4000230D4000F10B4000D2
S2144010D080B582B000AF03460A46FB711346BB712B
S2144010E0FB795B09D8B2FB7903F01F03DBB2BA7910
S2144010F01946034B984700BF0837BD4680BD00BF22
S214401100090F400080B582B000AF7860396039681A
S2144011107868034B984700BF0837BD4680BD00BF80
S214401120C90F400080B582B000AF03460A46FB7147
S2144011301346BB71FB795B09D8B2FB7903F01F03FA
S214401140012202FA03F3BA791946034B984700BFC7
S2144011500837BD4680BD00BF5D0E400080B582B0FA
S21440116000AF03460A46FB711346BB71FB795B0929
S214401170D8B2FB7903F01F03012202FA03F3BA79CF
S2144011801946034B984700BF0837BD4680BD00BF91
S214401190C10E400080B500AF014B984700BF80BDF0
S2144011A03933400080B584B000AF78607B681F2B31
S2144011B013D801227B6802FA03F319461F48204BD6
S2144011C098470346002B35D101227B6802FA03F389
S2144011D019461A481B4B98472CE07B683F2B16D87D
S2144011E07B68203B7B6001227B6802FA03F319464A
S2144011F01248154B98470346002B1BD101227B68AB
S21440120002FA03F319460D48104B984712E07B68E4
S21440121003F07F03194609480D4B984707480D4B86
S2144012209847F860FB6843F01023FB60F968034872
S214401230074B984700BF1037BD4680BD00060E409E
S214401240730D4000570D4000B70D4000990D40000B
S214401250DF0D4000FD0D400080B500AF4FF0FF3180
S2144012602D20044B98474FF0FF316020014B9847A4
S21440127000BF80BD0511400080B500AF1E20024B68
S214401280984700BF80BD00BFA511400080B500AFA5
S214401290044B984704490548054B9847054B9847E3
S2144012A000BF80BD79124000000004407413402007
S2144012B0651D40005912400080B500AF0121202036
S2144012C0064B984700212020054B98474FF0FF31AA
S2144012D02020044B984700BF80BD00BF251140002A
S2144012E0D11040000511400080B500AF01217720A5
S2144012F0064B984700217720054B98474FF0FF3123
S2144013007720044B984700BF80BD00BF25114000A2
S214401310D11040000511400080B500AF0121742077
S214401320054B984701217520034B984701217620AD
S214401330014B984700BF80BD0511400080B500AF07
S2144013401520024B984700BF80BD00BFA511400046
S21440135080B500AF044B984704490548054B98476D
S214401360054B984700BF80BD3D13400000800040BD
S2144013704C134020792140001913400080B500AF3F
S21440138002215A20054B984702215B20034B984781
S21440139002215820014B984700BF80BD05114000F0
S2144013A080B500AF2A20024B984700BF80BD00BFE3
S2144013B0A511400080B500AF044B98470449054846
S2144013C0054B9847054B984700BF80BDA11340008A
S2144013D00080054088134020792140007D1340005E
S2144013E080B500AF00210420034B9847002103201E
S2144013F0014B984700BF80BD0511400080B500AF47
S2144014001320024B984700BF80BD00BFA511400087
S21440141080B500AF044B984704490548054B9847AC
S214401420054B984700BF80BDFD134000008001403B
S2144014302C14402019214000E113400080B400AF36
S21440144000BFBD465DF8047B7047000080B500AF26
S2144014501420024B984700BF80BD00BFA511400036
S21440146080B500AF044B984704490548054B98475C
S214401470054B984700BF80BD4D14400000C001405A
S214401480BC134020192140003D14400080B500AFF9
S21440149000210920034B984700210A20014B98471A
S2144014A000BF80BD0511400080B500AF0720024B4D
S2144014B0984700BF80BD00BFA511400080B500AF73
S2144014C0064B9847064B984703461A460549064832
S2144014D0064B9847064B984700BF80BDA91440006E
S2144014E03154400000080E40B01340201D274000F5
S2144014F08D14400080B500AF2E20024B984700BFA9
S21440150080BD00BFA511400080B500AF022172200B
S214401510034B984702217320014B984700BF80BD7C
S2144015200511400090B583B002AF094B9847094B70
S2144015309847034600931023074A08490848094C31
S214401540A047094B984700BF0437BD4690BD00BF33
S214401550F514400041544000D0104020001E0E407C
S214401560DC134020192440000915400080B500AF28
S2144015702220024B984700BF80BD00BFA511400007
S21440158080B500AF024B9847024B984700BF80BDDE
S2144015906D154000952C400080B500AF344B984701
S2144015A00B20344B98470C20324B98471020314B39
S2144015B098473148314B984702212120304B984775
S2144015C0002121202F4B98474FF0FF3121202E4BF2
S2144015D09847022147202A4B984700214720294B0D
S2144015E098474FF0FF314720274B98470221592014
S2144015F0234B984700215920224B984700215920D9
S214401600224B9847022159201F4B984702217120B0
S2144016101B4B9847002171201A4B98474FF0FF31DB
S2144016207120194B984702217820154B9847002186
S2144016307820144B98474FF0FF317820124B98474C
S214401640134B9847134B9847134B9847134B984761
S214401650134B9847134B9847134B9847134B984751
S214401660134B9847134B9847134B984700BF80BD82
S21440167095114000A511400050180E40170E40002E
S214401680251140005D11400005114000D11040007A
S2144016908D124000B9124000E9124000511340003C
S2144016A0B51340001114400061144000BD144000C2
S2144016B02515400081154000511E400080B483B07F
S2144016C000AF786039607B683A681A6300BF0C37B1
S2144016D0BD465DF8047B704780B485B000AF786047
S2144016E039607B689B6BFB60FA683B681340FB6025
S2144016F0FB6818461437BD465DF8047B704780B4D7
S21440170083B000AF786039607B683A685A6300BF40
S2144017100C37BD465DF8047B7047000080B483B04C
S21440172000AF0346FB71FB795B021A46034B13443A
S21440173018460C37BD465DF8047B7047000E0E40D9
S21440174080B584B000AF03463960FB711346BB7169
S214401750FB791846094B9847F860BB79002B04D0B4
S2144017603968F868064B984703E03968F868054BCF
S214401770984700BF1037BD4680BD00BF1D174000CC
S214401780BD164000FF16400080B586B000AF034649
S2144017903960FB71FB7918460C4B9847786139687D
S2144017A078690B4B984738613B69DA433B6813408E
S2144017B0FB60F9687869074B984739697869064B42
S2144017C0984700BF1837BD4680BD00BF1D17400074
S2144017D0D9164000BD164000FF16400080B582B0C6
S2144017E000AF03460A46FB711346BB71FB795B09A3
S2144017F0D8B2FB7903F01F03012202FA03F3BA7949
S2144018001946034B984700BF0837BD4680BD00BF0A
S2144018104117400080B582B000AF0346FB71FB79AC
S2144018205B09D8B2FB7903F01F03012202FA03F3E7
S2144018301946034B984700BF0837BD4680BD00BFDA
S2144018408917400080B582B000AF4720074B9847C5
S21440185000233B6005E0FB790133FB713B680133B5
S2144018603B603B68024A9342F5D9EEE715184000C4
S2144018707FD1F00880B500AF324B334A1A60334B05
S214401880334A1A602F4B1B68324A00211846324BA7
S21440189098472C4B1B68314A012118462E4B9847D7
S2144018A0284B1B682E4A022118462B4B9847274B3D
S2144018B01B682C4A00211846274B9847234B1B6829
S2144018C0294A01211846244B9847204B1B68274A33
S2144018D002211846204B9847002225491948254B97
S2144018E09847012224491948224B9847204B9B6829
S2144018F019462020214B98471F4B9B681946772056
S2144019001E4B9847002110481D4B98471D490E48CE
S2144019101D4B984700210C481C4B984700210C480B
S214401920174B984717490A48174B984700210848CD
S214401930164B98470448164B98470548144B98470B
S21440194000BF80BD00114020881340201411402065
S2144019504C134020911B4000D5234000E51B40001F
S214401960251C4000551C4000A91C4000E91C4000B6
S21440197008114020C10140001C1140209D1E40001F
S2144019806D224000809698002D224000B1224000F3
S214401990F121400080B400AF034B01221A7000BF13
S2144019A0BD465DF8047B7047E010402080B500AF30
S2144019B0054B1B78DBB283F00103DBB2002B01D072
S2144019C0024B984700BF80BDE010402045184000BD
S2144019D090B585B000AFF860B9607A607B80002132
S2144019E05920124B98470220114B9847BB68002B52
S2144019F005D0104B01221A700F4ABB6813607B68F3
S214401A00002B05D00D4B01221A700D4A7B681360DF
S214401A100C4A7B881380FB6818687B887A68B968AC
S214401A20094CA04700BF1437BD4690BDDD174000A7
S214401A30E91D4000E1104020E8104020E210402020
S214401A40EC104020F81040208D23400090B585B023
S214401A5000AFF860B9607A607B8000217120124B3D
S214401A6098470220114B9847BB68002B05D0104B77
S214401A7001221A700F4ABB6813607B68002B05D0A2
S214401A800D4B01221A700D4A7B6813600C4A7B8806
S214401A901380FB6818687B887A68B968094CA04749
S214401AA000BF1437BD4690BDDD174000E91D40001D
S214401AB0E3104020F0104020E4104020F410402076
S214401AC0FA1040208D23400090B585B000AFF860F6
S214401AD0B9607A607B80FB681B680C4A934206D1EB
S214401AE07B887A68B968F868094CA0470AE0FB68C2
S214401AF01B68084A934205D17B887A68B968F868BB
S214401B00054CA04700BF1437BD4690BD8813402003
S214401B10D11940004C1340204D1A400080B483B089
S214401B2000AF78607B681B68134A93420BD1134B17
S214401B301B78DBB2002B04D1114B1B78DBB2002B99
S214401B4001D0012311E07B681B680E4A93420BD1FB
S214401B500D4B1B78DBB2002B04D10C4B1B78DBB251
S214401B60002B01D0012300E0002318460C37BD4669
S214401B705DF8047B704700BF88134020E11040208A
S214401B80E21040204C134020E3104020E410402058
S214401B9080B582B000AF78601E200D4B98470D4B45
S214401BA01B78DBB283F00103DBB2002B03D00121AC
S214401BB05920094B9847094B00221A70084B1B883E
S214401BC001339AB2064B1A8000BF0837BD4680BD27
S214401BD0E91D4000E2104020DD174000E1104020A3
S214401BE0FC10402080B582B000AF78601E20094BC4
S214401BF0984701215920084B9847084B00221A70F5
S214401C00074B1B8801339AB2054B1A8000BF083732
S214401C10BD4680BDE91D4000DD174000E210402073
S214401C20FE10402080B582B000AF78600121592078
S214401C30054B9847054B00221A70054B00221A7038
S214401C4000BF0837BD4680BDDD174000E11040208C
S214401C50E210402080B582B000AF78601E200D4B69
S214401C6098470D4B1B78DBB283F00103DBB2002BA9
S214401C7003D001217120094B9847094B00221A7066
S214401C80084B1B8801339AB2064B1A8000BF0837B0
S214401C90BD4680BDE91D4000E4104020DD174000F1
S214401CA0E3104020FC10402080B582B000AF786042
S214401CB01E20094B984701217120084B9847084B36
S214401CC000221A70074B1B8801339AB2054B1A80C4
S214401CD000BF0837BD4680BDE91D4000DD17400007
S214401CE0E4104020FE10402080B582B000AF7860FF
S214401CF001217120054B9847054B00221A70054B71
S214401D0000221A7000BF0837BD4680BDDD17400070
S214401D10E3104020E410402080B485B000AF7860E7
S214401D20EFF31083FB60FA687B681A6072B6BFF305
S214401D305F8F00BF1437BD465DF8047B704780B4A4
S214401D4085B000AF7860BFF35F8F7B681B68FB6031
S214401D50FB6883F3108800BF1437BD465DF8047BEC
S214401D607047000080B584B000AF786039607B680B
S214401D70002B04D03B68002B01D0012300E0002359
S214401D8003F00103DBB2322214491846144B98473D
S214401D907B6839681846134B9847B860BB68002B79
S214401DA001D0BB6815E00023FB730EE0FB7B7A682E
S214401DB0DB00134400225A60FB7B7A68DB00134446
S214401DC000229A60FB7B0133FB73FB7B012BEDD932
S214401DD0002318461037BD4680BD00BF187B400024
S214401DE0412D40000534400090B583B000AF034617
S214401DF0FB80074B1C68FB881846064B98470346F3
S214401E0019462046044B984700BF0C37BD4690BD48
S214401E102C114020F52F40002D31400090B583B066
S214401E2000AF0346FB80074B1C68FB881846064BF2
S214401E309847034619462046044B984700BF0C3740
S214401E40BD4690BD2C114020053140002D3140004C
S214401E5080B582B000AF0023FB800EE0FB880C4AC2
S214401E60DB0013444FF0FF325A60FB88084A0021DB
S214401E7042F83310FB880133FB80FB88012BEDD9F9
S214401E800448054B9847034618460837BD4680BD6C
S214401E9030114020F51F4000C53A400080B586B05E
S214401EA000AF786039600023FB750023BB750023C4
S214401EB07B7512E0FB7D4D4ADB0013445A687B6815
S214401EC09A4207D1FB7D49493A6841F833200123BD
S214401ED07B7505E0FB7D0133FB75FB7D012BE9D966
S214401EE03B68002B0ED17B7D83F00103DBB2002BD9
S214401EF002D06FF00C0374E0002178683C4B9847A2
S214401F0003466EE07B7D83F00103DBB2002B5AD0A4
S214401F100023FB7516E0FB7D344A52F83330002B25
S214401F200DD1FB7D31493A6841F83320FB7D2F4A7D
S214401F30DB0013447A685A6001237B7505E0FB7D1D
S214401F400133FB75FB7D012BE5D936E0FB7D274A47
S214401F50DB0013445A68BB7D2449DB000B445B68B6
S214401F609A4227D2BB7D214ADB0013445B68B3F11B
S214401F70FF3F1FD0BB7D1D4907F10C02DB000B4421
S214401F8093E8030082E80300BB7DFA7D17481749B3
S214401F90DB000344D2000A4492E8030083E80300CF
S214401FA0FB7D124ADB00134407F10C0292E8030063
S214401FB083E80300BB7D0133BB75BB7D012B02D894
S214401FC0FB7D012BC2D97B7D83F00103DBB2002B66
S214401FD002D06FF00C0304E001217868044B984768
S214401FE0034618461837BD4680BD00BF3011402016
S214401FF0F93A400080B584B000AF78600023FB73A8
S2144020000223BB732AE0BA7BFB7B13445B107B73D3
S2144020107B7B012B27D87B7B164ADB0013445A6810
S2144020207B689A420BD17B7B124A52F83330002BA6
S2144020301BD07B7B0F4A52F83330984715E07B7BAA
S2144020400C4ADB0013445A687B689A4203D27B7B77
S2144020500133FB7302E07B7B013BBB73BA7BFB7BAC
S2144020609A42D0D202E000BF00E000BF1037BD4623
S21440207080BD00BF3011402080B58AB000AFF86008
S214402080B9601346FB80FB68143B7B627B6A9B8B84
S214402090BB82FB88BB6148F20103FB82BB68FB61E5
S2144020A07B6A07F1140211461846064B9847386279
S2144020B03B6A002B01D03B6A00E0FB881846283775
S2144020C0BD4680BD294A400080B58AB000AFF86062
S2144020D0B9601346FB80FB68143B7B627B6A9B8B34
S2144020E0BB82FB88BB614FF40043FB82BB68FB614D
S2144020F07B6A07F1140211461846064B9847386229
S2144021003B6A002B01D03B6A00E0FB881846283724
S214402110BD4680BD294A400080B584B000AF786097
S21440212039607B68002B14BF01230023DBB25E229C
S2144021300C4918460C4B98477B68396818460B4B39
S2144021409847F860FB68002B01D0FB6806E07B6888
S214402150074A9A617B68074A5A6100231846103737
S214402160BD4680BD347B4000412D4000854940003F
S21440217079204000C920400080B584B000AF786028
S21440218039600023FB607B68002B04D03B68002B43
S21440219001D0012300E0002303F00103DBB2332229
S2144021A00E4918460E4B98477B683A681A607B681B
S2144021B0396818460B4B9847F860FB68002B01D0EF
S2144021C0FB6806E07B68084A1A627B68074ADA6161
S2144021D0002318461037BD4680BD00BF507B4000E8
S2144021E0412D400071434000F5224000412340000D
S2144021F080B582B000AF78607B68002B14BF0123A7
S2144022000023DBB24A2206491846064B98477B68AD
S2144022101846054B984700BF0837BD4680BD00BFEF
S214402220507B4000412D40008D44400080B582B038
S21440223000AF786039607B68002B14BF0123002311
S214402240DBB2582206491846064B98477B683968E1
S2144022501846054B9847034618460837BD4680BD86
S214402260507B4000412D40003545400080B582B04F
S21440227000AF78600B46FB707B68002B14BF0123D1
S2144022800023DBB25F2207491846074B98477B6816
S214402290FA7811461846054B9847034618460837BD
S2144022A0BD4680BD507B4000412D4000DD4440008F
S2144022B080B582B000AF78600B46FB707B68002B21
S2144022C014BF01230023DBB2662207491846074B9A
S2144022D098477B68FA7811461846054B9847034658
S2144022E018460837BD4680BD507B4000412D400013
S2144022F08945400090B587B000AFF860B960134696
S214402300FB80FB68002B14BF01230023DBB2802236
S21440231008491846084B9847FB681C3B7B61786920
S214402320FB88BA680021054CA047034618461C3770
S214402330BD4690BD507B4000412D4000CD464000FC
S21440234090B587B000AFF860B9601346FB80FB6875
S214402350002B14BF01230023DBB2982208491846FD
S214402360084B9847FB681C3B7B617869FB880022DA
S214402370B968054CA047034618461C37BD4690BD75
S214402380507B4000412D4000CD46400090B585B082
S21440239000AFF860B9607A607B80FB68002B14BFA2
S2144023A001230023DBB2A22207491846074B984771
S2144023B0F8687B887A68B968054CA0470346184693
S2144023C01437BD4690BD00BF507B4000412D4000B5
S2144023D0CD46400080B584B000AFF8600B467A60CA
S2144023E0FB72FB68002B14BF01230023DBB2AA223A
S2144023F006491846064B9847FB68F97A7A681846A5
S214402400044B984700BF1037BD4680BD507B400008
S214402410412D4000E945400080B586B000AFF860E9
S214402420B9607A607B80FB68002B0AD0BB68002BC3
S21440243007D07B68002B04D07B88002B01D001237B
S21440244000E0002303F00103DBB23A2219491846A4
S214402450194B9847FB6834337A8879681846174B87
S21440246098470346002B02D06FF00C031EE0FB6833
S2144024700833B9681846124B984778617B69002B39
S21440248001D07B6912E0FB680E4A5A60FB680E4A30
S2144024901A60FB680D4A9A60FB680D4ADA60FB6872
S2144024A00C4A1A61FB680C4A5A61002318461837D2
S2144024B0BD4680BD6C7B4000412D4000692D4000EC
S2144024C0FD5040006D254000DD2440001D264000A4
S2144024D0B526400089264000F126400080B586B0EB
S2144024E000AFF860B9601346FB80FB687B617B6990
S2144024F0002B07D0BB68002B04D0FB88002B01D0F4
S214402500012300E0002303F00103DBB240F23B125C
S21440251013491846134B98477B69B3F844207B69A8
S214402520B3F84C309A4202D06FF01B0313E07B693D
S214402530BA689A647B69FA88A3F84C207B690022C3
S214402540A3F844207B6901221A637B690833184646
S214402550054B9847FB8818461837BD4680BD00BFD8
S2144025606C7B4000412D40002D53400080B588B024
S21440257000AFF860B9601346FB800023FB83FB681E
S214402580BB61BB69002B07D0BB68002B04D0FB881F
S214402590002B01D0012300E0002303F00103DBB24F
S2144025A04FF4AC7217491846174B984707F110037B
S2144025B01846164B9847BB6934331846144B984711
S2144025C0786107F110031846124B98470CE0BB6938
S2144025D003F13402FB8B591CF9831946BB680B4444
S2144025E0194610460C4B9847FA8B7B699A4203D2A1
S2144025F0FA8BFB889A42EAD3FB8B18462037BD46B7
S21440260080BD00BF6C7B4000412D4000191D40003E
S214402610C12E40003F1D4000DD2D400090B585B0E6
S21440262000AF78607B68083BFB60FB68B3F84420EB
S214402630FB68B3F84C309A4217D0FB6803F10800A9
S214402640FB689A6CFB68B3F84430591C8CB2F96846
S214402650A1F8444013441B781946084B9847FB683A
S21440266008331846064B984704E0FB68083318467C
S214402670044B984700BF1437BD4690BDE15140001B
S2144026802D5340006D53400080B584B000AF786055
S2144026907B68083BFB60FB6800221A63FB685B6A4A
S2144026A0002B03D0FB685B6AF868984700BF10377A
S2144026B0BD4680BD80B584B000AF78600B46FB70E9
S2144026C07B68083BFB60FB683433FA781146184653
S2144026D0064B9847FB689B6A002B03D0FB689B6AB7
S2144026E0F868984700BF1037BD4680BD4D2E400065
S2144026F080B584B000AF78607B68083BFB60FB68C1
S21440270000221A63FB68DB6A002B03D0FB68DB6A97
S214402710F868984700BF1037BD4680BD80B586B084
S21440272000AFF860B9607A60FB68002B04D0BB68E5
S214402730002B01D0012300E0002303F00103DBB2AD
S21440274034220D4918460D4B9847FB680833B96844
S21440275018460B4B984778617B69002B01D07B6904
S21440276006E0FB68074A5A60FB68074A1A6000237F
S21440277018461837BD4680BD8C7B4000412D400032
S214402780A5504000552840008D27400080B586B0B3
S21440279000AFF860B9601346FB8000237B61FB689E
S2144027A03B61FB68002B07D0BB68002B04D0FB883E
S2144027B0002B01D0012300E0002303F00103DBB22D
S2144027C0F1221F4918461F4B984700BF3B69083304
S2144027D018461D4B9847034683F00103DBB2002B97
S2144027E0F4D13B6903F10800BA687B6913441B784F
S2144027F01946164B984700BF3B6908331846124B9C
S2144028009847034683F00103DBB2002BF4D17B6983
S21440281001337B61FB887A699A42E2D300BF3B6909
S214402820083318460A4B9847034683F00103DBB249
S214402830002BF4D17B6918461837BD4680BD00BFD3
S2144028408C7B4000412D40006D5240009951400025
S214402850AD52400090B587B000AFF860B9601346FF
S214402860FB8000237B61FB683B61FB68002B07D045
S214402870BB68002B04D0FB88002B01D0012300E06E
S214402880002303F00103DBB24FF486721249184668
S214402890124B984700BF3B6908331846104B984781
S2144028A0034683F00103DBB2002BF4D1BA687B69A0
S2144028B0D4183B69083318460A4B9847034623709A
S2144028C07B6901337B61FB887A699A42E2D37B69F4
S2144028D018461C37BD4690BD8C7B4000412D4000BD
S2144028E0ED5240002952400080B485B000AF034608
S2144028F0FB710023FB7329E097F90F30194A5B01FF
S214402900134401331B78FA799A4202D197F90F3073
S21440291022E097F90F30134A5B0113441B78002BD3
S2144029200ED1FB7903F00F0397F90F200D495201A2
S2144029300A4401321278934202D197F90F300BE0E5
S21440294097F90F30DBB20133DBB2FB7397F90F30E8
S214402950032BD1DD4FF0FF3318461437BD465DF8E4
S214402960047B70474011402080B588B000AFBA6005
S2144029707B600346FB730B46BB73BB687B617B681F
S214402980BB61BB7B002B04D0FB7B63F07F03DBB2D9
S21440299003E0FB7B03F00F03DBB23B7797F828306E
S2144029A07B7707F114031846034B984703461846AF
S2144029B02037BD4680BD00BF7D6E400080B485B0E8
S2144029C000AFF860B9607A60002318461437BD46F9
S2144029D05DF8047B7047000080B586B000AF0346C4
S2144029E0FB71FB7918462A4B98470346FB7597F9C7
S2144029F017305B01274A13443B613B690C33FB604D
S214402A00FB79F9681846244B98470346FB72FB7AD5
S214402A10082B0DD0FB7901211846204B9847FB79AF
S214402A2063F07F03DBB2012118461C4B98472BE02E
S214402A30FB7900211846194B9847FB7963F07F03D2
S214402A40DBB200211846154B98473B6901229A7025
S214402A503B695B69FA79F96810469847034683F004
S214402A600103DBB2002B0FD03B6905229A70FB793D
S214402A7001211846094B9847FB7963F07F03DBB288
S214402A8001211846054B98471837BD4680BD00BF04
S214402A90E928400040114020D96D4000AD6C400010
S214402AA080B584B000AF03463960FB71FB791846A9
S214402AB00D4B98470346FB7397F90F305B010B4A63
S214402AC01344BB60BB689B78032B07D1BB689B69EC
S214402AD0FA79396810469847034600E000231846BE
S214402AE01037BD4680BD00BFE92840004011402059
S214402AF090B587B002AF78607B689B78FB737B6845
S214402B001B7B03F08003002B14BF01230023BB7301
S214402B10FB7B032B3AD17B68DB697A6850787A680E
S214402B200C320121984703467B737B7B002B15D0E4
S214402B307B6805229A707B680222DA70BB7B002B8A
S214402B4002D07B685B7804E07B685B7863F07F0349
S214402B50DBB201211846154B984722E07B680422D9
S214402B609A707B685878BB7B002B14BF01230023E8
S214402B70DBB283F00103DBB203F00103D9B20123D9
S214402B800093002300220A4CA0470AE07B68DB69DA
S214402B907A6850787A680C32002198477B6802221F
S214402BA09A7000BF1437BD4690BD00BFAD6C400064
S214402BB06929400080B586B000AF0346B9607A60A8
S214402BC0FB73FB7B18462F4B98470346FB7597F9DC
S214402BD017305B012C4A13443B61BB68002B0ED177
S214402BE03B690022DA703B691B78002B03D13869B9
S214402BF0264B984743E03B6901229A7038E0BB6811
S214402C00012B13D13B690222DA703B691B78002BFB
S214402C1008D13B6902229A70FB7B002118461C4B68
S214402C20984725E03B6905229A7021E0BB68022B55
S214402C300ED13B690422DA703B691B78002B03D126
S214402C403B6902229A701AE03B6901229A700FE0B3
S214402C50BB68032B06D13B6900229A703B6905226C
S214402C60DA7005E03B6906229A703B690622DA7004
S214402C703B69DB693A69D1787A68F87B98471837B8
S214402C80BD4680BDE928400040114020F12A400062
S214402C90AD6C400080B582B000AF214B984738609D
S214402CA03B68002B01DA3B6836E0802200211D4855
S214402CB01D4B98470023FB711EE0FB79194A5B01C8
S214402CC013440133FF221A70FB79164A5B01134402
S214402CD01433164A1A60FB79124A5B0113441833C0
S214402CE0124A1A60FB790F4A5B0113441C330F4AA1
S214402CF01A60FB790133FB71FB79032BDDD90C4954
S214402D0000200C4B98470C4901200A4B98470B492A
S214402D100220084B9847002318460837BD4680BD1A
S214402D20D16A400040114020EB7A4000BD29400067
S214402D30D92940003D704000A12A4000B52B4000F4
S214402D4080B485B000AF0346B9607A60FB73FB7B06
S214402D5083F00103DBB2002B00D000BE00BF143767
S214402D60BD465DF8047B704780B584B000AFF86020
S214402D70B9607A60FB68002B07D0BB68002B04D094
S214402D807B68002B01D0012300E0002303F0010301
S214402D90DBB228220F4918460F4B98477B685A1ECD
S214402DA07B681340002B02D06FF00C030EE07B686C
S214402DB05A1EFB685A60FB6800229A60FB689A6855
S214402DC0FB68DA60FB68BA681A600023184610375A
S214402DD0BD4680BDA87B4000412D400080B582B0F6
S214402DE000AF786039607B68002B04D03B68002BCE
S214402DF001D0012300E0002303F00103DBB24022B0
S214402E0010491846104B98477B68DA687B689B6881
S214402E109A4211D07B681A687B6899687B685B68C1
S214402E200B4013441A783B681A707B689B685A1CA0
S214402E307B689A60002301E06FF009031846083764
S214402E40BD4680BDA87B4000412D400080B582B085
S214402E5000AF78600B46FB707B68002B14BF0123E5
S214402E600023DBB2512214491846144B98477B681E
S214402E701A687B68D9687B685B680B401344FA78AD
S214402E801A707B68DA687B689B68D21A7B685B68D6
S214402E909A4206D97B68DA687B685B68D21A7B6898
S214402EA09A607B68DB685A1C7B68DA6000231846A9
S214402EB00837BD4680BD00BFA87B4000412D40007E
S214402EC080B582B000AF78607B68002B14BF0123CA
S214402ED00023DBB2672206491846064B98477B68B4
S214402EE0DA687B689B68D31A18460837BD4680BDAB
S214402EF0A87B4000412D400080B483B000AF03461D
S214402F003960FB8013467B717B79053B042B52D896
S214402F1001A252F823F000BF972F4000792F4000BF
S214402F205D2F40003F2F40002D2F4000FB883A6821
S214402F302949A1FB0212920C02FB03F345E0FB88F1
S214402F403A6852092549A1FB0212D20902FB03F353
S214402F500933234AA2FB0323DB0836E0FB883A68A2
S214402F602049A1FB0212520B02FB03F363331E4AB5
S214402F70A2FB03235B0928E0FB883A681B49A1FBB8
S214402F800212920902FB03F303F2E733174AA2FB4D
S214402F9003239B0919E0FB883A681349A1FB0212F8
S214402FA0520902FB03F242F20F7313440D4AA2FB8E
S214402FB003235B0B09E0FB883A6802FB03F20C4BE9
S214402FC01344054AA2FB03239B0C18460C37BD4608
S214402FD05DF8047B704700BF83DE1B43C55A7C0AFE
S214402FE0CDCCCCCC5917B7D11F85EB51D34D621001
S214402FF03F420F0080B582B000AF0346FB80FB889F
S214403000092204491846044B984703461846083791
S214403010BD4680BD00A3E111F92E400080B483B0C8
S21440302000AF03463960FB8013467B717B79053BD6
S214403030042B4BD801A252F823F000BFB130400019
S2144030409F304000853040006B304000513040009B
S214403050FB883A682549A1FB0212920C02FB03F357
S2144030604FF47A7202FB03F33AE0FB883A6852095F
S2144030701F49A1FB0212D20902FB03F3642202FBA2
S21440308003F32DE0FB883A681A49A1FB0212520B63
S21440309002FB03F213469B0013445B0020E0FB88D0
S2144030A03A681549A1FB0212920902FB03F317E0A6
S2144030B0FB883A681149A1FB0212520902FB03F34E
S2144030C009330F4AA2FB0323DB0809E0FB883A6872
S2144030D002FB03F303F2E733074AA2FB03239B09F1
S2144030E018460C37BD465DF8047B704783DE1B43AD
S2144030F0C55A7C0A5917B7D1D34D62101F85EB517C
S214403100CDCCCCCC80B582B000AF0346FB80FB88EC
S214403110092204491846044B984703461846083780
S214403120BD4680BD00A3E1111D30400080B483B091
S21440313000AF786039600139FDD800BF0C37BD4616
S2144031405DF8047B704780B485B000AF7860396026
S2144031507B681B68FB60FB6823F47063FB603B681E
S2144031601B0203F47063FA681343FB607B68FA68DB
S2144031701A6000BF1437BD465DF8047B704780B4C4
S21440318083B000AF786039607B683A681A6100BFE8
S2144031900C37BD465DF8047B704780B485B000AF01
S2144031A0786039607B689B69FB60FA683B681340CF
S2144031B0FB60FB6818461437BD465DF8047B7047D5
S2144031C080B483B000AF786039607B683A68C3F8F3
S2144031D0002100BF0C37BD465DF8047B704780B4C5
S2144031E085B000AF786039607B68D3F80831FB6003
S2144031F0FA683B681340FB60FB6818461437BD46C8
S2144032005DF8047B704780B483B000AF7860396067
S2144032107B683A68C3F80C2100BF0C37BD465DF8A2
S214403220047B704780B483B000AF78607B68D3F887
S2144032300C3118460C37BD465DF8047B70470000DD
S21440324080B584B000AF78607B681F2B13D801220E
S2144032507B6802FA03F319461F48204B98470346FB
S214403260002B35D101227B6802FA03F319461A482F
S2144032701B4B98472CE07B683F2B16D87B68203B3F
S2144032807B6001227B6802FA03F319461248154B0D
S21440329098470346002B1BD101227B6802FA03F3B2
S2144032A019460D48104B984712E07B6803F07F03A1
S2144032B0194609480D4B984707480D4B9847F86004
S2144032C0FB6843F01023FB60F9680348074B9847B8
S2144032D000BF1037BD4680BD00060E409B31400003
S2144032E07F314000DF314000C131400007324000AE
S2144032F02532400080B582B000AF3B1D18460B4BD0
S21440330098470B4A0A4BD3F8883043F47003C2F808
S2144033108830BFF34F8FBFF36F8F3B1D1846054B6A
S214403320984700BF0837BD4680BD00BF191D400006
S21440333000ED00E03F1D400080B500AF074B9847CA
S21440334005210748074B98473A20074B9847074BB5
S2144033509847074B984700BF80BD00BFF5324000F6
S214403360000C0E404731400041324000BD744000E2
S214403370513F400080B483B000AF786039607B68CE
S2144033803A685A6100BF0C37BD465DF8047B70470B
S21440339080B483B000AF786039607B683A685A6022
S2144033A000BF0C37BD465DF8047B704780B483B0E1
S2144033B000AF786039607B683A689A6000BF0C3727
S2144033C0BD465DF8047B704780B483B000AF78603C
S2144033D039607B683A68C3F8E42000BF0C37BD46C6
S2144033E05DF8047B704780B483B000AF7860396086
S2144033F07B683A681A6000BF0C37BD465DF8047BB0
S2144034007047000080B582B000AF786039607B6856
S214403410002B14BF01230023DBB251220849184673
S214403420084B98477B683A681A607B681B68184662
S214403430054B9847034618460837BD4680BD00BF33
S214403440CC7B4000412D40004D34400080B582B0DA
S21440345000AF78607B68002B14BF01230023DBB2EB
S214403460F52210491846104B9847012178680F4BB3
S2144034709847032178680E4B984778680D4B9847D5
S2144034800D4B1B68194678680C4B98470A4B5B688F
S214403490194678680A4B9847002318460837BD46B1
S2144034A080BD00BFCC7B4000412D4000E73340004C
S2144034B075334000C5344000000040209133400042
S2144034C0AD33400080B582B000AF78607B68002B9B
S2144034D014BF01230023DBB24FF4A77205491846F8
S2144034E0054B984705497868054B984700BF08370D
S2144034F0BD4680BDCC7B4000412D4000004341444A
S214403500C933400080B483B000AF0346FB7197F9DF
S2144035100730002B0BDB094997F907305B09FA792E
S21440352002F01F02012000FA02F241F8232000BFF9
S2144035300C37BD465DF8047B704700BF00E100E0F5
S21440354080B483B000AF0346FB7197F90730002B79
S21440355010DB0B4997F907305B09FA7902F01F0236
S214403560012000FA02F2203341F82320BFF34F8FA8
S214403570BFF36F8F00BF0C37BD465DF8047B7047C6
S21440358000E100E080B483B000AF0346FB7197F9DA
S2144035900730002B0CDB094997F907305B09FA79AD
S2144035A002F01F02012000FA02F2603341F82320A5
S2144035B000BF0C37BD465DF8047B704700E100E075
S2144035C080B483B000AF78607B68DB6C18460C37FD
S2144035D0BD465DF8047B704780B483B000AF78602A
S2144035E039607B683A681A6400BF0C37BD465DF8A0
S2144035F0047B704780B483B000AF78607B689B6C78
S21440360018460C37BD465DF8047B704780B483B0DF
S21440361000AF786039607B683A685A6400BF0C3700
S214403620BD465DF8047B704780B483B000AF7860D9
S21440363039607B683A68C3F8B02000BF0C37BD4697
S2144036405DF8047B704780B483B000AF7860396023
S2144036507B683A68C3F8C42000BF0C37BD465DF8A7
S214403660047B704780B483B000AF786039607B6875
S2144036703A68C3F8C02000BF0C37BD465DF8047BEF
S214403680704780B483B000AF786039607B683A6832
S214403690C3F8D42000BF0C37BD465DF8047B7047A6
S2144036A080B483B000AF786039607B683A68C3F80E
S2144036B0D02000BF0C37BD465DF8047B704780B411
S2144036C087B000AF78600B46FB7000237B611EE03E
S2144036D00123FB6000233B6113E07B699B007A6813
S2144036E013441A68FB681340002B04D07B695A01C8
S2144036F03B69134411E0FB685B00FB603B690133A8
S2144037003B613B691F2BE8D97B6901337B61FA78C3
S2144037107B699A42DCD84FF0FF3318461C37BD46CB
S2144037205DF8047B7047000080B582B000AF03466A
S214403730FB71FB799F2B94BF01230023DBB2C3228E
S21440374007491846074B9847FB795B09DBB25B0293
S2144037501A46054B134418460837BD4680BD00BF81
S214403760247C4000412D4000000E0E4080B582B0C3
S21440377000AF78607B68002B14BF01230023DBB2C8
S214403780D22206491846064B98477A68054B13449A
S2144037905B0ADBB218460837BD4680BD247C400035
S2144037A0412D400000F2F1BF80B584B000AF786094
S2144037B07B68002B14BF01230023DBB2E0221349B1
S2144037C01846134B98477868124B98470346BB7386
S2144037D00023FB7310E0FA7B0F491346DB009B1A6D
S2144037E09B000B441B78BA7B9A4202D197F90F3064
S2144037F007E0FB7B0133FB73FB7B012BEBD94FF0E0
S214403800FF3318461037BD4680BD00BF247C4000BD
S214403810412D40006D374000EC7B400080B588B0BD
S21440382000AF0023FB613B1D00221A605A609A607D
S214403830DA601A61464B1B68002B14BF0123002335
S214403840DBB2F82243491846434B98474348444B1B
S21440385098470346BB604148424B98470246BB6880
S2144038601340BB60BB68FA691343FB613E483C4B60
S214403870984703463B613C483A4B984702463B696B
S21440388013403B613B69FA691343FB6158E03B1DBB
S21440389005211846354B98470346FB7629E02C4BC6
S2144038A01B6897F91B201046984797F91B305B1109
S2144038B05BB2184697F91B305B115BB29B0007F171
S2144038C02002134453F81C3CFA7E02F01F020121EA
S2144038D001FA02F2D2431A40830007F120010B445A
S2144038E043F81C2C3B1D05211846204B98470346A1
S2144038F0FB7697F91B30B3F1FF3FD0D10023FB6135
S2144039001648174B98470346BB601448154B9847D4
S2144039100246BB681340BB60BB68FA691343FB6151
S21440392011480F4B984703463B610F480D4B98474D
S21440393002463B6913403B613B69FA691343FB61AE
S214403940FB69002BA3D100BF2037BD4680BD00BF1A
S214403950C0114020247C4000412D400000100E4005
S214403960C1354000F535400000140E40BF364000DB
S21440397080B500AF014B984700BF80BD1D38400062
S21440398080B500AF014B984700BF80BD1D38400052
S21440399080B584B000AF78607B68002B14BF0123ED
S2144039A00023DBB240F2591238491846384B984744
S2144039B07868384B98470346FB7397F90F30002BCF
S2144039C002DA6FF010035DE097F90F203249134694
S2144039D0DB009B1A9B000B4408331B68194678682B
S2144039E02E4B984797F90F202B491346DB009B1A1E
S2144039F09B000B440C331B6819467868284B984745
S214403A0097F90F2024491346DB009B1A9B000B4472
S214403A1010331B6819467868224B984797F90F2051
S214403A201D491346DB009B1A9B000B4418331B684A
S214403A30194678681C4B984797F90F201649134645
S214403A40DB009B1A9B000B4414331B6819467868AE
S214403A50164B98477868164B984703461A46154BB8
S214403A609B5CFB7397F90F301846134B984797F9B2
S214403A700F301846114B984797F90F301846104BA1
S214403A809847002318461037BD4680BD247C40002A
S214403A90412D4000A9374000EC7B400029364000CD
S214403AA06536400047364000A13640008336400029
S214403AB06D374000E47B400041354000853540008E
S214403AC00535400080B582B000AF78600648074BA9
S214403AD098470748054B9847064A7B68136000237B
S214403AE018460837BD4680BD00100E40913940004C
S214403AF000140E40C011402080B584B000AF7860FE
S214403B000B46FB70194BFB600023BB607B689F2B0A
S214403B1094BF01230023DBB24FF4D37214491846F6
S214403B20144B98477B68DBB21846134B9847F860AF
S214403B307B6803F01F03BB60FB78002B08D0012294
S214403B40BB6802FA03F31946F8680C4B984707E03F
S214403B500122BB6802FA03F31946F868084B9847F7
S214403B60002318461037BD4680BD00BF000E0E40ED
S214403B70247C4000412D400029374000D935400084
S214403B800D36400080B483B000AF78607B689B6E93
S214403B9003F00103002B14BF01230023DBB21846B9
S214403BA00C37BD465DF8047B704780B483B000AFE9
S214403BB078607B689B6E03F00203002B14BF0123E2
S214403BC00023DBB218460C37BD465DF8047B7047D1
S214403BD080B483B000AF78607B689B6E03F00803C8
S214403BE0002B14BF01230023DBB218460C37BD461A
S214403BF05DF8047B704780B483B000AF78607B6824
S214403C009B6E03F04003002B14BF01230023DBB25E
S214403C1018460C37BD465DF8047B704780B483B0C9
S214403C2000AF786039607B683A68DA6100BF0C376D
S214403C30BD465DF8047B704780B483B000AF7860C3
S214403C4039607B681A6A3B681A437B681A6200BF11
S214403C500C37BD465DF8047B704780B483B000AF38
S214403C60786039607B683A681A6200BF0C37BD4698
S214403C705DF8047B704780B483B000AF78607B68A3
S214403C801B6A18460C37BD465DF8047B704700003B
S214403C9080B485B000AF786039607B689B6AFB6013
S214403CA0FA68094B1340FB603B681A04074B134005
S214403CB0FA681343FB607B68FA689A6200BF143761
S214403CC0BD465DF8047B7047FFFF00F80000FF0725
S214403CD080B483B000AF786039607B683A689A6297
S214403CE000BF0C37BD465DF8047B704780B485B096
S214403CF000AF78600B46FB707B681B6BFB60FB6815
S214403D0023F40053FB60FB785B031A46FB681343BF
S214403D10FB607B68FA681A6300BF1437BD465DF8DF
S214403D20047B704780B485B000AF786039607B68AC
S214403D301B6BFB60FB6823F00303FB603B6803F0F0
S214403D400303FA681343FB607B68FA681A6300BF94
S214403D501437BD465DF8047B704780B485B000AF2D
S214403D60786039607B681B6BFB60FB6823F07003F0
S214403D70FB603B681B0103F07003FA681343FB606B
S214403D807B68FA681A6300BF1437BD465DF8047B4B
S214403D90704780B485B000AF786039607B681B6B35
S214403DA0FB60FB6823F44073FB603B681B0203F434
S214403DB04073FA681343FB607B68FA681A6300BF77
S214403DC01437BD465DF8047B7047000080B582B06E
S214403DD000AF00237B602648264B9847034623F0D7
S214403DE002037B607A68244B13437B6079682048E3
S214403DF0224B984700BF1E48214B9847034683F006
S214403E000103DBB2002BF6D11E4919481E4B9847DA
S214403E101E4B7B60002116481D4B98477B6843F03D
S214403E200053194612481B4B984700BF10481A4B80
S214403E309847034683F00103DBB2002BF6D14FF4DC
S214403E4070037B607B6843F4803319460848134B05
S214403E50984700BF0648124B9847034683F0010335
S214403E60DBB2002BF6D100BF0837BD4680BD00BF91
S214403E7000060E40773C4000013E37005B3C400069
S214403E80853B400000003701393C4000013F1800A8
S214403E90913C4000D13C4000AB3B40001D3C4000C4
S214403EA0F73B400080B500AF01211C481C4B9847AB
S214403EB000BF1A481B4B9847034683F00103DBB20A
S214403EC0002BF6D100211548174B984700BF1348E2
S214403ED0144B9847034683F00103DBB2002BF6D120
S214403EE001210E48114B984700BF0C480D4B984790
S214403EF0034683F00103DBB2002BF6D102210748CC
S214403F000B4B984700BF0548064B9847034683F03F
S214403F100103DBB2002BF6D100BF80BD00060E4089
S214403F20ED3C4000D13B40005B3D4000933D4000AF
S214403F30253D400080B400AF00BFBD465DF8047B21
S214403F40704780B400AF00BFBD465DF8047B704745
S214403F5080B500AF044B9847044B9847044B9847AE
S214403F60044B984700BF80BDCD3D4000A53E400075
S214403F70353F4000433F400080B483B000AF034627
S214403F80FB7197F90730002B0BDB094997F907308F
S214403F905B09FA7902F01F02012000FA02F241F8AA
S214403FA0232000BF0C37BD465DF8047B704700BF3A
S214403FB000E100E080B483B000AF78607B681B69A6
S214403FC003F48033002B14BF01230023DBB21846D2
S214403FD00C37BD465DF8047B704780B483B000AFB5
S214403FE0786039607B683A685A6000BF0C37BD46D7
S214403FF05DF8047B704780B487B000AFF8600B462E
S2144040007A60FB72FA7AFB680C3253F822307B6196
S2144040107B6923F0F0037B617B681B01DBB27A6926
S21440402013437B61FA7AFB680C32796943F82210B5
S21440403000BF1C37BD465DF8047B704780B487B030
S21440404000AFF8600B467A60FB72FA7AFB680C3277
S21440405053F822307B617B6923F47F437B617B6826
S2144040601B029BB27A6913437B61FA7AFB680C3277
S214404070796943F8221000BF1C37BD465DF8047BC3
S214404080704780B485B000AFF8600B467A60FB722C
S214404090FA7AFB680C32796843F8221000BF14376E
S2144040A0BD465DF8047B704780B483B000AF78604F
S2144040B00B46FB70FA787B680C3253F82230184671
S2144040C00C37BD465DF8047B704780B483B000AFC4
S2144040D0786039607B683A681A6000BF0C37BD4626
S2144040E05DF8047B7047000080B483B000AF786012
S2144040F07B68064A934201D1152300E02A231846DE
S2144041000C37BD465DF8047B704700BF008000401A
S21440411080B582B000AF786001217868034B98473D
S214404120002318460837BD4680BD00BFCB40400040
S21440413080B582B000AF78607868074B984778685B
S214404140064B984703461846054B984700231846A3
S2144041500837BD4680BD00BF11414000E9404000E1
S214404160793F400080B584B000AF78600B46FB7066
S21440417000217868114B9847F860FB6823F00303EA
S214404180FB60FB7803F00103002B0CBF01230023E8
S214404190DBB21A46FB681343FB60FB7803F002036E
S2144041A0FA681343FB60FA6800217868044B984726
S2144041B0002318461037BD4680BD00BFA9404000CA
S2144041C08340400080B582B000AF786039603B687D
S2144041D0DBB21A4600217868034B984700231846FE
S2144041E00837BD4680BD00BF3D40400080B485B026
S2144041F000AF78607A68084B13441B0CFB73FB7B5C
S214404200052B01D1012300E0002318461437BD4694
S2144042105DF8047B704700BF0080FFBF80B582B06A
S21440422000AF78607868064B98470346002B01D16C
S214404230022300E0002318460837BD4680BD00BF75
S214404240ED41400080B582B000AF78607868064B9C
S21440425098470346002B01D1032300E0012318466C
S2144042600837BD4680BD00BFED41400080B584B0F4
S21440427000AF78607B681846124B98470346BB737E
S2144042800023FB7315E0FA7B0F4913469B0013444B
S2144042909B000B441B78BA7B9A4207D1FA7B1346A5
S2144042A09B0013449B00084A134406E0FB7B013303
S2144042B0FB73FB7B012BE6D9002318461037BD461F
S2144042C080BD00BFED414000407C400080B584B0DA
S2144042D000AF78607B689B68FB60FB689B68002B40
S2144042E003D0FB689B687868984700BF1037BD4688
S2144042F080BD80B584B000AF78607B689B68FB600B
S214404300FB685B68002B03D0FB685B68786898475F
S21440431000BF1037BD4680BD80B584B000AF786022
S2144043207B689B68FB60FB68DB68002B03D0FB6800
S214404330DB687868984700BF1037BD4680BD80B4BC
S21440434083B000AF78607B68083318460C37BD46AC
S2144043505DF8047B704780B483B000AF78607B68BC
S2144043600C3318460C37BD465DF8047B704700009A
S21440437090B585B000AF786039607B68FB603B687D
S2144043801846344B9847B8603868334B98470346CE
S214404390002B02D06FF0100357E0FB683A681A60B3
S2144043A0802138682D4B9847BB685A682C4B134081
S2144043B019463868294B9847BB689A68294B13407A
S2144043C0294A1A4311463868284B9847BB68DB6829
S2144043D01A4600213868264B9847FB680022DA6068
S2144043E0FB6800229A60FB6800225A607B6803F1F3
S2144043F0180438681F4B98470346194620461E4BFC
S21440440098477B689B697A689A607B689B691B4A79
S2144044101A607B689B691A4A5A607B6803F11804E5
S2144044203868184B9847034619462046124B98471B
S2144044307B689B697A689A607B689B69124A1A60B7
S2144044407B689B690E4A5A60002318461437BD465F
S21440445090BD00BF6D424000B53F4000CB4040009D
S2144044607CFFFFFE6FFFF1FF10000E00DB3F4000B9
S2144044708340400045424000ED764000CD4240003B
S214404480194340001D424000F342400080B582B0D0
S21440449000AF78607B68002B05D07B681B68002BDC
S2144044A001D0012300E0002303F00103DBB24FF408
S2144044B0FC7207491846074B98477B681B681846A6
S2144044C0054B9847034618460837BD4680BD00BF93
S2144044D0687C4000412D40003141400080B582B0AC
S2144044E000AF78600B46FB707B68002B05D07B687E
S2144044F01B68002B01D0012300E0002303F00103DA
S214404500DBB24FF4087208491846084B98477B6858
S2144045101B68FA7811461846054B984703461846D6
S2144045200837BD4680BD00BF687C4000412D400036
S2144045306541400080B582B000AF786039607B68E6
S214404540002B05D07B681B68002B01D0012300E0C0
S214404550002303F00103DBB240F247220749184626
S214404560074B98477B681B6839681846054B984741
S214404570034618460837BD4680BD00BF687C4000ED
S214404580412D4000C541400080B582B000AF786004
S2144045900B46FB707B68002B05D07B681B68002BA6
S2144045A001D0012300E0002303F00103DBB240F218
S2144045B072220A4918460A4B98477B681B68FA7865
S2144045C000211846074B9847FB78002B01D1012362
S2144045D000E0022318460837BD4680BD687C400090
S2144045E0412D4000F73F400080B584B000AFF860F2
S2144045F00B467A60FB72FB7A032B5CD801A252F81A
S21440460023F000BF154640003F4640006946400044
S214404610B5464000FB687A685A60FB681B681846D7
S214404620274B9847034618467B68002B14BF012348
S2144046300023DBB21A460021224B98473BE0FB683A
S2144046407A689A60FB681B6818461F4B9847034673
S21440465018467B68002B14BF01230023DBB21A46A2
S2144046600021184B984726E0FB687A68DA60FB68BA
S2144046701B681846144B9847034618467B68002B21
S21440468014BF01230023DBB21A4601210D4B984785
S214404690FB681B6818460A4B9847034618467B68D3
S2144046A0002B14BF01230023DBB21A460121054B21
S2144046B0984700E000BF00BF1037BD4680BD00BF32
S2144046C01D4240001D7740004542400080B586B000
S2144046D000AFF860B9607A607B80FB681B6818465C
S2144046E0394B98477861FB681B681846374B9847A4
S2144046F00346FB74FB681B681846354B98470346D1
S214404700BB747B68002B1BD0FB681B681846314B7C
S214404710984703461A46FB7C114618462E4B984748
S214404720FB7C796818462D4B98477A88FB7C114667
S21440473018462B4B9847FB7C00211846294B984738
S214404740BB68002B17D0BB7CB9681846224B9847ED
S214404750FB681B681846244B984703461A46BB7CA2
S214404760114618461D4B98477A88BB7C114618461A
S2144047701B4B98471EE07B6903F11002BB7C114639
S2144047801846154B9847FB681B681846164B9847C3
S21440479003461A46BB7C11461846104B9847BB7CCE
S2144047A000211846114B98477A88BB7C114618461C
S2144047B00B4B9847BB7C002118460A4B9847002372
S2144047C018461837BD4680BD6D4240004542400001
S2144047D01D4240003F434000C17540009575400073
S2144047E05D764000A176400057434000ED7540009E
S2144047F080B483B000AF78607B681B6A03F0010327
S214404800002B14BF01230023DBB218460C37BD46ED
S2144048105DF8047B704780B483B000AF78607B68F7
S2144048201B6A03F00203002B14BF01230023DBB2F4
S21440483018460C37BD465DF8047B704780B483B09D
S21440484000AF78607B681B6A18460C37BD465DF83B
S214404850047B704780B483B000AF78607B681B6B86
S21440486018460C37BD465DF8047B704780B483B06D
S21440487000AF786039607B683A685A6000BF0C3792
S214404880BD465DF8047B704780B483B000AF786067
S21440489039607B683A68DA6000BF0C37BD465DF821
S2144048A0047B704780B483B000AF786039607B6823
S2144048B03A681A6100BF0C37BD465DF8047B704706
S2144048C080B483B000AF786039607B683A689A639A
S2144048D000BF0C37BD465DF8047B704780B483B09C
S2144048E000AF786039607B683A685A6400BF0C371E
S2144048F0BD465DF8047B704780B483B000AF7860F7
S21440490039607B683A681A6000BF0C37BD465DF870
S214404910047B704780B483B000AF786039607B68B2
S2144049203A685A6300BF0C37BD465DF8047B704753
S21440493080B485B000AF78600023FB7315E0FA7B47
S2144049400F4913465B001344DB000B441A687B6830
S2144049509A4207D1FA7B13465B001344DB00084AB1
S214404960134406E0FB7B0133FB73FB7B012BE6D94C
S214404970002318461437BD465DF8047B704700BFD9
S214404980807C400080B584B000AF786039607B683A
S214404990002B04D03B68002B01D0012300E000230D
S2144049A003F00103DBB27E2218491846184B98479D
S2144049B07B683A681A617B681B691846154B9847AE
S2144049C0F8607B681A69FB685B6819461046124BAC
S2144049D098477B681A69FB689B68194610460F4BD8
S2144049E098477B681A69FB68DB68194610460C4B8B
S2144049F098477B681A69FB681B6919461046094B3D
S214404A009847002318461037BD4680BDB07C40000E
S214404A10412D400031494000F9484000C14840001F
S214404A20DD484000A548400080B582B000AF7860C1
S214404A3039607B68002B04D03B68002B01D00123F3
S214404A4000E0002303F00103DBB2C0221149184600
S214404A50114B98477B685B889BB203F48073002BAE
S214404A6002D06FF0050311E03B685B889BB203F011
S214404A700103002B05D039687868084B98470346F1
S214404A8004E039687868064B984703461846083766
S214404A90BD4680BDB07C4000412D4000D54B400017
S214404AA0A54A400080B586B000AF786039600023E4
S214404AB03B613B685B889BB243F480739AB23B6829
S214404AC05A803B681B8803F48063002B1BD07B68AE
S214404AD01A693B681B881B0A9BB243F078039BB25B
S214404AE01B0403F4FE0343F4807319461046334B0D
S214404AF098477B681A693B681B88DBB219461046A4
S214404B002F4B98470AE07B681A693B681B881B0452
S214404B1003F4FE0319461046284B984700237B6152
S214404B2020E07B681B691846264B9847F860FB6870
S214404B3003F48073002B03D06FF001033B6104E065
S214404B40FB6803F00403002BEBD07B6818693B68D6
S214404B509A687B6913441B7819461B4B98477B69B8
S214404B6001337B613B685B681A467B699A42D8D8BA
S214404B703B685B889BB21BB2002B11DA7B681B69D3
S214404B8002211846114B984700BF7B681B691846A0
S214404B900F4B9847034683F00103DBB2002BF4D15A
S214404BA07B685B889BB223F480739AB27B685A809A
S214404BB03B6918461837BD4680BD00BF6D4840006B
S214404BC0894840003D48400015494000F9484000AB
S214404BD0F147400090B585B000AF786039603B68DB
S214404BE05B889BB243F480739AB23B685A803B68BA
S214404BF01B8803F48063002B1BD07B681A693B68D4
S214404C001B881B0A9BB243F078039BB21B0403F439
S214404C10FE0343F4885319461046384B98477B6842
S214404C201A693B681B88DBB219461046344B9847D6
S214404C300CE07B681A693B681B881B0403F4FE0380
S214404C4043F48053194610462C4B98477B681A69A4
S214404C503B685B68012B01D1032300E00123194622
S214404C601046284B98470023FB6027E000BF7B6830
S214404C701B691846244B9847034683F00103DBB272
S214404C80002BF4D13B689A68FB68D4187B681B6994
S214404C9018461E4B98470346DBB223703B685B685A
S214404CA0023B1A46FB689A4205D17B681B69022183
S214404CB01846144B9847FB680133FB603B685B68BB
S214404CC01A46FB689A42D1D800BF7B681B691846D3
S214404CD00F4B9847034683F00103DBB2002BF4D119
S214404CE07B685B889BB223F480739AB27B685A8059
S214404CF0002318461437BD4690BD00BF6D4840009F
S214404D0089484000F9484000174840005548400050
S214404D10F147400080B483B000AF0346FB7197F97B
S214404D200730002B0BDB094997F907305B09FA7906
S214404D3002F01F02012000FA02F241F8232000BFD1
S214404D400C37BD465DF8047B704700BF00E100E0CD
S214404D5080B483B000AF0346FB7197F90730002B51
S214404D6010DB0B4997F907305B09FA7902F01F020E
S214404D70012000FA02F2203341F82320BFF34F8F80
S214404D80BFF36F8F00BF0C37BD465DF8047B70479E
S214404D9000E100E080B483B000AF0346FB7197F9B2
S214404DA00730002B0CDB094997F907305B09FA7985
S214404DB002F01F02012000FA02F2603341F823207D
S214404DC000BF0C37BD465DF8047B704700E100E04D
S214404DD080B483B000AF78607B681B6903F0010342
S214404DE0002B14BF01230023DBB218460C37BD4608
S214404DF05DF8047B704780B483B000AF78607B6812
S214404E0002229A6000BF0C37BD465DF8047B7047AF
S214404E1080B483B000AF78607B681B695B0803F0A2
S214404E200103002B14BF01230023DBB218460C37C6
S214404E30BD465DF8047B704780B483B000AF7860B1
S214404E407B680222DA6000BF0C37BD465DF8047B03
S214404E50704780B483B000AF78607B684FF40072D0
S214404E609A6000BF0C37BD465DF8047B704780B43F
S214404E7083B000AF78607B681B695B0A03F0010370
S214404E80002B14BF01230023DBB218460C37BD4667
S214404E905DF8047B704780B483B000AF78607B6871
S214404EA04FF40072DA6000BF0C37BD465DF8047BF5
S214404EB0704780B483B000AF78607B685B6903F06E
S214404EC00103002B14BF01230023DBB218460C3726
S214404ED0BD465DF8047B704780B483B000AF786011
S214404EE07B685B6903F00203002B14BF0123002399
S214404EF0DBB218460C37BD465DF8047B704780B47D
S214404F0083B000AF78607B685B6903F40073002B66
S214404F1014BF01230023DBB218460C37BD465DF8AC
S214404F20047B704780B483B000AF78607B685B6971
S214404F3018460C37BD465DF8047B704780B483B096
S214404F4000AF78607B689B69DBB218460C37BD467D
S214404F505DF8047B704780B483B000AF78607B68B0
S214404F609B6918460C37BD465DF8047B704780B495
S214404F7083B000AF786039607B683A685A6000BF9B
S214404F800C37BD465DF8047B704780B483B000AFF5
S214404F90786039607B683A681A6200BF0C37BD4655
S214404FA05DF8047B704780B483B000AF78603960AA
S214404FB07B683A68C3F8E42000BF0C37BD465DF80E
S214404FC0047B704780B483B000AF786039607B68FC
S214404FD03A681A6000BF0C37BD465DF8047B7047E0
S214404FE080B483B000AF786039607B683A68DA6135
S214404FF000BF0C37BD465DF8047B704780B584B073
S21440500000AF78607B68002B14BF01230023DBB21F
S214405010882216491846164B98477868154B984785
S2144050200346FB73FB7B042B16D801A252F823F0F1
S21440503045504000495040004D50400051504000BF
S2144050405550400007230DE008230BE02C2309E0D1
S2144050502D2307E02E2305E09A2204490020044B26
S2144050609847FF2318461037BD4680BDCC7C40008D
S214405070412D4000AD53400080B483B000AF78600F
S21440508039607B68054A934202D1054A3B68136003
S21440509000BF0C37BD465DF8047B7047001E0E40CF
S2144050A0C411402080B582B000AF786039607B681C
S2144050B0002B14BF01230023DBB2AE220C49184656
S2144050C00C4B98473B68002B14BF01230023DBB2F0
S2144050D0AF2207491846074B98477B683A681A60DC
S2144050E03868054B9847034618460837BD4680BD86
S2144050F0CC7C4000412D40001156400080B584B025
S21440510000AF786039607B68002B14BF0123002312
S214405110DBB2BD2218491846184B98473868184BDA
S2144051209847F860FB68002B01D0FB681FE07B685F
S2144051303A689A6179683868124B98473868124BD3
S214405140984703465BB21846104B984738680E4B54
S214405150984703465BB218460D4B984738680A4B4B
S214405160984703465BB218460A4B984700231846B2
S2144051701037BD4680BD00BFCC7C4000412D40006E
S2144051801156400079504000FD4F4000514D4000C0
S214405190954D4000154D400080B582B000AF786018
S2144051A00B46FB707B68002B14BF01230023DBB249
S2144051B040F2991207491846074B98477B681B6888
S2144051C0FA7811461846054B984700BF0837BD4643
S2144051D080BD00BFCC7C4000412D4000E14F4000E8
S2144051E080B582B000AF78600B46FB707B68002BC2
S2144051F014BF01230023DBB24FF4D172074918468F
S214405200074B98477B689B69FA7811461846054BCA
S214405210984700BF0837BD4680BD00BFCC7C4000E5
S214405220412D4000E14F400080B582B000AF78602D
S2144052307B68002B14BF01230023DBB240F2AB1285
S21440524007491846074B98477B681B681846064B25
S21440525098470346DBB218460837BD4680BD00BFB8
S214405260CC7C4000412D40003D4F400080B582B090
S21440527000AF78607B68002B14BF01230023DBB2AD
S2144052804FF4DA7206491846064B98477B681B6807
S2144052901846054B9847034618460837BD4680BD16
S2144052A0CC7C4000412D4000D94E400080B582B0B5
S2144052B000AF78607B68002B14BF01230023DBB26D
S2144052C040F2BD1206491846064B98477B681B6855
S2144052D01846054B9847034618460837BD4680BDD6
S2144052E0CC7C4000412D4000FF4E400080B582B04F
S2144052F000AF78607B68002B14BF01230023DBB22D
S21440530040F2CF1206491846064B98477B681B6802
S2144053101846054B9847034618460837BD4680BD95
S214405320CC7C4000412D4000B34E400080B582B05A
S21440533000AF78607B68002B14BF01230023DBB2EC
S21440534040F20A2206491846064B98477B689B69F6
S2144053501846054B984700BF0837BD4680BD00BF7E
S214405360CC7C4000412D4000F74D400080B582B0D7
S21440537000AF78607B68002B14BF01230023DBB2AC
S21440538040F2132206491846064B98477B689B69AD
S2144053901846054B984700BF0837BD4680BD00BF3E
S2144053A0CC7C4000412D4000534E400080B582B03A
S2144053B000AF78607B68002B14BF01230023DBB26C
S2144053C040F21D2213491846134B98477B68134AF0
S2144053D0934201D1002318E07B68114A934201D1E1
S2144053E0012312E07B680F4A934201D102230CE06E
S2144053F07B680D4A934201D1032306E07B680B4A43
S214405400934201D1042300E0FF2318460837BD46E7
S21440541080BD00BFCC7C4000412D400000080E40BF
S214405420000A0E40001A0E40001C0E40001E0E40A1
S21440543080B400AF00231846BD465DF8047B704735
S21440544080B400AF00231846BD465DF8047B704725
S21440545090B585B000AF78607B68002B14BF012301
S2144054600023DBB240F2812235491846354B984737
S2144054707B689B69FB60F868334B98470346002B74
S2144054800DD0F868314B98470346002B07D0F86894
S2144054902F4B98477B681B68786898474CE0F868BD
S2144054A02C4B98470346002B0DD0F8682A4B98475C
S2144054B00346002B07D0F868284B98477B689B68C4
S2144054C07868984738E0F868254B98470346002B9D
S2144054D021D0F868234B98470346002B1BD0F8682A
S2144054E0214B9847034603F0E003002B08D0F868AA
S2144054F01E4B98474FF48071F8681D4B98471BE049
S2144055007B685C68F8681B4B98470346DBB21946D5
S2144055107868A04710E0F868134B9847034603F0B6
S214405520E003002B08D04FF48071F868104B984782
S2144055307B68DB68786898471437BD4690BD00BFE7
S214405540CC7C4000412D4000D94E4000114E4000DA
S214405550394E4000FF4E40006F4E4000974E400090
S214405560B34E4000D14D4000254F4000574F4000BD
S214405570C54F40003D4F400080B500AF034B1B6811
S2144055801846034B984700BF80BD00BFC41140205B
S2144055905154400080B584B000AF78607B68002BE3
S2144055A014BF01230023DBB24FF42A721449184675
S2144055B0144B98477868144B98470346BB730023B0
S2144055C0FB730FE0FA7B114913465B0013449B00C4
S2144055D00B441B78BA7B9A4201D1FB7B0CE0FB7BE9
S2144055E00133FB73FB7B012BECD940F2B22204491A
S2144055F00020044B9847002318461037BD4680BD10
S214405600CC7C4000412D4000AD5340000800402077
S21440561080B584B000AF78607B68002B14BF012350
S2144056200023DBB240F2BF221A4918461A4B98476D
S21440563078681A4B98470346FB7319497868194BA4
S2144056409847AC217868184B98474FF48071786833
S214405650154B9847FA7B154913465B0013449B004D
S2144056600B4404331B6819467868114B9847FA7BFD
S2144056700E4913465B0013449B000B4408331B68DB
S214405680194678680B4B9847002318461037BD4696
S21440569080BD00BFCC7C4000412D40009555400069
S2144056A000524155A74F4000C54F400008004020DB
S2144056B06F4F40008B4F400080B483B000AF78609F
S2144056C00B46FB70FA787B684C3253F822309B08C6
S2144056D003F00103002B14BF01230023DBB218465E
S2144056E00C37BD465DF8047B704780B483B000AF8E
S2144056F078600B46FB70FA787B684C3253F8223061
S2144057009B0903F00103002B14BF01230023DBB2E7
S21440571018460C37BD465DF8047B704780B483B0AE
S21440572000AF78600B46FB70FA787B684C3253F8D3
S21440573022301B0C03F00103002B14BF012300236F
S214405740DBB218460C37BD465DF8047B704780B424
S21440575087B000AFF8600B467A60FB72FA7AFB6857
S2144057604C3253F822307B617A697B6813407B6108
S2144057707B6918461C37BD465DF8047B704780B48D
S21440578083B000AF78600B46FB70FA787B684C328B
S21440579053F8223018460C37BD465DF8047B7047F8
S2144057A080B485B000AFF8600B467A60FB72FA7A38
S2144057B0FB685832796843F8221000BF1437BD465C
S2144057C05DF8047B704780B483B000AF78607B6838
S2144057D001229A6100BF0C37BD465DF8047B7047D6
S2144057E080B483B000AF786039607B683A689A616D
S2144057F000BF0C37BD465DF8047B704780B483B06D
S21440580000AF78607B681B6918460C37BD465DF86C
S214405810047B704780B483B000AF786039607B68A3
S2144058203A685A6100BF0C37BD465DF8047B704746
S21440583080B483B000AF78607B685B6818460C37EE
S214405840BD465DF8047B704780B483B000AF786097
S2144058500B46FB70FA787B68703253F82230184655
S2144058600C37BD465DF8047B704780B483B000AF0C
S21440587078607B681B6843F080027B681A6000BFD4
S2144058800C37BD465DF8047B704780B483B000AFEC
S21440589078607B681B6823F080027B681A6000BFD4
S2144058A00C37BD465DF8047B704780B485B000AFCA
S2144058B0786039607B681B68FB60FB6823F07F0379
S2144058C0FB603B6803F07F03FA681343FB607B682A
