S00F00004242526164696F2E73726563A2
S214400000E01940202D034000B1034000B1034000FA
S214400010B1034000B1034000B103400000000000BF
S214400020000000000000000000000000B103400097
S214400030B103400000000000B1034000B10340009F
S214400040B1034000B1034000B1034000B10340009B
S214400050B1034000B1034000B1034000B10340008B
S214400060B103400000000000B1034000092B4000EF
S214400070B1034000B1034000B1034000B10340006B
S214400080B1034000B1034000B1034000B10340005B
S214400090B1034000B1034000B1034000B10340004B
S2144000A0B1034000B1034000B1034000B10340003B
S2144000B0B1034000B1034000B1034000B10340002B
S2144000C0B1034000B1034000E95940000000000081
S2144000D000000000000000000000000000000000DB
S2144000E0B1034000B1034000B1034000B1034000FB
S2144000F0B1034000B103400079464000B1034000E0
S214400100B1034000B1034000B1034000B1034000DA
S214400110B1034000000000000000000000000000A6
S214400120B1034000B103400005684000B103400001
S214400130B103400000000000B1034000B10340009E
S21440014010B5054C237833B9044B13B10448AFF3CC
S21440015000800123237010BD2000402000000000D6
S214400160086D40000C4B43B10C480D4910B5AFF339
S21440017000800C48036823B910BD0A48036833B9A9
S2144001807047094B002BF7D0BDE810401847064B88
S214400190002BF5D0184700BF00000000086D400057
S2144001A024004020086D40000000000080B487B066
S2144001B000AFF860B9601346FB71FA7913469B00AE
S2144001C01344DB003A4A13443B61FB68002B02D0E1
S2144001D0BB68002B01D1022364E0364B1B78032B0F
S2144001E001D102235EE03B6993F82430012B01D114
S2144001F0022357E02F4B1B78002B25D00023FB759E
S2144002001DE0FA7D13469B001344DB002033284A4A
S2144002101A44BB689A4201D1022343E0FA7D134652
S2144002209B001344DB001833214A13441A1DFB6815
S2144002309A4201D1022335E0FB7D0133FB751D4B0D
S2144002401B78FA7D9A42DCD31A4B1B780133DAB21C
S214400250184B1A703B6900221A733B6900221A70C9
S2144002603B6900221A763B690022DA703B6900221D
S214400270DA733B6901221A743B693A699A603B69B2
S2144002803A695A61BB683A695A60FB683A695A608B
S2144002903B69BA681A623B69FA68DA61BB68064A23
S2144002A09A60002318461C37BD465DF8047B7047AD
S2144002B03C004020B4004020BD02400080B483B0E3
S2144002C000AF0346FB7100BF0C37BD465DF8047BAC
S2144002D07047000080B582B000AF0346FB710C4B00
S2144002E003221A700A4B00225A70FA7909491346BB
S2144002F09B001344DB000B441C331B680A22044952
S2144003001846054B984700BF0837BD4680BD00BF1E
S214400310B80040203C004020F10F400080B500AFC0
S214400320014B984700BF80BDA10C400080B582B00D
S21440033000AF164B7B60164B3B607A683B689A4230
S2144003400CD007E03B681A1D3A607A68111D796048
S21440035012681A603B680F4A9342F3D30E4B3B60D9
S21440036004E03B681A1D3A6000221A603B680B4A5C
S2144003709342F6D30A4B7B600A4A7B6823F07F039E
S2144003809360094B9847094B9847FEE7086D400035
S214400390000040202000402020004020E013402065
S2144003A00000400000ED00E0D9694000816940004F
S2144003B080B400AFFEE780B483B000AF78603960A9
S2144003C07B68D3F814213B681A437B68C3F8142132
S2144003D000BF0C37BD465DF8047B704780B483B0E1
S2144003E000AF786039607B683A681A6000BF0C37A7
S2144003F0BD465DF8047B704780B483B000AF78603C
S21440040039607B683A685A6000BF0C37BD465DF875
S214400410047B704780B483B000AF786039607B68F7
S2144004203A681A6100BF0C37BD465DF8047B7047DA
S21440043080B483B000AF786039607B683A685A61B0
S21440044000BF0C37BD465DF8047B704780B483B070
S21440045000AF786039607B683A681A6300BF0C3733
S214400460BD465DF8047B704780B483B000AF7860CB
S21440047039607B683A685A6300BF0C37BD465DF802
S214400480047B704780B483B000AF786039607B6887
S2144004903A685A6600BF0C37BD465DF8047B704725
S2144004A080B483B000AF786039607B683A681A667B
S2144004B000BF0C37BD465DF8047B704780B483B000
S2144004C000AF786039607B683A68C3F8942000BF14
S2144004D00C37BD465DF8047B704780B483B000AFF0
S2144004E0786039607B683A68C3F8902000BF0C3764
S2144004F0BD465DF8047B704780B485B000AFF860B9
S2144005000B467A60FB72FA7AF97AFB681C3153F82C
S21440051021107B681943FB681C3243F8221000BF49
S2144005201437BD465DF8047B704780B485B000AF95
S214400530F8600B467A60FB72FA7AF97AFB681C31EF
S21440054053F821107B68DB431940FB681C3243F8A4
S214400550221000BF1437BD465DF8047B704780B458
S21440056083B000AF786039607B683A681A6100BF34
S2144005700C37BD465DF8047B704780B485B000AF4D
S214400580786039607B689B69FB60FA683B6813401B
S214400590FB60FB6818461437BD465DF8047B704721
S2144005A080B483B000AF786039607B683A68C3F83F
S2144005B0002100BF0C37BD465DF8047B704780B411
S2144005C085B000AF786039607B68D3F80831FB604F
S2144005D0FA683B681340FB60FB6818461437BD4614
S2144005E05DF8047B704780B483B000AF78607B686A
S2144005F05B6843F400427B685A6000BF0C37BD46D8
S2144006005DF8047B7047000080B483B000AF0346BB
S214400610FB71FB795B021A46034B134418460C37B2
S214400620BD465DF8047B7047000E0E4080B584B032
S21440063000AF03463960FB711346BB71FB79184621
S2144006400E4B9847F860BB79002B0EDB012B02DD82
S214400650022B05D009E03968F868094B984709E04D
S2144006603968F868074B984704E04B220649002053
S214400670064B984700BF1037BD4680BD0906400070
S2144006803104400015044000486A4000B92040004C
S21440069080B584B000AF03463960FB711346BB712A
S2144006A0FB791846094B9847F860BB79002B04D075
S2144006B03968F868064B984703E03968F868054B90
S2144006C0984700BF1037BD4680BD00BF09064000B2
S2144006D04D0440006904400080B584B000AF034636
S2144006E0FB710B46BB7113467B71FB791846234B57
S2144006F09847F8607B79012B14D0022B23D0002B2F
S21440070032D1BB79012202FA03F31946F8681C4B32
S2144007109847BB79012202FA03F31946F868194B49
S214400720984727E0BB79012202FA03F31946F86896
S214400730144B9847BB79012202FA03F31946F8682E
S214400740114B984716E0BB79012202FA03F319468B
S214400750F8680B4B9847BB79012202FA03F3194617
S214400760F8680A4B984705E08D2209490020094B56
S214400770984700BF00BF1037BD4680BD0906400001
S214400780A1044000DB04400085044000BD04400056
S214400790486A4000B920400080B584B000AF786019
S2144007A039607B685B09FB737B68DBB203F01F0331
S2144007B0BB73FB7B1846334B9847B860FB7B012BDB
S2144007C016D1BB7B042B0BD0BB7B052B08D0BB7B49
S2144007D0062B05D0BB7B072B02D0BB7B0C2B07D14F
S2144007E0BB7B012202FA03F319462748274B98475A
S2144007F03B68B3F1FF3F08D1BB7B012202FA03F30B
S2144008001946B868224B984737E03B6803F0010327
S214400810002B09D0BB7B012202FA03F31A460021C3
S214400820B8681C4B984708E0BB7B012202FA03F3EA
S2144008301A460021B868184B98473B6803F00203F5
S214400840002B09D0BB7B012202FA03F31A46012192
S214400850B868104B984708E0BB7B012202FA03F3C6
S2144008601A460121B8680C4B9847BB7B012202FA16
S21440087003F31946B868094B984700BF1037BD4682
S21440088080BD00BF0906400000800840B703400016
S214400890DD034000F90440002B054000F90340000A
S2144008A080B582B000AF03460A46FB711346BB7163
S2144008B0FB795B09D8B2FB7903F01F03DBB2BA7948
S2144008C01946034B984700BF0837BD4680BD00BF5A
S2144008D0D906400080B582B000AF7860396039688C
S2144008E07868034B984700BF0837BD4680BD00BFB9
S2144008F09907400080B582B000AF03460A46FB71B8
S2144009001346BB71FB795B09D8B2FB7903F01F0332
S214400910012202FA03F3BA791946034B984700BFFF
S2144009200837BD4680BD00BF2D06400080B582B06A
S21440093000AF03460A46FB711346BB71FB795B0961
S214400940D8B2FB7903F01F03012202FA03F3BA7907
S2144009501946034B984700BF0837BD4680BD00BFC9
S2144009609106400080B500AF014B984700BF80BD60
S2144009703525400080B582B000AF78607B681F2B7D
S21440098013D801227B6802FA03F319461448154B24
S21440099098470346002B1ED101227B6802FA03F3D8
S2144009A019460F48104B984715E07B68203B7B6004
S2144009B001227B6802FA03F3194609480B4B984715
S2144009C00346002B07D101227B6802FA03F319463F
S2144009D00348074B984700BF0837BD4680BD00BF59
S2144009E000060E407B0540005F054000BF05400006
S2144009F0A105400080B500AF4FF0FF312D20044BDD
S214400A0098474FF0FF316020014B984700BF80BDAC
S214400A10D508400080B500AF1E20024B984700BF67
S214400A2080BD00BF7509400080B500AF044B9847B5
S214400A3004490548054B9847054B984700BF80BD7D
S214400A40150A400000000440F41240202D114000DA
S214400A50F509400080B500AF01212020064B98479D
S214400A6000212020054B98474FF0FF312020044BB3
S214400A70984700BF80BD00BFF5084000A108400071
S214400A80D508400080B500AF02215A20054B984754
S214400A9002215B20034B984702215820014B984780
S214400AA000BF80BDD508400080B500AF2A20024B6D
S214400AB0984700BF80BD00BF7509400080B500AFB5
S214400AC0044B984704490548054B9847054B9847BB
S214400AD000BF80BDA90A40000080054008134020A2
S214400AE00D154000850A400080B500AF0021042067
S214400AF0034B984700210320014B984700BF80BD19
S214400B00D508400080B500AF1320024B984700BF81
S214400B1080BD00BF7509400080B500AF044B9847C4
S214400B2004490548054B9847054B984700BF80BD8C
S214400B30050B400000800140AC134020AD1440003F
S214400B40E90A400080B400AF00BFBD465DF8047BB4
S214400B507047000080B500AF1420024B984700BF96
S214400B6080BD00BF7509400080B500AF044B984774
S214400B7004490548054B9847054B984700BF80BD3C
S214400B80550B400000C001403C134020AD144000CF
S214400B90450B400080B500AF00210920034B984725
S214400BA000210A20014B984700BF80BDD508400071
S214400BB080B500AF0720024B984700BF80BD00BFFE
S214400BC07509400080B500AF064B9847064B9847DE
S214400BD003461A4605490648064B9847064B98472B
S214400BE000BF80BDB10B40003145400000080E40BC
S214400BF030134020B11A4000950B400080B500AF3E
S214400C002E20024B984700BF80BD00BF75094000AC
S214400C1080B500AF02217220034B98470221732013
S214400C20014B984700BF80BDD508400090B583B0C3
S214400C3002AF094B9847094B984703460093102349
S214400C40074A08490848094CA047094B984700BF3F
S214400C500437BD4690BD00BFFD0B400041454000F7
S214400C60C4004020001E0E405C134020AD174000DC
S214400C70110C400080B500AF2220024B984700BFC1
S214400C8080BD00BF7509400080B500AF024B984755
S214400C90024B984700BF80BD750C40000D204000B9
S214400CA080B500AF224B98470B20224B98470C202C
S214400CB0204B98472048214B984702215420204BF0
S214400CC09847012154201F4B98474FF0FF3154203E
S214400CD01D4B984702215920194B9847012159200E
S214400CE0184B98474FF0FF315920174B9847022131
S214400CF02120134B984701212120124B98474FF053
S214400D00FF312120104B9847104B9847104B98477F
S214400D10104B9847104B9847104B9847104B9847A6
S214400D20104B9847104B9847104B984700BF80BDD4
S214400D30650940007509400050180E40E705400020
S214400D40F50840002D094000D5084000290A40001B
S214400D50550A4000BD0A4000190B4000690B400090
S214400D60C50B40002D0C4000890C4000E5114000AA
S214400D7080B483B000AF786039607B683A681A63A5
S214400D8000BF0C37BD465DF8047B704780B485B025
S214400D9000AF786039607B689B6BFB60FA683B68A5
S214400DA01340FB60FB6818461437BD465DF8047B6D
S214400DB0704780B483B000AF786039607B683A682B
S214400DC05A6300BF0C37BD465DF8047B7047000091
S214400DD080B483B000AF0346FB71FB795B021A46D2
S214400DE0034B134418460C37BD465DF8047B7047EA
S214400DF0000E0E4080B584B000AF03463960FB71EC
S214400E001346BB71FB791846094B9847F860BB7987
S214400E10002B04D03968F868064B984703E03968D9
S214400E20F868054B984700BF1037BD4680BD00BFE9
S214400E30D10D4000710D4000B30D400080B586B026
S214400E4000AF03463960FB71FB7918460C4B984758
S214400E507861396878690B4B984738613B69DA4363
S214400E603B681340FB60F9687869074B98473969D7
S214400E707869064B984700BF1837BD4680BD00BF0F
S214400E80D10D40008D0D4000710D4000B30D400067
S214400E9080B582B000AF03460A46FB711346BB716D
S214400EA0FB795B09D8B2FB7903F01F03012202FAF3
S214400EB003F3BA791946034B984700BF0837BD4637
S214400EC080BD00BFF50D400080B582B000AF034640
S214400ED0FB71FB795B09D8B2FB7903F01F03012253
S214400EE002FA03F31946034B984700BF0837BD463E
S214400EF080BD00BF3D0E400080B582B000AF54209C
S214400F00074B984700233B6005E0FB790133FB71B4
S214400F103B6801333B603B68024A9342F5D9EEE7B3
S214400F20C90E40007FD1F00880B500AF154B164A79
S214400F301A60144B1B68154A00211846144B9847F4
S214400F40104B1B68134A01211846114B98470D4B0E
S214400F501B68114A022118460D4B984700220F493C
S214400F6008480F4B9847002107480E4B98470E49B4
S214400F7005480E4B9847002103480D4B984700BF45
S214400F8080BD00BFCC1340200813402039104000DD
S214400F90691740005910400081104000D41340208B
S214400FA0AD01400001164000A0860100C11540007A
S214400FB04516400080B400AF034B01221A7000BFB4
S214400FC0BD465DF8047B7047D400402080B500AF36
S214400FD0054B1B7883F00103DBB2002B01D0034B9B
S214400FE0984700BF80BD00BFD4004020F90E4000A7
S214400FF090B585B000AFF860B9601346FB8000211D
S2144010005920084B98470848084B9847FB6818688B
S214401010FB88074AB968074CA04700BF1437BD464F
S21440102090BD00BF910E400008134020851540003B
S214401030D80040202117400080B485B000AF7860CB
S2144010400023FB60FB680133FB6000BF1437BD46DE
S2144010505DF8047B7047000080B584B000AF7860D0
S21440106001215920054B98470023FB60FB6801335C
S214401070FB6000BF1037BD4680BD00BF910E4000EC
S21440108080B584B000AF786001215920054B984761
S2144010900023FB60FB680133FB6000BF1037BD4692
S2144010A080BD00BF910E400080B400AF054B1B884A
S2144010B001339AB2034B1A8000BFBD465DF8047BED
S2144010C0704700BFD600402080B500AF02492020C0
S2144010D0024B984700BF80BDA91040003112400027
S2144010E080B485B000AF7860EFF31083FB60FA6899
S2144010F07B681A6072B6BFF35F8F00BF1437BD4679
S2144011005DF8047B704780B485B000AF7860BFF36D
S2144011105F8F7B681B68FB60FB6883F3108800BFAB
S2144011201437BD465DF8047B7047000080B584B038
S21440113000AF786039607B68002B04D03B68002B9A
S21440114001D0012300E0002303F00103DBB23C2280
S21440115014491846144B98477B6839681846134B11
S2144011609847B860BB68002B01D0BB6815E00023E9
S214401170FB730EE0FB7B7A68DB00134400225A6068
S214401180FB7B7A68DB00134400229A60FB7B0133CA
S214401190FB73FB7B012BEDD9002318461037BD4669
S2144011A080BD00BF646A4000B92040000126400070
S2144011B090B583B000AF0346FB80074B1C68FB88A6
S2144011C01846064B9847034619462046044B984710
S2144011D000BF0C37BD4690BDDC1040206D2340005C
S2144011E09523400080B582B000AF0023FB800EE020
S2144011F0FB880C4ADB0013444FF0FF325A60FB88F2
S214401200084A002142F83310FB880133FB80FB88F4
S214401210002BEDD00448054B984703461846083740
S214401220BD4680BDE010402089134000352C40006C
S21440123080B586B000AF786039600023FB75002328
S214401240BB7500237B7512E0FB7D4D4ADB001344E3
S2144012505A687B689A4207D1FB7D49493A6841F80B
S214401260332001237B7505E0FB7D0133FB75FB7D59
S214401270002BE9D03B68002B0ED17B7D83F0010329
S214401280DBB2002B02D06FF00C0374E000217868CC
S2144012903C4B984703466EE07B7D83F00103DBB210
S2144012A0002B5AD00023FB7516E0FB7D344A52F8DB
S2144012B03330002B0DD1FB7D31493A6841F833205D
S2144012C0FB7D2F4ADB0013447A685A6001237B7506
S2144012D005E0FB7D0133FB75FB7D002BE5D036E05A
S2144012E0FB7D274ADB0013445A68BB7D2449DB005C
S2144012F00B445B689A4227D2BB7D214ADB001344ED
S2144013005B68B3F1FF3F1FD0BB7D1D4907F10C0260
S214401310DB000B4493E8030082E80300BB7DFA7DC4
S21440132017481749DB000344D2000A4492E80300FA
S21440133083E80300FB7D124ADB00134407F10C02EE
S21440134092E8030083E80300BB7D0133BB75BB7D99
S214401350002B02D1FB7D002BC2D07B7D83F00103A6
S214401360DBB2002B02D06FF00C0304E0012178685A
S214401370044B9847034618461837BD4680BD00BF05
S214401380E0104020612C400080B584B000AF78600B
S2144013900023FB730123BB732AE0BA7BFB7B134419
S2144013A05B107B737B7B002B27D17B7B164ADB0055
S2144013B013445A687B689A420BD17B7B124A52F898
S2144013C03330002B1BD07B7B0F4A52F83330984784
S2144013D015E07B7B0C4ADB0013445A687B689A42D4
S2144013E003D27B7B0133FB7302E07B7B013BBB7309
S2144013F0BA7BFB7B9A42D0D202E000BF00E000BF3F
S2144014001037BD4680BD00BFE010402080B58AB092
S21440141000AFF860B9601346FB80FB68143B7B6204
S2144014207B6A9B8BBB82FB88BB6148F20103FB82D5
S214401430BB68FB617B6A07F1140211461846064BEF
S214401440984738623B6A002B01D03B6A00E0FB8835
S21440145018462837BD4680BD893B400080B58AB0D7
S21440146000AFF860B9601346FB80FB68143B7B62B4
S2144014707B6A9B8BBB82FB88BB614FF40043FB823D
S214401480BB68FB617B6A07F1140211461846064B9F
S214401490984738623B6A002B01D03B6A00E0FB88E5
S2144014A018462837BD4680BD893B400080B584B08D
S2144014B000AF786039607B68002B14BF012300239F
S2144014C0DBB268220C4918460C4B98477B68396853
S2144014D018460B4B9847F860FB68002B01D0FB681A
S2144014E006E07B68074A9A617B68074A5A61002390
S2144014F018461037BD4680BD806A4000B92040007F
S214401500E53A40000D1440005D14400080B584B0BC
S21440151000AF786039600023FB607B68002B04D006
S2144015203B68002B01D0012300E0002303F00103B9
S214401530DBB23D220E4918460E4B98477B683A6808
S2144015401A607B68396818460B4B9847F860FB680A
S214401550002B01D0FB6806E07B68084A1A627B686D
S214401560074ADA61002318461037BD4680BD00BFE3
S2144015709C6A4000B9204000D134400089164000A3
S214401580D516400080B582B000AF78607B68002BEF
S21440159014BF01230023DBB2542206491846064BEB
S2144015A098477B681846054B984700BF0837BD46A6
S2144015B080BD00BF9C6A4000B9204000ED35400029
S2144015C080B582B000AF786039607B68002B14BF6E
S2144015D001230023DBB2622206491846064B984791
S2144015E07B6839681846054B9847034618460837BF
S2144015F0BD4680BD9C6A4000B920400095364000FC
S21440160080B582B000AF78600B46FB707B68002BDD
S21440161014BF01230023DBB2692207491846074B53
S21440162098477B68FA7811461846054B9847034614
S21440163018460837BD4680BD9C6A4000B920400029
S2144016403D36400080B582B000AF78600B46FB70F8
S2144016507B68002B14BF01230023DBB270220749AE
S2144016601846074B98477B68FA7811461846054B4C
S2144016709847034618460837BD4680BD9C6A4000DA
S214401680B9204000E936400090B587B000AFF8601A
S214401690B9601346FB80FB68002B14BF0123002370
S2144016A0DBB28A2208491846084B9847FB681C3B21
S2144016B07B617869FB88BA680021054CA0470346E1
S2144016C018461C37BD4690BD9C6A4000B920400075
S2144016D02D38400090B587B000AFF860B96013462B
S2144016E0FB80FB68002B14BF01230023DBB2A22241
S2144016F008491846084B9847FB681C3B7B6178694D
S214401700FB880022B968054CA047034618461C379C
S214401710BD4690BD9C6A4000B92040002D38400030
S21440172090B585B000AFF860B9607A607B80FB68A2
S214401730002B14BF01230023DBB2AC220749184616
S214401740074B9847F8687B887A68B968054CA04785
S214401750034618461437BD4690BD00BF9C6A4000FD
S214401760B92040002D38400080B584B000AFF86006
S2144017700B467A60FB72FB68002B14BF01230023E4
S214401780DBB2B42206491846064B9847FB68F97AFE
S2144017907A681846044B984700BF1037BD4680BD50
S2144017A09C6A4000B92040004937400080B586B06A
S2144017B000AFF860B9607A607B80FB68002B0AD087
S2144017C0BB68002B07D07B68002B04D07B88002B9F
S2144017D001D0012300E0002303F00103DBB24422E2
S2144017E019491846194B9847FB6834337A88796804
S2144017F01846174B98470346002B02D06FF00C0351
S2144018001EE0FB680833B9681846124B9847786163
S2144018107B69002B01D07B6912E0FB680E4A5A6058
S214401820FB680E4A1A60FB680D4A9A60FB680D4AD0
S214401830DA60FB680C4A1A61FB680C4A5A6100235E
S21440184018461837BD4680BDB86A4000B9204000EB
S214401850E12040003D424000011940007118400020
S214401860B1194000491A40001D1A4000851A400030
S21440187080B586B000AFF860B9601346FB80FB6861
S2144018807B617B69002B07D0BB68002B04D0FB88AC
S214401890002B01D0012300E0002303F00103DBB25C
S2144018A040F2451213491846134B98477B69B3F8E4
S2144018B044207B69B3F84C309A4202D06FF01B0349
S2144018C013E07B69BA689A647B69FA88A3F84C206F
S2144018D07B690022A3F844207B6901221A637B6956
S2144018E008331846054B9847FB8818461837BD46B8
S2144018F080BD00BFB86A4000B92040002D4440007B
S21440190080B588B000AFF860B9601346FB8000230E
S214401910FB83FB68BB61BB69002B07D0BB68002B11
S21440192004D0FB88002B01D0012300E0002303F005
S2144019300103DBB24FF4B17217491846174B98476C
S21440194007F110031846164B9847BB6934331846C0
S214401950144B9847786107F110031846124B984786
S2144019600CE0BB6903F13402FB8B591CF983194622
S214401970BB680B44194610460C4B9847FA8B7B695C
S2144019809A4203D2FA8BFB889A42EAD3FB8B1846DC
S2144019902037BD4680BD00BFB86A4000B920400031
S2144019A0E110400039224000071140005521400018
S2144019B090B585B000AF78607B68083BFB60FB68FD
S2144019C0B3F84420FB68B3F84C309A4217D0FB6813
S2144019D003F10800FB689A6CFB68B3F84430591C66
S2144019E08CB2F968A1F8444013441B781946084B5A
S2144019F09847FB6808331846064B984704E0FB6850
S214401A0008331846044B984700BF1437BD4690BD70
S214401A10214340002D4440006D44400080B584B0D2
S214401A2000AF78607B68083BFB60FB6800221A6367
S214401A30FB685B6A002B03D0FB685B6AF8689847D4
S214401A4000BF1037BD4680BD80B584B000AF78601B
S214401A500B46FB707B68083BFB60FB683433FA78C8
S214401A6011461846064B9847FB689B6A002B03D0E6
S214401A70FB689B6AF868984700BF1037BD4680BD34
S214401A80C521400080B584B000AF78607B68083BD5
S214401A90FB60FB6800221A63FB68DB6A002B03D0FE
S214401AA0FB68DB6AF868984700BF1037BD4680BDC4
S214401AB080B586B000AFF860B9607A60FB68002BEE
S214401AC004D0BB68002B01D0012300E0002303F0C4
S214401AD00103DBB23E220D4918460D4B9847FB6882
S214401AE00833B96818460B4B984778617B69002BDA
S214401AF001D07B6906E0FB68074A5A60FB68074AE4
S214401B001A60002318461837BD4680BDD86A400084
S214401B10B9204000E5414000CD1B4000211B40005D
S214401B2080B586B000AFF860B9601346FB800023EE
S214401B307B61FB683B61FB68002B07D0BB68002BD2
S214401B4004D0FB88002B01D0012300E0002303F0E3
S214401B500103DBB2FB2219491846194B984700BFD0
S214401B603B6908331846174B9847034683F00103F2
S214401B70DBB2002BF4D13B6903F10800BA687B69FD
S214401B8013441B781946104B984700BF3B690833EF
S214401B9018460C4B9847034683F00103DBB2002BF4
S214401BA0F4D17B6901337B61FB887A699A42E2D340
S214401BB07B6918461837BD4680BD00BFD86A4000CE
S214401BC0B9204000AD434000D942400090B587B0B0
S214401BD000AFF860B9601346FB8000237B61FB686A
S214401BE03B61FB68002B07D0BB68002B04D0FB880A
S214401BF0002B01D0012300E0002303F00103DBB2F9
S214401C0040F2151212491846124B984700BF3B69DE
S214401C1008331846104B9847034683F00103DBB25F
S214401C20002BF4D1BA687B69D4183B690833184650
S214401C300A4B9847034623707B6901337B61FB88D8
S214401C407A699A42E2D37B6918461C37BD4690BDF6
S214401C50D86A4000B9204000ED4340006943400048
S214401C6080B485B000AF0346FB710023FB7329E0C8
S214401C7097F90F30194A5B01134401331B78FA7900
S214401C809A4202D197F90F3022E097F90F30134A63
S214401C905B0113441B78002B0ED1FB7903F00F0336
S214401CA097F90F200D4952010A44013212789342A7
S214401CB002D197F90F300BE097F90F30DBB20133C2
S214401CC0DBB2FB7397F90F30032BD1DD4FF0FF33B8
S214401CD018461437BD465DF8047B7047E810402030
S214401CE080B588B000AFBA607B600346FB730B4696
S214401CF0BB73BB687B617B68BB61BB7B002B04D03E
S214401D00FB7B63F07F03DBB203E0FB7B03F00F0358
S214401D10DBB23B7797F828307B7707F114031846F9
S214401D20034B9847034618462037BD4680BD00BF44
S214401D30E15E400080B485B000AFF860B9607A607C
S214401D40002318461437BD465DF8047B70470000F4
S214401D5080B586B000AF0346FB71FB7918462A4B28
S214401D6098470346FB7597F917305B01274A13449B
S214401D703B613B690C33FB60FB79F9681846244BA2
S214401D8098470346FB72FB7A082B0DD0FB7901215E
S214401D901846204B9847FB7963F07F03DBB201215E
S214401DA018461C4B98472BE0FB7900211846194BE8
S214401DB09847FB7963F07F03DBB200211846154B4A
S214401DC098473B6901229A703B695B69FA79F968E2
S214401DD010469847034683F00103DBB2002B0FD032
S214401DE03B6905229A70FB7901211846094B9847B2
S214401DF0FB7963F07F03DBB201211846054B984719
S214401E001837BD4680BD00BF611C4000E81040202A
S214401E103D5E4000115D400080B584B000AF034693
S214401E203960FB71FB7918460D4B98470346FB73A8
S214401E3097F90F305B010B4A1344BB60BB689B7835
S214401E40032B07D1BB689B69FA79396810469847D7
S214401E50034600E0002318461037BD4680BD00BF4D
S214401E60611C4000E810402090B587B002AF786013
S214401E707B689B78FB737B681B7B03F08003002B9F
S214401E8014BF01230023BB73FB7B032B3AD17B6833
S214401E90DB697A6850787A680C32012198470346A5
S214401EA07B737B7B002B15D07B6805229A707B6802
S214401EB00222DA70BB7B002B02D07B685B7804E0A2
S214401EC07B685B7863F07F03DBB201211846154BD5
S214401ED0984722E07B6804229A707B685878BB7BE0
S214401EE0002B14BF01230023DBB283F00103DBB2D7
S214401EF003F00103D9B201230093002300220A4CC9
S214401F00A0470AE07B68DB697A6850787A680C32CA
S214401F10002198477B6802229A7000BF1437BD465E
S214401F2090BD00BF115D4000E11C400080B586B00A
S214401F3000AF0346B9607A60FB73FB7B18462F4BB5
S214401F4098470346FB7597F917305B012C4A1344B4
S214401F503B61BB68002B0ED13B690022DA703B69BF
S214401F601B78002B03D13869264B984743E03B69E2
S214401F7001229A7038E0BB68012B13D13B690222DC
S214401F80DA703B691B78002B08D13B6902229A70B5
S214401F90FB7B002118461C4B984725E03B690522F1
S214401FA09A7021E0BB68022B0ED13B690422DA709E
S214401FB03B691B78002B03D13B6902229A701AE0DA
S214401FC03B6901229A700FE0BB68032B06D13B6940
S214401FD000229A703B690522DA7005E03B690622CA
S214401FE09A703B690622DA703B69DB693A69D178B8
S214401FF07A68F87B98471837BD4680BD611C40001C
S214402000E8104020691E4000115D400080B582B057
S21440201000AF214B984738603B68002B01DA3B689D
S21440202036E0802200211D481D4B98470023FB7157
S2144020301EE0FB79194A5B0113440133FF221A70F4
S214402040FB79164A5B0113441433164A1A60FB792F
S214402050124A5B0113441833124A1A60FB790F4A3E
S2144020605B0113441C330F4A1A60FB790133FB7142
S214402070FB79032BDDD90C4900200C4B98470C49C3
S21440208001200A4B98470B490220084B98470023EB
S21440209018460837BD4680BD415B4000E8104020EA
S2144020A0376A4000351D4000511D4000A160400089
S2144020B0191E40002D1F400080B485B000AF034677
S2144020C0B9607A60FB73FB7B83F00103DBB2002BC5
S2144020D000D000BE00BF1437BD465DF8047B704795
S2144020E080B584B000AFF860B9607A60FB68002BBA
S2144020F007D0BB68002B04D07B68002B01D001239F
S21440210000E0002303F00103DBB232220F491846F9
S2144021100F4B98477B685A1E7B681340002B02D0B3
S2144021206FF00C030EE07B685A1EFB685A60FB6833
S21440213000229A60FB689A68FB68DA60FB68BA68B7
S2144021401A60002318461037BD4680BDF46A40002A
S214402150B920400080B582B000AF786039607B68B7
S214402160002B04D03B68002B01D0012300E0002365
S21440217003F00103DBB24A2210491846104B984739
S2144021807B68DA687B689B689A4211D07B681A68DD
S2144021907B6899687B685B680B4013441A783B6899
S2144021A01A707B689B685A1C7B689A60002301E023
S2144021B06FF0090318460837BD4680BDF46A4000F4
S2144021C0B920400080B582B000AF78600B46FB7007
S2144021D07B68002B14BF01230023DBB25B2214492B
S2144021E01846144B98477B681A687B68D9687B68A2
S2144021F05B680B401344FA781A707B68DA687B6831
S2144022009B68D21A7B685B689A4206D97B68DA6814
S2144022107B685B68D21A7B689A607B68DB685A1C6E
S2144022207B68DA60002318460837BD4680BD00BF8D
S214402230F46A4000B920400080B582B000AF7860B4
S2144022407B68002B14BF01230023DBB271220649B2
S2144022501846064B98477B68DA687B689B68D31AB3
S21440226018460837BD4680BDF46A4000B920400095
S21440227080B483B000AF03463960FB8013467B7161
S2144022807B79053B042B52D801A252F823F000BFBD
S2144022900F234000F1224000D5224000B7224000E4
S2144022A0A5224000FB883A682949A1FB0212920CFD
S2144022B002FB03F345E0FB883A6852092549A1FB37
S2144022C00212D20902FB03F30933234AA2FB03237B
S2144022D0DB0836E0FB883A682049A1FB0212520B25
S2144022E002FB03F363331E4AA2FB03235B0928E089
S2144022F0FB883A681B49A1FB0212920902FB03F3D2
S21440230003F2E733174AA2FB03239B0919E0FB8835
S2144023103A681349A1FB0212520902FB03F242F249
S2144023200F7313440D4AA2FB03235B0B09E0FB88A3
S2144023303A6802FB03F20C4B1344054AA2FB032304
S2144023409B0C18460C37BD465DF8047B704700BFB3
S21440235083DE1B43C55A7C0ACDCCCCCC5917B7D1AB
S2144023601F85EB51D34D62103F420F0080B582B0BF
S21440237000AF0346FB80FB88092204491846044BFD
S2144023809847034618460837BD4680BD00A3E1116E
S2144023907122400080B483B000AF78603960013964
S2144023A0FDD800BF0C37BD465DF8047B704780B44F
S2144023B085B000AF786039607B681B68FB60FB685F
S2144023C023F47063FB603B681B0203F47063FA6897
S2144023D01343FB607B68FA681A6000BF1437BD463B
S2144023E05DF8047B704780B483B000AF7860396096
S2144023F07B683A681A6100BF0C37BD465DF8047BBF
S214402400704780B485B000AF786039607B689B6960
S214402410FB60FA683B681340FB60FB68184614375D
S214402420BD465DF8047B704780B483B000AF7860EB
S21440243039607B683A68C3F8002100BF0C37BD4658
S2144024405DF8047B704780B485B000AF7860396033
S2144024507B68D3F80831FB60FA683B681340FB6042
S214402460FB6818461437BD465DF8047B704700008D
S21440247080B582B000AF78607B681F2B13D80122EE
S2144024807B6802FA03F319461448154B98470346EF
S214402490002B1ED101227B6802FA03F319460F482F
S2144024A0104B984715E07B68203B7B6001227B6899
S2144024B002FA03F3194609480B4B98470346002B8C
S2144024C007D101227B6802FA03F319460348074BFB
S2144024D0984700BF0837BD4680BD00BF00060E4087
S2144024E003244000E72340004724400029244000BE
S2144024F080B582B000AF3B1D18460B4B98470B4A41
S2144025000A4BD3F8883043F47003C2F88830BFF3E0
S2144025104F8FBFF36F8F3B1D1846054B984700BF44
S2144025200837BD4680BD00BFE110400000ED00E02A
S2144025300711400080B500AF074B98470521074874
S214402540074B98473A20074B9847074B9847074B07
S214402550984700BF80BD00BFF1244000000C0E40ED
S214402560AF2340007124400001654000B930400070
S21440257080B483B000AF786039607B683A685A614F
S21440258000BF0C37BD465DF8047B704780B483B00F
S21440259000AF786039607B683A681A6000BF0C37D5
S2144025A0BD465DF8047B704780B483B000AF78606A
S2144025B039607B683A685A6000BF0C37BD465DF8A4
S2144025C0047B704780B483B000AF786039607B6826
S2144025D03A689A6000BF0C37BD465DF8047B70478A
S2144025E080B483B000AF786039607B683A68C3F8DF
S2144025F0E42000BF0C37BD465DF8047B7047000002
S21440260080B582B000AF786039607B68002B14BF1D
S21440261001230023DBB25D2208491846084B984741
S2144026207B683A681A607B681B681846054B984773
S214402630034618460837BD4680BD00BF186B4000AD
S214402640B92040004926400080B582B000AF78608F
S2144026507B68002B14BF01230023DBB240F201123B
S2144026600F4918460F4B9847012178680E4B9847FC
S214402670032178680D4B984778680D4B98470D4B6B
S2144026801B68194678680C4B98470A4B5B68194696
S21440269078680A4B9847002318460837BD4680BDE1
S2144026A0186B4000B92040008D2540007125400041
S2144026B0C126400000004020A9254000C525400016
S2144026C080B582B000AF78607B68002B14BF0123D2
S2144026D00023DBB24FF4AF7205491846054B9847C6
S2144026E005497868054B984700BF0837BD4680BD0A
S2144026F0186B4000B920400000434144E1254000AB
S21440270080B483B000AF0346FB71094997F90730A0
S2144027105B09FA7902F01F02012000FA02F241F842
S214402720232000BF0C37BD465DF8047B704700BFD2
S21440273000E100E080B483B000AF0346FB71094976
S21440274097F907305B09FA7902F01F02012000FA78
S21440275002F2203341F8232000BF0C37BD465DF817
S214402760047B704700E100E080B483B000AF0346CE
S214402770FB71094997F907305B09FA7902F01F02A5
S214402780012000FA02F2603341F8232000BF0C37E4
S214402790BD465DF8047B704700E100E080B483B03E
S2144027A000AF786039607B683A681A6400BF0C37BF
S2144027B0BD465DF8047B704780B483B000AF786058
S2144027C07B689B6C18460C37BD465DF8047B7047AB
S2144027D080B483B000AF786039607B683A685A64EA
S2144027E000BF0C37BD465DF8047B704780B483B0AD
S2144027F000AF786039607B683A68C3F8B02000BFA5
S2144028000C37BD465DF8047B704780B483B000AF9C
S214402810786039607B683A68C3F8C42000BF0C37DC
S214402820BD465DF8047B704780B483B000AF7860E7
S21440283039607B683A68C3F8C02000BF0C37BD4695
S2144028405DF8047B704780B483B000AF7860396031
S2144028507B683A68C3F8D42000BF0C37BD465DF8A5
S214402860047B704780B483B000AF786039607B6883
S2144028703A68C3F8D02000BF0C37BD465DF8047BED
S214402880704780B483B000AF78607B68DB6C1846D6
S2144028900C37BD465DF8047B704780B487B000AF08
S2144028A078600B46FB7000237B611EE00123FB60D3
S2144028B000233B6113E07B699B007A6813441A68E7
S2144028C0FB681340002B04D07B695A013B691344D4
S2144028D011E0FB685B00FB603B6901333B613B6991
S2144028E01F2BE8D97B6901337B61FA787B699A4272
S2144028F0DCD84FF0FF3318461C37BD465DF8047BE6
S2144029007047000080B582B000AF0346FB71FB798C
S2144029109F2B94BF01230023DBB2B42207491846FD
S214402920074B9847FB795B09DBB25B021A46054BBF
S214402930134418460837BD4680BD00BF4C6B400068
S214402940B9204000000E0E4080B582B000AF7860DF
S2144029507B68002B14BF01230023DBB2C322064949
S2144029601846064B98477A68054B13445B0ADBB219
S21440297018460837BD4680BD4C6B4000B920400025
S21440298000F2F1BF80B584B000AF78607B68002B62
S21440299014BF01230023DBB2D12213491846134B40
S2144029A098477868124B98470346BB730023FB73DF
S2144029B010E0FA7B0F491346DB009B1A9B000B4442
S2144029C01B78BA7B9A4202D197F90F3007E0FB7B1F
S2144029D00133FB73FB7B002BEBD04FF0FF331846E5
S2144029E01037BD4680BD00BF4C6B4000B92040004C
S2144029F049294000306B400080B588B000AF0023C6
S214402A00FB613B1D00221A605A609A60DA601A61C8
S214402A10364B1B68002B14BF01230023DBB2E92290
S214402A2033491846334B98473348344B9847034608
S214402A30BB603148324B98470246BB681340BB6088
S214402A40BB68FA691343FB6148E03B1D0521184605
S214402A502C4B98470346FB7629E0244B1B6897F996
S214402A601B201046984797F91B305B115BB21846FF
S214402A7097F91B305B115BB29B0007F120021344B1
S214402A8053F81C3CFA7E02F01F02012101FA02F2C2
S214402A90D2431A40830007F120010B4443F81C2C14
S214402AA03B1D05211846174B98470346FB7697F97A
S214402AB01B30B3F1FF3FD0D10023FB610E480F4BD4
S214402AC098470346BB600C480D4B98470246BB6888
S214402AD01340BB60BB68FA691343FB61FB69002B7C
S214402AE0B3D100BF2037BD4680BD00BF681140202F
S214402AF04C6B4000B920400000100E408328400038
S214402B00B92740009B28400080B500AF014B98474E
S214402B1000BF80BDF929400080B584B000AF786022
S214402B207B68002B14BF01230023DBB240F2451222
S214402B3033491846334B98477868334B9847034693
S214402B40FB7397F90F30002B02DA6FF0100353E057
S214402B5097F90F202D491346DB009B1A9B000B4428
S214402B6008331B6819467868294B984797F90F2011
S214402B7026491346DB009B1A9B000B440C331B680C
S214402B8019467868234B984797F90F201F491346F4
S214402B90DB009B1A9B000B4410331B681946786871
S214402BA01D4B98470023194678681C4B984797F961
S214402BB00F2016491346DB009B1A9B000B44143328
S214402BC01B6819467868164B98477868154B98479F
S214402BD003460A33DBB2FB7397F90F301846124BA5
S214402BE0984797F90F301846104B984797F90F308B
S214402BF018460F4B9847002318461037BD4680BDF1
S214402C004C6B4000B920400085294000306B4000A6
S214402C10ED274000292840000B284000652840004A
S214402C204728400049294000352740006927400092
S214402C300127400080B582B000AF78600548064B5B
S214402C409847064A7B681360002318460837BD46F7
S214402C5080BD00BF00100E40192B40006811402078
S214402C6080B584B000AF78600B46FB70194BFB60B4
S214402C700023BB607B689F2B94BF01230023DBB2FD
S214402C804FF4C97214491846144B98477B68DBB218
S214402C901846134B9847F8607B6803F01F03BB60E9
S214402CA0FB78002B08D00122BB6802FA03F31946D2
S214402CB0F8680C4B984707E00122BB6802FA03F31A
S214402CC01946F868084B9847002318461037BD4603
S214402CD080BD00BF000E0E404C6B4000B920400047
S214402CE0052940009D274000D127400080B483B08E
S214402CF000AF786039607B683A68DA6100BF0C37AD
S214402D00BD465DF8047B704780B483B000AF786002
S214402D1039607B681A6A3B681A437B681A6200BF50
S214402D200C37BD465DF8047B704780B483B000AF77
S214402D30786039607B683A681A6200BF0C37BD46D7
S214402D405DF8047B704780B483B000AF78607B68E2
S214402D501B6A18460C37BD465DF8047B704700007A
S214402D6080B485B000AF786039607B689B6AFB6052
S214402D70FA68094B1340FB603B681A04074B134044
S214402D80FA681343FB607B68FA689A6200BF1437A0
S214402D90BD465DF8047B7047FFFF00F80000FF0764
S214402DA080B483B000AF786039607B683A689A62D6
S214402DB000BF0C37BD465DF8047B704780B485B0D5
S214402DC000AF78600B46FB707B681B6BFB60FB6854
S214402DD023F40053FB60FB785B031A46FB681343FF
S214402DE0FB607B68FA681A6300BF1437BD465DF81F
S214402DF0047B704780B485B000AF786039607B68EC
S214402E001B6BFB60FB6823F00303FB603B6803F02F
S214402E100303FA681343FB607B68FA681A6300BFD3
S214402E201437BD465DF8047B704780B485B000AF6C
S214402E30786039607B681B6BFB60FB6823F070032F
S214402E40FB603B681B0103F07003FA681343FB60AA
S214402E507B68FA681A6300BF1437BD465DF8047B8A
S214402E60704780B485B000AF786039607B681B6B74
S214402E70FB60FB6823F44073FB603B681B0203F473
S214402E804073FA681343FB607B68FA681A6300BFB6
S214402E901437BD465DF8047B704780B483B000AFFE
S214402EA078607B689B6E03F00103002B14BF012300
S214402EB00023DBB218460C37BD465DF8047B7047EE
S214402EC080B483B000AF78607B689B6E03F00203EB
S214402ED0002B14BF01230023DBB218460C37BD4637
S214402EE05DF8047B704780B483B000AF78607B6841
S214402EF09B6E03F00803002B14BF01230023DBB2B4
S214402F0018460C37BD465DF8047B704780B483B0E6
S214402F1000AF78607B689B6E03F04003002B14BFC5
S214402F2001230023DBB218460C37BD465DF8047B10
S214402F307047000080B582B000AF00237B60264813
S214402F40264B9847034623F002037B607A68244B5F
S214402F5013437B6079682048224B984700BF1E4841
S214402F60214B9847034683F00103DBB2002BF6D192
S214402F701E4919481E4B98471E4B7B600021164839
S214402F801D4B98477B6843F00053194612481B4B2D
S214402F90984700BF10481A4B9847034683F00103F2
S214402FA0DBB2002BF6D14FF470037B607B6843F4B2
S214402FB0803319460848134B984700BF0648124BC3
S214402FC09847034683F00103DBB2002BF6D100BFDF
S214402FD00837BD4680BD00BF00060E40472D400066
S214402FE0013E37002B2D40009B2E4000000037014D
S214402FF0092D4000013F1800612D4000A12D4000E2
S214403000C12E4000ED2C40000D2F400080B500AF93
S21440301001211C481C4B984700BF1A481B4B984739
S214403020034683F00103DBB2002BF6D1002115489E
S214403030174B984700BF1348144B9847034683F0F6
S2144030400103DBB2002BF6D101210E48114B984705
S21440305000BF0C480D4B9847034683F00103DBB294
S214403060002BF6D1022107480B4B984700BF054876
S214403070064B9847034683F00103DBB2002BF6D19C
S21440308000BF80BD00060E40BD2D4000E72E40002C
S2144030902B2E4000632E4000F52D400080B400AF3C
S2144030A000BFBD465DF8047B704780B400AF00BFEC
S2144030B0BD465DF8047B704780B500AF044B98472B
S2144030C0044B9847044B9847044B984700BF80BD35
S2144030D0352F40000D3040009D304000AB30400062
S2144030E080B483B000AF0346FB71094997F90730B7
S2144030F05B09FA7902F01F02012000FA02F241F859
S214403100232000BF0C37BD465DF8047B704700BFE8
S21440311000E100E080B483B000AF786039607B683F
S2144031203A681A6000BF0C37BD465DF8047B7047AE
S21440313080B483B000AF786039607B683A685A6084
S21440314000BF0C37BD465DF8047B704780B487B03F
S21440315000AFF8600B467A60FB72FA7AFB680C3276
S21440316053F822307B617B6923F0F0037B617B68F8
S2144031701B01DBB27A6913437B61FA7AFB680C3237
S214403180796943F8221000BF1C37BD465DF8047BC2
S214403190704780B487B000AFF8600B467A60FB7229
S2144031A0FA7AFB680C3253F822307B617B6923F451
S2144031B07F437B617B681B029BB27A6913437B61CA
S2144031C0FA7AFB680C32796943F8221000BF1C3744
S2144031D0BD465DF8047B704780B485B000AFF860AC
S2144031E00B467A60FB72FA7AFB680C32796843F8D1
S2144031F0221000BF1437BD465DF8047B704780B48C
S21440320083B000AF78600B46FB70FA787B680C3270
S21440321053F8223018460C37BD465DF8047B70479D
S21440322080B483B000AF78607B681B6903F480335A
S214403230002B14BF01230023DBB218460C37BD46D3
S2144032405DF8047B7047000080B483B000AF7860C0
S2144032507B68064A934201D1152300E02A2318468C
S2144032600C37BD465DF8047B704700BF00800040C9
S21440327080B582B000AF786001217868034B9847EC
S214403280002318460837BD4680BD00BF15314000B4
S21440329080B582B000AF78607868074B984778680A
S2144032A0064B984703461846054B98470023184652
S2144032B00837BD4680BD00BF7132400049324000ED
S2144032C0E130400080B584B000AF78600B46FB70BC
S2144032D000217868114B9847F860FB6823F0030399
S2144032E0FB60FB7803F00103002B0CBF0123002397
S2144032F0DBB21A46FB681343FB60FB7803F002031D
S214403300FA681343FB60FA6800217868044B9847D4
S214403310002318461037BD4680BD00BFFF31400031
S214403320D931400080B582B000AF786039603B68E4
S214403330DBB21A4600217868034B984700231846AC
S2144033400837BD4680BD00BF9331400080B485B08D
S21440335000AF78607A68084B13441B0CFB73FB7B0A
S214403360052B01D1012300E0002318461437BD4643
S2144033705DF8047B704700BF0080FFBF80B582B019
S21440338000AF78607868064B98470346002B01D11B
S214403390002300E0002318460837BD4680BD00BF26
S2144033A04D33400080B582B000AF78607868064BF9
S2144033B098470346002B01D1012300E0012318461D
S2144033C00837BD4680BD00BF4D33400080B584B051
S2144033D000AF78607B681846124B98470346BB732D
S2144033E00023FB7315E0FA7B0F4913469B001344FA
S2144033F09B000B441B78BA7B9A4207D1FA7B134654
S2144034009B0013449B00084A134406E0FB7B0133B1
S214403410FB73FB7B002BE6D0002318461037BD46D7
S21440342080BD00BF4D334000686B400080B584B01F
S21440343000AF78607B689B68FB60FB689B68002BEE
S21440344003D0FB689B687868984700BF1037BD4636
S21440345080BD80B584B000AF78607B689B68FB60B9
S214403460FB685B68002B03D0FB685B68786898470E
S21440347000BF1037BD4680BD80B584B000AF7860D1
S2144034807B689B68FB60FB68DB68002B03D0FB68AF
S214403490DB687868984700BF1037BD4680BD80B46B
S2144034A083B000AF78607B68083318460C37BD465B
S2144034B05DF8047B704780B483B000AF78607B686B
S2144034C00C3318460C37BD465DF8047B7047000049
S2144034D090B585B000AF786039607B68FB603B682C
S2144034E01846344B9847B8603868334B984703467D
S2144034F0002B02D06FF0100357E0FB683A681A6062
S214403500802138682D4B9847BB685A682C4B13402F
S21440351019463868294B9847BB689A68294B134028
S214403520294A1A4311463868284B9847BB68DB68D7
S2144035301A4600213868264B9847FB680022DA6016
S214403540FB6800229A60FB6800225A607B6803F1A1
S214403550180438681F4B98470346194620461E4BAA
S21440356098477B689B697A689A607B689B691B4A28
S2144035701A607B689B691A4A5A607B6803F1180494
S2144035803868184B9847034619462046124B9847CA
S2144035907B689B697A689A607B689B69124A1A6066
S2144035A07B689B690E4A5A60002318461437BD460E
S2144035B090BD00BFCD334000213240001531400061
S2144035C07CFFFFFE6FFFF1FF10000E003131400020
S2144035D0D9314000A5334000316740002D344000CB
S2144035E0793440007D3340005334400080B582B08B
S2144035F000AF78607B68002B05D07B681B68002B8B
S21440360001D0012300E0002303F00103DBB240F2C7
S214403610032207491846074B98477B681B6818469D
S214403620054B9847034618460837BD4680BD00BF41
S2144036307C6B4000B92040009132400080B582B09B
S21440364000AF78600B46FB707B68002B05D07B682C
S2144036501B68002B01D0012300E0002303F0010388
S214403660DBB240F22B2208491846084B98477B6845
S2144036701B68FA7811461846054B98470346184685
S2144036800837BD4680BD00BF7C6B4000B920400077
S214403690C532400080B582B000AF786039607B6844
S2144036A0002B05D07B681B68002B01D0012300E06F
S2144036B0002303F00103DBB240F2522207491846CA
S2144036C0074B98477B681B6839681846054B9847F0
S2144036D0034618460837BD4680BD00BF7C6B400099
S2144036E0B92040002533400080B582B000AF7860F6
S2144036F00B46FB707B68002B05D07B681B68002B55
S21440370001D0012300E0002303F00103DBB240F2C6
S2144037107D220A4918460A4B98477B681B68FA7808
S21440372000211846074B9847FB78002B01D1012310
S21440373000E0022318460837BD4680BD7C6B40003B
S214403740B92040004D31400080B584B000AFF860ED
S2144037500B467A60FB72FB7A032B5CD801A252F8C8
S21440376023F000BF753740009F374000C937400000
S21440377015384000FB687A685A60FB681B68184634
S214403780274B9847034618467B68002B14BF0123F7
S2144037900023DBB21A460021224B98473BE0FB68E9
S2144037A07A689A60FB681B6818461F4B9847034622
S2144037B018467B68002B14BF01230023DBB21A4651
S2144037C00021184B984726E0FB687A68DA60FB6869
S2144037D01B681846144B9847034618467B68002BD0
S2144037E014BF01230023DBB21A4601210D4B984734
S2144037F0FB681B6818460A4B9847034618467B6882
S214403800002B14BF01230023DBB21A460121054BCF
S214403810984700E000BF00BF1037BD4680BD00BFE0
S2144038207D33400061674000A533400080B586B0D8
S21440383000AFF860B9607A607B80FB681B6818460A
S214403840394B98477861FB681B681846374B984752
S2144038500346FB74FB681B681846354B984703467F
S214403860BB747B68002B1BD0FB681B681846314B2B
S214403870984703461A46FB7C114618462E4B9847F7
S214403880FB7C796818462D4B98477A88FB7C114616
S21440389018462B4B9847FB7C00211846294B9847E7
S2144038A0BB68002B17D0BB7CB9681846224B98479C
S2144038B0FB681B681846244B984703461A46BB7C51
S2144038C0114618461D4B98477A88BB7C11461846C9
S2144038D01B4B98471EE07B6903F11002BB7C1146E8
S2144038E01846154B9847FB681B681846164B984772
S2144038F003461A46BB7C11461846104B9847BB7C7D
S21440390000211846114B98477A88BB7C11461846CA
S2144039100B4B9847BB7C002118460A4B9847002320
S21440392018461837BD4680BDCD334000A53340000D
S2144039307D3340009F34400005664000D965400016
S214403940A1664000E5664000B7344000316640005E
S21440395080B483B000AF786039607B683A681A609C
S21440396000BF0C37BD465DF8047B704780B483B01B
S21440397000AF786039607B683A685A6300BF0C379E
S214403980BD465DF8047B704780B483B000AF786076
S21440399039607B683A685A6000BF0C37BD465DF8B0
S2144039A0047B704780B483B000AF786039607B6832
S2144039B03A68DA6000BF0C37BD465DF8047B704756
S2144039C080B483B000AF786039607B683A681A612B
S2144039D000BF0C37BD465DF8047B704780B483B0AB
S2144039E000AF786039607B683A689A6300BF0C37EE
S2144039F0BD465DF8047B704780B483B000AF786006
S214403A0039607B683A685A6400BF0C37BD465DF83B
S214403A10047B704780B483B000AF78607B681B6AD5
S214403A2003F00103002B14BF01230023DBB218462A
S214403A300C37BD465DF8047B704780B483B000AF5A
S214403A4078607B681B6A03F00203002B14BF0123D7
S214403A500023DBB218460C37BD465DF8047B704742
S214403A6080B483B000AF78607B681B6A18460C371A
S214403A70BD465DF8047B704780B483B000AF786085
S214403A807B681B6B18460C37BD465DF8047B704759
S214403A9080B485B000AF78600023FB7315E0FA7BF6
S214403AA00F4913465B001344DB000B441A687B68DF
S214403AB09A4207D1FA7B13465B001344DB00084A60
S214403AC0134406E0FB7B0133FB73FB7B012BE6D9FB
S214403AD0002318461437BD465DF8047B704700BF88
S214403AE0946B400080B584B000AF786039607B68E6
S214403AF0002B04D03B68002B01D0012300E00023BC
S214403B0003F00103DBB2882218491846184B984741
S214403B107B683A681A617B681B691846154B98475C
S214403B20F8607B681A69FB685B6819461046124B5A
S214403B3098477B681A69FB689B68194610460F4B86
S214403B4098477B681A69FB68DB68194610460C4B39
S214403B5098477B681A69FB681B6919461046094BEB
S214403B609847002318461037BD4680BDC46B4000BA
S214403B70B9204000913A400051394000DD394000BC
S214403B80F9394000C139400080B582B000AF786056
S214403B9039607B68002B04D03B68002B01D00123A2
S214403BA000E0002303F00103DBB2CA2211491846A5
S214403BB0114B98477B685B889BB203F48073002B5D
S214403BC002D06FF0050311E03B685B889BB203F0C0
S214403BD00103002B05D039687868084B98470346A0
S214403BE004E039687868064B984703461846083715
S214403BF0BD4680BDC46B4000B9204000353D400006
S214403C00053C400080B586B000AF78603960002340
S214403C103B613B685B889BB243F480739AB23B68D7
S214403C205A803B681B8803F48063002B1BD07B685C
S214403C301A693B681B881B0A9BB243F078039BB209
S214403C401B0403F4FE0343F4807319461046334BBB
S214403C5098477B681A693B681B88DBB21946104652
S214403C602F4B98470AE07B681A693B681B881B0401
S214403C7003F4FE0319461046284B984700237B6101
S214403C8020E07B681B691846264B9847F860FB681F
S214403C9003F48073002B03D06FF001033B6104E014
S214403CA0FB6803F00403002BEBD07B6818693B6885
S214403CB09A687B6913441B7819461B4B98477B6967
S214403CC001337B613B685B681A467B699A42D8D869
S214403CD03B685B889BB21BB2002B11DA7B681B6982
S214403CE002211846114B984700BF7B681B6918464F
S214403CF00F4B9847034683F00103DBB2002BF4D109
S214403D007B685B889BB223F480739AB27B685A8048
S214403D103B6918461837BD4680BD00BF893940000C
S214403D20A5394000613A40006D39400051394000A5
S214403D30153A400090B585B000AF786039603B6872
S214403D405B889BB243F480739AB23B685A803B6868
S214403D501B8803F48063002B1BD07B681A693B6882
S214403D601B881B0A9BB243F078039BB21B0403F4E8
S214403D70FE0343F4885319461046384B98477B68F1
S214403D801A693B681B88DBB219461046344B984785
S214403D900CE07B681A693B681B881B0403F4FE032F
S214403DA043F48053194610462C4B98477B681A6953
S214403DB03B685B68012B01D1032300E001231946D1
S214403DC01046284B98470023FB6027E000BF7B68DF
S214403DD01B691846244B9847034683F00103DBB221
S214403DE0002BF4D13B689A68FB68D4187B681B6943
S214403DF018461E4B98470346DBB223703B685B6809
S214403E00023B1A46FB689A4205D17B681B69022131
S214403E101846144B9847FB680133FB603B685B6869
S214403E201A46FB689A42D1D800BF7B681B69184681
S214403E300F4B9847034683F00103DBB2002BF4D1C7
S214403E407B685B889BB223F480739AB27B685A8007
S214403E50002318461437BD4690BD00BF8939400040
S214403E60A5394000513940003B3A4000793A40007D
S214403E70153A400080B483B000AF0346FB71094951
S214403E8097F907305B09FA7902F01F02012000FA21
S214403E9002F241F8232000BF0C37BD465DF8047B94
S214403EA0704700BF00E100E080B483B000AF034637
S214403EB0FB71094997F907305B09FA7902F01F024E
S214403EC0012000FA02F2203341F8232000BF0C37CD
S214403ED0BD465DF8047B704700E100E080B483B0E7
S214403EE000AF0346FB71094997F907305B09FA7939
S214403EF002F01F02012000FA02F2603341F823204C
S214403F0000BF0C37BD465DF8047B704700E100E01B
S214403F1080B483B000AF78607B681B6903F0010310
S214403F20002B14BF01230023DBB218460C37BD46D6
S214403F305DF8047B704780B483B000AF78607B68E0
S214403F4002229A6000BF0C37BD465DF8047B70477E
S214403F5080B483B000AF78607B681B695B0803F071
S214403F600103002B14BF01230023DBB218460C3795
S214403F70BD465DF8047B704780B483B000AF786080
S214403F807B680222DA6000BF0C37BD465DF8047BD2
S214403F90704780B483B000AF78607B684FF400729F
S214403FA09A6000BF0C37BD465DF8047B704780B40E
S214403FB083B000AF78607B681B695B0A03F001033F
S214403FC0002B14BF01230023DBB218460C37BD4636
S214403FD05DF8047B704780B483B000AF78607B6840
S214403FE04FF40072DA6000BF0C37BD465DF8047BC4
S214403FF0704780B483B000AF786039607B683A68B9
S2144040001A6000BF0C37BD465DF8047B704780B42D
S21440401083B000AF786039607B683A68DA6100BF89
S2144040200C37BD465DF8047B704780B483B000AF64
S214404030786039607B683A685A6000BF0C37BD4686
S2144040405DF8047B704780B483B000AF7860396019
S2144040507B683A681A6200BF0C37BD465DF8047B41
S214404060704780B483B000AF786039607B683A6848
S214404070C3F8E42000BF0C37BD465DF8047B7047AC
S21440408080B483B000AF78607B685B6903F001035F
S214404090002B14BF01230023DBB218460C37BD4665
S2144040A05DF8047B704780B483B000AF78607B686F
S2144040B05B6903F00203002B14BF01230023DBB22D
S2144040C018460C37BD465DF8047B704780B483B015
S2144040D000AF78607B685B6903F40073002B14BF05
S2144040E001230023DBB218460C37BD465DF8047B3F
S2144040F0704780B483B000AF78607B685B691846D1
S2144041000C37BD465DF8047B704780B483B000AF83
S21440411078607B689B69DBB218460C37BD465DF815
S214404120047B704780B483B000AF78607B689B693F
S21440413018460C37BD465DF8047B704780B584B0A2
S21440414000AF78607B68002B14BF01230023DBB2EE
S214404150912216491846164B98477868154B98474B
S2144041600346FB73FB7B042B16D801A252F823F0C0
S21440417085414000894140008D41400091414000CA
S2144041809541400007230DE008230BE02C2309E06F
S2144041902D2307E02E2305E0A32204490020044BEC
S2144041A09847FF2318461037BD4680BDE06B400059
S2144041B0B9204000AD44400080B483B000AF786082
S2144041C039607B68054A934202D1054A3B681360D2
S2144041D000BF0C37BD465DF8047B7047001E0E409E
S2144041E06C11402080B582B000AF786039607B6843
S2144041F0002B14BF01230023DBB2B7220C4918461C
S2144042000C4B98473B68002B14BF01230023DBB2BE
S214404210B82207491846074B98477B683A681A60A1
S2144042203868054B9847034618460837BD4680BD54
S214404230E06B4000B92040001147400080B584B094
S21440424000AF786039607B68002B14BF01230023E1
S214404250DBB2C62218491846184B98473868184BA0
S2144042609847F860FB68002B01D0FB681FE07B682E
S2144042703A689A6179683868124B98473868124BA2
S214404280984703465BB21846104B984738680E4B23
S214404290984703465BB218460D4B984738680A4B1A
S2144042A0984703465BB218460A4B98470023184681
S2144042B01037BD4680BD00BFE06B4000B9204000CF
S2144042C011474000B94140003D414000A93E4000F2
S2144042D0DD3E4000753E400080B582B000AF78605D
S2144042E00B46FB707B68002B14BF01230023DBB218
S2144042F04FF4D17207491846074B98477B681B68AE
S214404300FA7811461846054B984700BF0837BD4611
S21440431080BD00BFE06B4000B92040000F40400029
S21440432080B582B000AF78600B46FB707B68002B90
S21440433014BF01230023DBB240F2AB1207491846F4
S214404340074B98477B689B69FA7811461846054B99
S214404350984700BF0837BD4680BD00BFE06B4000B1
S214404360B92040000F40400080B582B000AF786072
S2144043707B68002B14BF01230023DBB24FF4DA72B4
S21440438007491846074B98477B681B681846064BF4
S21440439098470346DBB218460837BD4680BD00BF87
S2144043A0E06B4000B92040000B41400080B582B031
S2144043B000AF78607B68002B14BF01230023DBB27C
S2144043C040F2BD1206491846064B98477B681B6864
S2144043D01846054B9847034618460837BD4680BDE5
S2144043E0E06B4000B9204000A740400080B582B056
S2144043F000AF78607B68002B14BF01230023DBB23C
S21440440040F2CF1206491846064B98477B681B6811
S2144044101846054B9847034618460837BD4680BDA4
S214404420E06B4000B92040008140400080B582B03B
S21440443000AF78607B68002B14BF01230023DBB2FB
S21440444040F20A2206491846064B98477B689B6905
S2144044501846054B984700BF0837BD4680BD00BF8D
S214404460E06B4000B9204000373F400080B582B046
S21440447000AF78607B68002B14BF01230023DBB2BB
S21440448040F2132206491846064B98477B689B69BC
S2144044901846054B984700BF0837BD4680BD00BF4D
S2144044A0E06B4000B9204000933F400080B582B0AA
S2144044B000AF78607B68002B14BF01230023DBB27B
S2144044C040F21D2213491846134B98477B68134AFF
S2144044D0934201D1002318E07B68114A934201D1F0
S2144044E0012312E07B680F4A934201D102230CE07D
S2144044F07B680D4A934201D1032306E07B680B4A52
S214404500934201D1042300E0FF2318460837BD46F6
S21440451080BD00BFE06B4000B920400000080E4060
S214404520000A0E40001A0E40001C0E40001E0E40B0
S21440453080B400AF00231846BD465DF8047B704744
S21440454080B400AF00231846BD465DF8047B704734
S21440455090B585B000AF78607B68002B14BF012310
S2144045600023DBB240F2812235491846354B984746
S2144045707B689B69FB60F868334B98470346002B83
S2144045800DD0F868314B98470346002B07D0F868A3
S2144045902F4B98477B681B68786898474CE0F868CC
S2144045A02C4B98470346002B0DD0F8682A4B98476B
S2144045B00346002B07D0F868284B98477B689B68D3
S2144045C07868984738E0F868254B98470346002BAC
S2144045D021D0F868234B98470346002B1BD0F86839
S2144045E0214B9847034603F0E003002B08D0F868B9
S2144045F01E4B98474FF48071F8681D4B98471BE058
S2144046007B685C68F8681B4B98470346DBB21946E4
S2144046107868A04710E0F868134B9847034603F0C5
S214404620E003002B08D04FF48071F868104B984791
S2144046307B68DB68786898471437BD4690BD00BFF6
S214404640E06B4000B9204000A7404000513F40008A
S214404650793F4000CD404000AF3F4000D73F40004C
S21440466081404000113F4000F3404000254140005B
S214404670F33F40000B41400080B500AF034B1B6842
S2144046801846034B984700BF80BD00BF6C114020C2
S2144046905145400080B584B000AF78607B68002B01
S2144046A014BF01230023DBB24FF42A721449184684
S2144046B0144B98477868144B98470346BB730023BF
S2144046C0FB730FE0FA7B114913465B0013449B00D3
S2144046D00B441B78BA7B9A4201D1FB7B0CE0FB7BF8
S2144046E00133FB73FB7B012BECD940F2B222044929
S2144046F00020044B9847002318461037BD4680BD1F
S214404700E06B4000B9204000AD4440000800402027
S21440471080B584B000AF78607B68002B14BF01235F
S2144047200023DBB240F2BF221A4918461A4B98477C
S21440473078681A4B98470346FB7319497868194BB3
S2144047409847AC217868184B98474FF48071786842
S214404750154B9847FA7B154913465B0013449B005C
S2144047600B4404331B6819467868114B9847FA7B0C
S2144047700E4913465B0013449B000B4408331B68EA
S214404780194678680B4B9847002318461037BD46A5
S21440479080BD00BFE06B4000B92040009546400019
S2144047A00052415563404000F33F4000080040201F
S2144047B02B4040004740400080B483B000AF786054
S2144047C07B6801229A6100BF0C37BD465DF8047BCA
S2144047D0704780B483B000AF786039607B683A68D1
S2144047E09A6100BF0C37BD465DF8047B704780B4C5
S2144047F083B000AF78607B681B6918460C37BD46AF
S2144048005DF8047B704780B483B000AF7860396051
S2144048107B683A685A6100BF0C37BD465DF8047B3A
S214404820704780B483B000AF78600B46FB70FA7870
S2144048307B684C3253F822309B0803F00103002B70
S21440484014BF01230023DBB218460C37BD465DF883
S214404850047B704780B483B000AF78600B46FB7033
S214404860FA787B684C3253F822309B0903F00103F8
S214404870002B14BF01230023DBB218460C37BD467D
S2144048805DF8047B704780B483B000AF78600B4619
S214404890FB70FA787B684C3253F822301B0C03F0DE
S2144048A00103002B14BF01230023DBB218460C374C
S2144048B0BD465DF8047B704780B487B000AFF860B3
S2144048C00B467A60FB72FA7AFB684C3253F8223019
S2144048D07B617A697B6813407B617B6918461C372D
S2144048E0BD465DF8047B704780B483B000AF786007
S2144048F00B46FB70FA787B684C3253F822301846E9
S2144049000C37BD465DF8047B704780B485B000AF79
S214404910F8600B467A60FB72FA7AFB685832796820
S21440492043F8221000BF1437BD465DF8047B70473D
S21440493080B483B000AF786039607B683A689A602C
S21440494000BF0C37BD465DF8047B704780B485B029
S21440495000AFF8600B467A60FB72FA7AFB68643206
S214404960796843F8221000BF1437BD465DF8047BD3
S214404970704780B485B000AFF8600B467A60FB7233
S214404980FA7AFB687C32796843F8221000BF143705
S214404990BD465DF8047B704780B485B000AFF860D4
S2144049A00B467A60FB72FA7AFB688832796843F87D
S2144049B0221000BF1437BD465DF8047B704780B4B4
S2144049C083B000AF78607B681B6843F080027B68EA
S2144049D01A6000BF0C37BD465DF8047B704780B454
S2144049E083B000AF78607B681B6823F080027B68EA
S2144049F01A6000BF0C37BD465DF8047B704780B434
S214404A0085B000AF786039607B681B68FB60FB68E8
S214404A1023F07F03FB603B6803F07F03FA68134391
S214404A20FB607B68FA681A6000BF1437BD465DF8C5
S214404A30047B704780B483B000AF786039607B6891
S214404A403A681A6000BF0C37BD465DF8047B704775
S214404A5080B483B000AF78600B46FB70FA78F97884
S214404A607B68403153F8213043F400717B68403214
S214404A7043F8221000BF0C37BD465DF8047B7047F4
S214404A8080B483B000AF78600B46FB70FA78F97854
S214404A907B68403153F8213023F400717B68403204
S214404AA043F8221000BF0C37BD465DF8047B7047C4
S214404AB080B485B000AF78600B46FB70FA787B68B0
S214404AC0403253F82230FB60FB68DB0A03F00303F6
S214404AD0FB60FB6818461437BD465DF8047B70479C
S214404AE080B485B000AF78607B68D3F80038FB6050
S214404AF0FB68DB0B03F00103FB60FB68002B14BF75
S214404B0001230023DBB218461437BD465DF8047B0C
S214404B10704780B483B000AF786039607B683A688D
S214404B20C3F8002800BF0C37BD465DF8047B7047CD
S214404B3080B483B000AF78607B685B6818460C37FB
S214404B40BD465DF8047B704780B483B000AF7860A4
S214404B500B46FB70FA787B68703253F82230184662
S214404B600C37BD465DF8047B704780B485B000AF17
S214404B70F8600B467A60FB72FB7AFA6831331B01A9
S214404B80134404337A681A6000BF1437BD465DF894
S214404B90047B704780B485B000AFF8600B467A60FF
S214404BA0FB72FB7AFA681B01134403F546737A6876
S214404BB01A6000BF1437BD465DF8047B704780B46A
S214404BC083B000AF78600B46FB70FB787A681B01B9
S214404BD0134403F547731B6803F00103002B14BF0F
S214404BE001230023DBB218460C37BD465DF8047B34
S214404BF0704780B483B000AF78600B46FB70FB789C
S214404C007A681B01134403F547731B681B0903F0BE
S214404C100103002B14BF01230023DBB218460C37D8
S214404C20BD465DF8047B704780B483B000AF7860C3
S214404C300B46FB70FB787A681B01134403F54773F9
S214404C401B681B0C9BB218460C37BD465DF8047BB0
S214404C50704780B483B000AF7860396000BF0C37CF
S214404C60BD465DF8047B704780B483B000AF786083
S214404C703960002318460C37BD465DF8047B704704
S214404C8080B582B000AF03463960FB71FB793A6865
S214404C9019460348034B984700BF0837BD4680BDBA
S214404CA0008003400B49400080B582B000AF034609
S214404CB03960FB71FB793A6819460848084B9847B3
S214404CC0FB794FF4805202FA03F319460348054B2A
S214404CD0984700BF0837BD4680BD00BF00800340F0
S214404CE073494000D347400080B582B000AF0346CA
S214404CF03960FB71FB793A6819460348034B98477D
S214404D0000BF0837BD4680BD00800340994940003B
S214404D1080B582B000AF0346FB71FB791946064862
S214404D20064B98470346002B0CBF01230023DBB2FB
S214404D3018460837BD4680BD00800340B14A400053
S214404D4080B584B000AF03460A46FB711346BB717C
S214404D500B4BFB60BB79002B07D0FB794FF400224E
S214404D601946F868074B984706E0FB794FF400224F
S214404D701946F868044B984700BF1037BD4680BDBB
S214404D8000800340734940009949400080B582B096
S214404D9000AF0346FB71FB7919460448044B98471D
S214404DA0034618460837BD4680BD00BF0080034016
S214404DB05548400080B582B000AF0346FB71FB7992
S214404DC040211846024B984700BF0837BD4680BD75
S214404DD0814C400080B582B000AF03460A46FB7166
S214404DE01346BB71BB79002B05D0FB794021184692
S214404DF0054B984704E0FB7940211846034B9847FB
S214404E0000BF0837BD4680BDA94C4000E94C400075
S214404E1080B582B000AF0346FB71FB790422194689
S214404E200348044B984700BF0837BD4680BD00BFC7
S214404E30008003409949400080B582B000AF0346E9
S214404E40FB71FB7919460448044B984703461846BD
S214404E500837BD4680BD00BF008003402348400061
S214404E6080B582B000AF0346FB71FB79042118463B
S214404E70024B984700BF0837BD4680BD814C400076
S214404E8080B584B000AF0346FB71064BFB60FB79F0
S214404E904FF480221946F868034B984700BF1037F6
S214404EA0BD4680BD008003407349400080B582B057
S214404EB000AF0346FB71FB79054A19460548064B89
S214404EC0984703461B0D9BB218460837BD4680BD23
S214404ED00000F07F00800340B948400080B584B0B1
S214404EE000AF0346FB710C4BFB60FB790122194671
S214404EF0F8680A4B9847FB7908221946F868074B2A
S214404F009847FB7908221946F868054B984700BF32
S214404F101037BD4680BD00BF008003400B494000AF
S214404F207349400080B584B000AF03460A46FB7123
S214404F301346BB710A4BFB60BB79002B06D0FB794E
S214404F4001221946F868074B984705E0FB7901228D
S214404F501946F868044B984700BF1037BD4680BDD9
S214404F60008003400B4940004D49400080B584B066
S214404F7000AF03460A46FB711346BB710A4BFB6003
S214404F80BB79002B06D0FB7902221946F868074BFE
S214404F90984705E0FB7902221946F868044B984783
S214404FA000BF1037BD4680BD008003404D494000DD
S214404FB00B49400080B500AF04210448044B984795
S214404FC0044B1B68984700BF80BD00BF008003406D
S214404FD0314940007011402080B500AF022104489E
S214404FE0044B9847044B1B68984700BF80BD00BFE2
S214404FF000800340314940007011402080B582B0A7
S21440500000AF0B4B7B60702178680A4B9847702145
S2144050107868094B98477868084B9847084B5B6810
S21440502000210220984700BF0837BD4680BD00BF1C
S214405030008003403149400007484000B9474000DF
S2144050407011402080B582B000AF0C4B7B600821C9
S21440505078680B4B9847702178680A4B984701212F
S2144050607868094B9847094B9847094B5B6800217D
S2144050700120984700BF0837BD4680BD00800340EA
S2144050803149400007484000D3474000B15A4000ED
S2144050907011402080B582B000AF0B4B7B60012181
S2144050A078680A4B984701210748094B9847702172
S2144050B00548084B9847084B5B68002104209847F2
S2144050C000BF0837BD4680BD0080034031494000E0
S2144050D007484000D34740007011402080B582B05A
S2144050E000AF0123FB711F481F4B98470346BB8008
S2144050F01C481E4B984703469AB2BB881340BB8059
S214405100BB8803F00403002B03D0194B98470123B8
S21440511023E0BB8803F00203002B03D0154B9847CF
S21440512001231AE0BB8803F07003002B02D0124B19
S214405130984711E0BB8803F00803002B02D00F4BC2
S214405140984709E0BB8803F00103002B02D00C4BC4
S214405150984701E00023FB71FB7918460837BD46A7
S21440516080BD00BF00800340314B4000EF47400009
S214405170B54F4000D94F4000FD4F400045504000DD
S2144051809550400080B58AB000AF7860654B3B6272
S2144051907B689B7C03F00F03FB77FB7FDA03624B55
S2144051A01344BB617B68DB68FB827B681B8A40F2EA
S2144051B0FF32934203D17B681B8A1BB204E07B68B4
S2144051C01B8A013B9BB21BB2B7F9162013401BB299
S2144051D0BB827B68DB7C03F00703DBB2012B0CBF92
S2144051E001230023FB747B689A687B685B689A425D
S2144051F058D37B68DB7C03F01003DBB2002B19D05E
S2144052007B680022DA607A68D37C6FF30413D37429
S214405210FB7F1846454B9847FB7C83F00103DBB287
S214405220002B78D0FB7F4FF480421946386A404BBB
S214405230984770E0FB7F01221946386A3C4B9847F6
S214405240FB7C83F00103DBB2002B08D0FB7F4FF4DE
S214405250805202FA03F31946386A364B98477B6801
S2144052609A687B685A607B681B8ABA8A9A4214D1CD
S2144052707A68D37C6FF38613D3742F4BDB687A68D7
S214405280907C7A689268114698470346002B44D132
S2144052907A68D37C43F04003D37400217868274B68
S2144052A098473BE07B685B689AB27B689B689BB29A
S2144052B0D31AFB847B681B8AFA8C9A4202D97B6895
S2144052C01B8AFB847B681A687B689B681344FB6078
S2144052D0FB8C1A46F968B869194B9847FA8C7B6874
S2144052E0DA607B689A68FB8C1A447B689A60FB7F1E
S2144052F001221946386A134B9847FB7C83F001031A
S214405300DBB2002B0AD0FB7F4FF480421946386A46
S214405310074B984702E000BF00E000BF2837BD4675
S21440532080BD00BF00800340000010A0DD4E40005E
S2144053309949400007484000701140208D5D40006C
S214405340216A40000B49400080B588B000AF7860C5
S214405350474BBB617B689B7C03F00F03FB75FB7D73
S2144053601846444B98470346FB837B685B689AB273
S2144053707B689B689BB2D31ABB82FB7DDA033E4BAD
S21440538013443B6100237B7700233B777B68DB7CC1
S21440539003F00703DBB2012B0CBF01230023FB7392
S2144053A0FB7D02221946B869344B9847FB8B002B8D
S2144053B021D0FA8BBB8A9A4203D9BB8AFB8301234E
S2144053C07B777B681A687B689B681344FA8B3969DD
S2144053D018462B4B98477B689A68FB8B1A447B6829
S2144053E09A60FA8B7B68DA60FB7D4FF48042194600
S2144053F0B869244B98477B681B8AFA8B9A4207D237
S2144054007A68D37C6FF30413D37401233B7707E0A9
S2144054107B689A687B685B689A4201D301237B77F6
S2144054207B7F002B02D13B7F002B1CD0FB7D0222D2
S2144054301946B869134B9847FB7B83F00103DBB2F0
S214405440002B08D0FB7D4FF4805202FA03F3194636
S214405450B8690D4B98477B689A687B685A6000210C
S21440546078680A4B984700BF2037BD4680BD00BFCE
S21440547000800340AD4E4000000010A00B494000A5
S214405480216A400099494000074840008D5D400031
S21440549080B586B000AF7860614BFB607B689B7CD4
S2144054A003F00F03FB727B68DB7C03F04003DBB248
S2144054B0002B00F0B0807B689A687B685B689A42F5
S2144054C073D07B685A687B689B68D31A7B617B691C
S2144054D0B3F5803F05D94FF480337B6100233B61B1
S2144054E002E07B691B043B617B68DB7C23F07F0327
S2144054F0DBB2002B0BD07B68DB7C03F01003DBB207
S214405500002B04D13B6943F008033B6110E07B6805
S214405510DB7C03F00703DBB2022B05D17B681B8ADA
S2144055201A467B699A4203D33B6943F014033B61B6
S214405530FB7A013BD9B27B681A687B689B68134448
S2144055401A46F868374B98473B6943F021033B615E
S214405550FB7A013BDBB21946F868334B9847034663
S21440556083F00103DBB2002B1BD0FB7A013BDBB29E
S2144055703A691946F8682D4B98477B689A687B6964
S2144055801A447B689A607B687A69DA60FB7A013BEA
S2144055904FF0007202FA03F31946F868244B984716
S2144055A03AE07B689A687B685A607B68DB7C23F0CD
S2144055B07F03DBB2002B29D07B68DB7C03F0100333
S2144055C0DBB2002B22D0FB7A01211846194B9847B4
S2144055D0FB7A1946F868184B98470346002B05D0C7
S2144055E0FB7A01221946F868144B9847FB7A012249
S2144055F01946F868124B9847FB7A4FF4805202FAE5
S21440560003F31946F8680A4B984705E00021786886
S2144056100C4B984700E000BF1837BD4680BD00BF22
S214405620008003406B4B4000F34B4000954B4000DE
S214405630D3474000814C4000874840004D494000D9
S214405640734940008D5D400080B584B000AF7860FF
S2144056507B689B7C03F00F03FB737B68DB7C03F06B
S2144056600703DBB2012B0CBF01230023BB73BB7BBC
S21440567083F00103DBB2002B08D0FB7B18461A4BA5
S2144056809847FB7B1846194B98472AE07B68DB7C9B
S21440569003F04003DBB2002B0ED07A68D37C6FF366
S2144056A08613D374FB7B00211846114B9847FB7B2F
S2144056B0002118460F4B98477A68D37C6FF3C30394
S2144056C0D374FB7B182118460B4B9847FB7B18215D
S2144056D018460A4B98470A4B9B687A68927C104655
S2144056E098471037BD4680BD614E4000114E400081
S2144056F0254F40006D4F4000814C4000E94C400033
S2144057007011402080B584B000AF78607B689B7C89
S21440571003F00F03FB73FB7B00211846044B9847AE
S21440572001217868034B984700BF1037BD4680BDBF
S214405730D54D40008D5D400080B584B000AF7860A8
S2144057400F4BFB607B689B7C03F00F03FB72FB7A7E
S21440575020221946F8680B4B98477B68DB7CC3F3DE
S214405760C013DBB2002B14BF01230023DBB204229C
S21440577019467868044B984700BF1037BD4680BD31
S214405780008003400B494000D55D400080B582B0A4
S21440579000AF78600B46FB70FB7803F00403002BE9
S2144057A003D07868074B984707E0FB7803F0400340
S2144057B0002B02D07868044B984700BF0837BD4698
S2144057C080BD00BF495640000557400080B582B0B6
S2144057D000AF78600B46FB70FB7803F00103002BAC
S2144057E003D078680A4B98470EE07B68DB7C03F072
S2144057F00703DBB2012B07D1FB7803F00403002B31
S21440580002D07868034B984700BF0837BD4680BD36
S214405810855140004956400080B582B000AF786060
S2144058200B46FB70FB7803F02003002B03D0786810
S2144058300F4B984717E0FB7803F00203002B03D08A
S21440584078680C4B98470EE07B68DB7C03F00703D8
S214405850DBB2012B07D1FB7803F00403002B02D008
S2144058607868054B984700BF0837BD4680BD00BFE7
S21440587039574000495340004956400080B584B0EF
S21440588000AF78603960284BFB603B689B7C03F038
S2144058900F03FB72FB7A01229A407B681340002B71
S2144058A03DD0FB7A1946F868204B98470346BB72B2
S2144058B0FB7A1946F8681E4B984703467B72BA7ABD
S2144058C07B7A1340BB72BB7A002B29D0BB7A03F09D
