S00F00004242526164696F2E73726563A2
S21440000018094020BD014000B9014000B901400038
S214400010B9014000B9014000B901400000000000AD
S214400020000000000000000000000000B901400091
S214400030B901400000000000B9014000B90140008D
S214400040B9014000B9014000B9014000B901400083
S214400050B9014000B9014000B9014000B901400073
S214400060B901400000000000B9014000B50F400053
S214400070B9014000B9014000B9014000B901400053
S214400080B9014000B9014000B9014000B901400043
S214400090B9014000B9014000B9014000B901400033
S2144000A0B9014000B9014000B9014000B901400023
S2144000B0B9014000B9014000B9014000B901400013
S2144000C0B9014000B9014000A91A400000000000F4
S2144000D000000000000000000000000000000000DB
S2144000E0B9014000B9014000B9014000B9014000E3
S2144000F0B9014000B9014000ED174000B901400089
S214400100B9014000B9014000B9014000B9014000C2
S214400110B9014000000000000000000000000000A0
S214400120B9014000B9014000CD224000B90140006D
S214400130B901400000000000B9014000B90140008C
S21440014010B5054C237833B9044B13B10448AFF3CC
S21440015000800123237010BD0000402000000000F6
S214400160702540000C4B43B10C480D4910B5AFF319
S21440017000800C48036823B910BD0A48036833B9A9
S2144001807047094B002BF7D0BDE810401847064B88
S214400190002BF5D0184700BF000000007025400037
S2144001A004004020702540000000000008B5014BC8
S2144001B0984708BD25054000FEE7000008B5174BE8
S2144001C0174A9A4210D0174B144A9A420CD2013B17
S2144001D09B1A23F0030304331344114951F8040BCC
S2144001E042F8040B9A42F9D10F4B104A9A420AD26F
S2144001F0013B9B1A23F0030304331344002142F8C7
S214400200041B9342FBD10A4A0A4B23F07F039360B8
S214400210094B9847094B9847FEE700BF000040202F
S2144002207025400000004020180340200000402079
S21440023000ED00E000004000692340003D23400000
S2144002404FF40052034B1A60012203F580631A6094
S214400250704700BF00100E40044B9B6913F0804F60
S21440026003D14FF08042014B1A61704700060E40A2
S21440027008B5044B984704490448054B9847054B36
S214400280984708BD59024000000004404002402004
S214400290F905400041024000034B01225A611A66AC
S2144002A0C3F890201A60704700100E40114B1A6F2A
S2144002B022F080621A675A6F42F080625A674FF0A7
S2144002C080625A601A6F22F000621A675A6F42F0D4
S2144002D000625A674FF000625A601A6F22F08072CE
S2144002E01A675A6F42F080725A674FF080725A60AF
S2144002F0704700BF00120E40054BD3F8083113F488
S214400300806F04D14FF48062014BC3F800217047E0
S21440031000060E4008B5044B984704490448054B70
S2144003209847054B984708BDF902400000800540B5
S214400330540240209D074000AD0240000A4B1A6F11
S21440034022F010021A675A6F22F010025A671022E3
S2144003505A601A6F22F008021A675A6F22F0080293
S2144003605A6708225A607047000E0E40044B9B693D
S21440037013F4002F03D14FF40022014B1A6170474B
S21440038000060E4008B5044B984704490448054B00
S2144003909847054B984708BD6D03400000800140D4
S2144003A0F8024020F50640003D034000044B9B69A0
S2144003B013F4801F03D14FF48012014B1A6170472B
S2144003C000060E4008B5034B984703490348044BC4
S2144003D0984708BDAD03400000C001408802402059
S2144003E0F50640000B4B1A6F22F400721A675A6FDC
S2144003F022F400725A674FF400725A601A6F22F461
S21440040080621A675A6F22F480625A674FF480629D
S2144004105A607047000E0E40044B9B6913F0800FE5
S21440042002D18022014B1A61704700BF00060E4081
S21440043008B5064B9847064B984702460549064876
S214400440064B9847064B984708BD00BF1904400026
S214400450E517400000080E407C024020B10A4000EC
S214400460E5034000054BD3F8083113F4804F04D120
S2144004704FF48042014BC3F80021704700060E40FF
S2144004800B4B1A6F22F480221A675A6F42F480226E
S2144004905A674FF480225A601A6F22F400221A6775
S2144004A05A6F42F400225A674FF400225A6070474F
S2144004B000140E4010B582B0074B9847074B98473C
S2144004C000901023064A07490748084CA047084BA7
S2144004D0984702B010BD00BF65044000E9174000D1
S2144004E01C004020001E0E40A80240204D0940003F
S2144004F081044000054BD3F8083113F0040F03D1B4
S2144005000422024BC3F80021704700BF00060E408D
S21440051008B5024B9847024B984708BDF504400083
S2144005204D0D400008B5204B9847204B9B6913F46F
S214400530006F03D14FF400621C4B1A611B4B9B6942
S21440054013F4805F03D14FF48052184B1A61184A57
S214400550536843F400435360164B4FF480121A61BD
S2144005601A631A604FF000721A615A631A66C3F82B
S2144005709020196F21F000711967596F1143596720
S2144005805A600D4B98470D4B98470D4B98470D4B6F
S21440059098470D4B98470D4B98470D4B98470D4B3A
S2144005A098470D4B984708BDAD0E400000060E40DC
S2144005B050180E4000120E40710240009902400052
S2144005C01503400085034000C50340003104400049
S2144005D0B50440001105400071064000EFF310835B
S2144005E0036072B6BFF35F8F7047BFF35F8F0368D9
S2144005F083F310887047000038B504460D4600283F
S21440060018BF002914BF012000203C220749084B90
S214400610984729462046074B9847024620B900236C
S2144006206360A360E3602361104638BDD823400072
S214400630B50D4000490F400070B50C4B5C68A042B9
S2144006400ED0012300211E46FF2503E02B465A18F4
S214400650520804D1A042F9D93BB13146F7E770BD04
S214400660024B1B680BB1984770BD70BD2C004020F4
S21440067008B5054B4FF0FF325A6000221A60034817
S214400680034B984708BD00BF2C0040203906400069
S2144006905910400010B584B014460389ADF80430B4
S2144006A002924FF40043ADF80630039101A9143886
S2144006B0034B9847002808BF204604B010BD00BF33
S2144006C05513400010B584B014460389ADF8043085
S2144006D0029248F20103ADF80630039101A914389E
S2144006E0034B9847002808BF204604B010BD00BF03
S2144006F05513400038B50D46044668220849003078
S21440070018BF0120074B984729462046064B984776
S214400710034618B9054AA261054A6261184638BDC3
S214400720F4234000B50D4000ED124000C5064000E1
S2144007309506400070B50D4616460446A222074967
S214400740003018BF0120064B984733460022294602
S214400750A4F11C00034CA04770BD00BF102440000D
S214400760B50D40004112400070B50D461646044691
S2144007708A220749003018BF0120064B9847334667
S2144007802A460021A4F11C00034CA04770BD00BFC0
S21440079010244000B50D40004112400038B50446D4
S2144007A00D46002818BF002914BF012000203D2216
S2144007B00749084B9847256029462046064B9847E8
S2144007C0034618B9054A2262054AE261184638BD12
S2144007D010244000B50D40009D11400069074000C0
S2144007E03507400008B500238362C3691BB1A0F1FA
S2144007F008021046984708BD08B500238362436A3E
S2144008001BB1A0F108021046984708BD38B504460B
S214400810A0F108052C30034B9847236A0BB12846B5
S214400820984738BD490E400070B50E46154600291B
S21440083018BF002A14BF01230023044640F2451285
S2144008400F4900280CBF002003F001000D4B9847CD
S214400850B4F84420B4F84C309A420DD1A664A4F8BB
S2144008604C500023A4F844300123236304F10800CD
S214400870054B9847284670BD6FF01B0070BD00BF03
S2144008802C244000B50D40009917400010B5044692
S214400890838FB0F844209A4209D0026C591C818755
S2144008A0D15C044B98472046034B984710BD034BFA
S2144008B0984710BD0117400099174000BD174000EB
S2144008C02DE9F04383B09046141C18BF01240F4610
S2144008D000290CBF002304F0010381464FF4B17297
S2144008E0144900280CBF002003F00100124B984723
S2144008F001A8124B984709F134094846104B9847CF
S214400900064601A80F4B98478EB184B100210C468D
S2144009100D4D0134A4B239444846A8472146A04567
S21440092001D9A642F5D8204603B0BDE8F08300249E
S214400930F9E700BF2C244000B50D4000DD0540001F
S214400940890E4000EB054000050E4000F8B5154600
S2144009501E4604460F46002818BF002914BF012033
S214400960002005D0002A18BF002B14BF012000200D
S21440097044221149114B98473246294604F1340027
S2144009800F4B9847A0B9394604F108000D4B9847DD
S214400990034658B90C4A62600C4A22600C4AA26070
S2144009A00C4AE2600C4A22610C4A62611846F8BD65
S2144009B06FF00C03FAE700BF2C244000B50D400052
S2144009C0BD0D400045164000C108400029084000C3
S2144009D08D0840000D084000E5074000F90740003C
S2144009E02DE9F8430F469146002918BF002A14BF48
S2144009F0012300230446FB22104900280CBF002098
S214400A0003F001000E4B984708340E4D2046A84789
S214400A100028FBD0013F0026DFF82C80094D17F850
S214400A20011F2046C0472046A8470028FBD0013675
S214400A304E45F4D33046BDE8F88300BF4C24400012
S214400A40B50D400049174000DD1640002DE9F8433B
S214400A500F469146002918BF002A14BF01230023E1
S214400A60044640F215120E4900280CBF002003F041
S214400A7001000C4B9847013F002608340A4DDFF82A
S214400A802C802046A8470028FBD02046C04707F8C1
S214400A90010F01364E45F4D33046BDE8F88300BF1B
S214400AA04C244000B50D400071174000251740000B
S214400AB038B504460D46002818BF002914BF01204B
S214400AC000203E220749084B9847294604F1080073
S214400AD0064B9847034618B9054A6260054A2260A5
S214400AE0184638BD4C244000B50D40000D16400059
S214400AF04D0A4000E10940000F4B5978884218D013
S214400B0030B41A46002300F00F0507E001335BB20D
S214400B10042B09D020325178814207D01478002C1B
S214400B20F4D18D42F2D101E04FF0FF33184630BC8D
S214400B307047002318467047340040200020704716
S214400B4038B504460D46094B9847094B03EB40130E
S214400B509B78032B01D0002038BD054B03EB40109B
S214400B60836929462046984738BD00BFF90A4000A9
S214400B7034004020F0B585B006460D4617464D4B2E
S214400B8098470446002D5BD14B4A4301D1180020BC
S214400B90C870D35C73B1484B03EB441301229A7080
S214400BA0454800EB4410C3693A46C17830469847FA
S214400BB005B0F0BD8B78032B0BD03F4800EB4412BA
S214400BC01446D3690C320021607898470223A370FC
S214400BD0EEE70B4691F90C500A46CE690C320121DD
S214400BE05878B047A0B1344B03EB441305229A70B3
S214400BF00222DA70002D09DB2F4800EB44104078C3
S214400C0040F0800001212D4B9847D1E75878F9E70E
S214400C10294800EB44100423837043780022019255
S214400C2002929542ACBF43F0800303F00F038DF869
S214400C300C3001238DF80D3001A8214B9847B7E7BB
S214400C40012D0AD0022D1CD0032D2AD01A4B03EBBF
S214400C50401306229A70DA70A2E7174A4301D11869
S214400C600220C870D35C2BB1134B03EB4413052210
S214400C709A7095E70B469870002130460F4B984780
S214400C808EE70D4A4301D1180420C870D35C2BB1BF
S214400C90094B03EB441301229A7081E702238B70C1
S214400CA086E7054B03EB401300229A700522DA7064
S214400CB076E700BFF90A400034004020F91E4000A5
S214400CC09D2040002DE9F04105461C4B98470646BE
S214400CD01B4C04EB40140C3421462846194B9847CD
S214400CE0C0B2082809D001212846174CA047012148
S214400CF045F08000A047BDE8F08100212846124F0D
S214400D00B84745F0800800214046B8470C4B03EBF7
S214400D10461301229A705B6921462846984708B1D7
S214400D20BDE8F081064B03EB46160523B370012160
S214400D302846B84701214046B847F1E7F90A40003F
S214400D403400402039204000F91E400010B5114BB9
S214400D50984700281CDB104C8022002120460F4B71
S214400D609847234604F18000FF210D4A59705A6186
S214400D709A61DA6120338342F8D10A4900200A4C4E
S214400D80A0470A490120A04709490220A047002061
S214400D9010BD00BFA91E400034004020C7234000BD
S214400DA03D0B4000C50C4000ED214000410B40008B
S214400DB0750B400000B900BE7047000070B50E4687
S214400DC01546002918BF002A14BF012300230446F5
S214400DD032220A4900280CBF002003F00100084BCD
S214400DE098476B1E1D4205D163600020A060E060FE
S214400DF0266070BD6FF00C0070BD00BF68244000D8
S214400E00B50D400038B504460D46002818BF0029E9
S214400E1014BF012000204A2209490A4B9847A3687C
S214400E20E2689A4209D0626813402268D35C2B700D
S214400E30A3680133A360002038BD6FF0090038BDB9
S214400E4068244000B50D400038B50D4604465B2288
S214400E500B49003018BF01200A4B9847E368626888
S214400E6013402268D554E3686168A2689A1A8A4299
S214400E7001D9591AA1600133E360002038BD00BF94
S214400E8068244000B50D400010B50446712205495F
S214400E90003018BF0120044B9847E068A368C01A8A
S214400EA010BD00BF68244000B50D400000B583B0BB
S214400EB001A80E4B98470E4AD2F8883043F4700388
S214400EC0C2F88830BFF34F8FBFF36F8F01A8094B2E
S214400ED09847094A136823F4706343F4A063136089
S214400EE0064B984703B05DF804FB00BFDD054000A5
S214400EF000ED00E0EB054000000C0E40C91040003D
S214400F00F8B50446061C18BF01260C4F40F20112E5
S214400F10394630460A4DA8470123236003236361C0
S214400F204FF4AF7239463046A847064BC4F8E43013
S214400F304FF0807363600020A060F8BD8C244000B2
S214400F40B50D40000043414438B50C4605465D2289
S214400F500549003018BF0120044B98472C602046B6
S214400F60034B984738BD00BF8C244000B50D400069
S214400F70010F4000D9B130B40D460438002450F873
S214400F80041F11F0010F0DD10123022211420AD194
S214400F9052000133202BF9D10134AC42EFD14FF04F
S214400FA0FF3002E0002303EB441030BC70474FF0A4
S214400FB0FF3070472DE9F04186B00023019302933D
S214400FC00393049305931F4B1868E9221E4900308B
S214400FD018BF01201D4B98471D4AD36C926C134096
S214400FE002935BB31B4D174FDFF86480052101A8C1
S214400FF0A84744B2B4F1FF3F18D0012620463B68CC
S2144010009847631106AA02EB830304F01F0406FA0E
S21440101004F453F8142C22EA040443F8144C052133
S21440102001A8A84744B2B4F1FF3FE7D1D8F84C3006
S214401030D8F8482013400293002BD7D106B0BDE81D
S214401040F08100BFB4004020A4244000B50D40000D
S21440105000100E40750F4000F8B50746154D40F29B
S214401060451229460120144CA047D122294601208A
S214401070A047C32229460120A047104B0120C3F8B1
S214401080B000C3F8C0000026C3F8C460C3F8D06000
S214401090C3F8D400C3222946A047094B4FF4006248
S2144010A0C3F88020C3F880211A60064B1F60304684
S2144010B0F8BD00BFA4244000B50D400000100E400F
S2144010C000E100E0B400402026490A6A22F002020D
S2144010D0254B13430B620A46936E13F0010FFBD069
S2144010E0204B196A214A0A431A62996A204A0A40E2
S2144010F09A62204A9A621A46936E13F0020FFBD009
S2144011004FF47102174BDA611A46936E13F0400F94
S214401110FBD0144A136B43F400531363936E13F0DF
S214401120080FFBD00F4A136B23F070031363936EC4
S21440113013F0080FFBD00B4A136B23F4407343F4B1
S21440114080731363936E13F0080FFBD0054A136B3E
S21440115023F0030343F002031363936E13F0080F68
S214401160FBD0704700060E40013E370000003701B6
S214401170FFFF00F8013F182008B583689B6803B15D
S214401180984708BD08B583685B6803B1984708BDB3
S21440119008B58368DB6803B1984708BD1F4B0B440E
S2144011A0C3F30743052B1E4B18BF00230A6912F4EE
S2144011B0803F30D12DE9F0410446016080220A602C
S2144011C05868184A02400A609A6817481040174AFA
S2144011D002434A60DB680B630025E560A5606560F6
S2144011E004F1180801214046114FB847A3699C6096
S2144011F0A369104A1A60A3690F4E5E6029464046AE
S214401200B847A3699C60A3690C4A1A60A3695E60EC
S2144012102846BDE8F0816FF0100070470080FFBFA1
S214401220C02440007CFFFFFE6FFFF1FF10000E0061
S214401230B9224000791140009111400085114000CC
S2144012402DE9F04105460E461F460168204B0B44EB
S214401250C3F30743052B1F4C18BF002482B19046AA
S214401260083101201C4B9847414601201B4B9847AC
S214401270394601201A4B984700210120194B9847C0
S2144012809EB131460020144B984729680C31002007
S214401290124B984739460020114B98470021084684
S2144012A0104B98470020BDE8F08104F11001002063
S2144012B0094B984729680C310020084B9847002175
S2144012C00846094B984739460020054B9847E5E7BE
S2144012D00080FFBFC02440002D2240001D22400059
S2144012E089224000A12240003D22400038B50546F4
S2144012F00C46002818BF002914BF01200020882271
S2144013001049114B98472C61104B9C4218D003F55E
S21440131080439C420DD000235A6822602A6999680F
S21440132091632A69D96851642A691B691361002050
S21440133038BD012253001A44054B03EBC203EBE7CA
S2144013400022F7E704254000B50D4000008001402C
S214401350D424400070B505460C46002818BF002926
S21440136014BF01200020CA225149524B98476B882F
S21440137013F4807F40F09880638813F0010F1DD1EE
S21440138063889BB243F480736380238813F4806F32
S2144013905ED02A691B0A43F078031B0403F4FE035D
S2144013A043F4807353602B692278DA606368002BBD
S2144013B065D0002001466FF0010657E063889BB277
S2144013C043F480736380238813F4806F18D02A69AF
S2144013D01B0A43F078031B0403F4FE0343F48853CC
S2144013E053602B692278DA602B696268012A0CBF49
S2144013F0032201221A606368EBB1002102200BE051
S2144014002A691B0403F4FE0343F480535360EBE75E
S2144014100131636899420ED22A69136A13F0020FAB
S214401420FBD0126BA3685A546368023B8B42EFD1E1
S2144014302B691860ECE72A69136A13F0010FFBD09A
S2144014406B8823F480731B041B0C6B80002070BDDC
S2144014502A691B0403F4FE035360A7E73046A368DB
S2144014605B5C536301316368994209D22A69136A07
S21440147013F4807FF2D113F0040FF8D0EFE700208A
S214401480638813F4004F06D16B8823F480731B04E3
S2144014901B0C6B8070BD2B6902221A602A69136A86
S2144014A013F0010FFBD0EFE76FF0050070BD00BFF3
S2144014B004254000B50D400010B5044640F21D22FC
S2144014C01149003018BF0120104B9847104B9C42E2
S2144014D011D003F500739C420FD003F580539C4215
S2144014E00DD003F500739C420BD00A4884420CBFD3
S2144014F00420FF2010BD002010BD012010BD02209A
S21440150010BD032010BD00BF38254000B50D40007B
S21440151000080E40001E0E4010B504464FF42A72D6
S2144015200B49003018BF01200A4B984720460A4B0B
S214401530984748B1042809D040F2B2220449002016
S214401540044B9847002010BD002010BD012010BD60
S21440155038254000B50D4000B914400010B504468B
S21440156040F2BF220F49003018BF01200E4B98476B
S21440157020460E4B98470E4BC4F8E430AC2323600D
S2144015804FF4807323600B4B4200111803EB81012C
S21440159049686160024403EB82039B682362002033
S2144015A010BD00BF38254000B50D4000191540005D
S2144015B0005241552025400010B50446912210495E
S2144015C0003018BF01200F4B984720460E4B9847D7
S2144015D004280CD8DFE800F01203050709000820AD
S2144015E010BD2C2010BD2D2010BD2E2010BDA322D6
S2144015F003490020034B9847FF2010BD072010BD2D
S21440160038254000B50D4000B9144000F8B50C46EA
S214401610094E0746B7223146003018BF0120074D15
S214401620A847B8223146201C18BF0120A8473C6076
S2144016302046034B9847F8BD38254000B50D40007E
S2144016405D1540002DE9F0410C460546C6221C4972
S214401650003018BF01201B4B984720461A4B98472E
S214401660064610B13046BDE8F081AC61174B9C424F
S21440167023D02046164FB84743B25B0900F01F0000
S214401680012505FA00F0DFF85080203348F82300A3
S2144016902046B84743B25B0900F01F0005FA00F049
S2144016A0603348F823002046B84743B25B0900F051
S2144016B01F00854048F82350D4E7064B1D60D8E706
S2144016C038254000B50D40005D154000001E0E4018
S2144016D0B9154000B800402000E100E038B50C469F
S2144016E005464FF4D1720449003018BF0120034B21
S2144016F098472B68DC6138BD38254000B50D400062
S21440170038B50C46054640F2AB120449003018BFC7
S2144017100120034B9847AB69DC6138BD3825400053
S214401720B50D400010B504464FF4DA720449003057
S21440173018BF0120034B984723689869C0B210BD74
S21440174038254000B50D400010B5044640F2BD12A5
S2144017500549003018BF0120044B98472368586954
S214401760C0F3400010BD00BF38254000B50D400016
S21440177010B5044640F2CF120549003018BF01208C
S214401780044B98472368586900F0010010BD00BF1D
S21440179038254000B50D400010B5044640F20A22F8
S2144017A00449003018BF0120034B9847A369022222
S2144017B09A6010BD38254000B50D400010B504466F
S2144017C040F213220549003018BF0120044B9847C9
S2144017D0A3694FF400729A6010BD00BF38254000E0
S2144017E0B50D4000002070470020704710B5254BCF
S2144017F01C6840F281222449201C18BF0120234B3C
S2144018009847A3695A6912F0020F03D01A6912F07A
S214401810020F18D15A6912F4007F03D01A6912F4E5
S214401820007F16D15A6912F0010F1FD01A6912F0C4
S214401830010F1BD05A6912F0E00F11D09A694FF48D
S21440184080721A6010BD0222DA60236820469847EC
S21440185010BD4FF40072DA60A3682046984710BD6A
S21440186099696368C9B22046984710BD5A6912F014
S214401870E00F00D110BD4FF480721A60E368204636
S2144018809847F7E7B800402038254000B50D40009F
S214401890704700207047000008B5837C03F00F03B4
S2144018A0C27C02F00701012908D0154A02EB8303E7
S2144018B00422C3F86021C3F8202208BD12F0400F6E
S2144018C00CD0C27C6FF38612C2740D4A02EB8302C0
S2144018D00121C2F890110221C2F86011C27C6FF358
S2144018E0C302C274064A02EB83031822C3F860217F
S2144018F0C3F82022034B9B68807C984708BD00BFF6
S21440190000800340BC00402038B5847CFF2C03D0C8
S214401910C37C13F0400F00D138BDC27C6FF38612F3
S214401920C274034A156982682046A847F4E700BF98
S214401930BC0040202DE9F0410F4B1A6822F080028F
S2144019401A601A6822F07F021A601A6842F0800213
S2144019501A600A4D05F1140464354FF00308084F29
S214401960FF2641462046B847A6740023E374143445
S214401970AC42F6D1BDE8F08100800340BC00402078
S21440198009194000C27C12F0400F67D0F8B5817C40
S21440199001F00F01876843689F4221D0DB1BB3F5F7
S2144019A0803F26D81E0402F09005802D25D002F0F8
S2144019B00702022A24D046F01406026817444A1E3C
S2144019C0D2B2274C02F1310504EB05156F6004EBEB
S2144019D00214D4F81C4314F0100F15D083684360EB
S2144019E0C37C03F09003902B20D000211D4B9847DA
S2144019F0F8BD00264FF48033D5E746F00806DCE70E
S214401A00028A9342D9D8D6E746F02106144C04EB16
S214401A100212C2F8186382681A448260C3600139B1
S214401A204FF0007303FA01F1A161F8BD0C4B03EBD4
S214401A3081030122C3F86021D3F8302112F4803F9D
S214401A4002D00122C3F890210122C3F8F0214FF4BE
S214401A50805303FA01F1024B9961F8BD704700BF0D
S214401A600080034009194000837CFF2B16D010B538
S214401A70C47C14F0400F0AD003F00F0341B1643326
S214401A800124074941F823401146064B984710BDAC
S214401A9058330224024941F82340F5E7704700BF17
S214401AA000800340091940002DE9F04F85B0AA4A4E
S214401AB0516813690B40C3F30B374FEA536817B9A5
S214401AC0B8F1000F02D0A54C00258AE053689BB2BF
S214401AD01269134013F0040F17D113F0020F1DD1F3
S214401AE013F0700F21D113F0080F2AD113F0010F15
S214401AF0E9D0994B01229A605A6170229A61974BBD
S214401B005B6800210420984705E00422924B9A60C7
S214401B10924B1B68984705B0BDE8F08F02228E4B6B
S214401B209A608E4B1B689847F5E78B4B10229A605D
S214401B305A6101229A61894B5B68002102209847CE
S214401B40E9E7854B08229A6070225A6101249C611D
S214401B50834B9847814B5B68002120469847DAE7DD
S214401B6006F00F060123B3403B4236D07A4B03EBD8
S214401B70860BDBF83031DBB2DBF8C02113402CD0CB
S214401B8013F0400F22D105EB8502744901EB820227
S214401B9092F82720019212F0400F58D0019A12F086
S214401BA0800F5BD113F0200F40F0038113F0020F3B
S214401BB040F00F81019A02F00702012A0DD113F07E
S214401BC0040F0AD05046674B984706E04023CBF8B0
S214401BD0203201215046644B984701351434042D79
S214401BE099D0A946009494F82660FF2EF5D004F1CB
S214401BF0140A002FB4D1B8F1000FEED06B1EDBB242
S214401C00052BEAD806F00F06711E01238B4013EA17
S214401C10080FE2D0CBB2504A02EB0312D2F81C2394
S214401C2012F0010FD9D14FF000728A404A494A61FA
S214401C3001EB0313D3F81C23120C04D00099CB6994
S214401C409B1ACB618B615046484B9847C5E713F0CB
S214401C50040FC2D05046434B9847BEE713F0010FDF
S214401C600BD1019A02F00702012AB6D113F0040FF5
S214401C70B3D050463B4B9847AFE7009B988C40F21A
S214401C80FF3398422FD0421E92B2019B03F00703C7
S214401C900293009B9E46D969DEF81830994267D376
S214401CA0019911F0100F21D00021CEF8201009EB39
S214401CB089032A4A02EB830393F8272061F3041230
S214401CC083F827200123CBF860310823CBF8603116
S214401CD0CBF8F031029B012B3FF47FAF4FF48043AB
S214401CE0CBF8203279E740F2FF32CEE7009B1B6A02
S214401CF00121CBF820120299012905D04FF48051DA
S214401D0001FA06F614494E61009EF169B161B08C45
S214401D101A4090421BD11423104A03FB092393F820
S214401D2027206FF3861283F827200C4BDB6896F843
S214401D302600984700287FF450AF1423074A03FB39
S214401D40092393F8272042F0400283F827200021F9
S214401D505046054B984740E700800340BC00402073
S214401D60351940009918400009194000851940006F
S214401D705B1A9BB2984228BF18468146009B5B6917
S214401D8002461944424800EBC630424B9847009AF8
S214401D90C2F82090D3694B44D3610123CBF860311D
S214401DA0029B012B3FF419AF4FF48043CBF820320F
S214401DB013E72023CBF8603105EB8509364B03EB60
S214401DC0890393F827100422C9095046334B984795
S214401DD003E7DBF83031C3F30A5319460293009AFF
S214401DE09369D0690222CBF86021002943D01B1AA0
S214401DF09BB299423CD9029301230393009B5B69B3
S214401E00029A234901EBC6311844224B9847009961
S214401E10CB6902980344CB610B4618624FF480436B
S214401E20CBF82032009B9B8C029A934226D909EB32
S214401E308903194A02EB830393F827206FF30412B1
S214401E4083F827200223CBF82032019B03F00703B8
S214401E50012B05D04FF4805303FA06F6104B5E6113
S214401E60009AD3699361002150460E4B9847B4E6DA
S214401E7000230393C2E700230393D3E70099CA697C
S214401E808B699A42DED2039B002B3FF4A6AED9E77D
S214401E90000010A0B1234000BC004020691A40005A
S214401EA0008003400919400008B50E4BD3F80038AF
S214401EB013F4004F13D10C4B0C4A1A605A609A60C8
S214401EC00B49D9601A610B4B9847064B4FF000728E
S214401ED0C3F800284FF480721A60002008BD6FF0E7
S214401EE0100008BD00800340BC0040209118400010
S214401EF0931840003519400000F00F00032800F208
S214401F008A8001290BD0002939D000EB8000484B4D
S214401F1003EB800090F82700C0F3C000704700EB4A
S214401F208003434A02EB830393F8263003F00F0303
S214401F30032B73D800EB80023D4901EB820292F8F6
S214401F40272012F0080F6CD100EB800001EB8000D8
S214401F5090F8272042F0080280F82720354800EB0A
S214401F6083014022C1F8F0214FF4805202FA03F375
S214401F7083614FF40023C1F8F0310020704700EB36
S214401F8080032B4A02EB830393F8272012F0080FB6
S214401F9049D000EB8003264901EB830393F82630B3
S214401FA003F00F01234B03EB81034FF40021C3F8EA
S214401FB020124021C3F82012D3F8301111F0400F00
S214401FC006D04021C3F860114FF48021C3F8F011C9
S214401FD002F00702012A0CD000EB8000144B03EB02
S214401FE0800393F827206FF3C30283F8272000204E
S214401FF07047D3F8303113F0400F16D100EB800015
S2144020000B4B03EB800393F827206FF3C30283F850
S2144020102720002070476FF0110070476FF00900CE
S214402020704700207047002070470020704700BF70
S214402030BC0040200080034000F00F00154B03EB2F
S2144020408003D3F83021032821D830B40C46C1B1E0
S214402050D3F8001111F4C05F16D1D3F8301111F047
S214402060040F02D1002030BC70470B4D05EBC03545
S21440207003CD206061600421C3F86011C2F30A50AA
S214402080F1E76FF01100EEE76FF01200EBE76FF04C
S2144020901100704700800340000010A02DE9F04F6B
S2144020A083B0067A06F00F0404EB84024A4B03EB37
S2144020B082039D8C40F2FF339D4201D0013DADB27C
S2144020C004EB8403444A02EB830393F82780032CF3
S2144020D07ED818F0080F03D0022003B0BDE8F08F7A
S2144020E00746D0F804A001A83C4B984704EB84036D
S2144020F0394A02EB830393F8273013F0400F4FD151
S21440210076B204EB8409344B03EB890999F82730FF
S21440211043F0400389F8273001A8314B98473B6885
S214402120C9F814307B68C9F818300023C9F81C3049
S214402130C9F82030F20F99F8273062F3C71389F8B0
S214402140273015EA0A0F0CBF012300237A7A002AAB
S2144021500CBF002303F0010399F8272063F3041211
S21440216089F82720631EDBB2052B1ED908F007032B
S214402170012B04D04FF48053A3401A4A9361194B65
S21440218003EB8404D4F8003123F40073C4F8003120
S214402190002EB4BF01230223C4F8F03100209CE790
S2144021A001A80F4B9847012097E70E4B03EB84039B
S2144021B0D3F8002142F40072C3F80021013404EB46
S2144021C08404054800EB8400074B9847002084E7CA
S2144021D06FF0110081E700BFBC004020DD054000E5
S2144021E0EB0540000080034085194000094B00295C
S2144021F008BF194620B1012805D0022806D07047EE
S214402200054B99607047044BD9607047024B196183
S214402210F5E700BF91184000BC0040208001024B0B
S21440222019500020704700BF648007408001024B71
S21440223019500020704700BF608007400B4691B998
S21440224081010F4A5258C2F3C122022A0BD00D4BCD
S2144022500B449A6F42F440329A67D96F4FF6FF723A
S2144022600A43DA6709E08001054A115821F44031F3
S2144022701B0403F440330B4313500020704700BF49
S21440228078800740008007408001044A0244936FEC
S214402290C3F3C123D9401167002070470080074030
S2144022A0012303FA00F0034BD86101B19863002084
S2144022B0704700BF0080074001EB4101024B03EB33
S2144022C0810101600020704720014020184B98692A
S2144022D010F0010F1ED10123D9B220FA03F212F0FA
S2144022E0010F03D10133182BF6D170475BB2002B98
S2144022F00FDB10B503EB43000E4A02EB800089016A
S2144023000D4A525812F0700F07D112F0010F07D144
S21440231010BD704700210B46EBE74368984710BD59
S21440232003EB4304034B53F824309847F0E700BFD1
S21440233000800740200140205C80074008B5074BDE
S214402340984707498B6B03F48013DA4302F48012F4
S2144023500A634B63034B013BFDD1F3E7AD014000FD
S21440236000120E4080D1F00870B50D4E0D4CA41BE7
S214402370A4100025A54209D10B4E0C4C00F0E8F8FD
S214402380A41BA4100025A54205D170BD56F82530E3
S21440239098470135EEE756F8253098470135F2E77D
S2144023A05C2540005C2540005C25400060254000E0
S2144023B010B5431E0A44914200D110BD11F8014B9E
S2144023C003F8014FF7E702440346934200D17047B3
S2144023D003F8011BF9E700002E2E2F68616C2F735F
S2144023E072632F68616C5F6461635F73796E632E9E
S2144023F0630000002E2E2F68616C2F7372632F6867
S214402400616C5F6932635F6D5F73796E632E6300E4
S2144024102E2E2F68616C2F7372632F68616C5F730A
S21440242070695F6D5F646D612E6300002E2E2F68AD
S214402430616C2F7372632F68616C5F757361727421
S2144024405F6173796E632E63000000002E2E2F6846
S214402450616C2F7372632F68616C5F757361727401
S2144024605F73796E632E63002E2E2F68616C2F7516
S21440247074696C732F7372632F7574696C735F72B3
S214402480696E676275666665722E63002E2E2F68CB
S214402490706C2F6461632F68706C5F6461632E6339
S2144024A0000000002E2E2F68706C2F70696F2F680A
S2144024B0706C5F70696F5F6578742E630000000013
S2144024C0010000000000008001000000820C96041D
S2144024D0FFFF0000008001402000000000000000D8
S2144024E000000000BABA0200F049020000C00140F5
S2144024F0200000000000000000000000BABA020001
S214402500F04902002E2E2F68706C2F74776968731E
S2144025102F68706C5F74776968732E6300000000E4
S2144025200000000000080000510000000400000009
S21440253000080000510000002E2E2F68706C2F758A
S2144025406172742F68706C5F756172742E630000E0
S214402550F8B500BFF8BC08BC9E4670476501400011
S214402560F8B500BFF8BC08BC9E4670474101400025
S804400000BB
