S00F00004242526164696F2E73726563A2
S214400000C01F402069034000ED034000ED03400060
S214400010ED034000ED034000ED034000000000000B
S214400020000000000000000000000000ED0340005B
S214400030ED03400000000000ED034000ED034000EB
S214400040ED034000ED034000ED034000ED034000AB
S214400050ED034000ED034000ED034000ED0340009B
S214400060ED03400000000000ED034000F134400086
S214400070ED034000ED034000ED034000ED0340007B
S214400080E1344000ED034000ED034000ED03400046
S214400090ED034000ED034000ED034000ED0340005B
S2144000A0ED034000ED034000ED034000ED0340004B
S2144000B0ED034000ED034000ED034000ED0340003B
S2144000C0ED034000ED0340003168400000000000B2
S2144000D000000000000000000000000000000000DB
S2144000E0ED034000ED034000ED034000ED0340000B
S2144000F0ED034000ED034000E9504000ED034000B2
S214400100ED034000ED034000ED034000ED034000EA
S214400110ED0340000000000000000000000000006A
S214400120ED034000ED034000217C4000ED0340001D
S214400130ED034000ED034000ED034000ED034000BA
S214400140ED034000ED03400000000000000000000A
S214400150ED03400010B5054C237833B9044B13B17A
S2144001600448AFF300800123237010BD8800402070
S21440017000000000749840000C4B43B10C480D49F9
S21440018010B5AFF300800C48036823B910BD0A4889
S214400190036833B97047094B002BF7D0BDE81040D1
S2144001A01847064B002BF5D0184700BF000000004C
S2144001B0749840008C004020749840000000000076
S2144001C080B487B000AFF860B9601346FB71FA7927
S2144001D013465B0013441B01494A13443B61FB68CA
S2144001E0002B02D0BB68002B01D1022381E0454B97
S2144001F01B78032B01D102237BE03B6993F82E301A
S214400200012B01D1022374E03E4B1B78002B25D0F6
S2144002100023FB751DE0FA7D13465B0013441B016B
S2144002202833374A1A44BB689A4201D1022360E019
S214400230FA7D13465B0013441B012033304A1344B7
S2144002401A1DFB689A4201D1022352E0FB7D01331E
S214400250FB752C4B1B78FA7D9A42DCD3294B1B78D6
S2144002600133DAB2274B1A703B6900221A743B6995
S21440027000221A703B69002283F820203B69002246
S2144002809A803B6900229A823B6900229A753B69B4
S21440029000229A713B6900229A853B690022DA75F2
S2144002A03B690022DA71FB79002B06D13B690022BC
S2144002B01A763B6900221A7205E03B6901221A76DB
S2144002C03B6901221A723B693A69DA603B693A69CE
S2144002D0DA61BB683A695A60FB683A695A603B69BA
S2144002E0BA689A623B69FA685A62BB68064A9A607C
S2144002F0002318461C37BD465DF8047B704700BF98
S214400300A4004020340140200D03400080B483B058
S21440031000AF0346FB71FB79202B05D10B4B9B8D21
S21440032001339AB2094B9A85FB79772B07D1074B55
S214400330B3F85C3001339AB2044BA3F85C2000BF9C
S2144003400C37BD465DF8047B704700BFA4004020D4
S21440035080B500AF024B9847024B984700BF80BD20
S214400360DD0D4000C594400080B582B000AF164B0E
S2144003707B60164B3B607A683B689A420CD007E03D
S2144003803B681A1D3A607A68111D796012681A60D7
S2144003903B680F4A9342F3D30E4B3B6004E03B6806
S2144003A01A1D3A6000221A603B680B4A9342F6D305
S2144003B00A4B7B600A4A7B6823F07F039360094BB5
S2144003C09847094B9847FEE7749840000000402045
S2144003D08800402088004020BC1940200000400093
S2144003E000ED00E0D5944000C97D400080B400AFE9
S2144003F0FEE780B483B000AF786039607B68D3F89E
S21440040014213B681A437B68C3F8142100BF0C379D
S214400410BD465DF8047B704780B483B000AF78601B
S21440042039607B683A681A6000BF0C37BD465DF895
S214400430047B704780B483B000AF786039607B68D7
S2144004403A685A6000BF0C37BD465DF8047B70477B
S21440045080B483B000AF786039607B683A681A61D0
S21440046000BF0C37BD465DF8047B704780B483B050
S21440047000AF786039607B683A685A6100BF0C37D5
S214400480BD465DF8047B704780B483B000AF7860AB
S21440049039607B683A681A6300BF0C37BD465DF822
S2144004A0047B704780B483B000AF786039607B6867
S2144004B03A685A6300BF0C37BD465DF8047B704708
S2144004C080B483B000AF786039607B683A685A661B
S2144004D000BF0C37BD465DF8047B704780B483B0E0
S2144004E000AF786039607B683A681A6600BF0C37A0
S2144004F0BD465DF8047B704780B483B000AF78603B
S21440050039607B683A68C3F8942000BF0C37BD4614
S2144005105DF8047B704780B483B000AF7860396084
S2144005207B683A68C3F8902000BF0C37BD465DF83C
S214400530047B704780B485B000AFF8600B467A60A5
S214400540FB72FA7AF97AFB681C3153F821107B6803
S2144005501943FB681C3243F8221000BF1437BD46CF
S2144005605DF8047B704780B485B000AFF8600B46FA
S2144005707A60FB72FA7AF97AFB681C3153F82110DC
S2144005807B68DB431940FB681C3243F8221000BFEF
S2144005901437BD465DF8047B704780B483B000AF27
S2144005A0786039607B683A681A6100BF0C37BD4690
S2144005B05DF8047B704780B485B000AF78603960E2
S2144005C07B689B69FB60FA683B681340FB60FB688E
S2144005D018461437BD465DF8047B704780B483B038
S2144005E000AF786039607B683A68C3F8002100BF86
S2144005F00C37BD465DF8047B704780B485B000AFCD
S214400600786039607B68D3F80831FB60FA683B68ED
S2144006101340FB60FB6818461437BD465DF8047B04
S214400620704780B483B000AF786039607B683A68C2
S214400630C3F80C2100BF0C37BD465DF8047B7047FD
S21440064080B483B000AF78607B68D3F80C3118462E
S2144006500C37BD465DF8047B704780B483B000AF6E
S21440066078607B685B6843F400427B685A6000BFF2
S2144006700C37BD465DF8047B7047000080B483B0FD
S21440068000AF0346FB71FB795B021A46034B1344EB
S21440069018460C37BD465DF8047B7047000E0E408A
S2144006A080B584B000AF03463960FB711346BB711A
S2144006B0FB7918460E4B9847F860BB79002B0EDB4B
S2144006C0012B02DD022B05D009E03968F868094B9A
S2144006D0984709E03968F868074B984704E0412294
S2144006E006490020064B984700BF1037BD4680BDE0
S2144006F07D0640006D044000510440004495400093
S214400700FD27400080B584B000AF03463960FB71DA
S2144007101346BB71FB791846094B9847F860BB797E
S214400720002B04D03968F868064B984703E03968D0
S214400730F868054B984700BF1037BD4680BD00BFE0
S2144007407D06400089044000A504400080B584B082
S21440075000AF0346FB710B46BB7113467B71FB79BA
S2144007601846234B9847F8607B79012B14D0022B10
S21440077023D0002B32D1BB79012202FA03F319466B
S214400780F8681C4B9847BB79012202FA03F31946D6
S214400790F868194B984727E0BB79012202FA03F321
S2144007A01946F868144B9847BB79012202FA03F3BE
S2144007B01946F868114B984716E0BB79012202FAB1
S2144007C003F31946F8680B4B9847BB79012202FAA7
S2144007D003F31946F8680A4B984705E0832209490F
S2144007E00020094B984700BF00BF1037BD4680BD6C
S2144007F07D064000DD04400017054000C10440006F
S214400800F904400044954000FD27400080B584B080
S21440081000AF786039607B685B09FB737B68DBB24E
S21440082003F01F03BB73FB7B1846334B9847B860F7
S214400830FB7B012B16D1BB7B042B0BD0BB7B052B44
S21440084008D0BB7B062B05D0BB7B072B02D0BB7BDF
S2144008500C2B07D1BB7B012202FA03F3194627482B
S214400860274B98473B68B3F1FF3F08D1BB7B01223B
S21440087002FA03F31946B868224B984737E03B68BC
S21440088003F00103002B09D0BB7B012202FA03F3DD
S2144008901A460021B8681C4B984708E0BB7B0122EB
S2144008A002FA03F31A460021B868184B98473B688B
S2144008B003F00203002B09D0BB7B012202FA03F3AC
S2144008C01A460121B868104B984708E0BB7B0122C6
S2144008D002FA03F31A460121B8680C4B9847BB7BD3
S2144008E0012202FA03F31946B868094B984700BF3D
S2144008F01037BD4680BD00BF7D06400000800840E2
S214400900F3034000190440003505400067054000E9
S2144009103504400080B582B000AF03460A46FB71FE
S2144009201346BB71FB795B09D8B2FB7903F01F0312
S214400930DBB2BA791946034B984700BF0837BD4625
S21440094080BD00BF4D07400080B582B000AF7860E4
S214400950396039687868034B984700BF0837BD460A
S21440096080BD00BF0D08400080B582B000AF034692
S2144009700A46FB711346BB71FB795B09D8B2FB791B
S21440098003F01F03012202FA03F3BA791946034B18
S214400990984700BF0837BD4680BD00BFA10640004F
S2144009A080B582B000AF03460A46FB711346BB7162
S2144009B0FB795B09D8B2FB7903F01F03012202FAE8
S2144009C003F3BA791946034B984700BF0837BD462C
S2144009D080BD00BF0507400080B500AF014B98477B
S2144009E000BF80BDA92E400080B584B000AF7860BF
S2144009F07B681F2B13D801227B6802FA03F3194643
S214400A001F48204B98470346002B35D101227B6870
S214400A1002FA03F319461A481B4B98472CE07B68AA
S214400A203F2B16D87B68203B7B6001227B6802FA0E
S214400A3003F319461248154B98470346002B1BD123
S214400A4001227B6802FA03F319460D48104B98477B
S214400A5012E07B6803F07F03194609480D4B984720
S214400A6007480D4B9847F860FB6843F01023FB603F
S214400A70F9680348074B984700BF1037BD4680BD0E
S214400A8000060E40B70540009B054000FB054000B1
S214400A90DD054000230640004106400080B500AF1B
S214400AA04FF0FF312D20044B98474FF0FF31602028
S214400AB0014B984700BF80BD4909400080B500AF54
S214400AC01E20024B984700BF80BD00BFE90940008A
S214400AD080B500AF044B984704490548054B9847F6
S214400AE0054B984700BF80BDBD0A4000000004404B
S214400AF0E4184020C11340009D0A400080B500AF76
S214400B0001217720064B984700217720054B9847D0
S214400B104FF0FF317720044B984700BF80BD00BFA1
S214400B2069094000150940004909400080B500AFFA
S214400B3001212020064B984700212020054B98474E
S214400B404FF0FF312020044B984700BF80BD00BFC8
S214400B5069094000150940004909400080B500AFCA
S214400B6001217420054B984701217520034B984777
S214400B7001217620014B984700BF80BD49094000BF
S214400B8080B500AF1520024B984700BF80BD00BF20
S214400B90E909400080B500AF044B98470449054832
S214400BA0054B9847054B984700BF80BD810B4000DA
S214400BB000800040BC184020D51740005D0B400028
S214400BC080B500AF02215A20054B984702215B2092
S214400BD0034B984702215820014B984700BF80BDE1
S214400BE04909400080B500AF2A20024B984700BF15
S214400BF080BD00BFE909400080B500AF044B984770
S214400C0004490548054B9847054B984700BF80BDAB
S214400C10E50B400000800540F8184020D5174000FE
S214400C20C10B400080B500AF00210420034B98471D
S214400C3000210320014B984700BF80BD4909400072
S214400C4080B500AF1320024B984700BF80BD00BF61
S214400C50E909400080B500AF044B98470449054871
S214400C60054B9847054B984700BF80BD410C400058
S214400C70008001409C19402075174000250C40001C
S214400C8080B400AF00BFBD465DF8047B70470000EF
S214400C9080B500AF1420024B984700BF80BD00BF10
S214400CA0E909400080B500AF044B98470449054821
S214400CB0054B9847054B984700BF80BD910C4000B8
S214400CC000C001402C19402075174000810C4000A0
S214400CD080B500AF00210920034B984700210A2029
S214400CE0014B984700BF80BD4909400080B500AF22
S214400CF00720024B984700BF80BD00BFE90940006F
S214400D0080B500AF064B9847064B984703461A46B1
S214400D1005490648064B9847064B984700BF80BD96
S214400D20ED0C4000A14F400000080E402019402026
S214400D30311D4000D10C400080B500AF2E20024B44
S214400D40984700BF80BD00BFE909400080B500AFAE
S214400D5002217220034B984702217320014B98478B
S214400D6000BF80BD4909400090B583B002AF094B33
S214400D709847094B9847034600931023074A08496B
S214400D800848094CA047094B984700BF0437BD4662
S214400D9090BD00BF390D4000B14F40003C1140208F
S214400DA0001E0E404C1940202D1A40004D0D4000AC
S214400DB080B500AF2220024B984700BF80BD00BFE1
S214400DC0E909400080B500AF024B9847024B984770
S214400DD000BF80BDB10D4000A922400080B500AFE5
S214400DE0334B98470B20334B98470C20314B984752
S214400DF01020304B98473048304B984700212120F0
S214400E002F4B9847022121202E4B98474FF0FF3119
S214400E1021202D4B984700214720294B98470221F7
S214400E204720284B98474FF0FF314720264B98479E
S214400E3000215920224B984702215920214B9847A0
S214400E404FF0FF315920204B9847002171201C4B12
S214400E509847022171201B4B98474FF0FF31712075
S214400E60194B984700217820154B98470221782047
S214400E70144B98474FF0FF317820134B9847134B4D
S214400E809847134B9847134B9847134B9847134B29
S214400E909847134B9847134B9847134B9847134B19
S214400EA09847134B9847134B984700BF80BD00BFE9
S214400EB0D9094000E909400050180E405B06400042
S214400EC0A10940006909400049094000D10A400094
S214400ED0FD0A40002D0B4000950B4000F90B4000EA
S214400EE0550C4000A50C4000010D4000690D400027
S214400EF0C50D4000AD14400080B483B000AF7860AC
S214400F0039607B683A681A6300BF0C37BD465DF8A7
S214400F10047B704780B485B000AF786039607B68EA
S214400F209B6BFB60FA683B681340FB60FB681846A7
S214400F301437BD465DF8047B704780B483B000AF7D
S214400F40786039607B683A685A6300BF0C37BD46A4
S214400F505DF8047B7047000080B483B000AF034662
S214400F60FB71FB795B021A46034B134418460C3759
S214400F70BD465DF8047B7047000E0E4080B584B0D9
S214400F8000AF03463960FB711346BB71FB791846C8
S214400F90094B9847F860BB79002B04D03968F8684D
S214400FA0064B984703E03968F868054B984700BFFA
S214400FB01037BD4680BD00BF590F4000F90E4000B7
S214400FC03B0F400080B586B000AF03463960FB71EA
S214400FD0FB7918460C4B98477861396878690B4B13
S214400FE0984738613B69DA433B681340FB60F968D1
S214400FF07869074B984739697869064B984700BF28
S2144010001837BD4680BD00BF590F4000150F400041
S214401010F90E40003B0F400080B582B000AF03465B
S2144010200A46FB711346BB71FB795B09D8B2FB7964
S21440103003F01F03012202FA03F3BA791946034B61
S214401040984700BF0837BD4680BD00BF7D0F4000B3
S21440105080B582B000AF0346FB71FB795B09D8B21E
S214401060FB7903F01F03012202FA03F31946034BF0
S214401070984700BF0837BD4680BD00BFC50F40003B
S21440108080B582B000AF4720074B984700233B60AF
S21440109005E0FB790133FB713B6801333B603B68FD
S2144010A0024A9342F5D9EEE7511040007FD1F0084E
S2144010B080B500AF464B474A1A60474B474A1A60CE
S2144010C0002247494248474B9847012246494248F2
S2144010D0444B98473E4B1B68444A00211846444BB5
S2144010E098473B4B1B68434A01211846404B98475C
S2144010F0374B1B68404A022118463D4B9847364BB3
S2144011001B683E4A00211846394B9847324B1B68AD
S2144011103B4A01211846364B98472F4B1B68394AA5
S21440112002211846324B98472D4B9B681946202083
S214401130354B98472C4B9B6819467720324B98473F
S21440114000212448314B984731492248314B984733
S21440115000212048304B9847002120482B4B984789
S2144011602B491E482B4B984700211C482A4B984732
S21440117018482A4B98471948284B98470121592028
S214401180274B984701217120254B9847002147203F
S214401190234B984700212120214B984748F2A060D6
S2144011A0204B9847012121201D4B9847002178204D
S2144011B01B4B984748F2A0601A4B9847012178206D
S2144011C0174B984701214720154B984700BF80BDD5
S2144011D0AC154020F8184020C0154020BC184020D0
S2144011E0B4154020C1014000C8154020651240009B
S2144011F0E919400095124000C5124000ED1240002B
S2144012001D1340004D134000F9144000C91840001B
S21440121040420F00891840000D1940004D1840000C
S214401220191040004514400080B400AF034B012223
S2144012301A7000BFBD465DF8047B70478C15402091
S21440124080B500AF054B1B78DBB283F00103DBB201
S214401250002B01D0024B984700BF80BD8C15402024
S2144012608110400080B483B000AF7860074B002206
S2144012701A70074B1B8801339AB2054B1A8000BF81
S2144012800C37BD465DF8047B704700BF8D15402087
S214401290A815402080B483B000AF7860074B00228A
S2144012A01A70074B1B8801339AB2054B1A8000BF51
S2144012B00C37BD465DF8047B704700BF8E15402056
S2144012C0AA15402080B483B000AF7860054B00225A
S2144012D01A70054B00221A7000BF0C37BD465DF8E9
S2144012E0047B70478D1540208E15402080B483B017
S2144012F000AF7860074B00221A70074B1B880133FB
S2144013009AB2054B1A8000BF0C37BD465DF8047B89
S214401310704700BF8F154020A815402080B483B08A
S21440132000AF7860074B00221A70074B1B880133CA
S2144013309AB2054B1A8000BF0C37BD465DF8047B59
S214401340704700BF90154020AA15402080B483B057
S21440135000AF7860054B00221A70054B00221A70C9
S21440136000BF0C37BD465DF8047B70478F154020A4
S2144013709015402080B485B000AF7860EFF31083BE
S214401380FB60FA687B681A6072B6BFF35F8F00BF77
S2144013901437BD465DF8047B704780B485B000AF17
S2144013A07860BFF35F8F7B681B68FB60FB6883F3E6
S2144013B0108800BF1437BD465DF8047B70470000B8
S2144013C080B584B000AF786039607B68002B04D06D
S2144013D03B68002B01D0012300E0002303F001030B
S2144013E0DBB2322214491846144B98477B6839685A
S2144013F01846134B9847B860BB68002B01D0BB68B3
S21440140015E00023FB730EE0FB7B7A68DB00134499
S21440141000225A60FB7B7A68DB00134400229A6005
S214401420FB7B0133FB73FB7B012BEDD90023184676
S2144014301037BD4680BD00BF60954000FD27400088
S214401440752F400090B583B000AF0346FB80074B36
S2144014501C68FB881846064B9847034619462046A4
S214401460044B984700BF0C37BD4690BDD81540206A
S214401470652B40009D2C400090B583B000AF0346DE
S214401480FB80074B1C68FB881846064B984703466C
S21440149019462046044B984700BF0C37BD4690BDC2
S2144014A0D8154020752C40009D2C400080B582B059
S2144014B000AF0023FB800EE0FB880C4ADB001344A1
S2144014C04FF0FF325A60FB88084A002142F833103A
S2144014D0FB880133FB80FB88012BEDD90448054B84
S2144014E09847034618460837BD4680BDDC15402061
S2144014F0511640003536400080B586B000AF786063
S21440150039600023FB750023BB7500237B7512E012
S214401510FB7D4D4ADB0013445A687B689A4207D1EC
S214401520FB7D49493A6841F8332001237B7505E045
S214401530FB7D0133FB75FB7D012BE9D93B68002B16
S2144015400ED17B7D83F00103DBB2002B02D06FF01F
S2144015500C0374E0002178683C4B984703466EE0E5
S2144015607B7D83F00103DBB2002B5AD00023FB7552
S21440157016E0FB7D344A52F83330002B0DD1FB7D0C
S21440158031493A6841F83320FB7D2F4ADB0013444B
S2144015907A685A6001237B7505E0FB7D0133FB7555
S2144015A0FB7D012BE5D936E0FB7D274ADB00134463
S2144015B05A68BB7D2449DB000B445B689A4227D2BD
S2144015C0BB7D214ADB0013445B68B3F1FF3F1FD06D
S2144015D0BB7D1D4907F10C02DB000B4493E803007A
S2144015E082E80300BB7DFA7D17481749DB000344B9
S2144015F0D2000A4492E8030083E80300FB7D124AC7
S214401600DB00134407F10C0292E8030083E8030072
S214401610BB7D0133BB75BB7D012B02D8FB7D012B07
S214401620C2D97B7D83F00103DBB2002B02D06FF082
S2144016300C0304E001217868044B9847034618469B
S2144016401837BD4680BD00BFDC15402069364000D7
S21440165080B584B000AF78600023FB730223BB7371
S2144016602AE0BA7BFB7B13445B107B737B7B012BAE
S21440167027D87B7B164ADB0013445A687B689A421D
S2144016800BD17B7B124A52F83330002B1BD07B7B2E
S2144016900F4A52F83330984715E07B7B0C4ADB0004
S2144016A013445A687B689A4203D27B7B0133FB73B0
S2144016B002E07B7B013BBB73BA7BFB7B9A42D0D27A
S2144016C002E000BF00E000BF1037BD4680BD00BF4F
S2144016D0DC15402080B58AB000AFF860B96013468C
S2144016E0FB80FB68143B7B627B6A9B8BBB82FB88E0
S2144016F0BB6148F20103FB82BB68FB617B6A07F172
S214401700140211461846064B984738623B6A002B2F
S21440171001D03B6A00E0FB8818462837BD4680BDAE
S2144017209945400080B58AB000AFF860B96013466E
S214401730FB80FB68143B7B627B6A9B8BBB82FB888F
S214401740BB614FF40043FB82BB68FB617B6A07F1D9
S214401750140211461846064B984738623B6A002BDF
S21440176001D03B6A00E0FB8818462837BD4680BD5E
S2144017709945400080B584B000AF786039607B689A
S214401780002B14BF01230023DBB25E220C4918460F
S2144017900C4B98477B68396818460B4B9847F8605F
S2144017A0FB68002B01D0FB6806E07B68074A9A611D
S2144017B07B68074A5A61002318461037BD4680BDED
S2144017C07C954000FD274000F5444000D51640007B
S2144017D02517400080B584B000AF7860396000239C
S2144017E0FB607B68002B04D03B68002B01D00123B4
S2144017F000E0002303F00103DBB233220E49184613
S2144018000E4B98477B683A681A607B68396818467A
S2144018100B4B9847F860FB68002B01D0FB6806E04E
S2144018207B68084A1A627B68074ADA6100231846D2
S2144018301037BD4680BD00BF98954000FD2740004C
S214401840E13E4000511940009D19400080B582B0ED
S21440185000AF78607B68002B14BF01230023DBB207
S2144018604A2206491846064B98477B681846054B59
S214401870984700BF0837BD4680BD00BF98954000DA
S214401880FD274000FD3F400080B582B000AF786045
S21440189039607B68002B14BF01230023DBB258223B
S2144018A006491846064B98477B6839681846054BE4
S2144018B09847034618460837BD4680BD9895400071
S2144018C0FD274000A540400080B582B000AF78605C
S2144018D00B46FB707B68002B14BF01230023DBB252
S2144018E05F2207491846074B98477B68FA781146A7
S2144018F01846054B9847034618460837BD4680BDF0
S21440190098954000FD2740004D40400080B582B08D
S21440191000AF78600B46FB707B68002B14BF01233A
S2144019200023DBB2662207491846074B98477B6878
S214401930FA7811461846054B984703461846083726
S214401940BD4680BD98954000FD274000F9404000C8
S21440195090B587B000AFF860B9601346FB80FB686F
S214401960002B14BF01230023DBB28022084918460F
S214401970084B9847FB681C3B7B617869FB88BA68D4
S2144019800021054CA047034618461C37BD4690BD6F
S21440199098954000FD2740003D42400090B587B0F6
S2144019A000AFF860B9601346FB80FB68002B14BF9D
S2144019B001230023DBB2982208491846084B984773
S2144019C0FB681C3B7B617869FB880022B968054C44
S2144019D0A047034618461C37BD4690BD9895400024
S2144019E0FD2740003D42400080B584B000AFF8601F
S2144019F00B467A60FB72FB68002B14BF0123002362
S214401A00DBB2AA2206491846064B9847FB68F97A85
S214401A107A681846044B984700BF1037BD4680BDCD
S214401A2098954000FD2740005941400080B586B05B
S214401A3000AFF860B9607A607B80FB68002B0AD004
S214401A40BB68002B07D07B68002B04D07B88002B1C
S214401A5001D0012300E0002303F00103DBB23A2269
S214401A6019491846194B9847FB6834337A88796881
S214401A701846174B98470346002B02D06FF00C03CE
S214401A801EE0FB680833B9681846124B98477861E1
S214401A907B69002B01D07B6912E0FB680E4A5A60D6
S214401AA0FB680E4A1A60FB680D4A9A60FB680D4A4E
S214401AB0DA60FB680C4A1A61FB680C4A5A610023DC
S214401AC018461837BD4680BDB4954000FD274000F7
S214401AD0D92840006D4C4000811B4000F11A400060
S214401AE0311C4000C91C40009D1C4000051D4000A4
S214401AF080B586B000AFF860B9601346FB80FB68DF
S214401B007B617B69002B07D0BB68002B04D0FB8829
S214401B10002B01D0012300E0002303F00103DBB2D9
S214401B2040F23B1213491846134B98477B69B3F86B
S214401B3044207B69B3F84C309A4202D06FF01B03C6
S214401B4013E07B69BA689A647B69FA88A3F84C20EC
S214401B507B690022A3F844207B6901221A637B69D3
S214401B6008331846054B9847FB8818461837BD4635
S214401B7080BD00BFB4954000FD2740009D4E40000C
S214401B8080B588B000AFF860B9601346FB8000238C
S214401B90FB83FB68BB61BB69002B07D0BB68002B8F
S214401BA004D0FB88002B01D0012300E0002303F083
S214401BB00103DBB24FF4AC7217491846174B9847EF
S214401BC007F110031846164B9847BB69343318463E
S214401BD0144B9847786107F110031846124B984704
S214401BE00CE0BB6903F13402FB8B591CF9831946A0
S214401BF0BB680B44194610460C4B9847FA8B7B69DA
S214401C009A4203D2FA8BFB889A42EAD3FB8B184659
S214401C102037BD4680BD00BFB4954000FD2740003C
S214401C2075134000312A40009B1340004D29400068
S214401C3090B585B000AF78607B68083BFB60FB687A
S214401C40B3F84420FB68B3F84C309A4217D0FB6890
S214401C5003F10800FB689A6CFB68B3F84430591CE3
S214401C608CB2F968A1F8444013441B781946084BD7
S214401C709847FB6808331846064B984704E0FB68CD
S214401C8008331846044B984700BF1437BD4690BDEE
S214401C90514D40009D4E4000DD4E400080B584B022
S214401CA000AF78607B68083BFB60FB6800221A63E5
S214401CB0FB685B6A002B03D0FB685B6AF868984752
S214401CC000BF1037BD4680BD80B584B000AF786099
S214401CD00B46FB707B68083BFB60FB683433FA7846
S214401CE011461846064B9847FB689B6A002B03D064
S214401CF0FB689B6AF868984700BF1037BD4680BDB2
S214401D00BD29400080B584B000AF78607B68083B52
S214401D10FB60FB6800221A63FB68DB6A002B03D07B
S214401D20FB68DB6AF868984700BF1037BD4680BD41
S214401D3080B586B000AFF860B9607A60FB68002B6B
S214401D4004D0BB68002B01D0012300E0002303F041
S214401D500103DBB234220D4918460D4B9847FB6809
S214401D600833B96818460B4B984778617B69002B57
S214401D7001D07B6906E0FB68074A5A60FB68074A61
S214401D801A60002318461837BD4680BDD4954000DB
S214401D90FD274000154C4000691E4000A11D400034
S214401DA080B586B000AFF860B9601346FB8000236C
S214401DB07B61FB683B61FB68002B07D0BB68002B50
S214401DC004D0FB88002B01D0012300E0002303F061
S214401DD00103DBB2F1221F4918461F4B984700BF4C
S214401DE03B69083318461D4B9847034683F001036A
S214401DF0DBB2002BF4D13B6903F10800BA687B697B
S214401E0013441B781946164B984700BF3B69083366
S214401E101846124B9847034683F00103DBB2002B6B
S214401E20F4D17B6901337B61FB887A699A42E2D3BD
S214401E3000BF3B69083318460A4B9847034683F071
S214401E400103DBB2002BF4D17B6918461837BD4638
S214401E5080BD00BFD4954000FD274000DD4D4000CA
S214401E60094D40001D4E400090B587B000AFF86069
S214401E70B9601346FB8000237B61FB683B61FB68CF
S214401E80002B07D0BB68002B04D0FB88002B01D06A
S214401E90012300E0002303F00103DBB24FF4867217
S214401EA012491846124B984700BF3B6908331846FC
S214401EB0104B9847034683F00103DBB2002BF4D166
S214401EC0BA687B69D4183B69083318460A4B98476A
S214401ED0034623707B6901337B61FB887A699A42AB
S214401EE0E2D37B6918461C37BD4690BDD49540006A
S214401EF0FD2740005D4E4000994D400080B485B0BF
S214401F0000AF0346FB710023FB7329E097F90F30BF
S214401F10194A5B01134401331B78FA799A4202D17D
S214401F2097F90F3022E097F90F30134A5B011344BC
S214401F301B78002B0ED1FB7903F00F0397F90F2087
S214401F400D4952010A4401321278934202D197F960
S214401F500F300BE097F90F30DBB20133DBB2FB7387
S214401F6097F90F30032BD1DD4FF0FF331846143767
S214401F70BD465DF8047B7047EC15402080B588B0C0
S214401F8000AFBA607B600346FB730B46BB73BB680F
S214401F907B617B68BB61BB7B002B04D0FB7B63F023
S214401FA07F03DBB203E0FB7B03F00F03DBB23B7740
S214401FB097F828307B7707F114031846034B984769
S214401FC0034618462037BD4680BD00BF9572400088
S214401FD080B485B000AFF860B9607A6000231846D8
S214401FE01437BD465DF8047B7047000080B586B068
S214401FF000AF0346FB71FB7918462A4B98470346C9
S214402000FB7597F917305B01274A13443B613B69E0
S2144020100C33FB60FB79F9681846244B9847034617
S214402020FB72FB7A082B0DD0FB7901211846204B1A
S2144020309847FB7963F07F03DBB2012118461C4BBF
S21440204098472BE0FB7900211846194B9847FB79B7
S21440205063F07F03DBB200211846154B98473B6977
S21440206001229A703B695B69FA79F968104698478D
S214402070034683F00103DBB2002B0FD03B690522F9
S2144020809A70FB7901211846094B9847FB7963F013
S2144020907F03DBB201211846054B98471837BD46EB
S2144020A080BD00BFFD1E4000EC154020F171400091
S2144020B0C570400080B584B000AF03463960FB7100
S2144020C0FB7918460D4B98470346FB7397F90F303C
S2144020D05B010B4A1344BB60BB689B78032B07D15C
S2144020E0BB689B69FA79396810469847034600E012
S2144020F0002318461037BD4680BD00BFFD1E400079
S214402100EC15402090B587B002AF78607B689B782E
S214402110FB737B681B7B03F08003002B14BF0123FB
S2144021200023BB73FB7B032B3AD17B68DB697A6861
S21440213050787A680C320121984703467B737B7B44
S214402140002B15D07B6805229A707B680222DA70D5
S214402150BB7B002B02D07B685B7804E07B685B78B7
S21440216063F07F03DBB201211846154B984722E007
S2144021707B6804229A707B685878BB7B002B14BF20
S21440218001230023DBB283F00103DBB203F001033B
S214402190D9B201230093002300220A4CA0470AE04C
S2144021A07B68DB697A6850787A680C3200219847F9
S2144021B07B6802229A7000BF1437BD4690BD00BFB0
S2144021C0C57040007D1F400080B586B000AF034616
S2144021D0B9607A60FB73FB7B18462F4B98470346E3
S2144021E0FB7597F917305B012C4A13443B61BB687B
S2144021F0002B0ED13B690022DA703B691B78002B1E
S21440220003D13869264B984743E03B6901229A70D0
S21440221038E0BB68012B13D13B690222DA703B6978
S2144022201B78002B08D13B6902229A70FB7B002169
S21440223018461C4B984725E03B6905229A7021E0DA
S214402240BB68022B0ED13B690422DA703B691B78CF
S214402250002B03D13B6902229A701AE03B690122A7
S2144022609A700FE0BB68032B06D13B6900229A7038
S2144022703B690522DA7005E03B6906229A703B69A5
S2144022800622DA703B69DB693A69D1787A68F87B6E
S21440229098471837BD4680BDFD1E4000EC154020CF
S2144022A005214000C570400080B582B000AF214B8C
S2144022B0984738603B68002B01DA3B6836E080225E
S2144022C000211D481D4B98470023FB711EE0FB79FB
S2144022D0194A5B0113440133FF221A70FB79164AF0
S2144022E05B0113441433164A1A60FB79124A5B01A9
S2144022F013441833124A1A60FB790F4A5B011344A1
S2144023001C330F4A1A60FB790133FB71FB79032BB0
S214402310DDD90C4900200C4B98470C4901200A4B4C
S21440232098470B490220084B984700231846083721
S214402330BD4680BD89694000EC154020339540007D
S214402340D11F4000ED1F40009D744000B520400066
S214402350C921400080B582B000AF03463960FB71AA
S214402360FB7939681846034B984700BF0837BD4687
S21440237080BD00BF5574400080B500AF024B984703
S2144023800346184680BD00BF296A400080B500AFAE
S214402390014B984700BF80BD996A400080B582B027
S2144023A000AF0346FB71FB791846034B984700BFC6
S2144023B00837BD4680BD00BFB16A400080B582B0D8
S2144023C000AF0346FB71FB799BB21A460021002002
S2144023D0034B9847034618460837BD4680BD00BFA6
S2144023E0E523400080B586B000AF0346FB710B4640
S2144023F0BB711346BB80FB7918461E4B9847034675
S214402400FB7597F917305B011B4A13443B6197F9FC
S2144024101730002B02DB6FF0130327E0FF20154B2D
S21440242098470346FB7597F91730002B02DA6FF092
S21440243014031BE097F917305B010F4A13443B61C6
S214402440BA88B979FB7918460C4B9847F860FB6810
S214402450002B01DAFB6809E03B69FA795A70BB79D0
S21440246003F00303DAB23B691A70002318461837A4
S214402470BD4680BDFD1E4000EC154020596B400017
S21440248080B584B000AF0346FB71FB7918460D4B10
S21440249098470346FB7397F90F305B010A4A13448B
S2144024A0BB6097F90F30002B07DBFB791846074BCC
S2144024B09847BB68FF225A7000E000BF1037BD4601
S2144024C080BD00BFFD1E4000EC154020F96C40006A
S2144024D080B586B000AF0346FB71FB791846154BB6
S2144024E098470346FB7597F917305B01124A134429
S2144024F03B6197F91730002B02DA6FF0110314E0B6
S2144025003B691B78002B01D1022200E001223B6987
S2144025109A70FB791846094B9847F860FB68002B81
S21440252002DA3B6900229A70FB6818461837BD46A7
S21440253080BD00BFFD1E4000EC154020856D40006C
S21440254090B58DB002AF78607B681B7A1846514BC9
S21440255098470346FB7797F91F305B014E4A134472
S214402560BB617B681B7A03F08003002B14BF0123FA
S214402570002387F827307B685B7A002B14BF012343
S214402580002387F826307B685B683B6297F91F30EC
S214402590002B02DA6FF0110377E007F108031846C4
S2144025A03E4B9847BB699B78FB73FB7BDBB2012BAA
S2144025B00CD1BB6903229A7007F108031846384BC2
S2144025C09847BB691B78002B51D117E007F10803E9
S2144025D01846334B9847FB7BDBB2052B04D0062BC3
S2144025E004D0002B05D007E002234EE06FF00F0327
S2144025F04BE06FF0120348E0012346E0BB699B7C4A
S2144026009AB2BB69DB7C9BB21B029BB21344FB8233
S214402610FB8A002B0BD1012387F8273000233B622F
S214402620012387F82630BB6904229A701FE0BB69F5
S2144026301B7B03F08003002B14BF0123002387F885
S2144026402730FA8A3B6A9A4201D2FB8A3B6297F865
S2144026502730002B08D0FA8A3B6A9A428CBF012367
S214402660002387F8263002E0002387F826307B6870
S214402670187A7B681A6897F8263097F827100093E0
S2144026803B6A084CA04738613B6918462C37BD4624
S21440269090BD00BFFD1E4000EC1540207513400065
S2144026A09B1340007D1F400080B586B000AF0346B8
S2144026B0FB71FB7918461A4B98470346FB7597F90A
S2144026C017305B01174A13443B6197F91730002BCC
S2144026D002DA6FF011031FE0FB7902211846124B15
S2144026E098470346002B16D0FB79002118460E4B20
S2144026F09847F860FB68002B01DAFB680CE03B6902
S21440270001229A703B690322DA703B69DB69F879EB
S214402710002203219847002318461837BD4680BD3F
S214402720FD1E4000EC154020C570400080B582B0CC
S21440273000AF03460A46FB711346BB71BB79002BBC
S21440274005D1FB7918460C4B984703460FE0BB79FA
S214402750012B06D1FB7901211846084B98470346C2
S21440276005E0FB7902211846044B98470346184675
S2144027700837BD4680BD00BFA9264000C570400052
S21440278080B586B000AF03463A60FB710B46BB711E
S214402790FB791846164B98470346FB7597F9173052
S2144027A05B01144A13443B613B68002B01D03B68F5
S2144027B000E0114BFB6097F91730002B13DBBB7919
S2144027C0012B08D0022B0AD0002B00D00CE03B692E
S2144027D0FA685A6108E03B69FA689A6104E03B6926
S2144027E0FA68DA6100E000BF1837BD4680BD00BF1A
S2144027F0FD1E4000EC154020D11F400080B485B03F
S21440280000AF0346B9607A60FB73FB7B83F001033D
S214402810DBB2002B00D000BE00BF1437BD465DF8CB
S214402820047B704780B485B000AF786039607B68C1
S2144028301B68FB6008E0FA683B689A4201D10123B6
S21440284006E0FB681B68FB60FB68002BF3D10023A7
S21440285018461437BD465DF8047B704780B584B093
S21440286000AF786039607B681B68FB6039687868C1
S214402870164B98470346002B14BF01230023DBB2B8
S21440288083F00103DBB203F00103DBB24F221049B1
S2144028901846104B98477B681B68002B09D17B680D
S2144028A03A681A603B6800221A600CE0FB681B68B6
S2144028B0FB60FB681B68002BF8D1FB683A681A601F
S2144028C03B6800221A601037BD4680BD2528400070
S2144028D0F0954000FD27400080B584B000AFF8601A
S2144028E0B9607A60FB68002B07D0BB68002B04D029
S2144028F07B68002B01D0012300E0002303F0010396
S214402900DBB228220F4918460F4B98477B685A1E61
S2144029107B681340002B02D06FF00C030EE07B6800
S2144029205A1EFB685A60FB6800229A60FB689A68E9
S214402930FB68DA60FB68BA681A60002318461037EE
S214402940BD4680BD10964000FD27400080B582B051
S21440295000AF786039607B68002B04D03B68002B62
S21440296001D0012300E0002303F00103DBB2402244
S21440297010491846104B98477B68DA687B689B6816
S2144029809A4211D07B681A687B6899687B685B6856
S2144029900B4013441A783B681A707B689B685A1C35
S2144029A07B689A60002301E06FF0090318460837F9
S2144029B0BD4680BD10964000FD27400080B582B0E1
S2144029C000AF78600B46FB707B68002B14BF01237A
S2144029D00023DBB2512214491846144B98477B68B3
S2144029E01A687B68D9687B685B680B401344FA7842
S2144029F01A707B68DA687B689B68D21A7B685B686B
S214402A009A4206D97B68DA687B685B68D21A7B682C
S214402A109A607B68DB685A1C7B68DA60002318463D
S214402A200837BD4680BD00BF10964000FD274000D9
S214402A3080B582B000AF78607B68002B14BF01235E
S214402A400023DBB2672206491846064B98477B6848
S214402A50DA687B689B68D31A18460837BD4680BD3F
S214402A6010964000FD27400080B483B000AF034678
S214402A703960FB8013467B717B79053B042B52D82B
S214402A8001A252F823F000BF072B4000E92A40007D
S214402A90CD2A4000AF2A40009D2A4000FB883A6875
S214402AA02949A1FB0212920C02FB03F345E0FB8886
S214402AB03A6852092549A1FB0212D20902FB03F3E8
S214402AC00933234AA2FB0323DB0836E0FB883A6837
S214402AD02049A1FB0212520B02FB03F363331E4A4A
S214402AE0A2FB03235B0928E0FB883A681B49A1FB4D
S214402AF00212920902FB03F303F2E733174AA2FBE2
S214402B0003239B0919E0FB883A681349A1FB02128C
S214402B10520902FB03F242F20F7313440D4AA2FB22
S214402B2003235B0B09E0FB883A6802FB03F20C4B7D
S214402B301344054AA2FB03239B0C18460C37BD469C
S214402B405DF8047B704700BF83DE1B43C55A7C0A92
S214402B50CDCCCCCC5917B7D11F85EB51D34D621095
S214402B603F420F0080B582B000AF0346FB80FB8833
S214402B70092204491846044B984703461846083726
S214402B80BD4680BD00A3E111692A400080B483B0F1
S214402B9000AF03463960FB8013467B717B79053B6B
S214402BA0042B4BD801A252F823F000BF212C400042
S214402BB00F2C4000F52B4000DB2B4000C12B400083
S214402BC0FB883A682549A1FB0212920C02FB03F3EC
S214402BD04FF47A7202FB03F33AE0FB883A685209F4
S214402BE01F49A1FB0212D20902FB03F3642202FB37
S214402BF003F32DE0FB883A681A49A1FB0212520BF8
S214402C0002FB03F213469B0013445B0020E0FB8864
S214402C103A681549A1FB0212920902FB03F317E03A
S214402C20FB883A681149A1FB0212520902FB03F3E2
S214402C3009330F4AA2FB0323DB0809E0FB883A6806
S214402C4002FB03F303F2E733074AA2FB03239B0985
S214402C5018460C37BD465DF8047B704783DE1B4341
S214402C60C55A7C0A5917B7D1D34D62101F85EB5110
S214402C70CDCCCCCC80B582B000AF0346FB80FB8881
S214402C80092204491846044B984703461846083715
S214402C90BD4680BD00A3E1118D2B400080B483B0BB
S214402CA000AF786039600139FDD800BF0C37BD46AB
S214402CB05DF8047B704780B485B000AF78603960BB
S214402CC07B681B68FB60FB6823F47063FB603B68B3
S214402CD01B0203F47063FA681343FB607B68FA6870
S214402CE01A6000BF1437BD465DF8047B704780B459
S214402CF083B000AF786039607B683A681A6100BF7D
S214402D000C37BD465DF8047B704780B485B000AF95
S214402D10786039607B689B69FB60FA683B68134063
S214402D20FB60FB6818461437BD465DF8047B704769
S214402D3080B483B000AF786039607B683A68C3F887
S214402D40002100BF0C37BD465DF8047B704780B459
S214402D5085B000AF786039607B68D3F80831FB6097
S214402D60FA683B681340FB60FB6818461437BD465C
S214402D705DF8047B704780B483B000AF78603960FC
S214402D807B683A68C3F80C2100BF0C37BD465DF837
S214402D90047B704780B483B000AF78607B68D3F81C
S214402DA00C3118460C37BD465DF8047B7047000072
S214402DB080B584B000AF78607B681F2B13D80122A3
S214402DC07B6802FA03F319461F48204B9847034690
S214402DD0002B35D101227B6802FA03F319461A48C4
S214402DE01B4B98472CE07B683F2B16D87B68203BD4
S214402DF07B6001227B6802FA03F319461248154BA2
S214402E0098470346002B1BD101227B6802FA03F346
S214402E1019460D48104B984712E07B6803F07F0335
S214402E20194609480D4B984707480D4B9847F86098
S214402E30FB6843F01023FB60F9680348074B98474C
S214402E4000BF1037BD4680BD00060E400B2D40002B
S214402E50EF2C40004F2D4000312D4000772D400094
S214402E60952D400080B582B000AF3B1D18460B4BF9
S214402E7098470B4A0A4BD3F8883043F47003C2F89D
S214402E808830BFF34F8FBFF36F8F3B1D1846054BFF
S214402E90984700BF0837BD4680BD00BF7513400049
S214402EA000ED00E09B13400080B500AF074B98470D
S214402EB005210748074B98473A20074B9847074B4A
S214402EC09847074B984700BF80BD00BF652E40001F
S214402ED0000C0E40B72C4000B12D40001D7940003C
S214402EE0C13A400080B483B000AF786039607B68F8
S214402EF03A685A6100BF0C37BD465DF8047B7047A0
S214402F0080B483B000AF786039607B683A685A60B6
S214402F1000BF0C37BD465DF8047B704780B483B075
S214402F2000AF786039607B683A689A6000BF0C37BB
S214402F30BD465DF8047B704780B483B000AF7860D0
S214402F4039607B683A68C3F8E42000BF0C37BD465A
S214402F505DF8047B704780B483B000AF786039601A
S214402F607B683A681A6000BF0C37BD465DF8047B44
S214402F707047000080B582B000AF786039607B68EB
S214402F80002B14BF01230023DBB251220849184608
S214402F90084B98477B683A681A607B681B681846F7
S214402FA0054B9847034618460837BD4680BD00BFC8
S214402FB034964000FD274000BD2F400080B582B0CB
S214402FC000AF78607B68002B14BF01230023DBB280
S214402FD0F52210491846104B9847012178680F4B48
S214402FE09847032178680E4B984778680D4B98476A
S214402FF00D4B1B68194678680C4B98470A4B5B6824
S214403000194678680A4B9847002318460837BD4645
S21440301080BD00BF34964000FD274000572F40003B
S214403020E52E40003530400000004020012F400093
S2144030301D2F400080B582B000AF78607B68002BC3
S21440304014BF01230023DBB24FF4A772054918468C
S214403050054B984705497868054B984700BF0837A1
S214403060BD4680BD34964000FD27400000434144A5
S214403070392F400080B483B000AF0346FB7197F908
S2144030800730002B0BDB094997F907305B09FA79C3
S21440309002F01F02012000FA02F241F8232000BF8E
S2144030A00C37BD465DF8047B704700BF00E100E08A
S2144030B080B483B000AF0346FB7197F90730002B0E
S2144030C010DB0B4997F907305B09FA7902F01F02CB
S2144030D0012000FA02F2203341F82320BFF34F8F3D
S2144030E0BFF36F8F00BF0C37BD465DF8047B70475B
S2144030F000E100E080B483B000AF0346FB7197F96F
S2144031000730002B0CDB094997F907305B09FA7941
S21440311002F01F02012000FA02F2603341F8232039
S21440312000BF0C37BD465DF8047B704700E100E009
S21440313080B483B000AF78607B68DB6C18460C3791
S214403140BD465DF8047B704780B483B000AF7860BE
S21440315039607B683A681A6400BF0C37BD465DF834
S214403160047B704780B483B000AF78607B689B6C0C
S21440317018460C37BD465DF8047B704780B483B074
S21440318000AF786039607B683A685A6400BF0C3795
S214403190BD465DF8047B704780B483B000AF78606E
S2144031A039607B683A68C3F8B02000BF0C37BD462C
S2144031B05DF8047B704780B483B000AF78603960B8
S2144031C07B683A68C3F8C42000BF0C37BD465DF83C
S2144031D0047B704780B483B000AF786039607B680A
S2144031E03A68C3F8C02000BF0C37BD465DF8047B84
S2144031F0704780B483B000AF786039607B683A68C7
S214403200C3F8D42000BF0C37BD465DF8047B70473A
S21440321080B483B000AF786039607B683A68C3F8A2
S214403220D02000BF0C37BD465DF8047B704780B4A5
S21440323087B000AF78600B46FB7000237B611EE0D2
S2144032400123FB6000233B6113E07B699B007A68A7
S21440325013441A68FB681340002B04D07B695A015C
S2144032603B69134411E0FB685B00FB603B6901333C
S2144032703B613B691F2BE8D97B6901337B61FA7858
S2144032807B699A42DCD84FF0FF3318461C37BD4660
S2144032905DF8047B7047000080B582B000AF0346FF
S2144032A0FB71FB799F2B94BF01230023DBB2C32223
S2144032B007491846074B9847FB795B09DBB25B0228
S2144032C01A46054B134418460837BD4680BD00BF16
S2144032D08C964000FD274000000E0E4080B582B020
S2144032E000AF78607B68002B14BF01230023DBB25D
S2144032F0D22206491846064B98477A68054B13442F
S2144033005B0ADBB218460837BD4680BD8C96400047
S214403310FD27400000F2F1BF80B584B000AF786072
S2144033207B68002B14BF01230023DBB2E022134945
S2144033301846134B98477868124B98470346BB731A
S2144033400023FB7310E0FA7B0F491346DB009B1A01
S2144033509B000B441B78BA7B9A4202D197F90F30F8
S21440336007E0FB7B0133FB73FB7B012BEBD94FF074
S214403370FF3318461037BD4680BD00BF8C964000D0
S214403380FD274000DD3240005496400080B588B0AE
S21440339000AF0023FB613B1D00221A605A609A6012
S2144033A0DA601A61464B1B68002B14BF01230023CA
S2144033B0DBB2F82243491846434B98474348444BB0
S2144033C098470346BB604148424B98470246BB6815
S2144033D01340BB60BB68FA691343FB613E483C4BF5
S2144033E0984703463B613C483A4B984702463B6900
S2144033F013403B613B69FA691343FB6158E03B1D50
S21440340005211846354B98470346FB7629E02C4B5A
S2144034101B6897F91B201046984797F91B305B119D
S2144034205BB2184697F91B305B115BB29B0007F105
S2144034302002134453F81C3CFA7E02F01F0201217E
S21440344001FA02F2D2431A40830007F120010B44EE
S21440345043F81C2C3B1D05211846204B9847034635
S214403460FB7697F91B30B3F1FF3FD0D10023FB61C9
S2144034701648174B98470346BB601448154B984769
S2144034800246BB681340BB60BB68FA691343FB61E6
S21440349011480F4B984703463B610F480D4B9847E2
S2144034A002463B6913403B613B69FA691343FB6143
S2144034B0FB69002BA3D100BF2037BD4680BD00BFAF
S2144034C06C1640208C964000FD27400000100E40B1
S2144034D0313140006531400000140E402F3240002C
S2144034E080B500AF014B984700BF80BD8D3340008C
S2144034F080B500AF014B984700BF80BD8D3340007C
S21440350080B584B000AF78607B68002B14BF012381
S2144035100023DBB240F2591238491846384B9847D8
S2144035207868384B98470346FB7397F90F30002B63
S21440353002DA6FF010035DE097F90F203249134628
S214403540DB009B1A9B000B4408331B6819467868BF
S2144035502E4B984797F90F202B491346DB009B1AB2
S2144035609B000B440C331B6819467868284B9847D9
S21440357097F90F2024491346DB009B1A9B000B4407
S21440358010331B6819467868224B984797F90F20E6
S2144035901D491346DB009B1A9B000B4418331B68DF
S2144035A0194678681C4B984797F90F2016491346DA
S2144035B0DB009B1A9B000B4414331B681946786843
S2144035C0164B98477868164B984703461A46154B4D
S2144035D09B5CFB7397F90F301846134B984797F947
S2144035E00F301846114B984797F90F301846104B36
S2144035F09847002318461037BD4680BD8C9640003D
S214403600FD27400019334000549640009931400051
S214403610D5314000B731400011324000F331400010
S214403620DD3240004C964000B1304000F53040005E
S2144036307530400080B582B000AF78600648074BD2
S21440364098470748054B9847064A7B68136000230F
S21440365018460837BD4680BD00100E400135400074
S21440366000140E406C16402080B584B000AF7860E1
S2144036700B46FB70194BFB600023BB607B689F2B9F
S21440368094BF01230023DBB24FF4D372144918468B
S214403690144B98477B68DBB21846134B9847F86044
S2144036A07B6803F01F03BB60FB78002B08D0012229
S2144036B0BB6802FA03F31946F8680C4B984707E0D4
S2144036C00122BB6802FA03F31946F868084B98478C
S2144036D0002318461037BD4680BD00BF000E0E4082
S2144036E08C964000FD27400099324000493140000A
S2144036F07D31400080B483B000AF78607B689B6EBD
S21440370003F00103002B14BF01230023DBB218464D
S2144037100C37BD465DF8047B704780B483B000AF7D
S21440372078607B689B6E03F00203002B14BF012376
S2144037300023DBB218460C37BD465DF8047B704765
S21440374080B483B000AF78607B689B6E03F008035C
S214403750002B14BF01230023DBB218460C37BD46AE
S2144037605DF8047B704780B483B000AF78607B68B8
S2144037709B6E03F04003002B14BF01230023DBB2F3
S21440378018460C37BD465DF8047B704780B483B05E
S21440379000AF786039607B683A68DA6100BF0C3702
S2144037A0BD465DF8047B704780B483B000AF786058
S2144037B039607B681A6A3B681A437B681A6200BFA6
S2144037C00C37BD465DF8047B704780B483B000AFCD
S2144037D0786039607B683A681A6200BF0C37BD462D
S2144037E05DF8047B704780B483B000AF78607B6838
S2144037F01B6A18460C37BD465DF8047B70470000D0
S21440380080B485B000AF786039607B689B6AFB60A7
S214403810FA68094B1340FB603B681A04074B134099
S214403820FA681343FB607B68FA689A6200BF1437F5
S214403830BD465DF8047B7047FFFF00F80000FF07B9
S21440384080B483B000AF786039607B683A689A622B
S21440385000BF0C37BD465DF8047B704780B485B02A
S21440386000AF78600B46FB707B681B6BFB60FB68A9
S21440387023F40053FB60FB785B031A46FB68134354
S214403880FB607B68FA681A6300BF1437BD465DF874
S214403890047B704780B485B000AF786039607B6841
S2144038A01B6BFB60FB6823F00303FB603B6803F085
S2144038B00303FA681343FB607B68FA681A6300BF29
S2144038C01437BD465DF8047B704780B485B000AFC2
S2144038D0786039607B681B6BFB60FB6823F0700385
S2144038E0FB603B681B0103F07003FA681343FB6000
S2144038F07B68FA681A6300BF1437BD465DF8047BE0
S214403900704780B485B000AF786039607B681B6BC9
S214403910FB60FB6823F44073FB603B681B0203F4C8
S2144039204073FA681343FB607B68FA681A6300BF0B
S2144039301437BD465DF8047B7047000080B582B002
S21440394000AF00237B602648264B9847034623F06B
S21440395002037B607A68244B13437B607968204877
S214403960224B984700BF1E48214B9847034683F09A
S2144039700103DBB2002BF6D11E4919481E4B98476F
S2144039801E4B7B60002116481D4B98477B6843F0D2
S2144039900053194612481B4B984700BF10481A4B15
S2144039A09847034683F00103DBB2002BF6D14FF471
S2144039B070037B607B6843F4803319460848134B9A
S2144039C0984700BF0648124B9847034683F00103CA
S2144039D0DBB2002BF6D100BF0837BD4680BD00BF26
S2144039E000060E40E7374000013E3700CB37400028
S2144039F0F536400000003701A9374000013F180067
S214403A0001384000413840001B3740008D374000A9
S214403A106737400080B500AF01211C481C4B9847D3
S214403A2000BF1A481B4B9847034683F00103DBB29E
S214403A30002BF6D100211548174B984700BF134876
S214403A40144B9847034683F00103DBB2002BF6D1B4
S214403A5001210E48114B984700BF0C480D4B984724
S214403A60034683F00103DBB2002BF6D10221074860
S214403A700B4B984700BF0548064B9847034683F0D4
S214403A800103DBB2002BF6D100BF80BD00060E401E
S214403A905D38400041374000CB3840000339400095
S214403AA09538400080B400AF00BFBD465DF8047B4B
S214403AB0704780B400AF00BFBD465DF8047B7047DA
S214403AC080B500AF044B9847044B9847044B984743
S214403AD0044B984700BF80BD3D394000153A400032
S214403AE0A53A4000B33A400080B483B000AF0346E6
S214403AF0FB7197F90730002B0BDB094997F9073024
S214403B005B09FA7902F01F02012000FA02F241F83E
S214403B10232000BF0C37BD465DF8047B704700BFCE
S214403B2000E100E080B483B000AF78607B681B693A
S214403B3003F48033002B14BF01230023DBB2184666
S214403B400C37BD465DF8047B704780B483B000AF49
S214403B50786039607B683A685A6000BF0C37BD466B
S214403B605DF8047B704780B487B000AFF8600B46C2
S214403B707A60FB72FA7AFB680C3253F822307B612B
S214403B807B6923F0F0037B617B681B01DBB27A69BB
S214403B9013437B61FA7AFB680C32796943F822104A
S214403BA000BF1C37BD465DF8047B704780B487B0C5
S214403BB000AFF8600B467A60FB72FA7AFB680C320C
S214403BC053F822307B617B6923F47F437B617B68BB
S214403BD01B029BB27A6913437B61FA7AFB680C320C
S214403BE0796943F8221000BF1C37BD465DF8047B58
S214403BF0704780B485B000AFF8600B467A60FB72C1
S214403C00FA7AFB680C32796843F8221000BF143702
S214403C10BD465DF8047B704780B483B000AF7860E3
S214403C200B46FB70FA787B680C3253F82230184605
S214403C300C37BD465DF8047B704780B483B000AF58
S214403C40786039607B683A681A6000BF0C37BD46BA
S214403C505DF8047B7047000080B483B000AF7860A6
S214403C607B68064A934201D1152300E02A23184672
S214403C700C37BD465DF8047B704700BF00800040AF
S214403C8080B582B000AF786001217868034B9847D2
S214403C90002318460837BD4680BD00BF3B3C400069
S214403CA080B582B000AF78607868074B98477868F0
S214403CB0064B984703461846054B98470023184638
S214403CC00837BD4680BD00BF813C4000593C40009F
S214403CD0E93A400080B584B000AF78600B46FB7090
S214403CE000217868114B9847F860FB6823F003037F
S214403CF0FB60FB7803F00103002B0CBF012300237D
S214403D00DBB21A46FB681343FB60FB7803F0020302
S214403D10FA681343FB60FA6800217868044B9847BA
S214403D20002318461037BD4680BD00BF193C4000F2
S214403D30F33B400080B582B000AF786039603B68A6
S214403D40DBB21A4600217868034B98470023184692
S214403D500837BD4680BD00BFAD3B400080B485B04F
S214403D6000AF78607A68084B13441B0CFB73FB7BF0
S214403D70052B01D1012300E0002318461437BD4629
S214403D805DF8047B704700BF0080FFBF80B582B0FF
S214403D9000AF78607868064B98470346002B01D101
S214403DA0022300E0002318460837BD4680BD00BF0A
S214403DB05D3D400080B582B000AF78607868064BC5
S214403DC098470346002B01D1032300E00123184601
S214403DD00837BD4680BD00BF5D3D400080B584B01D
S214403DE000AF78607B681846124B98470346BB7313
S214403DF00023FB7315E0FA7B0F4913469B001344E0
S214403E009B000B441B78BA7B9A4207D1FA7B134639
S214403E109B0013449B00084A134406E0FB7B013397
S214403E20FB73FB7B012BE6D9002318461037BD46B3
S214403E3080BD00BF5D3D4000A896400080B584B080
S214403E4000AF78607B689B68FB60FB689B68002BD4
S214403E5003D0FB689B687868984700BF1037BD461C
S214403E6080BD80B584B000AF78607B689B68FB609F
S214403E70FB685B68002B03D0FB685B6878689847F4
S214403E8000BF1037BD4680BD80B584B000AF7860B7
S214403E907B689B68FB60FB68DB68002B03D0FB6895
S214403EA0DB687868984700BF1037BD4680BD80B451
S214403EB083B000AF78607B68083318460C37BD4641
S214403EC05DF8047B704780B483B000AF78607B6851
S214403ED00C3318460C37BD465DF8047B704700002F
S214403EE090B585B000AF786039607B68FB603B6812
S214403EF01846344B9847B8603868334B9847034663
S214403F00002B02D06FF0100357E0FB683A681A6047
S214403F10802138682D4B9847BB685A682C4B134015
S214403F2019463868294B9847BB689A68294B13400E
S214403F30294A1A4311463868284B9847BB68DB68BD
S214403F401A4600213868264B9847FB680022DA60FC
S214403F50FB6800229A60FB6800225A607B6803F187
S214403F60180438681F4B98470346194620461E4B90
S214403F7098477B689B697A689A607B689B691B4A0E
S214403F801A607B689B691A4A5A607B6803F118047A
S214403F903868184B9847034619462046124B9847B0
S214403FA07B689B697A689A607B689B69124A1A604C
S214403FB07B689B690E4A5A60002318461437BD46F4
S214403FC090BD00BFDD3D4000253B40003B3C4000EF
S214403FD07CFFFFFE6FFFF1FF10000E004B3B4000E2
S214403FE0F33B4000B53D40004D7B40003D3E400029
S214403FF0893E40008D3D4000633E400080B582B023
S21440400000AF78607B68002B05D07B681B68002B70
S21440401001D0012300E0002303F00103DBB24FF49C
S214404020FC7207491846074B98477B681B6818463A
S214404030054B9847034618460837BD4680BD00BF27
S214404040D0964000FD274000A13C400080B582B09D
S21440405000AF78600B46FB707B68002B05D07B6812
S2144040601B68002B01D0012300E0002303F001036E
S214404070DBB24FF4087208491846084B98477B68ED
S2144040801B68FA7811461846054B9847034618466B
S2144040900837BD4680BD00BFD0964000FD27400093
S2144040A0D53C400080B582B000AF786039607B6810
S2144040B0002B05D07B681B68002B01D0012300E055
S2144040C0002303F00103DBB240F2472207491846BB
S2144040D0074B98477B681B6839681846054B9847D6
S2144040E0034618460837BD4680BD00BFD096400000
S2144040F0FD274000353D400080B582B000AF786077
S2144041000B46FB707B68002B05D07B681B68002B3A
S21440411001D0012300E0002303F00103DBB240F2AC
S21440412072220A4918460A4B98477B681B68FA78F9
S21440413000211846074B9847FB78002B01D10123F6
S21440414000E0022318460837BD4680BDD0964000A2
S214404150FD274000673B400080B584B000AFF86064
S2144041600B467A60FB72FB7A032B5CD801A252F8AE
S21440417023F000BF85414000AF414000D941400098
S21440418025424000FB687A685A60FB681B68184600
S214404190274B9847034618467B68002B14BF0123DD
S2144041A00023DBB21A460021224B98473BE0FB68CF
S2144041B07A689A60FB681B6818461F4B9847034608
S2144041C018467B68002B14BF01230023DBB21A4637
S2144041D00021184B984726E0FB687A68DA60FB684F
S2144041E01B681846144B9847034618467B68002BB6
S2144041F014BF01230023DBB21A4601210D4B98471A
S214404200FB681B6818460A4B9847034618467B6867
S214404210002B14BF01230023DBB21A460121054BB5
S214404220984700E000BF00BF1037BD4680BD00BFC6
S2144042308D3D40007D7B4000B53D400080B586B05A
S21440424000AFF860B9607A607B80FB681B681846F0
S214404250394B98477861FB681B681846374B984738
S2144042600346FB74FB681B681846354B9847034665
S214404270BB747B68002B1BD0FB681B681846314B11
S214404280984703461A46FB7C114618462E4B9847DD
S214404290FB7C796818462D4B98477A88FB7C1146FC
S2144042A018462B4B9847FB7C00211846294B9847CD
S2144042B0BB68002B17D0BB7CB9681846224B984782
S2144042C0FB681B681846244B984703461A46BB7C37
S2144042D0114618461D4B98477A88BB7C11461846AF
S2144042E01B4B98471EE07B6903F11002BB7C1146CE
S2144042F01846154B9847FB681B681846164B984758
S21440430003461A46BB7C11461846104B9847BB7C62
S21440431000211846114B98477A88BB7C11461846B0
S2144043200B4B9847BB7C002118460A4B9847002306
S21440433018461837BD4680BDDD3D4000B53D4000BF
S2144043408D3D4000AF3E4000217A4000F579400068
S214404350BD7A4000017B4000C73E40004D7A400099
S21440436080B483B000AF78607B681B6A03F00103BB
S214404370002B14BF01230023DBB218460C37BD4682
S2144043805DF8047B704780B483B000AF78607B688C
S2144043901B6A03F00203002B14BF01230023DBB289
S2144043A018460C37BD465DF8047B704780B483B032
S2144043B000AF78607B681B6A18460C37BD465DF8D0
S2144043C0047B704780B483B000AF78607B681B6B1B
S2144043D018460C37BD465DF8047B704780B483B002
S2144043E000AF786039607B683A685A6000BF0C3727
S2144043F0BD465DF8047B704780B483B000AF7860FC
S21440440039607B683A68DA6000BF0C37BD465DF8B5
S214404410047B704780B483B000AF786039607B68B7
S2144044203A681A6100BF0C37BD465DF8047B70479A
S21440443080B483B000AF786039607B683A689A632E
S21440444000BF0C37BD465DF8047B704780B483B030
S21440445000AF786039607B683A685A6400BF0C37B2
S214404460BD465DF8047B704780B483B000AF78608B
S21440447039607B683A681A6000BF0C37BD465DF805
S214404480047B704780B483B000AF786039607B6847
S2144044903A685A6300BF0C37BD465DF8047B7047E8
S2144044A080B485B000AF78600023FB7315E0FA7BDC
S2144044B00F4913465B001344DB000B441A687B68C5
S2144044C09A4207D1FA7B13465B001344DB00084A46
S2144044D0134406E0FB7B0133FB73FB7B012BE6D9E1
S2144044E0002318461437BD465DF8047B704700BF6E
S2144044F0E896400080B584B000AF786039607B684D
S214404500002B04D03B68002B01D0012300E00023A1
S21440451003F00103DBB27E2218491846184B984731
S2144045207B683A681A617B681B691846154B984742
S214404530F8607B681A69FB685B6819461046124B40
S21440454098477B681A69FB689B68194610460F4B6C
S21440455098477B681A69FB68DB68194610460C4B1F
S21440456098477B681A69FB681B6919461046094BD1
S2144045709847002318461037BD4680BD1897400020
S214404580FD274000A14440006944400031444000BB
S2144045904D4440001544400080B582B000AF78607E
S2144045A039607B68002B04D03B68002B01D0012388
S2144045B000E0002303F00103DBB2C0221149184695
S2144045C0114B98477B685B889BB203F48073002B43
S2144045D002D06FF0050311E03B685B889BB203F0A6
S2144045E00103002B05D039687868084B9847034686
S2144045F004E039687868064B9847034618460837FB
S214404600BD4680BD18974000FD2740004547400006
S2144046101546400080B586B000AF7860396000230C
S2144046203B613B685B889BB243F480739AB23B68BD
S2144046305A803B681B8803F48063002B1BD07B6842
S2144046401A693B681B881B0A9BB243F078039BB2EF
S2144046501B0403F4FE0343F4807319461046334BA1
S21440466098477B681A693B681B88DBB21946104638
S2144046702F4B98470AE07B681A693B681B881B04E7
S21440468003F4FE0319461046284B984700237B61E7
S21440469020E07B681B691846264B9847F860FB6805
S2144046A003F48073002B03D06FF001033B6104E0FA
S2144046B0FB6803F00403002BEBD07B6818693B686B
S2144046C09A687B6913441B7819461B4B98477B694D
S2144046D001337B613B685B681A467B699A42D8D84F
S2144046E03B685B889BB21BB2002B11DA7B681B6968
S2144046F002211846114B984700BF7B681B69184635
S2144047000F4B9847034683F00103DBB2002BF4D1EE
S2144047107B685B889BB223F480739AB27B685A802E
S2144047203B6918461837BD4680BD00BFDD43400094
S214404730F9434000AD434000854440006944400092
S2144047406143400090B585B000AF786039603B6803
S2144047505B889BB243F480739AB23B685A803B684E
S2144047601B8803F48063002B1BD07B681A693B6868
S2144047701B881B0A9BB243F078039BB21B0403F4CE
S214404780FE0343F4885319461046384B98477B68D7
S2144047901A693B681B88DBB219461046344B98476B
S2144047A00CE07B681A693B681B881B0403F4FE0315
S2144047B043F48053194610462C4B98477B681A6939
S2144047C03B685B68012B01D1032300E001231946B7
S2144047D01046284B98470023FB6027E000BF7B68C5
S2144047E01B691846244B9847034683F00103DBB207
S2144047F0002BF4D13B689A68FB68D4187B681B6929
S21440480018461E4B98470346DBB223703B685B68EE
S214404810023B1A46FB689A4205D17B681B69022117
S2144048201846144B9847FB680133FB603B685B684F
S2144048301A46FB689A42D1D800BF7B681B69184667
S2144048400F4B9847034683F00103DBB2002BF4D1AD
S2144048507B685B889BB223F480739AB27B685A80ED
S214404860002318461437BD4690BD00BFDD434000C8
S214404870F94340006944400087434000C543400038
S2144048806143400080B483B000AF0346FB7197F9A4
S2144048900730002B0BDB094997F907305B09FA799B
S2144048A002F01F02012000FA02F241F8232000BF66
S2144048B00C37BD465DF8047B704700BF00E100E062
S2144048C080B483B000AF0346FB7197F90730002BE6
S2144048D010DB0B4997F907305B09FA7902F01F02A3
S2144048E0012000FA02F2203341F82320BFF34F8F15
S2144048F0BFF36F8F00BF0C37BD465DF8047B704733
S21440490000E100E080B483B000AF0346FB7197F946
S2144049100730002B0CDB094997F907305B09FA7919
S21440492002F01F02012000FA02F2603341F8232011
S21440493000BF0C37BD465DF8047B704700E100E0E1
S21440494080B483B000AF78607B681B6903F00103D6
S214404950002B14BF01230023DBB218460C37BD469C
S2144049605DF8047B704780B483B000AF78607B68A6
S21440497002229A6000BF0C37BD465DF8047B704744
S21440498080B483B000AF78607B681B695B0803F037
S2144049900103002B14BF01230023DBB218460C375B
S2144049A0BD465DF8047B704780B483B000AF786046
S2144049B07B680222DA6000BF0C37BD465DF8047B98
S2144049C0704780B483B000AF78607B684FF4007265
S2144049D09A6000BF0C37BD465DF8047B704780B4D4
S2144049E083B000AF78607B681B695B0A03F0010305
S2144049F0002B14BF01230023DBB218460C37BD46FC
S214404A005DF8047B704780B483B000AF78607B6805
S214404A104FF40072DA6000BF0C37BD465DF8047B89
S214404A20704780B483B000AF78607B685B6903F002
S214404A300103002B14BF01230023DBB218460C37BA
S214404A40BD465DF8047B704780B483B000AF7860A5
S214404A507B685B6903F00203002B14BF012300232D
S214404A60DBB218460C37BD465DF8047B704780B411
S214404A7083B000AF78607B685B6903F40073002BFB
S214404A8014BF01230023DBB218460C37BD465DF841
S214404A90047B704780B483B000AF78607B685B6906
S214404AA018460C37BD465DF8047B704780B483B02B
S214404AB000AF78607B689B69DBB218460C37BD4612
S214404AC05DF8047B704780B483B000AF78607B6845
S214404AD09B6918460C37BD465DF8047B704780B42A
S214404AE083B000AF786039607B683A685A6000BF30
S214404AF00C37BD465DF8047B704780B483B000AF8A
S214404B00786039607B683A681A6200BF0C37BD46E9
S214404B105DF8047B704780B483B000AF786039603E
S214404B207B683A68C3F8E42000BF0C37BD465DF8A2
S214404B30047B704780B483B000AF786039607B6890
S214404B403A681A6000BF0C37BD465DF8047B704774
S214404B5080B483B000AF786039607B683A68DA61C9
S214404B6000BF0C37BD465DF8047B704780B584B007
S214404B7000AF78607B68002B14BF01230023DBB2B4
S214404B80882216491846164B98477868154B98471A
S214404B900346FB73FB7B042B16D801A252F823F086
S214404BA0B54B4000B94B4000BD4B4000C14B4000A8
S214404BB0C54B400007230DE008230BE02C2309E0FB
S214404BC02D2307E02E2305E09A2204490020044BBB
S214404BD09847FF2318461037BD4680BD349740009F
S214404BE0FD2740001D4F400080B483B000AF786082
S214404BF039607B68054A934202D1054A3B68136098
S214404C0000BF0C37BD465DF8047B7047001E0E4063
S214404C107016402080B582B000AF786039607B68FF
S214404C20002B14BF01230023DBB2AE220C491846EA
S214404C300C4B98473B68002B14BF01230023DBB284
S214404C40AF2207491846074B98477B683A681A6070
S214404C503868054B9847034618460837BD4680BD1A
S214404C6034974000FD2740008151400080B584B015
S214404C7000AF786039607B68002B14BF01230023A7
S214404C80DBB2BD2218491846184B98473868184B6F
S214404C909847F860FB68002B01D0FB681FE07B68F4
S214404CA03A689A6179683868124B98473868124B68
S214404CB0984703465BB21846104B984738680E4BE9
S214404CC0984703465BB218460D4B984738680A4BE0
S214404CD0984703465BB218460A4B98470023184647
S214404CE01037BD4680BD00BF34974000FD274000CA
S214404CF081514000E94B40006D4B4000C1484000A8
S214404D00054940008548400080B582B000AF7860D5
S214404D100B46FB707B68002B14BF01230023DBB2DD
S214404D2040F2991207491846074B98477B681B681C
S214404D30FA7811461846054B984700BF0837BD46D7
S214404D4080BD00BF34974000FD274000514B4000D7
S214404D5080B582B000AF78600B46FB707B68002B56
S214404D6014BF01230023DBB24FF4D1720749184623
S214404D70074B98477B689B69FA7811461846054B5F
S214404D80984700BF0837BD4680BD00BF34974000F7
S214404D90FD274000514B400080B582B000AF7860A0
S214404DA07B68002B14BF01230023DBB240F2AB121A
S214404DB007491846074B98477B681B681846064BBA
S214404DC098470346DBB218460837BD4680BD00BF4D
S214404DD034974000FD274000AD4A400080B582B081
S214404DE000AF78607B68002B14BF01230023DBB242
S214404DF04FF4DA7206491846064B98477B681B689C
S214404E001846054B9847034618460837BD4680BDAA
S214404E1034974000FD274000494A400080B582B0A4
S214404E2000AF78607B68002B14BF01230023DBB201
S214404E3040F2BD1206491846064B98477B681B68E9
S214404E401846054B9847034618460837BD4680BD6A
S214404E5034974000FD2740006F4A400080B582B03E
S214404E6000AF78607B68002B14BF01230023DBB2C1
S214404E7040F2CF1206491846064B98477B681B6897
S214404E801846054B9847034618460837BD4680BD2A
S214404E9034974000FD274000234A400080B582B04A
S214404EA000AF78607B68002B14BF01230023DBB281
S214404EB040F20A2206491846064B98477B689B698B
S214404EC01846054B984700BF0837BD4680BD00BF13
S214404ED034974000FD2740006749400080B582B0C7
S214404EE000AF78607B68002B14BF01230023DBB241
S214404EF040F2132206491846064B98477B689B6942
S214404F001846054B984700BF0837BD4680BD00BFD2
S214404F1034974000FD274000C349400080B582B02A
S214404F2000AF78607B68002B14BF01230023DBB200
S214404F3040F21D2213491846134B98477B68134A84
S214404F40934201D1002318E07B68114A934201D175
S214404F50012312E07B680F4A934201D102230CE002
S214404F607B680D4A934201D1032306E07B680B4AD7
S214404F70934201D1042300E0FF2318460837BD467C
S214404F8080BD00BF34974000FD27400000080E401B
S214404F90000A0E40001A0E40001C0E40001E0E4036
S214404FA080B400AF00231846BD465DF8047B7047CA
S214404FB080B400AF00231846BD465DF8047B7047BA
S214404FC090B585B000AF78607B68002B14BF012396
S214404FD00023DBB240F2812235491846354B9847CC
S214404FE07B689B69FB60F868334B98470346002B09
S214404FF00DD0F868314B98470346002B07D0F86829
S2144050002F4B98477B681B68786898474CE0F86851
S2144050102C4B98470346002B0DD0F8682A4B9847F0
S2144050200346002B07D0F868284B98477B689B6858
S2144050307868984738E0F868254B98470346002B31
S21440504021D0F868234B98470346002B1BD0F868BE
S214405050214B9847034603F0E003002B08D0F8683E
S2144050601E4B98474FF48071F8681D4B98471BE0DD
S2144050707B685C68F8681B4B98470346DBB219466A
S2144050807868A04710E0F868134B9847034603F04B
S214405090E003002B08D04FF48071F868104B984717
S2144050A07B68DB68786898471437BD4690BD00BF7C
S2144050B034974000FD274000494A4000814940005F
S2144050C0A94940006F4A4000DF494000074A400077
S2144050D0234A400041494000954A4000C74A4000A4
S2144050E0354B4000AD4A400080B500AF034B1B68CF
S2144050F01846034B984700BF80BD00BF701640203F
S214405100C14F400080B584B000AF78607B68002B0C
S21440511014BF01230023DBB24FF42A721449184609
S214405120144B98477868144B98470346BB73002344
S214405130FB730FE0FA7B114913465B0013449B0058
S2144051400B441B78BA7B9A4201D1FB7B0CE0FB7B7D
S2144051500133FB73FB7B012BECD940F2B2220449AE
S2144051600020044B9847002318461037BD4680BDA4
S21440517034974000FD2740001D4F40000800402067
S21440518080B584B000AF78607B68002B14BF0123E5
S2144051900023DBB240F2BF221A4918461A4B984702
S2144051A078681A4B98470346FB7319497868194B39
S2144051B09847AC217868184B98474FF480717868C8
S2144051C0154B9847FA7B154913465B0013449B00E2
S2144051D00B4404331B6819467868114B9847FA7B92
S2144051E00E4913465B0013449B000B4408331B6870
S2144051F0194678680B4B9847002318461037BD462B
S21440520080BD00BF34974000FD2740000551400058
S21440521000524155174B4000354B40000800402097
S214405220DF4A4000FB4A400080B483B000AF0346EC
S214405230FB7197F90730002B0BDB094997F90730CC
S2144052405B09FA7902F01F02012000FA02F241F8E7
S214405250232000BF0C37BD465DF8047B704700BF77
S21440526000E100E080B483B000AF78600B46FB708E
S214405270FA787B684C3253F822309B0803F00103DF
S214405280002B14BF01230023DBB218460C37BD4663
S2144052905DF8047B704780B483B000AF78600B46FF
S2144052A0FB70FA787B684C3253F822309B0903F047
S2144052B00103002B14BF01230023DBB218460C3732
S2144052C0BD465DF8047B704780B483B000AF78601D
S2144052D00B46FB70FA787B684C3253F822301B0C36
S2144052E003F00103002B14BF01230023DBB2184652
S2144052F00C37BD465DF8047B704780B483B000AF82
S21440530078600B46FB70FA787B684C3253F8223054
S2144053109B0C03F00103002B14BF01230023DBB2D8
S21440532018460C37BD465DF8047B704780B487B09E
S21440533000AFF8600B467A60FB72FA7AFB684C3234
S21440534053F822307B617A697B6813407B617B69C6
S21440535018461C37BD465DF8047B704780B483B062
S21440536000AF78600B46FB70FA787B684C3253F897
S214405370223018460C37BD465DF8047B704780B433
S21440538085B000AFF8600B467A60FB72FA7AFB682D
S2144053905832796843F8221000BF1437BD465DF88E
S2144053A0047B704780B483B000AF78607B68D3F8E6
S2144053B004389B0B03F00103002B14BF012300238A
S2144053C0DBB218460C37BD465DF8047B704780B4A8
S2144053D083B000AF78607B6801229A6100BF0C37CB
S2144053E0BD465DF8047B704780B483B000AF7860FC
S2144053F039607B683A689A6100BF0C37BD465DF8F5
S214405400047B704780B483B000AF78607B681B69CC
S21440541018460C37BD465DF8047B704780B483B0B1
S21440542000AF786039607B683A685A6100BF0C37D5
S214405430BD465DF8047B704780B483B000AF7860AB
S2144054407B685B6818460C37BD465DF8047B704742
S21440545080B483B000AF78600B46FB70FA787B6808
S214405460703253F8223018460C37BD465DF8047B40
S214405470704780B483B000AF78607B681B6843F0A9
S21440548080027B681A6000BF0C37BD465DF8047B1F
S214405490704780B483B000AF78607B681B6823F0A9
S2144054A080027B681A6000BF0C37BD465DF8047BFF
S2144054B0704780B483B000AF78607B681B6823F485
S2144054C080727B681A6000BF0C37BD465DF8047B6F
S2144054D0704780B485B000AF786039607B681B68E1
S2144054E0FB60FB6823F07F03FB603B6803F07F03B1
S2144054F0FA681343FB607B68FA681A6000BF14378B
S214405500BD465DF8047B704780B483B000AF7860DA
S21440551039607B683A681A6000BF0C37BD465DF854
S214405520047B704780B483B000AF786039607B6896
S214405530DA693B681A437B68DA6100BF0C37BD46C0
S2144055405DF8047B704780B483B000AF7860396004
S2144055507B683A68DA6100BF0C37BD465DF8047B6D
S214405560704780B483B000AF786039607B68DA6992
S2144055703B68DB431A407B68DA6100BF0C37BD46A8
S2144055805DF8047B704780B483B000AF78607B687A
S214405590DB6918460C37BD465DF8047B704780B41F
S2144055A083B000AF78600B46FB70FA78F9787B687A
S2144055B0403153F8213043F002017B68403243F8D3
S2144055C0221000BF0C37BD465DF8047B704780B4A0
S2144055D083B000AF78600B46FB70FA78F9787B684A
S2144055E0403153F8213023F002017B68403243F8C3
S2144055F0221000BF0C37BD465DF8047B704780B470
S21440560083B000AF78600B46FB70FA78F9787B6819
S214405610403153F8213043F400717B68403243F800
S214405620221000BF0C37BD465DF8047B704780B43F
S21440563083B000AF78600B46FB70FA78F9787B68E9
S214405640403153F8213023F400717B68403243F8F0
S214405650221000BF0C37BD465DF8047B704780B40F
S21440566085B000AF78600B46FB70FA787B684032B6
S21440567053F82230FB60FB68DB0A03F00303FB6051
S214405680FB6818461437BD465DF8047B704780B407
S21440569085B000AFF8600B467A60FB72FA7AFB681A
S2144056A04032796843F8221000BF1437BD465DF893
S2144056B0047B704780B483B000AF78600B46FB70C5
S2144056C0FA787B68403253F8223018460C37BD468D
S2144056D05DF8047B704780B483B000AF78607B6829
S2144056E0D3F8003823F480427B68C3F8002800BF14
S2144056F00C37BD465DF8047B704780B483B000AF7E
S21440570078607B68D3F8003843F400427B68C3F87F
S214405710002800BF0C37BD465DF8047B704780B458
S21440572085B000AF78607B68D3F80038FB60FB68D4
S214405730DB0B03F00103FB60FB68002B14BF012367
S2144057400023DBB218461437BD465DF8047B70472D
S21440575080B483B000AF786039607B683A68C3F83D
S214405760002800BF0C37BD465DF8047B704780B408
S21440577083B000AF786039607B683A689A6000BF53
S2144057800C37BD465DF8047B704780B485B000AFEB
S214405790F8600B467A60FB72FA7AFB686432796886
S2144057A043F8221000BF1437BD465DF8047B7047AF
S2144057B080B485B000AFF8600B467A60FB72FA7A28
S2144057C0FB687C32796843F8221000BF1437BD4628
S2144057D05DF8047B704780B485B000AFF8600B4638
S2144057E07A60FB72FA7AFB688832796843F822104E
S2144057F000BF1437BD465DF8047B704780B485B063
S21440580000AFF8600B467A60FB72FB7AFA68313379
S2144058101B01134404337A681A6000BF1437BD4630
S2144058205DF8047B704780B485B000AFF8600B46E7
S2144058307A60FB72FB7AFA681B01134403F54673E1
S2144058407A681A6000BF1437BD465DF8047B70471F
S21440585080B483B000AF78600B46FB70FB787A6804
S2144058601B01134403F547731B6803F00103002B29
S21440587014BF01230023DBB218460C37BD465DF843
S214405880047B704780B483B000AF78600B46FB70F3
S214405890FB787A681B01134403F547731B681B09A2
S2144058A003F00103002B14BF01230023DBB218468C
S2144058B00C37BD465DF8047B704780B483B000AFBC
S2144058C078600B46FB70FB787A681B01134403F53F
