S00F00004242526164696F2E73726563A2
S214400000F0074020BD014000410240004102400050
S2144000104102400041024000410240000000000012
S2144000200000000000000000000000004102400008
S21440003041024000000000004102400041024000F2
S214400040410240004102400041024000410240005F
S214400050410240004102400041024000410240004F
S2144000604102400000000000410240006D20400078
S214400070410240004102400041024000410240002F
S214400080410240004102400041024000410240001F
S214400090410240004102400041024000410240000F
S2144000A041024000410240004102400041024000FF
S2144000B041024000410240004102400041024000EF
S2144000C04102400041024000354B40000000000025
S2144000D000000000000000000000000000000000DB
S2144000E041024000410240004102400041024000BF
S2144000F04102400041024000AD374000410240000E
S214400100410240004102400041024000410240009E
S2144001104102400000000000000000000000000017
S214400120410240004102400041024000410240007E
S21440013041024000000000004102400041024000F1
S21440014010B5054C237833B9044B13B10448AFF3CC
S21440015000800123237010BD2000402000000000D6
S214400160C85440000C4B43B10C480D4910B5AFF392
S21440017000800C48036823B910BD0A48036833B9A9
S2144001807047094B002BF7D0BDE810401847064B88
S214400190002BF5D0184700BF00000000C8544000B0
S2144001A024004020C85440000000000080B500AF46
S2144001B0014B984700BF80BDFD0A400080B582B025
S2144001C000AF164B7B60164B3B607A683B689A42A2
S2144001D00CD007E03B681A1D3A607A68111D7960BA
S2144001E012681A603B680F4A9342F3D30E4B3B604B
S2144001F004E03B681A1D3A6000221A603B680B4ACE
S2144002009342F6D30A4B7B600A4A7B6823F07F030F
S2144002109360094B9847094B9847FEE7C8544000FF
S214400220000040202000402020004020EC014020DC
S2144002300000400000ED00E0715240004552400092
S21440024080B400AFFEE780B483B000AF786039601A
S2144002507B68D3F814213B681A437B68C3F81421A3
S21440026000BF0C37BD465DF8047B704780B483B052
S21440027000AF786039607B683A681A6000BF0C3718
S214400280BD465DF8047B704780B483B000AF7860AD
S21440029039607B683A685A6000BF0C37BD465DF8E7
S2144002A0047B704780B483B000AF786039607B6869
S2144002B03A681A6100BF0C37BD465DF8047B70474C
S2144002C080B483B000AF786039607B683A685A6122
S2144002D000BF0C37BD465DF8047B704780B483B0E2
S2144002E000AF786039607B683A681A6300BF0C37A5
S2144002F0BD465DF8047B704780B483B000AF78603D
S21440030039607B683A685A6300BF0C37BD465DF873
S214400310047B704780B483B000AF786039607B68F8
S2144003203A685A6600BF0C37BD465DF8047B704796
S21440033080B483B000AF786039607B683A681A66EC
S21440034000BF0C37BD465DF8047B704780B483B071
S21440035000AF786039607B683A68C3F8942000BF85
S2144003600C37BD465DF8047B704780B483B000AF61
S214400370786039607B683A68C3F8902000BF0C37D5
S214400380BD465DF8047B704780B485B000AFF8602A
S2144003900B467A60FB72FA7AF97AFB681C3153F89E
S2144003A021107B681943FB681C3243F8221000BFBB
S2144003B01437BD465DF8047B704780B485B000AF07
S2144003C0F8600B467A60FB72FA7AF97AFB681C3161
S2144003D053F821107B68DB431940FB681C3243F816
S2144003E0221000BF1437BD465DF8047B704780B4CA
S2144003F083B000AF786039607B683A681A6100BFA6
S2144004000C37BD465DF8047B704780B485B000AFBE
S214400410786039607B689B69FB60FA683B6813408C
S214400420FB60FB6818461437BD465DF8047B704792
S21440043080B483B000AF786039607B683A68C3F8B0
S214400440002100BF0C37BD465DF8047B704780B482
S21440045085B000AF786039607B68D3F80831FB60C0
S214400460FA683B681340FB60FB6818461437BD4685
S2144004705DF8047B704780B483B000AF78607B68DB
S2144004805B6843F400427B685A6000BF0C37BD4649
S2144004905DF8047B7047000080B483B000AF03462D
S2144004A0FB71FB795B021A46034B134418460C3724
S2144004B0BD465DF8047B7047000E0E4080B584B0A4
S2144004C000AF03463960FB711346BB71FB79184693
S2144004D00E4B9847F860BB79002B0EDB012B02DDF4
S2144004E0022B05D009E03968F868094B984709E0BF
S2144004F03968F868074B984704E04B2206490020C5
S214400500064B984700BF1037BD4680BD9904400053
S214400510C1024000A5024000E0524000F5184000ED
S21440052080B584B000AF03463960FB711346BB719B
S214400530FB791846094B9847F860BB79002B04D0E6
S2144005403968F868064B984703E03968F868054B01
S214400550984700BF1037BD4680BD00BF9904400095
S214400560DD024000F902400080B584B000AF03468B
S214400570FB710B46BB7113467B71FB791846234BC8
S2144005809847F8607B79012B14D0022B23D0002BA0
S21440059032D1BB79012202FA03F31946F8681C4BA4
S2144005A09847BB79012202FA03F31946F868194BBB
S2144005B0984727E0BB79012202FA03F31946F86808
S2144005C0144B9847BB79012202FA03F31946F868A0
S2144005D0114B984716E0BB79012202FA03F31946FD
S2144005E0F8680B4B9847BB79012202FA03F3194689
S2144005F0F8680A4B984705E08D2209490020094BC8
S214400600984700BF00BF1037BD4680BD99044000E4
S214400610310340006B034000150340004D0340008B
S214400620E0524000F518400080B584B000AF7860D6
S21440063039607B685B09FB737B68DBB203F01F03A2
S214400640BB73FB7B1846334B9847B860FB7B012B4C
S21440065016D1BB7B042B0BD0BB7B052B08D0BB7BBA
S214400660062B05D0BB7B072B02D0BB7B0C2B07D1C0
S214400670BB7B012202FA03F319462748274B9847CB
S2144006803B68B3F1FF3F08D1BB7B012202FA03F37C
S2144006901946B868224B984737E03B6803F0010399
S2144006A0002B09D0BB7B012202FA03F31A46002135
S2144006B0B8681C4B984708E0BB7B012202FA03F35C
S2144006C01A460021B868184B98473B6803F0020367
S2144006D0002B09D0BB7B012202FA03F31A46012104
S2144006E0B868104B984708E0BB7B012202FA03F338
S2144006F01A460121B8680C4B9847BB7B012202FA88
S21440070003F31946B868094B984700BF1037BD46F3
S21440071080BD00BF9904400000800840470240006A
S2144007206D02400089034000BB0340008902400040
S21440073080B582B000AF03460A46FB711346BB71D4
S214400740FB795B09D8B2FB7903F01F03DBB2BA79B9
S2144007501946034B984700BF0837BD4680BD00BFCB
S2144007606905400080B582B000AF7860396039686E
S2144007707868034B984700BF0837BD4680BD00BF2A
S2144007802906400080B582B000AF03460A46FB719A
S2144007901346BB71FB795B09D8B2FB7903F01F03A4
S2144007A0012202FA03F3BA791946034B984700BF71
S2144007B00837BD4680BD00BFBD04400080B582B04E
S2144007C000AF03460A46FB711346BB71FB795B09D3
S2144007D0D8B2FB7903F01F03012202FA03F3BA7979
S2144007E01946034B984700BF0837BD4680BD00BF3B
S2144007F02105400080B500AF014B984700BF80BD43
S214400800291B400080B582B000AF78607B681F2B04
S21440081013D801227B6802FA03F319461448154B95
S21440082098470346002B1ED101227B6802FA03F349
S21440083019460F48104B984715E07B68203B7B6075
S21440084001227B6802FA03F3194609480B4B984786
S2144008500346002B07D101227B6802FA03F31946B0
S2144008600348074B984700BF0837BD4680BD00BFCA
S21440087000060E400B044000EF0340004F044000CB
S2144008803104400080B500AF4FF0FF312D20044BBF
S21440089098474FF0FF316020014B984700BF80BD1E
S2144008A06507400080B500AF1E20024B984700BF4A
S2144008B080BD00BF0508400080B500AF044B984798
S2144008C004490548054B9847054B984700BF80BDEF
S2144008D0A50840000000044040014020010C4000B4
S2144008E08508400080B500AF01212020064B984780
S2144008F000212020054B98474FF0FF312020044B25
S214400900984700BF80BD00BF8507400031074000C4
S2144009106507400080B500AF06495A20064B984709
S21440092006495B20044B984705495820024B984798
S21440093000BF80BD02005A006507400002005B0011
S2144009400200580080B500AF2A20024B984700BFEF
S21440095080BD00BF0508400080B500AF044B9847F7
S21440096004490548054B9847054B984700BF80BD4E
S214400970450940000080054054014020550E400087
S2144009801509400080B500AF4FF480210420044B89
S21440099098474FF440310320014B984700BF80BD35
S2144009A06507400080B500AF1320024B984700BF54
S2144009B080BD00BF0508400080B500AF044B984797
S2144009C004490548054B9847054B984700BF80BDEE
S2144009D0A509400000800140C4014020F50D4000BC
S2144009E08509400080B500AF4FF410210920044B24
S2144009F098474FF420210A20014B984700BF80BDFE
S214400A006507400080B500AF0720024B984700BFFF
S214400A1080BD00BF0508400080B500AF064B984734
S214400A20064B984703461A4605490648064B9847DC
S214400A30064B984700BF80BD050A4000653640001B
S214400A4000080E4068014020ED124000E5094000D5
S214400A5080B500AF2E20024B984700BF80BD00BF38
S214400A600508400080B500AF04497220044B984703
S214400A7004497320024B984700BF80BD02007200B5
S214400A80650740000200730090B583B002AF094B83
S214400A909847094B9847034600931023074A08494E
S214400AA00848094CA047094B984700BF0437BD4645
S214400AB090BD00BF510A4000753640003C004020C3
S214400AC0001E0E4074014020E90F4000650A4000B9
S214400AD080B500AF2220024B984700BF80BD00BFC4
S214400AE00508400080B500AF024B9847024B984738
S214400AF000BF80BDD10A40004918400080B500AF15
S214400B001C4B98470B201C4B98470C201A4B984779
S214400B101A481B4B9847022154201A4B98470121EC
S214400B205420194B98474FF0FF315420174B9847A5
S214400B3002215920134B984700215920124B9847C1
S214400B4000215920124B9847022159200F4B9847B5
S214400B50104B9847104B9847104B9847104B984768
S214400B60104B9847104B9847104B9847104B984758
S214400B7000BF80BDF50740000508400050180E40F5
S214400B807704400085074000BD07400065074000E9
S214400B9031074000B9084000E508400059094000C8
S214400BA0B9094000190A4000890A4000E50A400099
S214400BB0850C400080B485B000AF7860EFF31083BA
S214400BC0FB60FA687B681A6072B6BFF35F8F00BF3F
S214400BD01437BD465DF8047B704780B485B000AFDF
S214400BE07860BFF35F8F7B681B68FB60FB6883F3AE
S214400BF0108800BF1437BD465DF8047B7047000080
S214400C0080B584B000AF786039607B68002B04D034
S214400C103B68002B01D0012300E0002303F00103D2
S214400C20DBB23C2214491846144B98477B68396817
S214400C301846134B9847B860BB68002B01D0BB687A
S214400C4015E00023FB730EE0FB7B7A68DB00134461
S214400C5000225A60FB7B7A68DB00134400229A60CD
S214400C60FB7B0133FB73FB7B012BEDD9002318463E
S214400C701037BD4680BD00BFFC524000F51840000E
S214400C80E11B400080B582B000AF0023FB800EE041
S214400C90FB880C4ADB0013444FF0FF325A60FB8857
S214400CA0084A002142F83310FB880133FB80FB885A
S214400CB0002BEDD00448054B9847034618460837A6
S214400CC0BD4680BD4C004020D10C400099214000DC
S214400CD080B584B000AF78600023FB730123BB73FC
S214400CE02AE0BA7BFB7B13445B107B737B7B002B39
S214400CF027D17B7B164ADB0013445A687B689A42AE
S214400D000BD17B7B124A52F83330002B1BD07B7BB7
S214400D100F4A52F83330984715E07B7B0C4ADB008D
S214400D2013445A687B689A4203D27B7B0133FB7339
S214400D3002E07B7B013BBB73BA7BFB7B9A42D0D203
S214400D4002E000BF00E000BF1037BD4680BD00BFD8
S214400D504C00402080B58AB000AFF860B9601346BA
S214400D60FB80FB68143B7B627B6A9B8BBB82FB8869
S214400D70BB6148F20103FB82BB68FB617B6A07F1FB
S214400D80140211461846064B984738623B6A002BB9
S214400D9001D03B6A00E0FB8818462837BD4680BD38
S214400DA0BD2C400080B58AB000AFF860B9601346ED
S214400DB0FB80FB68143B7B627B6A9B8BBB82FB8819
S214400DC0BB614FF40043FB82BB68FB617B6A07F163
S214400DD0140211461846064B984738623B6A002B69
S214400DE001D03B6A00E0FB8818462837BD4680BDE8
S214400DF0BD2C400080B584B000AF786039607B6819
S214400E00002B14BF01230023DBB268220C4918468E
S214400E100C4B98477B68396818460B4B9847F860E8
S214400E20FB68002B01D0FB6806E07B68074A9A61A6
S214400E307B68074A5A61002318461037BD4680BD76
S214400E4018534000F5184000192C4000550D40003E
S214400E50A50D400080B584B000AF786039600023AF
S214400E60FB607B68002B04D03B68002B01D001233D
S214400E7000E0002303F00103DBB24222104918468B
S214400E80104B98477B683A681A607B683968184602
S214400E900D4B9847F860FB68002B01DAFB680AE0C8
S214400EA07B684FF400421A827B68084ADA607B68A7
S214400EB0074A9A60002318461037BD4680BD00BFDB
S214400EC034534000F518400041274000D50E4000FE
S214400ED02D0F400080B588B000AFF860B96013466B
S214400EE0FB80FB68002B14BF01230023DBB291225A
S214400EF00B4918460B4B9847FB68083BFB61BB68A1
S214400F007B6100233B61FB88BB6107F110031946F8
S214400F10F869054B9847034618462037BD4680BDBE
S214400F2034534000F5184000850F400080B588B027
S214400F3000AFF860B9601346FB80FB68002B14BF17
S214400F4001230023DBB2AD220B4918460B4B9847D2
S214400F50FB68083BFB6100237B61BB683B61FB8809
S214400F60BB6107F110031946F869054B98470346DD
S214400F7018462037BD4680BD34534000F518400023
S214400F80850F400080B586B000AF786039607B68DA
S214400F90002B04D03B68002B01D0012300E0002347
S214400FA003F00103DBB2BD220C4918460C4B9847B0
S214400FB03B681B68FB603B685B683B613B689B68C3
S214400FC07B617B6807F10C0211461846054B984733
S214400FD0034618461837BD4680BD00BF3453400010
S214400FE0F51840008529400080B586B000AFF8600F
S214400FF0B9607A607B80FB68002B0AD0BB68002B08
S21440100007D07B68002B04D07B88002B01D00123BF
S21440101000E0002303F00103DBB2442219491846DE
S214401020194B9847FB6834337A8879681846174BCB
S21440103098470346002B02D06FF00C031EE0FB6877
S2144010400833B9681846124B984778617B69002B7D
S21440105001D07B6912E0FB680E4A5A60FB680E4A74
S2144010601A60FB680D4A9A60FB680D4ADA60FB68B6
S2144010700C4A1A61FB680C4A5A6100231846183716
S214401080BD4680BD50534000F51840001D19400035
S214401090713340003D114000AD104000ED1140005E
S2144010A08512400059124000C112400080B586B0FB
S2144010B000AFF860B9601346FB80FB687B617B69D4
S2144010C0002B07D0BB68002B04D0FB88002B01D038
S2144010D0012300E0002303F00103DBB240F2451297
S2144010E013491846134B98477B69B3F844207B69ED
S2144010F0B3F84C309A4202D06FF01B0313E07B6982
S214401100BA689A647B69FA88A3F84C207B69002207
S214401110A3F844207B6901221A637B69083318468A
S214401120054B9847FB8818461837BD4680BD00BF1C
S21440113050534000F51840006135400080B588B0F7
S21440114000AFF860B9601346FB800023FB83FB6862
S214401150BB61BB69002B07D0BB68002B04D0FB8863
S214401160002B01D0012300E0002303F00103DBB293
S2144011704FF4B17217491846174B984707F11003BA
S2144011801846164B9847BB6934331846144B984755
S214401190786107F110031846124B98470CE0BB697C
S2144011A003F13402FB8B591CF9831946BB680B4488
S2144011B0194610460C4B9847FA8B7B699A4203D2E5
S2144011C0FA8BFB889A42EAD3FB8B18462037BD46FB
S2144011D080BD00BF50534000F5184000B50B40009E
S2144011E0751A4000DB0B40009119400090B585B061
S2144011F000AF78607B68083BFB60FB68B3F8442030
S214401200FB68B3F84C309A4217D0FB6803F10800ED
S214401210FB689A6CFB68B3F84430591C8CB2F9688A
S214401220A1F8444013441B781946084B9847FB687E
S21440123008331846064B984704E0FB6808331846C0
S214401240044B984700BF1437BD4690BD5534400008
S21440125061354000A135400080B584B000AF78606D
S2144012607B68083BFB60FB6800221A63FB685B6A8E
S214401270002B03D0FB685B6AF868984700BF1037BE
S214401280BD4680BD80B584B000AF78600B46FB702D
S2144012907B68083BFB60FB683433FA781146184697
S2144012A0064B9847FB689B6A002B03D0FB689B6AFB
S2144012B0F868984700BF1037BD4680BD011A400009
S2144012C080B584B000AF78607B68083BFB60FB6805
S2144012D000221A63FB68DB6A002B03D0FB68DB6ADC
S2144012E0F868984700BF1037BD4680BD80B586B0C9
S2144012F000AFF860B9607A60FB68002B04D0BB682A
S214401300002B01D0012300E0002303F00103DBB2F1
S2144013103E220D4918460D4B9847FB680833B9687E
S21440132018460B4B984778617B69002B01D07B6948
S21440133006E0FB68074A5A60FB68074A1A600023C3
S21440134018461837BD4680BD70534000F51840001B
S21440135019334000091440005D13400080B586B044
S21440136000AFF860B9601346FB8000237B61FB68E2
S2144013703B61FB68002B07D0BB68002B04D0FB8882
S214401380002B01D0012300E0002303F00103DBB271
S214401390FB2219491846194B984700BF3B6908334A
S2144013A01846174B9847034683F00103DBB2002BE1
S2144013B0F4D13B6903F10800BA687B6913441B7893
S2144013C01946104B984700BF3B69083318460C4BEC
S2144013D09847034683F00103DBB2002BF4D17B69C8
S2144013E001337B61FB887A699A42E2D37B6918466F
S2144013F01837BD4680BD00BF70534000F51840000A
S214401400E13440000D34400090B587B000AFF8603E
S214401410B9601346FB8000237B61FB683B61FB6839
S214401420002B07D0BB68002B04D0FB88002B01D0D4
S214401430012300E0002303F00103DBB240F2151263
S21440144012491846124B984700BF3B690833184666
S214401450104B9847034683F00103DBB2002BF4D1D0
S214401460BA687B69D4183B69083318460A4B9847D4
S214401470034623707B6901337B61FB887A699A4215
S214401480E2D37B6918461C37BD4690BD705340007A
S214401490F5184000213540009D34400080B485B0AA
S2144014A000AF0346FB710023FB7329E097F90F302A
S2144014B0194A5B01134401331B78FA799A4202D1E8
S2144014C097F90F3022E097F90F30134A5B01134427
S2144014D01B78002B0ED1FB7903F00F0397F90F20F2
S2144014E00D4952010A4401321278934202D197F9CB
S2144014F00F300BE097F90F30DBB20133DBB2FB73F2
S21440150097F90F30032BD1DD4FF0FF3318461437D1
S214401510BD465DF8047B70475400402080B588B0D7
S21440152000AFBA607B600346FB730B46BB73BB6879
S2144015307B617B68BB61BB7B002B04D0FB7B63F08D
S2144015407F03DBB203E0FB7B03F00F03DBB23B77AA
S21440155097F828307B7707F114031846034B9847D3
S214401560034618462037BD4680BD00BF2D5040007C
S21440157080B485B000AFF860B9607A600023184642
S2144015801437BD465DF8047B7047000080B586B0D2
S21440159000AF0346FB71FB7918462A4B9847034633
S2144015A0FB7597F917305B01274A13443B613B694B
S2144015B00C33FB60FB79F9681846244B9847034682
S2144015C0FB72FB7A082B0DD0FB7901211846204B85
S2144015D09847FB7963F07F03DBB2012118461C4B2A
S2144015E098472BE0FB7900211846194B9847FB7922
S2144015F063F07F03DBB200211846154B98473B69E2
S21440160001229A703B695B69FA79F96810469847F7
S214401610034683F00103DBB2002B0FD03B69052263
S2144016209A70FB7901211846094B9847FB7963F07D
S2144016307F03DBB201211846054B98471837BD4655
S21440164080BD00BF9D14400054004020894F40009C
S2144016505D4E400080B584B000AF03463960FB71F4
S214401660FB7918460D4B98470346FB7397F90F30A6
S2144016705B010B4A1344BB60BB689B78032B07D1C6
S214401680BB689B69FA79396810469847034600E07C
S214401690002318461037BD4680BD00BF9D1440004D
S2144016A05400402090B587B002AF78607B689B7846
S2144016B0FB737B681B7B03F08003002B14BF012366
S2144016C00023BB73FB7B032B3AD17B68DB697A68CC
S2144016D050787A680C320121984703467B737B7BAF
S2144016E0002B15D07B6805229A707B680222DA7040
S2144016F0BB7B002B02D07B685B7804E07B685B7822
S21440170063F07F03DBB201211846154B984722E071
S2144017107B6804229A707B685878BB7B002B14BF8A
S21440172001230023DBB283F00103DBB203F00103A5
S214401730D9B201230093002300220A4CA0470AE0B6
S2144017407B68DB697A6850787A680C320021984763
S2144017507B6802229A7000BF1437BD4690BD00BF1A
S2144017605D4E40001D15400080B586B000AF034674
S214401770B9607A60FB73FB7B18462F4B984703464D
S214401780FB7597F917305B012C4A13443B61BB68E5
S214401790002B0ED13B690022DA703B691B78002B88
S2144017A003D13869264B984743E03B6901229A703B
S2144017B038E0BB68012B13D13B690222DA703B69E3
S2144017C01B78002B08D13B6902229A70FB7B0021D4
S2144017D018461C4B984725E03B6905229A7021E045
S2144017E0BB68022B0ED13B690422DA703B691B783A
S2144017F0002B03D13B6902229A701AE03B69012212
S2144018009A700FE0BB68032B06D13B6900229A70A2
S2144018103B690522DA7005E03B6906229A703B690F
S2144018200622DA703B69DB693A69D1787A68F87BD8
S21440183098471837BD4680BD9D1440005400402050
S214401840A51640005D4E400080B582B000AF214BEB
S214401850984738603B68002B01DA3B6836E08022C8
S21440186000211D481D4B98470023FB711EE0FB7965
S214401870194A5B0113440133FF221A70FB79164A5A
S2144018805B0113441433164A1A60FB79124A5B0113
S21440189013441833124A1A60FB790F4A5B0113440B
S2144018A01C330F4A1A60FB790133FB71FB79032B1B
S2144018B0DDD90C4900200C4B98470C4901200A4BB7
S2144018C098470B490220084B98470023184608378C
S2144018D0BD4680BD8D4C400054004020CF52400055
S2144018E0711540008D154000ED51400055164000E2
S2144018F06917400080B485B000AF0346B9607A608F
S214401900FB73FB7B83F00103DBB2002B00D000BEF1
S21440191000BF1437BD465DF8047B704780B584B081
S21440192000AFF860B9607A60FB68002B07D0BB68F0
S214401930002B04D07B68002B01D0012300E000235D
S21440194003F00103DBB232220F4918460F4B98478B
S2144019507B685A1E7B681340002B02D06FF00C0346
S2144019600EE07B685A1EFB685A60FB6800229A604D
S214401970FB689A68FB68DA60FB68BA681A600023FE
S21440198018461037BD4680BD8C534000F5184000C1
S21440199080B582B000AF786039607B68002B04D099
S2144019A03B68002B01D0012300E0002303F0010335
S2144019B0DBB24A2210491846104B98477B68DA68D3
S2144019C07B689B689A4211D07B681A687B689968E6
S2144019D07B685B680B4013441A783B681A707B68D8
S2144019E09B685A1C7B689A60002301E06FF00903ED
S2144019F018460837BD4680BD8C534000F518400059
S214401A0080B582B000AF78600B46FB707B68002BD9
S214401A1014BF01230023DBB25B2214491846144B43
S214401A2098477B681A687B68D9687B685B680B4018
S214401A301344FA781A707B68DA687B689B68D21A17
S214401A407B685B689A4206D97B68DA687B685B6825
S214401A50D21A7B689A607B68DB685A1C7B68DA60BF
S214401A60002318460837BD4680BD00BF8C53400053
S214401A70F518400080B582B000AF78607B68002BD8
S214401A8014BF01230023DBB2712206491846064BD9
S214401A9098477B68DA687B689B68D31A184608378D
S214401AA0BD4680BD8C534000F518400080B485B0DC
S214401AB000AF786039607B681B68FB60FB6823F486
S214401AC07063FB603B681B0203F47063FA68134361
S214401AD0FB607B68FA681A6000BF1437BD465DF845
S214401AE0047B704780B582B000AF3B1D18460B4B59
S214401AF098470B4A0A4BD3F8883043F47003C2F831
S214401B008830BFF34F8FBFF36F8F3B1D1846054B92
S214401B10984700BF0837BD4680BD00BFB50B4000A4
S214401B2000ED00E0DB0B400080B500AF044B98476B
S214401B3005210448044B9847044B984700BF80BD96
S214401B40E51A4000000C0E40AD1A400091254000BA
S214401B5080B483B000AF786039607B683A685A6179
S214401B6000BF0C37BD465DF8047B704780B483B039
S214401B7000AF786039607B683A681A6000BF0C37FF
S214401B80BD465DF8047B704780B483B000AF786094
S214401B9039607B683A685A6000BF0C37BD465DF8CE
S214401BA0047B704780B483B000AF786039607B6850
S214401BB03A689A6000BF0C37BD465DF8047B7047B4
S214401BC080B483B000AF786039607B683A68C3F809
S214401BD0E42000BF0C37BD465DF8047B704700002C
S214401BE080B582B000AF786039607B68002B14BF48
S214401BF001230023DBB25D2208491846084B98476C
S214401C007B683A681A607B681B681846054B98479D
S214401C10034618460837BD4680BD00BFB053400057
S214401C20F5184000291C400080B582B000AF7860AF
S214401C307B68002B14BF01230023DBB240F2011265
S214401C400F4918460F4B9847012178680E4B984726
S214401C50032178680D4B984778680D4B98470D4B95
S214401C601B68194678680C4B98470A4B5B681946C0
S214401C7078680A4B9847002318460837BD4680BD0B
S214401C80B0534000F51840006D1B4000511B40000B
S214401C90A11C400000004020891B4000A51B4000BE
S214401CA080B582B000AF78607B68002B14BF0123FC
S214401CB00023DBB24FF4AF7205491846054B9847F0
S214401CC005497868054B984700BF0837BD4680BD34
S214401CD0B0534000F518400000434144C11B40004B
S214401CE080B483B000AF0346FB71094997F90730CB
S214401CF05B09FA7902F01F02012000FA02F241F86D
S214401D00232000BF0C37BD465DF8047B704700BFFC
S214401D1000E100E080B483B000AF0346FB710949A0
S214401D2097F907305B09FA7902F01F02012000FAA2
S214401D3002F2203341F8232000BF0C37BD465DF841
S214401D40047B704700E100E080B483B000AF0346F8
S214401D50FB71094997F907305B09FA7902F01F02CF
S214401D60012000FA02F2603341F8232000BF0C370E
S214401D70BD465DF8047B704700E100E080B483B068
S214401D8000AF78607B689B6C18460C37BD465DF8A4
S214401D90047B704780B483B000AF786039607B685E
S214401DA03A68C3F8B02000BF0C37BD465DF8047BE8
S214401DB0704780B483B000AF786039607B683A681B
S214401DC0C3F8C42000BF0C37BD465DF8047B70479F
S214401DD080B483B000AF786039607B683A68C3F8F7
S214401DE0C02000BF0C37BD465DF8047B704780B40A
S214401DF083B000AF786039607B683A68C3F8D42017
S214401E0000BF0C37BD465DF8047B704780B483B096
S214401E1000AF786039607B683A68C3F8D02000BF6E
S214401E200C37BD465DF8047B704780B483B000AF86
S214401E3078607B68DB6C18460C37BD465DF8047BE3
S214401E40704780B487B000AF78600B46FB700023C5
S214401E507B611EE00123FB6000233B6113E07B694E
S214401E609B007A6813441A68FB681340002B04D022
S214401E707B695A013B69134411E0FB685B00FB60D9
S214401E803B6901333B613B691F2BE8D97B690133D2
S214401E907B61FA787B699A42DCD84FF0FF3318466C
S214401EA01C37BD465DF8047B7047000080B582B0A5
S214401EB000AF78607B68002B14BF01230023DBB2A1
S214401EC0C32206491846064B98477A68054B134482
S214401ED05B0ADBB218460837BD4680BDE453400077
S214401EE0F518400000F2F1BF80B584B000AF7860CE
S214401EF07B68002B14BF01230023DBB2D122134999
S214401F001846134B98477868124B98470346BB735E
S214401F100023FB7310E0FA7B0F491346DB009B1A45
S214401F209B000B441B78BA7B9A4202D197F90F303C
S214401F3007E0FB7B0133FB73FB7B002BEBD04FF0C2
S214401F40FF3318461037BD4680BD00BFE4534000FF
S214401F50F5184000AD1E4000C853400080B588B01C
S214401F6000AF0023FB613B1D00221A605A609A6056
S214401F70DA601A61364B1B68002B14BF012300231E
S214401F80DBB2E92233491846334B98473348344B43
S214401F9098470346BB603148324B98470246BB6879
S214401FA01340BB60BB68FA691343FB6148E03B1DC6
S214401FB0052118462C4B98470346FB7629E0244BD0
S214401FC01B6897F91B201046984797F91B305B1102
S214401FD05BB2184697F91B305B115BB29B0007F16A
S214401FE02002134453F81C3CFA7E02F01F020121E3
S214401FF001FA02F2D2431A40830007F120010B4453
S21440200043F81C2C3B1D05211846174B98470346A2
S214402010FB7697F91B30B3F1FF3FD0D10023FB612D
S2144020200E480F4B98470346BB600C480D4B9847ED
S2144020300246BB681340BB60BB68FA691343FB614A
S214402040FB69002BB3D100BF2037BD4680BD00BF23
S214402050D4004020E4534000F518400000100E40E5
S2144020602B1E40007D1D4000431E400080B500AF43
S214402070014B984700BF80BD5D1F400080B584B0CF
S21440208000AF78607B68002B14BF01230023DBB2CF
S21440209040F2451233491846334B98477868334BDD
S2144020A098470346FB7397F90F30002B02DA6FF020
S2144020B0100353E097F90F202D491346DB009B1A77
S2144020C09B000B4408331B6819467868294B984791
S2144020D097F90F2026491346DB009B1A9B000B44BA
S2144020E00C331B6819467868234B984797F90F209E
S2144020F01F491346DB009B1A9B000B4410331B689A
S214402100194678681D4B98470023194678681C4B3B
S214402110984797F90F2016491346DB009B1A9B00F9
S2144021200B4414331B6819467868164B98477868F2
S214402130154B984703460A33DBB2FB7397F90F30CB
S2144021401846124B984797F90F301846104B984749
S21440215097F90F3018460F4B98470023184610370C
S214402160BD4680BDE4534000F5184000E91E4000DF
S214402170C8534000951D4000D11D4000B31D40008F
S2144021800D1E4000EF1D4000AD1E4000151D4000D6
S214402190491D4000E11C400080B582B000AF786029
S2144021A00548064B9847064A7B6813600023184646
S2144021B00837BD4680BD00BF00100E407D20400061
S2144021C0D400402080B483B000AF786039607B682C
S2144021D03A68DA6100BF0C37BD465DF8047B70474D
S2144021E080B483B000AF786039607B681A6A3B6819
S2144021F01A437B681A6200BF0C37BD465DF8047B05
S214402200704780B483B000AF786039607B683A68C6
S2144022101A6200BF0C37BD465DF8047B704780B439
S21440222083B000AF78607B681B6A18460C37BD46A3
S2144022305DF8047B7047000080B485B000AF7860DE
S21440224039607B689B6AFB60FA68094B1340FB6009
S2144022503B681A04074B1340FA681343FB607B68DD
S214402260FA689A6200BF1437BD465DF8047B704733
S214402270FFFF00F80000FF0780B483B000AF78602F
S21440228039607B683A689A6200BF0C37BD465DF895
S214402290047B704780B485B000AF78600B46FB7017
S2144022A07B681B6BFB60FB6823F40053FB60FB788A
S2144022B05B031A46FB681343FB607B68FA681A6345
S2144022C000BF1437BD465DF8047B704780B485B0C8
S2144022D000AF786039607B681B6BFB60FB6823F05F
S2144022E00303FB603B6803F00303FA681343FB6099
S2144022F07B68FA681A6300BF1437BD465DF8047BF6
S214402300704780B485B000AF786039607B681B6BDF
S214402310FB60FB6823F07003FB603B681B0103F027
S2144023207003FA681343FB607B68FA681A6300BF61
S2144023301437BD465DF8047B704780B485B000AF67
S214402340786039607B681B6BFB60FB6823F44073E6
S214402350FB603B681B0203F44073FA681343FB6060
S2144023607B68FA681A6300BF1437BD465DF8047B85
S214402370704780B483B000AF78607B689B6E03F094
S2144023800103002B14BF01230023DBB218460C3791
S214402390BD465DF8047B704780B483B000AF78607C
S2144023A07B689B6E03F00203002B14BF01230023BF
S2144023B0DBB218460C37BD465DF8047B704780B4E8
S2144023C083B000AF78607B689B6E03F00803002BF9
S2144023D014BF01230023DBB218460C37BD465DF818
S2144023E0047B704780B483B000AF78607B689B6E98
S2144023F003F04003002B14BF01230023DBB2184632
S2144024000C37BD465DF8047B7047000080B582B04F
S21440241000AF00237B602648264B9847034623F0B0
S21440242002037B607A68244B13437B6079682048BC
S214402430224B984700BF1E48214B9847034683F0DF
S2144024400103DBB2002BF6D11E4919481E4B9847B4
S2144024501E4B7B60002116481D4B98477B6843F017
S2144024600053194612481B4B984700BF10481A4B5A
S2144024709847034683F00103DBB2002BF6D14FF4B6
S21440248070037B607B6843F4803319460848134BDF
S214402490984700BF0648124B9847034683F001030F
S2144024A0DBB2002BF6D100BF0837BD4680BD00BF6B
S2144024B000060E401F224000013E37000322400027
S2144024C07323400000003701E1214000013F18001F
S2144024D0392240007922400099234000C52140001F
S2144024E0E523400080B500AF01211C481C4B9847AF
S2144024F000BF1A481B4B9847034683F00103DBB2E4
S214402500002BF6D100211548174B984700BF1348BB
S214402510144B9847034683F00103DBB2002BF6D1F9
S21440252001210E48114B984700BF0C480D4B984769
S214402530034683F00103DBB2002BF6D102210748A5
S2144025400B4B984700BF0548064B9847034683F019
S2144025500103DBB2002BF6D100BF80BD00060E4063
S21440256095224000BF234000032340003B23400009
S214402570CD22400080B400AF00BFBD465DF8047B6E
S214402580704780B400AF00BFBD465DF8047B70471F
S21440259080B500AF044B9847044B9847044B984788
S2144025A0044B984700BF80BD0D244000E524400002
S2144025B0752540008325400080B483B000AF786026
S2144025C039607B683A681A6000BF0C37BD465DF8D4
S2144025D0047B704780B483B000AF786039607B6816
S2144025E03A68DA6000BF0C37BD465DF8047B70473A
S2144025F080B483B000AF786039607B683A685A60D0
S21440260000BF0C37BD465DF8047B704780B485B08C
S21440261000AFF8600B467A60FB72FA7AFB680C32C1
S214402620796843F8221000BF1437BD465DF8047B36
S214402630704780B483B000AF78607B689B689BB27D
S21440264018460C37BD465DF8047B704780B483B0AF
S21440265000AF78607B681B6903F48033002B14BF9F
S21440266001230023DBB218460C37BD465DF8047BD9
S214402670704780B485B000AF786039607B681B696E
S214402680FB60FA683B681340FB60FB6818461437EB
S214402690BD465DF8047B704780B483B000AF786079
S2144026A07B681B6918460C37BD465DF8047B70474F
S2144026B080B485B000AF78607A68084B13441B0C32
S2144026C0FB73FB7B052B01D1012300E0002318465A
S2144026D01437BD465DF8047B704700BF0080FFBFDF
S2144026E080B584B000AF78607B681846124B984738
S2144026F00346BB730023FB7315E0FA7B0F49134672
S2144027009B0013449B000B441B78BA7B9A4207D12C
S214402710FA7B13469B0013449B00084A134406E08A
S214402720FB7B0133FB73FB7B002BE6D00023184674
S2144027301037BD4680BD00BFB12640000054400063
S21440274080B584B000AF786039603B6818462A4B45
S2144027509847F8607B68002B04D03B68002B01D07C
S214402760012300E0002303F00103DBB24FF4A17223
S21440277022491846224B9847FB68002B02D16FF03F
S2144027800C0335E038681F4B98470346002B02D0B1
S2144027906FF010032CE0802138681B4B98477B680D
S2144027A03A681A60FB685A68184B134019463868EE
S2144027B0154B9847FB689A68154B1340154A1A43C1
S2144027C011463868144B9847FB68DB681A46002168
S2144027D03868124B9847FB681A8A7B68DA80FB6831
S2144027E0DB68DBB223F00F03DAB27B681A71002392
S2144027F018461037BD4680BDE126400014544000C0
S214402800F51840004D264000B92540007CFFFFFEED
S2144028106FFFF1FF10000E00F12540000D2640002E
S21440282080B582B000AF786000BF4FF40071786822
S214402830044B98470346002BF7D000BF0837BD46E9
S21440284080BD00BF7326400080B584B000AF78607E
S21440285039607868174B9847034603F00103002B0E
S21440286001D1002322E07868134B9847F8603B6814
S2144028705B68002B14D03B685B68591C3A68516013
S214402880FA68D2B21A703B681B7C012B08D93B68A9
S2144028905B68591C3A685160FA68120AD2B21A70DC
S2144028A03B68DB685A1C3B68DA60012318461037E1
S2144028B0BD4680BD992640003326400080B586B090
S2144028C000AFF860B9601346FB80F8681A4B98472B
S2144028D0034603F00203002B01D1002328E0BB6827
S2144028E01B68002B18D0BB681B68591CBA6811605F
S2144028F01B787B61BB681B7C012B0FD9BB681B68B0
S2144029001B781B021A467B6913437B61BB681B68B6
S2144029105A1CBB681A6001E0FB887B61BB689B68F9
S2144029205A1CBB689A607969F868044B984701233B
S21440293018461837BD4680BD99264000D52540002C
S21440294080B582B000AF786039603B68002B14BF1A
S21440295001230023DBB24FF40C7208491846084B9B
S21440296098477B6803F00803002B02D06FF01203F1
S21440297000E0002318460837BD4680BD145440008A
S214402980F518400080B58AB000AF786039607B6843
S2144029901B683B6200237B623B681B68FB603B68AE
S2144029A05B683B6100237B610023BB617B681B79CE
S2144029B03B777B68002B04D03B6A002B01D0012379
S2144029C000E0002303F00103DBB240F23F2225493A
S2144029D01846254B9847386A244B9847034683F059
S2144029E00103DBB2002B02D06FF0130335E007F192
S2144029F00C031946386A1E4B9847034683F001037A
S214402A00DBB2002B0BD0BA697B699A4207D37B684E
S214402A10DA8807F10C031946386A164B9847386A25
S214402A20154B98470346396A1846144B98477862C0
S214402A307B6A002B0CDB7A693B689B689A42D6D34C
S214402A40BA693B689B689A42D1D37B697B6200E057
S214402A5000BF386A0A4B98477B6A18462837BD46F7
S214402A6080BD00BF14544000F51840004D2640007D
S214402A7049284000BD284000992640004129400092
S214402A802128400080B483B000AF786039607B680E
S214402A903A681A6000BF0C37BD465DF8047B704745
S214402AA080B483B000AF786039607B683A685A6318
S214402AB000BF0C37BD465DF8047B704780B483B0DA
S214402AC000AF786039607B683A685A6000BF0C3760
S214402AD0BD465DF8047B704780B483B000AF786035
S214402AE039607B683A68DA6000BF0C37BD465DF8EF
S214402AF0047B704780B483B000AF786039607B68F1
S214402B003A681A6100BF0C37BD465DF8047B7047D3
S214402B1080B483B000AF786039607B683A689A6367
S214402B2000BF0C37BD465DF8047B704780B483B069
S214402B3000AF786039607B683A685A6400BF0C37EB
S214402B40BD465DF8047B704780B483B000AF7860C4
S214402B507B681B6A03F00103002B14BF012300238C
S214402B60DBB218460C37BD465DF8047B704780B430
S214402B7083B000AF78607B681B6A03F00203002BCB
S214402B8014BF01230023DBB218460C37BD465DF860
S214402B90047B704780B483B000AF78607B681B6A64
S214402BA018460C37BD465DF8047B704780B483B04A
S214402BB000AF78607B681B6B18460C37BD465DF8E7
S214402BC0047B704780B485B000AF78600023FB7309
S214402BD015E0FA7B0F4913465B001344DB000B44B9
S214402BE01A687B689A4207D1FA7B13465B00134407
S214402BF0DB00084A134406E0FB7B0133FB73FB7B98
S214402C00002BE6D0002318461437BD465DF8047BFB
S214402C10704700BF2C54400080B584B000AF786049
S214402C2039607B68002B04D03B68002B01D0012321
S214402C3000E0002303F00103DBB282221849184665
S214402C40184B98477B683A681A617B681B69184638
S214402C50154B9847F8607B681A69FB685B681946AD
S214402C601046124B98477B681A69FB689B68194662
S214402C7010460F4B98477B681A69FB68DB68194615
S214402C8010460C4B98477B681A69FB681B691946C7
S214402C901046094B9847002318461037BD4680BD5E
S214402CA044544000F5184000C52B4000852A40009B
S214402CB0112B40002D2B4000F52A400080B582B0F5
S214402CC000AF786039607B68002B04D03B68002BEF
S214402CD001D0012300E0002303F00103DBB2C4224D
S214402CE011491846114B98477B685B889BB203F4A2
S214402CF08073002B02D06FF0050311E03B685B88C1
S214402D009BB203F00103002B05D039687868084B66
S214402D109847034604E039687868064B9847034668
S214402D2018460837BD4680BD44544000F51840005C
S214402D30692E4000392D400080B586B000AF7860DF
S214402D40396000233B613B685B889BB243F48073E9
S214402D509AB23B685A803B681B8803F48063002B1A
S214402D601BD07B681A693B681B881B0A9BB243F0E2
S214402D7078039BB21B0403F4FE0343F480731946A6
S214402D801046334B98477B681A693B681B88DBB212
S214402D90194610462F4B98470AE07B681A693B68ED
S214402DA01B881B0403F4FE0319461046284B98471D
S214402DB000237B6120E07B681B691846264B9847BA
S214402DC0F860FB6803F48073002B03D06FF00103B8
S214402DD03B6104E0FB6803F00403002BEBD07B6808
S214402DE018693B689A687B6913441B7819461B4BE5
S214402DF098477B6901337B613B685B681A467B6911
S214402E009A42D8D83B685B889BB21BB2002B11DA3B
S214402E107B681B6902211846114B984700BF7B68A8
S214402E201B6918460F4B9847034683F00103DBB2F5
S214402E30002BF4D17B685B889BB223F480739AB2F4
S214402E407B685A803B6918461837BD4680BD00BF30
S214402E50BD2A4000D92A4000952B4000A12A4000B8
S214402E60852A4000492B400090B585B000AF786079
S214402E7039603B685B889BB243F480739AB23B6888
S214402E805A803B681B8803F48063002B1BD07B680A
S214402E901A693B681B881B0A9BB243F078039BB2B7
S214402EA01B0403F4FE0343F4885319461046384B7C
S214402EB098477B681A693B681B88DBB21946104600
S214402EC0344B98470CE07B681A693B681B881B04A8
S214402ED003F4FE0343F48053194610462C4B9847A0
S214402EE07B681A693B685B68012B01D1032300E0CD
S214402EF0012319461046284B98470023FB6027E0DD
S214402F0000BF7B681B691846244B9847034683F0EE
S214402F100103DBB2002BF4D13B689A68FB68D418F7
S214402F207B681B6918461E4B98470346DBB22370E6
S214402F303B685B68023B1A46FB689A4205D17B6851
S214402F401B6902211846144B9847FB680133FB6007
S214402F503B685B681A46FB689A42D1D800BF7B68DC
S214402F601B6918460F4B9847034683F00103DBB2B4
S214402F70002BF4D17B685B889BB223F480739AB2B3
S214402F807B685A80002318461437BD4690BD00BF64
S214402F90BD2A4000D92A4000852A40006F2B4000B9
S214402FA0AD2B4000492B400080B483B000AF0346B1
S214402FB0FB71094997F907305B09FA7902F01F025D
S214402FC0012000FA02F241F8232000BF0C37BD462C
S214402FD05DF8047B704700BF00E100E080B483B03A
S214402FE000AF0346FB71094997F907305B09FA7948
S214402FF002F01F02012000FA02F2203341F823209B
S21440300000BF0C37BD465DF8047B704700E100E02A
S21440301080B483B000AF0346FB71094997F9073087
S2144030205B09FA7902F01F02012000FA02F26033CF
S21440303041F8232000BF0C37BD465DF8047B70473F
S21440304000E100E080B483B000AF78607B681B6925
S21440305003F00103002B14BF01230023DBB2184604
S2144030600C37BD465DF8047B704780B483B000AF34
S21440307078607B6802229A6000BF0C37BD465DF8D8
S214403080047B704780B483B000AF78607B681B6970
S2144030905B0803F00103002B14BF01230023DBB2BF
S2144030A018460C37BD465DF8047B704780B483B045
S2144030B000AF78607B680222DA6000BF0C37BD46FE
S2144030C05DF8047B704780B483B000AF78607B685F
S2144030D04FF400729A6000BF0C37BD465DF8047B23
S2144030E0704780B483B000AF78607B681B695B0A2A
S2144030F003F00103002B14BF01230023DBB2184664
S2144031000C37BD465DF8047B704780B483B000AF93
S21440311078607B684FF40072DA6000BF0C37BD46BB
S2144031205DF8047B704780B483B000AF7860396048
S2144031307B683A681A6000BF0C37BD465DF8047B72
S214403140704780B483B000AF786039607B683A6877
S214403150DA6100BF0C37BD465DF8047B704780B42B
S21440316083B000AF786039607B683A685A6000BFC9
S2144031700C37BD465DF8047B704780B483B000AF23
S214403180786039607B683A681A6200BF0C37BD4683
S2144031905DF8047B704780B483B000AF78603960D8
S2144031A07B683A68C3F8E42000BF0C37BD465DF83C
S2144031B0047B704780B483B000AF78607B685B69FF
S2144031C003F00103002B14BF01230023DBB2184693
S2144031D00C37BD465DF8047B704780B483B000AFC3
S2144031E078607B685B6903F00203002B14BF012301
S2144031F00023DBB218460C37BD465DF8047B7047AB
S21440320080B483B000AF78607B685B6903F400737A
S214403210002B14BF01230023DBB218460C37BD46F3
S2144032205DF8047B704780B483B000AF78607B68FD
S2144032305B6918460C37BD465DF8047B704780B422
S21440324083B000AF78607B689B69DBB218460C376A
S214403250BD465DF8047B704780B483B000AF7860AD
S2144032607B689B6918460C37BD465DF8047B704703
S21440327080B584B000AF78607B68002B14BF012314
S2144032800023DBB2912216491846164B98477868B9
S214403290154B98470346FB73FB7B042B16D801A2BD
S2144032A052F823F0B9324000BD324000C1324000EF
S2144032B0C5324000C932400007230DE008230BE02A
S2144032C02C2309E02D2307E02E2305E0A322044902
S2144032D00020044B9847FF2318461037BD4680BD54
S2144032E060544000F5184000E135400080B483B09B
S2144032F000AF786039607B68054A934202D1054A40
S2144033003B68136000BF0C37BD465DF8047B7047D2
S214403310001E0E40D800402080B582B000AF7860D6
S21440332039607B68002B14BF01230023DBB2B72231
S2144033300C4918460C4B98473B68002B14BF01239A
S2144033400023DBB2B82207491846074B98477B68EC
S2144033503A681A603868054B984703461846083757
S214403360BD4680BD60544000F518400045384000DA
S21440337080B584B000AF786039607B68002B14BF9E
S21440338001230023DBB2C62218491846184B98473B
S2144033903868184B9847F860FB68002B01D0FB68EC
S2144033A01FE07B683A689A6179683868124B98479C
S2144033B03868124B984703465BB21846104B9847FE
S2144033C038680E4B984703465BB218460D4B9847F5
S2144033D038680A4B984703465BB218460A4B9847EC
S2144033E0002318461037BD4680BD00BF60544000DD
S2144033F0F518400045384000ED324000713240003C
S214403400DD2F400011304000A92F400080B582B02B
S21440341000AF78600B46FB707B68002B14BF01231F
S2144034200023DBB24FF4D17207491846074B984742
S2144034307B681B68FA7811461846054B984700BFCC
S2144034400837BD4680BD00BF60544000F5184000B8
S2144034504331400080B582B000AF78600B46FB70C9
S2144034607B68002B14BF01230023DBB240F2AB1273
S21440347007491846074B98477B689B69FA78114678
S2144034801846054B984700BF0837BD4680BD00BF6D
S21440349060544000F51840004331400080B582B08B
S2144034A000AF78607B68002B14BF01230023DBB29B
S2144034B04FF4DA7207491846074B98477B681B68F3
S2144034C01846064B98470346DBB218460837BD46B3
S2144034D080BD00BF60544000F51840003F324000B9
S2144034E080B582B000AF78607B68002B14BF0123A4
S2144034F00023DBB240F2BD1206491846064B9847F9
S2144035007B681B681846054B98470346184608379D
S214403510BD4680BD60544000F5184000DB31400099
S21440352080B582B000AF78607B68002B14BF012363
S2144035300023DBB240F2CF1206491846064B9847A6
S2144035407B681B681846054B98470346184608375D
S214403550BD4680BD60544000F5184000B53140007F
S21440356080B582B000AF78607B68002B14BF012323
S2144035700023DBB240F20A2206491846064B98471B
S2144035807B689B691846054B984700BF0837BD4681
S21440359080BD00BF60544000F51840006B304000CE
S2144035A080B582B000AF78607B68002B14BF0123E3
S2144035B00023DBB240F2132206491846064B9847D2
S2144035C07B689B691846054B984700BF0837BD4641
S2144035D080BD00BF60544000F5184000C730400032
S2144035E080B582B000AF78607B68002B14BF0123A3
S2144035F00023DBB240F21D2213491846134B98476E
S2144036007B68134A934201D1002318E07B68114A35
S214403610934201D1012312E07B680F4A934201D1C5
S21440362002230CE07B680D4A934201D1032306E057
S2144036307B680B4A934201D1042300E0FF231846DF
S2144036400837BD4680BD00BF60544000F5184000B6
S21440365000080E40000A0E40001A0E40001C0E40A5
S214403660001E0E4080B400AF00231846BD465DF8ED
S214403670047B704780B400AF00231846BD465DF813
S214403680047B704790B585B000AF78607B68002BB0
S21440369014BF01230023DBB240F28122354918468D
S2144036A0354B98477B689B69FB60F868334B984777
S2144036B00346002B0DD0F868314B98470346002B45
S2144036C007D0F8682F4B98477B681B687868984700
S2144036D04CE0F8682C4B98470346002B0DD0F86812
S2144036E02A4B98470346002B07D0F868284B984744
S2144036F07B689B687868984738E0F868254B984719
S2144037000346002B21D0F868234B98470346002BEE
S2144037101BD0F868214B9847034603F0E003002B84
S21440372008D0F8681E4B98474FF48071F8681D4BD8
S21440373098471BE07B685C68F8681B4B98470346D5
S214403740DBB219467868A04710E0F868134B9847F4
S214403750034603F0E003002B08D04FF48071F8686E
S214403760104B98477B68DB68786898471437BD46A7
S21440377090BD00BF60544000F5184000DB3140006B
S21440378085304000AD30400001324000E33040001C
S2144037900B314000B53140004530400027324000F4
S2144037A059324000273140003F32400080B500AFDC
S2144037B0034B1B681846034B984700BF80BD00BFAD
S2144037C0D80040208536400080B584B000AF786091
S2144037D07B68002B14BF01230023DBB24FF42A7210
S2144037E014491846144B98477868144B9847034634
S2144037F0BB730023FB730FE0FA7B114913465B0053
S21440380013449B000B441B78BA7B9A4201D1FB7B46
S2144038100CE0FB7B0133FB73FB7B012BECD940F2C6
S214403820B22204490020044B98470023184610371C
S214403830BD4680BD60544000F5184000E13540006C
S2144038400800402080B584B000AF78607B68002BCD
S21440385014BF01230023DBB240F2BF221A491846A8
S2144038601A4B984778681A4B98470346FB73194992
S2144038707868194B9847AC217868184B98474FF4AE
S21440388080717868154B9847FA7B154913465B005C
S21440389013449B000B4404331B6819467868114B4D
S2144038A09847FA7B0E4913465B0013449B000B4433
S2144038B008331B68194678680B4B98470023184610
S2144038C01037BD4680BD00BF60544000F51840002C
S2144038D0C9374000005241559731400027314000DB
S2144038E0080040205F3140007B31400080B483B008
S2144038F000AF78607B6801229A6100BF0C37BD46F6
S2144039005DF8047B704780B483B000AF78607B6816
S21440391010225A6100BF0C37BD465DF8047B7047E5
S21440392080B483B000AF786039607B683A689A614B
S21440393000BF0C37BD465DF8047B704780B483B04B
S21440394000AF78607B681B6918460C37BD465DF84B
S214403950047B704780B483B000AF786039607B6882
S2144039603A685A6100BF0C37BD465DF8047B704725
S21440397080B483B000AF78600B46FB70FA787B6803
S2144039804C3253F822309B0803F00103002B14BF3F
S21440399001230023DBB218460C37BD465DF8047B96
S2144039A0704780B483B000AF78600B46FB70FA78FF
S2144039B07B684C3253F822309B0903F00103002BFE
S2144039C014BF01230023DBB218460C37BD465DF812
S2144039D0047B704780B483B000AF78600B46FB70C2
S2144039E0FA787B684C3253F822301B0C03F0010304
S2144039F0002B14BF01230023DBB218460C37BD460C
S214403A005DF8047B704780B487B000AFF8600B4623
S214403A107A60FB72FA7AFB684C3253F822307B614C
S214403A207A697B6813407B617B6918461C37BD46C4
S214403A305DF8047B704780B483B000AF78600B4677
S214403A40FB70FA787B684C3253F8223018460C37B5
S214403A50BD465DF8047B704780B485B000AFF86023
S214403A600B467A60FB72FA7AFB685832796843F8FC
S214403A70221000BF1437BD465DF8047B704780B403
S214403A8083B000AF786039607B683A689A6000BF60
S214403A900C37BD465DF8047B704780B485B000AFF8
S214403AA0F8600B467A60FB72FA7AFB686432796893
S214403AB043F8221000BF1437BD465DF8047B7047BC
S214403AC080B485B000AFF8600B467A60FB72FA7A35
S214403AD0FB687C32796843F8221000BF1437BD4635
S214403AE05DF8047B704780B485B000AFF8600B4645
S214403AF07A60FB72FA7AFB688832796843F822105B
S214403B0000BF1437BD465DF8047B704780B483B071
S214403B1000AF78607B681B6843F080027B681A6061
S214403B2000BF0C37BD465DF8047B704780B483B059
S214403B3000AF78607B681B6823F080027B681A6061
S214403B4000BF0C37BD465DF8047B704780B485B037
S214403B5000AF786039607B681B68FB60FB6823F0C9
S214403B607F03FB603B6803F07F03FA681343FB6008
S214403B707B68FA681A6000BF1437BD465DF8047B60
S214403B80704780B483B000AF786039607B683A682D
S214403B901A6000BF0C37BD465DF8047B704780B4A2
S214403BA083B000AF78600B46FB70FA78F9787B6894
S214403BB0403153F8213043F400717B68403243F87B
S214403BC0221000BF0C37BD465DF8047B704780B4BA
S214403BD083B000AF78600B46FB70FA78F9787B6864
S214403BE0403153F8213023F400717B68403243F86B
S214403BF0221000BF0C37BD465DF8047B704780B48A
S214403C0085B000AF78600B46FB70FA787B68403230
S214403C1053F82230FB60FB68DB0A03F00303FB60CB
S214403C20FB6818461437BD465DF8047B704780B481
S214403C3085B000AF78607B68D3F80038FB60FB68DF
S214403C40DB0B03F00103FB60FB68002B14BF012372
S214403C500023DBB218461437BD465DF8047B704738
S214403C6080B483B000AF786039607B683A68C3F848
S214403C70002800BF0C37BD465DF8047B704780B413
S214403C8083B000AF78607B685B6818460C37BD46EB
S214403C905DF8047B704780B483B000AF78600B4615
S214403CA0FB70FA787B68703253F8223018460C372F
S214403CB0BD465DF8047B704780B485B000AFF860C1
S214403CC00B467A60FB72FB7AFA6831331B01134469
S214403CD004337A681A6000BF1437BD465DF8047B2B
S214403CE0704780B485B000AFF8600B467A60FB72D0
S214403CF0FB7AFA681B01134403F546737A681A6028
S214403D0000BF1437BD465DF8047B704780B483B06F
S214403D1000AF78600B46FB70FB787A681B01134453
S214403D2003F547731B6803F00103002B14BF012300
S214403D300023DBB218460C37BD465DF8047B70475F
S214403D4080B483B000AF78600B46FB70FB787A682F
S214403D501B01134403F547731B681B0903F001035B
S214403D60002B14BF01230023DBB218460C37BD4698
S214403D705DF8047B704780B483B000AF78600B4634
S214403D80FB70FB787A681B01134403F547731B6886
S214403D901B0C9BB218460C37BD465DF8047B70473B
S214403DA080B483B000AF7860396000BF0C37BD4642
S214403DB05DF8047B704780B483B000AF78603960AC
S214403DC0002318460C37BD465DF8047B704700005C
S214403DD080B582B000AF03463960FB71FB793A6824
S214403DE019460348034B984700BF0837BD4680BD79
S214403DF000800340593A400080B582B000AF034689
S214403E003960FB71FB793A6819460848084B984771
S214403E10FB794FF4805202FA03F319460348054BE8
S214403E20984700BF0837BD4680BD00BF00800340AE
S214403E30C13A40002139400080B582B000AF034609
S214403E403960FB71FB793A6819460348034B98473B
S214403E5000BF0837BD4680BD00800340E73A4000BB
S214403E6080B582B000AF0346FB71FB791946064821
S214403E70064B98470346002B0CBF01230023DBB2BA
S214403E8018460837BD4680BD00800340FF3B4000D3
S214403E9080B584B000AF03460A46FB711346BB713B
S214403EA00B4BFB60BB79002B07D0FB794FF400220D
S214403EB01946F868074B984706E0FB794FF400220E
S214403EC01946F868044B984700BF1037BD4680BD7A
S214403ED000800340C13A4000E73A400080B582B0D7
S214403EE000AF0346FB71FB7919460448044B9847DC
S214403EF0034618460837BD4680BD00BF00800340D5
S214403F00A339400080B582B000AF0346FB71FB7911
S214403F1040211846024B984700BF0837BD4680BD33
S214403F20D13D400080B582B000AF03460A46FB71E3
S214403F301346BB71BB79002B05D0FB794021184650
S214403F40054B984704E0FB7940211846034B9847B9
S214403F5000BF0837BD4680BDF93D4000393E4000B1
S214403F6080B582B000AF0346FB71FB790422194648
S214403F700348044B984700BF0837BD4680BD00BF86
S214403F8000800340E73A400080B582B000AF034669
S214403F90FB71FB7919460448044B9847034618467C
S214403FA00837BD4680BD00BF0080034071394000E1
S214403FB080B582B000AF0346FB71FB7904211846FA
S214403FC0024B984700BF0837BD4680BDD13D4000F4
S214403FD080B584B000AF0346FB71064BFB60FB79AF
S214403FE04FF480221946F868034B984700BF1037B5
S214403FF0BD4680BD00800340C13A400080B582B0D7
S21440400000AF0346FB71FB79054A19460548064B47
S214404010984703461B0D9BB218460837BD4680BDE1
S2144040200000F07F00800340073A400080B584B02F
S21440403000AF0346FB710C4BFB60FB79012219462F
S214404040F8680A4B9847FB7908221946F868074BE8
S2144040509847FB7908221946F868054B984700BFF1
S2144040601037BD4680BD00BF00800340593A40002F
S214404070C13A400080B584B000AF03460A46FB71A3
S2144040801346BB710A4BFB60BB79002B06D0FB790D
S21440409001221946F868074B984705E0FB7901224C
S2144040A01946F868044B984700BF1037BD4680BD98
S2144040B000800340593A40009B3A400080B584B0A7
S2144040C000AF03460A46FB711346BB710A4BFB60C2
S2144040D0BB79002B06D0FB7902221946F868074BBD
S2144040E0984705E0FB7902221946F868044B984742
S2144040F000BF1037BD4680BD008003409B3A40005D
S214404100593A400080B500AF04210448044B984714
S214404110044B1B68984700BF80BD00BF008003402B
S2144041207F3A4000DC00402080B500AF02210448C2
S214404130044B9847044B1B68984700BF80BD00BFA0
S214404140008003407F3A4000DC00402080B582B0CB
S21440415000AF0A4B7B6010217868094B9847786817
S214404160084B98477868084B9847084B5B6800218F
S2144041700220984700BF0837BD4680BD00800340F8
S2144041807F3A400007394000ED384000DC004020D0
S21440419080B582B000AF0C4B7B60082178680B4B33
S2144041A09847702178680A4B984701217868094BF0
S2144041B09847094B9847094B5B6800210120984770
S2144041C000BF0837BD4680BD008003407F3A4000B0
S2144041D05539400021394000FD4B4000DC0040206E
S2144041E080B582B000AF0B4B7B60012178680A4BEC
S2144041F0984701210748094B984770210548084BC6
S2144042009847084B5B6800210420984700BF083752
S214404210BD4680BD008003407F3A4000553940008F
S21440422021394000DC00402080B582B000AF012339
S214404230FB711F481F4B98470346BB801C481E4BCC
S214404240984703469AB2BB881340BB80BB8803F0AE
S2144042500403002B03D0194B9847012323E0BB8867
S21440426003F00203002B03D0154B984701231AE0B6
S214404270BB8803F07003002B02D0124B984711E026
S214404280BB8803F00803002B02D00F4B984709E089
S214404290BB8803F00103002B02D00C4B984701E08B
S2144042A00023FB71FB7918460837BD4680BD00BF2A
S2144042B0008003407F3C40003D39400005414000BF
S2144042C0294140004D41400091414000E1414000BD
S2144042D080B58AB000AF7860654B3B627B689B7C5C
S2144042E003F00F03FB77FB7FDA03624B1344BB619B
S2144042F07B68DB68FB827B681B8A40F2FF32934216
S21440430003D17B681B8A1BB204E07B681B8A013B97
S2144043109BB21BB2B7F9162013401BB2BB827B6818
S214404320DB7C03F00703DBB2012B0CBF0123002329
S214404330FB747B689A687B685B689A4258D37B6854
S214404340DB7C03F01003DBB2002B19D07B68002225
S214404350DA607A68D37C6FF30413D374FB7F184615
S214404360454B9847FB7C83F00103DBB2002B78D0AB
S214404370FB7F4FF480421946386A404B984770E0BE
S214404380FB7F01221946386A3C4B9847FB7C83F0FA
S2144043900103DBB2002B08D0FB7F4FF4805202FAB9
S2144043A003F31946386A364B98477B689A687B68A9
S2144043B05A607B681B8ABA8A9A4214D17A68D37C40
S2144043C06FF38613D3742F4BDB687A68907C7A68D9
S2144043D09268114698470346002B44D17A68D37CAE
S2144043E043F04003D37400217868274B98473BE05E
S2144043F07B685B689AB27B689B689BB2D31AFB84E7
S2144044007B681B8AFA8C9A4202D97B681B8AFB849B
S2144044107B681A687B689B681344FB60FB8C1A4673
S214404420F968B869194B9847FA8C7B68DA607B68FC
S2144044309A68FB8C1A447B689A60FB7F0122194677
S214404440386A134B9847FB7C83F00103DBB2002BA2
S2144044500AD0FB7F4FF480421946386A074B98478C
S21440446002E000BF00E000BF2837BD4680BD00BF69
S21440447000800340000010A02D404000E73A400076
S21440448055394000DC004020D94E4000B95240002B
S214404490593A400080B588B000AF7860474BBB6162
S2144044A07B689B7C03F00F03FB75FB7D1846444BF3
S2144044B098470346FB837B685B689AB27B689B6839
S2144044C09BB2D31ABB82FB7DDA033E4B13443B615F
S2144044D000237B7700233B777B68DB7C03F0070376
S2144044E0DBB2012B0CBF01230023FB73FB7D0222B2
S2144044F01946B869344B9847FB8B002B21D0FA8B72
S214404500BB8A9A4203D9BB8AFB8301237B777B68AD
S2144045101A687B689B681344FA8B396918462B4B9C
S21440452098477B689A68FB8B1A447B689A60FA8B3C
S2144045307B68DA60FB7D4FF480421946B869244BAD
S21440454098477B681B8AFA8B9A4207D27A68D37C54
S2144045506FF30413D37401233B7707E07B689A68B4
S2144045607B685B689A4201D301237B777B7F002B75
S21440457002D13B7F002B1CD0FB7D02221946B86936
S214404580134B9847FB7B83F00103DBB2002B08D02C
S214404590FB7D4FF4805202FA03F31946B8690D4B7F
S2144045A098477B689A687B685A60002178680A4B0F
S2144045B0984700BF2037BD4680BD00BF00800340FF
S2144045C0FD3F4000000010A0593A4000B95240005C
S2144045D0E73A400055394000D94E400080B586B095
S2144045E000AF7860614BFB607B689B7C03F00F03F9
S2144045F0FB727B68DB7C03F04003DBB2002B00F0F1
S214404600B0807B689A687B685B689A4273D07B68A8
S2144046105A687B689B68D31A7B617B69B3F5803F99
S21440462005D94FF480337B6100233B6102E07B6910
S2144046301B043B617B68DB7C23F07F03DBB2002BF3
S2144046400BD07B68DB7C03F01003DBB2002B04D17D
S2144046503B6943F008033B6110E07B68DB7C03F07A
S2144046600703DBB2022B05D17B681B8A1A467B699F
S2144046709A4203D33B6943F014033B61FB7A013B08
S214404680D9B27B681A687B689B6813441A46F868F8
S214404690374B98473B6943F021033B61FB7A013B2C
S2144046A0DBB21946F868334B9847034683F001035C
S2144046B0DBB2002B1BD0FB7A013BDBB23A691946D2
S2144046C0F8682D4B98477B689A687B691A447B68E4
S2144046D09A607B687A69DA60FB7A013B4FF0007239
S2144046E002FA03F31946F868244B98473AE07B6889
S2144046F09A687B685A607B68DB7C23F07F03DBB27A
S214404700002B29D07B68DB7C03F01003DBB2002B48
S21440471022D0FB7A01211846194B9847FB7A194656
S214404720F868184B98470346002B05D0FB7A0122C1
S2144047301946F868144B9847FB7A01221946F868E0
S214404740124B9847FB7A4FF4805202FA03F319460D
S214404750F8680A4B984705E0002178680C4B984764
S21440476000E000BF1837BD4680BD00BF0080034054
S214404770B93C4000413D4000E33C40002139400008
S214404780D13D4000D53940009B3A4000C13A4000F8
S214404790D94E400080B584B000AF78607B689B7C83
S2144047A003F00F03FB737B68DB7C03F00703DBB28D
S2144047B0012B0CBF01230023BB73BB7B83F001039B
S2144047C0DBB2002B08D0FB7B18461A4B9847FB7B86
S2144047D01846194B98472AE07B68DB7C03F0400379
S2144047E0DBB2002B0ED07A68D37C6FF38613D3747B
S2144047F0FB7B00211846114B9847FB7B002118464F
S2144048000F4B98477A68D37C6FF3C303D374FB7B14
S214404810182118460B4B9847FB7B182118460A4B25
S21440482098470A4B9B687A68927C104698471037A0
S214404830BD4680BDB13F4000613F400075404000EE
S214404840BD404000D13D4000393E4000DC004020A5
S21440485080B584B000AF78607B689B7C03F00F0324
S214404860FB73FB7B00211846044B98470121786870
S214404870034B984700BF1037BD4680BD253F4000DC
S214404880D94E400080B584B000AF78600F4BFB60D7
S2144048907B689B7C03F00F03FB72FB7A2022194651
S2144048A0F8680B4B98477B68DB7CC3F3C013DBB2DE
S2144048B0002B14BF01230023DBB20422194678687C
S2144048C0044B984700BF1037BD4680BD008003406C
S2144048D0593A4000214F400080B582B000AF786022
S2144048E00B46FB70FB7803F00403002B03D078687C
S2144048F0074B984707E0FB7803F04003002B02D0B5
S2144049007868044B984700BF0837BD4680BD00BF57
S214404910954740005148400080B582B000AF78606F
S2144049200B46FB70FB7803F00103002B03D078683E
S2144049300A4B98470EE07B68DB7C03F00703DBB24C
S214404940012B07D1FB7803F00403002B02D07868D4
S214404950034B984700BF0837BD4680BDD142400054
S2144049609547400080B582B000AF78600B46FB703C
S214404970FB7803F02003002B03D078680F4B984752
S21440498017E0FB7803F00203002B03D078680C4B4B
S21440499098470EE07B68DB7C03F00703DBB2012B15
S2144049A007D1FB7803F00403002B02D07868054B50
S2144049B0984700BF0837BD4680BD00BF85484000C9
S2144049C0954440009547400080B584B000AF78607D
S2144049D03960284BFB603B689B7C03F00F03FB72FF
S2144049E0FB7A01229A407B681340002B3DD0FB7A2D
S2144049F01946F868204B98470346BB72FB7A19461F
S214404A00F8681E4B984703467B72BA7A7B7A134007
S214404A10BB72BB7A002B29D0BB7A03F04003002B35
S214404A2003D03868164B984720E03B68DB7C03F0A1
S214404A304003DBB2002B05D1BB7A19463868114BD0
S214404A40984713E03B68DB7C23F07F03DBB2002B08
S214404A5005D0BB7A194638680B4B984706E0BB7AB8
S214404A6019463868094B984700E000BF1037BD46E6
S214404A7080BD00BF00800340373A4000973C40006E
S214404A8051484000D9484000194940006549400017
S214404A9080B586B000AF78603960214B7B613B685B
S214404AA09B7C03F00F03FB74FB7C013B01229A4086
S214404AB07B681340002B2CD0FB7C013BDBB21946B5
S214404AC07869184B98470346002B24D1FB7C013B62
S214404AD04FF0007202FA03F319467869124B984772
S214404AE0FB7C013BDBB219467869104B9847F8606F
S214404AF0FB68002B09D03B689A68FB68D21A3B6873
S214404B009A603B689A683B685A603868084B984792
S214404B1002E000BF00E000BF1837BD4680BD00BFC2
S214404B20008003400D3D400055394000773D400031
S214404B30DD45400090B587B000AF294B3B613869F2
S214404B40284B984704463869274B984703462340E6
S214404B50FB60FB681B0BC3F30B03BB60FB685B0E81
S214404B607B60BB68002B07D17B68002B04D11F4BB2
S214404B7098470346002B2ED10023FB7527E0FA7D8D
S214404B8013469B0013449B001033194A13440433C6
S214404B903B603B689B7CFF2B15D0BB68002B04D04A
S214404BA03968B868134B98470EE07B68002B0BD0EB
S214404BB0FB7D002B08D0FB7D062B05D8396878682E
S214404BC00D4B984700E000BFFB7D0133FB75FB7D36
S214404BD0032BD4D900E000BF1C37BD4690BD00BFB4
S214404BE0008003407F3C40003D3940002942400061
S214404BF0DC004020C9494000914A400080B582B060
S214404C0000AF1C481C4B984700211A481B4B98473E
S214404C1018481B4B98470023FB7123E0FA7913464C
S214404C209B0013449B001033164A1344043303215D
S214404C301846154B9847FA79124913469B00134479
S214404C409B000B442633FF221A70FA790D4913460F
S214404C509B0013449B000B44273300221A70FB79B9
S214404C600133FB71FB79032BD8D900BF0837BD460B
S214404C7080BD00BF008003402D3B40004D3B4000C0
S214404C800D3B4000DC004020D94E400090B589B036
S214404C9000AF1D4BFB610223FB761C4B3C1D0FCB2C
S214404CA084E80F00F8691A4B98470346002B02D059
S214404CB06FF0100324E0174B174A1A60154B164A3C
S214404CC05A60144B144A9A60124B144ADA60114BDD
S214404CD0114A1A61124B98474FF00071F869114B10
S214404CE09847FB7E9B0007F12002134453F81C3C78
S214404CF043F480737B617969F8690B4B98470023CE
S214404D0018462437BD4690BD008003407854400086
S214404D102F3C4000DC004020A13D4000B73D400015
S214404D20FD4B4000613C4000833B400080B483B074
S214404D3000AF78607B68DB7CC3F3C003DBB2184609
S214404D400C37BD465DF8047B7047000080B584B0E4
S214404D5000AF78607B689B7C03F00F03FB73FB7BA4
S214404D60032B02D96FF0090316E07B68DB7C03F067
S214404D700803DBB2002B0ED17A68D37C43F00803DD
S214404D80D374FB7B40211846054B9847FB7B01219B
S214404D901846044B9847002318461037BD4680BD3A
S214404DA0F93D4000913E400080B584B000AF786049
S214404DB07B689B7C03F00F03FB737B68DB7C03F014
S214404DC00803DBB2002B01D1002335E0FB7B00213A
S214404DD018461B4B9847FB7B40211846194B984773
S214404DE0FB7B1846184B98470346002B07D0FB7BA7
S214404DF01846164B9847FB7B1846154B98477B68DA
S214404E00DB7C03F00703DBB2012B0FD1FB7B19469B
S214404E101048114B9847034603F04003002B0AD135
S214404E207A68D37C6FF3C303D37404E07A68D37C88
S214404E306FF3C303D374002318461037BD4680BDB6
S214404E40913E4000393E4000DD3E4000053F400078
S214404E50D13F400000800340373A400080B586B0DE
S214404E6000AF03460A46FB711346BB71FB7903F05D
S214404E700F03FB74FA7C13469B0013449B001033CD
S214404E80114A13440433FB60FB7C032B02D96FF0BA
S214404E90110314E0BB79012B04D1F8680B4B9847FB
S214404EA078610BE0BB79002B04D1F868084B984733
S214404EB0786103E0F868074B984778617B69184645
S214404EC01837BD4680BD00BFDC0040204D4D400039
S214404ED0A94D40002D4D400080B582B000AF7860AF
S214404EE039607B689B7CFF2B14D07B68DB7C03F0AF
S214404EF04003DBB2002B0DD07A68D37C6FF3861369
S214404F00D374064B1B697A68907C7A6892683968D5
S214404F10984700E000BF0837BD4680BDDC00402013
S214404F2080B586B000AFF8600B467A60FB72FB68CF
S214404F309B7C03F00F03FB75FB689B7CFF2B19D013
S214404F40FB68DB7C03F04003DBB2002B12D0FB7A1D
S214404F50002B05D0FB7D00211846084B984704E0FF
S214404F60FB7D00211846064B98477968F868054B44
S214404F70984700E000BF1837BD4680BD75404000EA
S214404F80BD404000D94E400080B584B000AF0346D7
S214404F903960FB71FB7903F00F03FB73FB7B18460C
S214404FA01C4B98470346BB81FB7B032B02D83B68D0
S214404FB0002B02D16FF0110327E0FB7B1846164BFF
S214404FC09847034683F00103DBB2002B02D06FF014
S214404FD012031AE0FB7B1846104B9847034683F0B3
S214404FE00103DBB2002B01D000230EE0FB7BDA038B
S214404FF00B4B1344BB600822B9683868094B984786
S214405000FB7B1846084B9847BB8918461037BD4669
S21440501080BD00BFFD3F4000613E4000893F4000EC
S214405020000010A0B9524000B13F400080B588B0A3
S21440503000AF7860644BFB617B681B7A03F00F031C
S214405040FB767B681B7A03F08003002B14BF01239A
S2144050500023BB76FA7E13469B0013449B00103316
S2144050605A4A134404337B617B691B8A40F2FF3201
S214405070934204D07B691B8A013B9BB201E040F21D
S214405080FF337B827B685A687B8A1340002B14BFB1
S214405090012300237B747B69DB7C03F00703DBB2D0
S2144050A0012B0CBF012300233B74FB7E032B02D94C
S2144050B06FF0110383E07B69DB7C03F00803DBB20F
S2144050C0002B01D002237AE007F10C031846404B30
S2144050D098477B69DB7C03F04003DBB2002B06D0AD
S2144050E007F10C0318463B4B9847012367E07A6963
S2144050F0D37C43F04003D37407F10C031846354B7A
S21440510098477B681A687B691A607B685A687B692F
S2144051105A607B6900229A607B690022DA607A696D
S214405120D37CB97E61F3C713D3747B685B7A002B5C
S21440513007D07B7C83F00103DBB2002B01D0012338
S21440514000E00023DBB203F00103D9B27A69D37CD6
S21440515061F30413D374FB7E002B0BD0FB7E062B2F
S21440516008D8FB7E1946F8691B4B984778691B4B55
S214405170984723E03B7C83F00103DBB2002B08D04A
S214405180FB7E4FF4805202FA03F31946F869144B3B
S2144051909847FB7E1946F869124B9847BB7E002B12
S2144051A006D0FB7E01221946F8690F4B984705E06A
S2144051B0FB7E02221946F8690B4B98470023184697
S2144051C02037BD4680BD00BF00800340DC00402045
S2144051D0B50B4000DB0B40009F3B4000DD454000E8
S2144051E021394000CF3B4000C13A400080B485B0F2
S2144051F000AF03463960FB713B68002B01D03B682B
S21440520000E00E4BFB60FB79002B03D10C4AFB6899
S21440521093600CE0FB79012B03D1094AFB68D3600D
S21440522005E0FB79022B02D1054AFB68136100BFFB
S2144052301437BD465DF8047B704700BFA13D400073
S214405240DC00402080B500AF064B9847064B1B68F5
S2144052500133054A1360054B1B68013B034A136044
S214405260F4E700BFAD014000E8014020E4014020E3
S21440527070B50D4E0D4CA41BA4100025A54209D1B7
S2144052800B4E0C4C00F010F9A41BA4100025A542B0
S21440529005D170BD56F8253098470135EEE756F8EB
S2144052A0253098470135F2E7B4544000B4544000E6
S2144052B0B4544000B854400010B5431E0A449142CE
S2144052C000D110BD11F8014B03F8014FF7E7024437
S2144052D00346934200D1704703F8011BF9E70000EC
S2144052E02E2E2F68706C2F70696F2F68706C5F67FA
S2144052F070696F5F626173652E6800002E2E2F689E
S214405300616C2F7372632F68616C5F6461635F7357
S214405310796E632E630000002E2E2F68616C2F730B
S21440532072632F68616C5F6932635F6D5F73796E1D
S214405330632E63002E2E2F68616C2F7372632F6866
S214405340616C5F7370695F6D5F73796E632E630027
S2144053502E2E2F68616C2F7372632F68616C5F7599
S214405360736172745F6173796E632E630000000030
S2144053702E2E2F68616C2F7372632F68616C5F7579
S214405380736172745F73796E632E63002E2E2F687E
S214405390616C2F7574696C732F7372632F757469A3
S2144053A06C735F72696E676275666665722E6300BF
S2144053B02E2E2F68706C2F6461632F68706C5F644C
S2144053C061632E6300000000010000000100000041
S2144053D00100000001000000000000000100000085
S2144053E0000000002E2E2F68706C2F70696F2F689B
S2144053F0706C5F70696F5F6578742E6300000000A4
S214405400010000000000008001000000820C9604AD
S214405410FFFF00002E2E2F68706C2F7370692F6868
S214405420706C5F7370692E6300000000008001405E
S214405430200000000000000000000000BABA020091
S214405440F04902002E2E2F68706C2F7477696873AF
S2144054502F68706C5F74776968732E630000000075
S2144054602E2E2F68706C2F756172742F68706C5F6B
S214405470756172742E63000000100000000C00007E
S2144054800000000000000000010200002E2E2F68E1
S214405490706C2F75736268732F68706C5F7573627B
S2144054A068732E6300000000F8B500BFF8BC08BC67
S2144054B09E46704765014000F8B500BFF8BC08BC82
S20C4054C09E4670474101400082
S2144054C80000000100000000000000000008000086
S2144054D851000000040000000008000051000000D1
S804400000BB
