S00F00004242526164696F2E73726563A2
S21440000038094020BD014000410240004102400006
S2144000104102400041024000410240000000000012
S2144000200000000000000000000000004102400008
S21440003041024000000000004102400041024000F2
S214400040410240004102400041024000410240005F
S214400050410240004102400041024000410240004F
S214400060410240000000000041024000E91C400000
S214400070410240004102400041024000410240002F
S214400080410240004102400041024000410240001F
S214400090410240004102400041024000410240000F
S2144000A041024000410240004102400041024000FF
S2144000B041024000410240004102400041024000EF
S2144000C04102400041024000DD4440000000000084
S2144000D000000000000000000000000000000000DB
S2144000E041024000410240004102400041024000BF
S2144000F04102400041024000A13140004102400020
S214400100410240004102400041024000410240009E
S2144001104102400000000000000000000000000017
S2144001204102400041024000654F4000410240000D
S21440013041024000000000004102400041024000F1
S21440014010B5054C237833B9044B13B10448AFF3CC
S21440015000800123237010BD2000402000000000D6
S214400160605240000C4B43B10C480D4910B5AFF3FC
S21440017000800C48036823B910BD0A48036833B9A9
S2144001807047094B002BF7D0BDE810401847064B88
S214400190002BF5D0184700BF00000000605240001A
S2144001A024004020605240000000000080B500AFB0
S2144001B0014B984700BF80BD2D0B400080B582B0F4
S2144001C000AF164B7B60164B3B607A683B689A42A2
S2144001D00CD007E03B681A1D3A607A68111D7960BA
S2144001E012681A603B680F4A9342F3D30E4B3B604B
S2144001F004E03B681A1D3A6000221A603B680B4ACE
S2144002009342F6D30A4B7B600A4A7B6823F07F030F
S2144002109360094B9847094B9847FEE76052400069
S214400220000040202000402020004020380340208E
S2144002300000400000ED00E05D5140003D514000B0
S21440024080B400AFFEE780B483B000AF786039601A
S2144002507B68D3F814213B681A437B68C3F81421A3
S21440026000BF0C37BD465DF8047B704780B483B052
S21440027000AF786039607B683A681A6000BF0C3718
S214400280BD465DF8047B704780B483B000AF7860AD
S21440029039607B683A685A6000BF0C37BD465DF8E7
S2144002A0047B704780B483B000AF786039607B6869
S2144002B03A681A6100BF0C37BD465DF8047B70474C
S2144002C080B483B000AF786039607B683A685A6122
S2144002D000BF0C37BD465DF8047B704780B483B0E2
S2144002E000AF786039607B683A681A6300BF0C37A5
S2144002F0BD465DF8047B704780B483B000AF78603D
S21440030039607B683A685A6300BF0C37BD465DF873
S214400310047B704780B483B000AF786039607B68F8
S2144003203A685A6600BF0C37BD465DF8047B704796
S21440033080B483B000AF786039607B683A681A66EC
S21440034000BF0C37BD465DF8047B704780B483B071
S21440035000AF786039607B683A68C3F8942000BF85
S2144003600C37BD465DF8047B704780B483B000AF61
S214400370786039607B683A68C3F8902000BF0C37D5
S214400380BD465DF8047B704780B485B000AFF8602A
S2144003900B467A60FB72FA7AF97AFB681C3153F89E
S2144003A021107B681943FB681C3243F8221000BFBB
S2144003B01437BD465DF8047B704780B485B000AF07
S2144003C0F8600B467A60FB72FA7AF97AFB681C3161
S2144003D053F821107B68DB431940FB681C3243F816
S2144003E0221000BF1437BD465DF8047B704780B4CA
S2144003F083B000AF786039607B683A681A6100BFA6
S2144004000C37BD465DF8047B704780B485B000AFBE
S214400410786039607B689B69FB60FA683B6813408C
S214400420FB60FB6818461437BD465DF8047B704792
S21440043080B483B000AF786039607B683A68C3F8B0
S214400440002100BF0C37BD465DF8047B704780B482
S21440045085B000AF786039607B68D3F80831FB60C0
S214400460FA683B681340FB60FB6818461437BD4685
S2144004705DF8047B704780B483B000AF78607B68DB
S2144004805B6843F400427B685A6000BF0C37BD4649
S2144004905DF8047B7047000080B483B000AF03462D
S2144004A0FB71FB795B021A46034B134418460C3724
S2144004B0BD465DF8047B7047000E0E4080B584B0A4
S2144004C000AF03463960FB711346BB71FB79184693
S2144004D00C4B9847F860BB79002B0EDB012B02DDF6
S2144004E0022B05D009E03968F868074B984704E0C6
S2144004F03968F868054B984700BF00BF1037BD46BF
S21440050080BD00BF99044000C1024000A5024000E3
S21440051080B584B000AF03463960FB711346BB71AB
S214400520FB791846094B9847F860BB79002B04D0F6
S2144005303968F868064B984703E03968F868054B11
S214400540984700BF1037BD4680BD00BF99044000A5
S214400550DD024000F902400080B584B000AF03469B
S214400560FB710B46BB7113467B71FB791846214BDA
S2144005709847F8607B79012B15D0022B24D0002BAE
S21440058000D032E0BB79012202FA03F31946F8683C
S214400590194B9847BB79012202FA03F31946F868CB
S2144005A0164B984721E0BB79012202FA03F319461D
S2144005B0F868124B9847BB79012202FA03F31946B2
S2144005C0F8680F4B984710E0BB79012202FA03F314
S2144005D01946F868084B9847BB79012202FA03F39C
S2144005E01946F868074B984700BF00BF1037BD460E
S2144005F080BD00BF99044000310340006B034000BB
S214400600150340004D03400080B584B000AF7860CD
S21440061039607B685B09FB737B68DBB203F01F03C2
S214400620BB73FB7B1846334B9847B860FB7B012B6C
S21440063016D1BB7B042B0BD0BB7B052B08D0BB7BDA
S214400640062B05D0BB7B072B02D0BB7B0C2B07D1E0
S214400650BB7B012202FA03F319462748274B9847EB
S2144006603B68B3F1FF3F08D1BB7B012202FA03F39C
S2144006701946B868224B984737E03B6803F00103B9
S214400680002B09D0BB7B012202FA03F31A46002155
S214400690B8681C4B984708E0BB7B012202FA03F37C
S2144006A01A460021B868184B98473B6803F0020387
S2144006B0002B09D0BB7B012202FA03F31A46012124
S2144006C0B868104B984708E0BB7B012202FA03F358
S2144006D01A460121B8680C4B9847BB7B012202FAA8
S2144006E003F31946B868094B984700BF1037BD4614
S2144006F080BD00BF9904400000800840470240008B
S2144007006D02400089034000BB0340008902400060
S21440071080B582B000AF03460A46FB711346BB71F4
S214400720FB795B09D8B2FB7903F01F03DBB2BA79D9
S2144007301946034B984700BF0837BD4680BD00BFEB
S2144007405905400080B582B000AF7860396039689E
S2144007507868034B984700BF0837BD4680BD00BF4A
S2144007600906400080B582B000AF03460A46FB71DA
S2144007701346BB71FB795B09D8B2FB7903F01F03C4
S214400780012202FA03F3BA791946034B984700BF91
S2144007900837BD4680BD00BFBD04400080B582B06E
S2144007A000AF03460A46FB711346BB71FB795B09F3
S2144007B0D8B2FB7903F01F03012202FA03F3BA7999
S2144007C01946034B984700BF0837BD4680BD00BF5B
S2144007D01105400080B500AF014B984700BF80BD73
S2144007E05D18400080B582B000AF78607B681F2BF4
S2144007F013D801227B6802FA03F319461448154BB6
S21440080098470346002B1ED101227B6802FA03F369
S21440081019460F48104B984715E07B68203B7B6095
S21440082001227B6802FA03F3194609480B4B9847A6
S2144008300346002B07D101227B6802FA03F31946D0
S2144008400348074B984700BF0837BD4680BD00BFEA
S21440085000060E400B044000EF0340004F044000EB
S2144008603104400080B500AF4FF0FF312D20044BDF
S21440087098474FF0FF316020014B984700BF80BD3E
S2144008804507400080B500AF1E20024B984700BF8A
S21440089080BD00BFE507400080B500AF044B9847D9
S2144008A004490548054B9847054B984700BF80BD0F
S2144008B0850840000000044060024020390C40009B
S2144008C06508400080B500AF01212020064B9847C0
S2144008D000212020054B98474FF0FF312020044B45
S2144008E0984700BF80BD00BF650740001107400025
S2144008F04507400080B500AF06495A20064B98474A
S21440090006495B20044B984705495820024B9847B8
S21440091000BF80BD02005A004507400002005B0051
S2144009200200580080B500AF2A20024B984700BF0F
S21440093080BD00BFE507400080B500AF044B984738
S21440094004490548054B9847054B984700BF80BD6E
S214400950250940000080054074024020450E4000B6
S214400960F508400080B500AF4FF480210420044BCA
S21440097098474FF440310320014B984700BF80BD55
S2144009804507400080B500AF1320024B984700BF94
S21440099080BD00BFE507400080B500AF044B9847D8
S2144009A004490548054B9847054B984700BF80BD0E
S2144009B0850940000080014018034020010E400099
S2144009C06509400080B400AF00BFBD465DF8047BBB
S2144009D07047000080B500AF1420024B984700BF18
S2144009E080BD00BFE507400080B500AF044B984788
S2144009F004490548054B9847054B984700BF80BDBE
S214400A00D509400000C00140A8024020010E400029
S214400A10C509400080B500AF4FF410210920044BB3
S214400A2098474FF420210A20014B984700BF80BDCD
S214400A304507400080B500AF0720024B984700BFEF
S214400A4080BD00BFE507400080B500AF064B984725
S214400A50064B984703461A4605490648064B9847AC
S214400A60064B984700BF80BD350A400079304000AD
S214400A7000080E409C02402059114000150A4000D4
S214400A8080B500AF2E20024B984700BF80BD00BF08
S214400A90E507400080B500AF04497220044B9847F4
S214400AA004497320024B984700BF80BD0200720085
S214400AB0450740000200730090B583B002AF094B73
S214400AC09847094B9847034600931023074A08491E
S214400AD00848094CA047094B984700BF0437BD4615
S214400AE090BD00BF810A4000893040003C00402055
S214400AF0001E0E40C8024020F10E4000950A4000FD
S214400B0080B500AF2220024B984700BF80BD00BF93
S214400B10E507400080B500AF024B9847024B984728
S214400B2000BF80BD010B40002D16400080B500AFD1
S214400B301D4B98470B201D4B98470C201B4B984746
S214400B401B481C4B9847022154201B4B98470121B9
S214400B5054201A4B98474FF0FF315420184B984773
S214400B6002215920144B984700215920134B98478F
S214400B7000215920134B984702215920104B984783
S214400B80114B9847114B9847114B9847114B984734
S214400B90114B9847114B9847114B9847114B984724
S214400BA0114B984700BF80BDD5074000E507400081
S214400BB050180E4077044000650740009D074000EF
S214400BC0450740001107400099084000C50840000E
S214400BD03909400099094000E9094000490A4000A7
S214400BE0B90A4000150B4000910C400080B485B017
S214400BF000AF7860EFF31083FB60FA687B681A609A
S214400C0072B6BFF35F8F00BF1437BD465DF8047BF6
S214400C10704780B485B000AF7860BFF35F8F7B6865
S214400C201B68FB60FB6883F3108800BF1437BD4623
S214400C305DF8047B7047000080B584B000AF7860F4
S214400C4039607B6839681846104B9847B860BB686F
S214400C50002B01D0BB6815E00023FB730EE0FB7B46
S214400C607A68DB00134400225A60FB7B7A68DB001C
S214400C70134400229A60FB7B0133FB73FB7B012B02
S214400C80EDD9002318461037BD4680BD15194000E3
S214400C9080B582B000AF0023FB800EE0FB880C4A94
S214400CA0DB0013444FF0FF325A60FB88084A0021AD
S214400CB042F83310FB880133FB80FB88002BEDD0D5
S214400CC00448054B9847034618460837BD4680BD3E
S214400CD04C004020DD0C4000F51D400080B584B03F
S214400CE000AF78600023FB730123BB732AE0BA7B16
S214400CF0FB7B13445B107B737B7B002B27D17B7B7A
S214400D00164ADB0013445A687B689A420BD17B7BB9
S214400D10124A52F83330002B1BD07B7B0F4A52F8D6
S214400D203330984715E07B7B0C4ADB0013445A6807
S214400D307B689A4203D27B7B0133FB7302E07B7B6A
S214400D40013BBB73BA7BFB7B9A42D0D202E000BF2A
S214400D5000E000BF1037BD4680BD00BF4C004020BD
S214400D6080B58AB000AFF860B9601346FB80FB6878
S214400D70143B7B627B6A9B8BBB82FB88BB6148F2E1
S214400D800103FB82BB68FB617B6A07F114021146D4
S214400D901846064B984738623B6A002B01D03B6AA0
S214400DA000E0FB8818462837BD4680BD6D284000C9
S214400DB080B58AB000AFF860B9601346FB80FB6828
S214400DC0143B7B627B6A9B8BBB82FB88BB614FF488
S214400DD00043FB82BB68FB617B6A07F11402114645
S214400DE01846064B984738623B6A002B01D03B6A50
S214400DF000E0FB8818462837BD4680BD6D28400079
S214400E0080B584B000AF786039607B683968184632
S214400E10094B9847F860FB68002B01D0FB6806E05A
S214400E207B68064A9A617B68054A5A6100231846E1
S214400E301037BD4680BD00BFF1274000610D400021
S214400E40B10D400080B584B000AF786039600023B3
S214400E50FB607B683A681A607B6839681846094BBD
S214400E609847F860FB68002B01D0FB6806E07B687B
S214400E70054A1A627B68054ADA610023184610372D
S214400E80BD4680BD1D244000910E4000C10E40006E
S214400E9090B587B000AFF860B9601346FB80FB683A
S214400EA01C3B7B617869FB88BA680021034CA047ED
S214400EB0034618461C37BD4690BD00BF3925400046
S214400EC090B587B000AFF860B9601346FB80FB680A
S214400ED01C3B7B617869FB880022B968034CA047BD
S214400EE0034618461C37BD4690BD00BF3925400016
S214400EF080B586B000AFF860B9607A607B80FB68EA
S214400F0034337A8879681846154B98470346002B41
S214400F1002D06FF00C031EE0FB680833B968184631
S214400F20104B984778617B69002B01D07B6912E0B3
S214400F30FB680D4A5A60FB680C4A1A60FB680C4A0C
S214400F409A60FB680B4ADA60FB680B4A1A61FB68DA
S214400F500A4A5A61002318461837BD4680BD00BF6E
S214400F60D9164000A12E4000DD0F4000810F400002
S214400F7059104000F1104000C51040002D114000AF
S214400F8080B586B000AFF860B9601346FB80FB685A
S214400F907B617B69B3F844207B69B3F84C309A4256
S214400FA002D06FF01B0313E07B69BA689A647B69D2
S214400FB0FA88A3F84C207B690022A3F844207B697A
S214400FC001221A637B6908331846034B9847FB880F
S214400FD018461837BD4680BDD12F400080B588B032
S214400FE000AFF860B9601346FB800023FB83FB68C4
S214400FF0BB6107F110031846134B9847BB6934335F
S2144010001846124B9847786107F110031846104B64
S21440101098470CE0BB6903F13402FB8B591CF983FB
S2144010201946BB680B44194610460A4B9847FA8B3C
S2144010307B699A4203D2FA8BFB889A42EAD3FB8BAF
S21440104018462037BD4680BDED0B4000C317400014
S214401050130C40002117400090B585B000AF786073
S2144010607B68083BFB60FB68B3F84420FB68B3F83A
S2144010704C309A4217D0FB6803F10800FB689A6C24
S214401080FB68B3F84430591C8CB2F968A1F8444068
S21440109013441B781946084B9847FB680833184694
S2144010A0064B984704E0FB6808331846044B9847BD
S2144010B000BF1437BD4690BD452F4000D12F40009D
S2144010C0F12F400080B584B000AF78607B68083B65
S2144010D0FB60FB6800221A63FB685B6A002B03D048
S2144010E0FB685B6AF868984700BF1037BD4680BD0E
S2144010F080B584B000AF78600B46FB707B68083BD9
S214401100FB60FB683433FA7811461846064B98471E
S214401110FB689B6A002B03D0FB689B6AF86898477D
S21440112000BF1037BD4680BD6B17400080B584B009
S21440113000AF78607B68083BFB60FB6800221A6360
S214401140FB68DB6A002B03D0FB68DB6AF8689847CD
S21440115000BF1037BD4680BD80B586B000AFF86092
S214401160B9607A60FB680833B9681846094B9847F7
S21440117078617B69002B01D07B6906E0FB68064AF4
S2144011805A60FB68054A1A60002318461837BD4661
S21440119080BD00BF7D2E40001D124000A1114000C2
S2144011A080B586B000AFF860B9601346FB80002378
S2144011B07B61FB683B6100BF3B6908331846154BB3
S2144011C09847034683F00103DBB2002BF4D13B691A
S2144011D003F10800BA687B6913441B7819460E4B26
S2144011E0984700BF3B69083318460A4B9847034662
S2144011F083F00103DBB2002BF4D17B6901337B61C2
S214401200FB887A699A42E2D37B6918461837BD460E
S21440121080BD00BF912F40001D2F400090B587B085
S21440122000AFF860B9601346FB8000237B61FB6823
S2144012303B6100BF3B69083318460F4B984703464F
S21440124083F00103DBB2002BF4D1BA687B69D41873
S2144012503B6908331846094B9847034623707B6919
S21440126001337B61FB887A699A42E2D37B691846F0
S2144012701C37BD4690BD00BFB12F40006D2F4000CB
S21440128080B485B000AF0346FB710023FB7329E0B2
S21440129097F90F30194A5B01134401331B78FA79EA
S2144012A09A4202D197F90F3022E097F90F30134A4D
S2144012B05B0113441B78002B0ED1FB7903F00F0320
S2144012C097F90F200D4952010A4401321278934291
S2144012D002D197F90F300BE097F90F30DBB20133AC
S2144012E0DBB2FB7397F90F30032BD1DD4FF0FF33A2
S2144012F018461437BD465DF8047B704754004020BE
S21440130080B588B000AFBA607B600346FB730B467F
S214401310BB73BB687B617B68BB61BB7B002B04D027
S214401320FB7B63F07F03DBB203E0FB7B03F00F0342
S214401330DBB23B7797F828307B7707F114031846E3
S214401340034B9847034618462037BD4680BD00BF2E
S214401350D549400080B485B000AFF860B9607A6087
S214401360002318461437BD465DF8047B70470000DE
S21440137080B586B000AF0346FB71FB7918462A4B12
S21440138098470346FB7597F917305B01274A134485
S2144013903B613B690C33FB60FB79F9681846244B8C
S2144013A098470346FB72FB7A082B0DD0FB79012148
S2144013B01846204B9847FB7963F07F03DBB2012148
S2144013C018461C4B98472BE0FB7900211846194BD2
S2144013D09847FB7963F07F03DBB200211846154B34
S2144013E098473B6901229A703B695B69FA79F968CC
S2144013F010469847034683F00103DBB2002B0FD01C
S2144014003B6905229A70FB7901211846094B98479B
S214401410FB7963F07F03DBB201211846054B984702
S2144014201837BD4680BD00BF8112400054004020A2
S214401430314940000548400080B584B000AF0346BF
S2144014403960FB71FB7918460D4B98470346FB7392
S21440145097F90F305B010B4A1344BB60BB689B781F
S214401460032B07D1BB689B69FA79396810469847C1
S214401470034600E0002318461037BD4680BD00BF37
S214401480811240005400402090B587B002AF78608B
S2144014907B689B78FB737B681B7B03F08003002B89
S2144014A014BF01230023BB73FB7B032B3AD17B681D
S2144014B0DB697A6850787A680C320121984703468F
S2144014C07B737B7B002B15D07B6805229A707B68EC
S2144014D00222DA70BB7B002B02D07B685B7804E08C
S2144014E07B685B7863F07F03DBB201211846154BBF
S2144014F0984722E07B6804229A707B685878BB7BCA
S214401500002B14BF01230023DBB283F00103DBB2C0
S21440151003F00103D9B201230093002300220A4CB2
S214401520A0470AE07B68DB697A6850787A680C32B4
S214401530002198477B6802229A7000BF1437BD4648
S21440154090BD00BF054840000113400080B586B0FE
S21440155000AF0346B9607A60FB73FB7B18462F4B9F
S21440156098470346FB7597F917305B012C4A13449E
S2144015703B61BB68002B0ED13B690022DA703B69A9
S2144015801B78002B03D13869264B984743E03B69CC
S21440159001229A7038E0BB68012B13D13B690222C6
S2144015A0DA703B691B78002B08D13B6902229A709F
S2144015B0FB7B002118461C4B984725E03B690522DB
S2144015C09A7021E0BB68022B0ED13B690422DA7088
S2144015D03B691B78002B03D13B6902229A701AE0C4
S2144015E03B6901229A700FE0BB68032B06D13B692A
S2144015F000229A703B690522DA7005E03B690622B4
S2144016009A703B690622DA703B69DB693A69D178A1
S2144016107A68F87B98471837BD4680BD81124000EF
S21440162054004020891440000548400080B582B0F0
S21440163000AF214B984738603B68002B01DA3B6887
S21440164036E0802200211D481D4B98470023FB7141
S2144016501EE0FB79194A5B0113440133FF221A70DE
S214401660FB79164A5B0113441433164A1A60FB7919
S214401670124A5B0113441833124A1A60FB790F4A28
S2144016805B0113441C330F4A1A60FB790133FB712C
S214401690FB79032BDDD90C4900200C4B98470C49AD
S2144016A001200A4B98470B490220084B98470023D5
S2144016B018460837BD4680BD354640005400402099
S2144016C0BB5140005513400071134000954B4000FD
S2144016D0391440004D15400080B485B000AFF86026
S2144016E0B9607A607B685A1E7B681340002B02D034
S2144016F06FF00C030EE07B685A1EFB685A60FB686E
S21440170000229A60FB689A68FB68DA60FB68BA68F1
S2144017101A60002318461437BD465DF8047B7047B0
S21440172080B483B000AF786039607B68DA687B68E5
S2144017309B689A4211D07B681A687B6899687B6878
S2144017405B680B4013441A783B681A707B689B684A
S2144017505A1C7B689A60002301E06FF00903184624
S2144017600C37BD465DF8047B704780B483B000AF4D
S21440177078600B46FB707B681A687B68D9687B6824
S2144017805B680B401344FA781A707B68DA687B68AB
S2144017909B68D21A7B685B689A4206D97B68DA688F
S2144017A07B685B68D21A7B689A607B68DB685A1CE9
S2144017B07B68DA60002318460C37BD465DF8047B2C
S2144017C0704780B483B000AF78607B68DA687B6827
S2144017D09B68D31A18460C37BD465DF8047B7047A5
S2144017E080B485B000AF786039607B681B68FB606A
S2144017F0FB6823F47063FB603B681B0203F4706372
S214401800FA681343FB607B68FA681A6000BF1437B7
S214401810BD465DF8047B704780B582B000AF3B1D87
S21440182018460B4B98470B4A0A4BD3F8883043F47C
S2144018307003C2F88830BFF34F8FBFF36F8F3B1DE6
S2144018401846054B984700BF0837BD4680BD00BFC9
S214401850ED0B400000ED00E0130C400080B500AFFB
S214401860044B984705210448044B9847044B984737
S21440187000BF80BD19184000000C0E40E117400024
S214401880ED21400080B483B000AF786039607B685B
S2144018903A685A6100BF0C37BD465DF8047B704716
S2144018A080B483B000AF786039607B683A681A606D
S2144018B000BF0C37BD465DF8047B704780B483B0EC
S2144018C000AF786039607B683A685A6000BF0C3772
S2144018D0BD465DF8047B704780B483B000AF786047
S2144018E039607B683A689A6000BF0C37BD465DF841
S2144018F0047B704780B483B000AF786039607B6803
S2144019003A68C3F8E42000BF0C37BD465DF8047B58
S2144019107047000080B582B000AF786039607B6861
S2144019203A681A607B681B681846034B984703461C
S21440193018460837BD4680BD3D19400080B582B088
S21440194000AF7860012178680C4B9847032178688F
S2144019500B4B984778680B4B98470B4B1B681946C0
S21440196078680A4B9847084B5B6819467868084B76
S2144019709847002318460837BD4680BDA11840004A
S214401980851840009519400000004020BD184000D2
S214401990D918400080B582B000AF786003497868B7
S2144019A0034B984700BF0837BD4680BD00434144BF
S2144019B0F518400080B483B000AF0346FB71094978
S2144019C097F907305B09FA7902F01F02012000FA06
S2144019D002F241F8232000BF0C37BD465DF8047B79
S2144019E0704700BF00E100E080B483B000AF03461C
S2144019F0FB71094997F907305B09FA7902F01F0233
S214401A00012000FA02F2203341F8232000BF0C37B1
S214401A10BD465DF8047B704700E100E080B483B0CB
S214401A2000AF0346FB71094997F907305B09FA791D
S214401A3002F01F02012000FA02F2603341F8232030
S214401A4000BF0C37BD465DF8047B704700E100E000
S214401A5080B483B000AF78607B689B6C18460C37C8
S214401A60BD465DF8047B704780B483B000AF7860B5
S214401A7039607B683A68C3F8B02000BF0C37BD4673
S214401A805DF8047B704780B483B000AF78603960FF
S214401A907B683A68C3F8C42000BF0C37BD465DF883
S214401AA0047B704780B483B000AF786039607B6851
S214401AB03A68C3F8C02000BF0C37BD465DF8047BCB
S214401AC0704780B483B000AF786039607B683A680E
S214401AD0C3F8D42000BF0C37BD465DF8047B704782
S214401AE080B483B000AF786039607B683A68C3F8EA
S214401AF0D02000BF0C37BD465DF8047B704780B4ED
S214401B0083B000AF78607B68DB6C18460C37BD4608
S214401B105DF8047B704780B487B000AF78600B46B2
S214401B20FB7000237B611EE00123FB6000233B61CA
S214401B3013E07B699B007A6813441A68FB6813407D
S214401B40002B04D07B695A013B69134411E0FB68C3
S214401B505B00FB603B6901333B613B691F2BE8D967
S214401B607B6901337B61FA787B699A42DCD84FF017
S214401B70FF3318461C37BD465DF8047B70470000AF
S214401B8080B483B000AF78607A68054B13445B0A34
S214401B90DBB218460C37BD465DF8047B704700BF85
S214401BA000F2F1BF80B584B000AF78607868104B23
S214401BB098470346BB730023FB7310E0FA7B0D493E
S214401BC01346DB009B1A9B000B441B78BA7B9A4259
S214401BD002D197F90F3007E0FB7B0133FB73FB7BA9
S214401BE0002BEBD04FF0FF3318461037BD4680BD74
S214401BF0811B4000CC51400080B588B000AF002328
S214401C00FB613B1D00221A605A609A60DA601A61D6
S214401C103048314B98470346BB602E482F4B984779
S214401C200246BB681340BB60BB68FA691343FB615E
S214401C3048E03B1D05211846294B98470346FB764E
S214401C4029E0284B1B6897F91B201046984797F9C0
S214401C501B305B115BB2184697F91B305B115BB2C9
S214401C609B0007F12002134453F81C3CFA7E02F016
S214401C701F02012101FA02F2D2431A40830007F103
S214401C8020010B4443F81C2C3B1D05211846144BE1
S214401C9098470346FB7697F91B30B3F1FF3FD0D108
S214401CA00023FB610B480C4B98470346BB60094832
S214401CB00A4B98470246BB681340BB60BB68FA694C
S214401CC01343FB61FB69002BB3D100BF2037BD46F1
S214401CD080BD00BF00100E40FF1A4000511A400061
S214401CE0171B4000D400402080B500AF014B9847FA
S214401CF000BF80BDF91B400080B584B000AF78605F
S214401D007868314B98470346FB7397F90F30002BA2
S214401D1002DA6FF0100353E097F90F202B49134671
S214401D20DB009B1A9B000B4408331B6819467868F7
S214401D30274B984797F90F2024491346DB009B1AF8
S214401D409B000B440C331B6819467868214B984718
S214401D5097F90F201D491346DB009B1A9B000B4446
S214401D6010331B68194678681B4B98470023194662
S214401D7078681A4B984797F90F2014491346DB00AA
S214401D809B1A9B000B4414331B6819467868144B07
S214401D9098477868134B984703460A33DBB2FB7381
S214401DA097F90F301846104B984797F90F3018465A
S214401DB00E4B984797F90F3018460D4B984700231F
S214401DC018461037BD4680BDA51B4000CC5140008C
S214401DD0691A4000A51A4000871A4000E11A4000E0
S214401DE0C31A4000811B4000E91940001D1A4000FC
S214401DF0B519400080B582B000AF78600548064B04
S214401E009847064A7B681360002318460837BD4645
S214401E1080BD00BF00100E40F91C4000D40040209A
S214401E2080B483B000AF786039607B683A68DA6126
S214401E3000BF0C37BD465DF8047B704780B483B066
S214401E4000AF786039607B681A6A3B681A437B68E3
S214401E501A6200BF0C37BD465DF8047B704780B4FD
S214401E6083B000AF786039607B683A681A6200BF1A
S214401E700C37BD465DF8047B704780B483B000AF36
S214401E8078607B681B6A18460C37BD465DF8047B55
S214401E907047000080B485B000AF786039607B68DA
S214401EA09B6AFB60FA68094B1340FB603B681A0468
S214401EB0074B1340FA681343FB607B68FA689A62E4
S214401EC000BF1437BD465DF8047B7047FFFF00F83F
S214401ED00000FF0780B483B000AF786039607B684D
S214401EE03A689A6200BF0C37BD465DF8047B70477F
S214401EF080B485B000AF78600B46FB707B681B6B88
S214401F00FB60FB6823F40053FB60FB785B031A46D8
S214401F10FB681343FB607B68FA681A6300BF14379C
S214401F20BD465DF8047B704780B485B000AF7860EE
S214401F3039607B681B6BFB60FB6823F00303FB6028
S214401F403B6803F00303FA681343FB607B68FA6858
S214401F501A6300BF1437BD465DF8047B704780B4F3
S214401F6085B000AF786039607B681B6BFB60FB68B0
S214401F7023F07003FB603B681B0103F07003FA68B4
S214401F801343FB607B68FA681A6300BF1437BD468C
S214401F905DF8047B704780B485B000AF78603960E8
S214401FA07B681B6BFB60FB6823F44073FB603B68FD
S214401FB01B0203F44073FA681343FB607B68FA68BD
S214401FC01A6300BF1437BD465DF8047B704780B483
S214401FD083B000AF78607B689B6E03F00103002BF4
S214401FE014BF01230023DBB218460C37BD465DF80C
S214401FF0047B704780B483B000AF78607B689B6E8C
S21440200003F00203002B14BF01230023DBB2184663
S2144020100C37BD465DF8047B704780B483B000AF94
S21440202078607B689B6E03F00803002B14BF012387
S2144020300023DBB218460C37BD465DF8047B70477C
S21440204080B483B000AF78607B689B6E03F040033B
S214402050002B14BF01230023DBB218460C37BD46C5
S2144020605DF8047B7047000080B582B000AF002367
S2144020707B602648264B9847034623F002037B6046
S2144020807A68244B13437B6079682048224B9847F4
S21440209000BF1E48214B9847034683F00103DBB23E
S2144020A0002BF6D11E4919481E4B98471E4B7B60A5
S2144020B0002116481D4B98477B6843F0005319464D
S2144020C012481B4B984700BF10481A4B9847034688
S2144020D083F00103DBB2002BF6D14FF470037B6034
S2144020E07B6843F4803319460848134B984700BF33
S2144020F00648124B9847034683F00103DBB2002B99
S214402100F6D100BF0837BD4680BD00BF00060E4072
S2144021107B1E4000013E37005F1E4000CF1F400040
S214402120000037013D1E4000013F1800951E40004C
S214402130D51E4000F51F4000211E400041204000B3
S21440214080B500AF01211C481C4B984700BF1A4879
S2144021501B4B9847034683F00103DBB2002BF6D1B6
S21440216000211548174B984700BF1348144B984713
S214402170034683F00103DBB2002BF6D101210E4863
S214402180114B984700BF0C480D4B9847034683F0C9
S2144021900103DBB2002BF6D1022107480B4B9847D0
S2144021A000BF0548064B9847034683F00103DBB261
S2144021B0002BF6D100BF80BD00060E40F11E400049
S2144021C01B2040005F1F4000971F4000291F400013
S2144021D080B400AF00BFBD465DF8047B704780B456
S2144021E000AF00BFBD465DF8047B704780B500AFCA
S2144021F0044B9847044B9847044B9847044B9847E2
S21440220000BF80BD6920400041214000D1214000F0
S214402210DF21400080B483B000AF786039607B68CF
S2144022203A681A6000BF0C37BD465DF8047B7047BD
S21440223080B483B000AF786039607B683A685A6093
S21440224000BF0C37BD465DF8047B704780B485B050
S21440225000AFF8600B467A60FB72FA7AFB680C3285
S214402260796843F8221000BF1437BD465DF8047BFA
S214402270704780B483B000AF78607B681B6903F416
S2144022808033002B14BF01230023DBB218460C37E3
S214402290BD465DF8047B704780B485B000AF78607B
S2144022A07A68084B13441B0CFB73FB7B052B01D150
S2144022B0012300E0002318461437BD465DF8047B32
S2144022C0704700BF0080FFBF80B582B000AF786027
S2144022D07868064B98470346002B01D1002300E060
S2144022E0002318460837BD4680BD00BF99224000EF
S2144022F080B582B000AF78607868064B9847034652
S214402300002B01D1012300E0012318460837BD46C3
S21440231080BD00BF9922400080B584B000AF786091
S2144023207B681846124B98470346BB730023FB73E3
S21440233015E0FA7B0F4913469B0013449B000B4461
S2144023401B78BA7B9A4207D1FA7B13469B0013440C
S2144023509B00084A134406E0FB7B0133FB73FB7B80
S214402360002BE6D0002318461037BD4680BD00BF80
S21440237099224000E851400080B584B000AF7860B4
S2144023807B689B68FB60FB689B68002B03D0FB6800
S2144023909B687868984700BF1037BD4680BD80B5BB
S2144023A084B000AF78607B689B68FB60FB685B68C6
S2144023B0002B03D0FB685B687868984700BF1037EF
S2144023C0BD4680BD80B584B000AF78607B689B68B2
S2144023D0FB60FB68DB68002B03D0FB68DB68786833
S2144023E0984700BF1037BD4680BD80B483B000AF6D
S2144023F078607B68083318460C37BD465DF8047B2A
S214402400704780B483B000AF78607B680C33184662
S2144024100C37BD465DF8047B7047000090B585B02C
S21440242000AF786039607B68FB603B681846344B89
S2144024309847B8603868334B98470346002B02D01D
S2144024406FF0100357E0FB683A681A6080213868DE
S2144024502D4B9847BB685A682C4B13401946386832
S214402460294B9847BB689A68294B1340294A1A4318
S21440247011463868284B9847BB68DB681A460021E7
S2144024803868264B9847FB680022DA60FB680022D3
S2144024909A60FB6800225A607B6803F1180438682B
S2144024A01F4B98470346194620461E4B98477B6865
S2144024B09B697A689A607B689B691B4A1A607B684E
S2144024C09B691A4A5A607B6803F118043868184BAF
S2144024D09847034619462046124B98477B689B69A7
S2144024E07A689A607B689B69124A1A607B689B6927
S2144024F00E4A5A60002318461437BD4690BD00BFAA
S2144025001923400073224000152240007CFFFFFE46
S2144025106FFFF1FF10000E00312240004D224000B8
S214402520F1224000354F400079234000C52340004B
S214402530C92240009F23400080B586B000AFF860B7
S214402540B9607A607B80FB681B681846394B9847B1
S2144025507861FB681B681846374B98470346FB7400
S214402560FB681B681846354B98470346BB747B6828
S214402570002B1BD0FB681B681846314B9847034618
S2144025801A46FB7C114618462E4B9847FB7C7968CA
S21440259018462D4B98477A88FB7C114618462B4B9D
S2144025A09847FB7C00211846294B9847BB68002B70
S2144025B017D0BB7CB9681846224B9847FB681B6807
S2144025C01846244B984703461A46BB7C1146184685
S2144025D01D4B98477A88BB7C114618461B4B98473C
S2144025E01EE07B6903F11002BB7C11461846154B72
S2144025F09847FB681B681846164B984703461A468A
S214402600BB7C11461846104B9847BB7C00211846A9
S214402610114B98477A88BB7C114618460B4B984717
S214402620BB7C002118460A4B9847002318461837AB
S214402630BD4680BD19234000F1224000C92240001B
S214402640EB234000094E4000DD4D4000A54E4000C3
S214402650E94E400003244000354E400080B483B02D
S21440266000AF786039607B683A681A6000BF0C3704
S214402670BD465DF8047B704780B483B000AF786099
S21440268039607B683A685A6300BF0C37BD465DF8D0
S214402690047B704780B483B000AF786039607B6855
S2144026A03A685A6000BF0C37BD465DF8047B7047F9
S2144026B080B483B000AF786039607B683A68DA608F
S2144026C000BF0C37BD465DF8047B704780B483B0CE
S2144026D000AF786039607B683A681A6100BF0C3793
S2144026E0BD465DF8047B704780B483B000AF786029
S2144026F039607B683A689A6300BF0C37BD465DF820
S214402700047B704780B483B000AF786039607B68E4
S2144027103A685A6400BF0C37BD465DF8047B704784
S21440272080B483B000AF78607B681B6A03F0010317
S214402730002B14BF01230023DBB218460C37BD46DE
S2144027405DF8047B704780B483B000AF78607B68E8
S2144027501B6A03F00203002B14BF01230023DBB2E5
S21440276018460C37BD465DF8047B704780B483B08E
S21440277000AF78607B681B6A18460C37BD465DF82C
S214402780047B704780B483B000AF78607B681B6B77
S21440279018460C37BD465DF8047B704780B485B05C
S2144027A000AF78600023FB7315E0FA7B0F491346B1
S2144027B05B001344DB000B441A687B689A4207D1DF
S2144027C0FA7B13465B001344DB00084A134406E0DA
S2144027D0FB7B0133FB73FB7B012BE6D900231846BA
S2144027E01437BD465DF8047B704700BFFC5140007F
S2144027F080B584B000AF786039607B683A681A610B
S2144028007B681B691846144B9847F8607B681A69C2
S214402810FB685B6819461046104B98477B681A69F8
S214402820FB689B68194610460D4B98477B681A69AB
S214402830FB68DB68194610460A4B98477B681A695E
S214402840FB681B6919461046074B984700231846F5
S2144028501037BD4680BD00BF9D2740005D26400026
S214402860E926400005274000CD26400080B582B0CE
S21440287000AF786039607B685B889BB203F48073F6
S214402880002B02D06FF0050311E03B685B889BB2DB
S21440289003F00103002B05D039687868064B98474B
S2144028A0034604E039687868044B98470346184660
S2144028B00837BD4680BD00BFF1294000C128400012
S2144028C080B586B000AF7860396000233B613B68D6
S2144028D05B889BB243F480739AB23B685A803B68ED
S2144028E01B8803F48063002B1BD07B681A693B6807
S2144028F01B881B0A9BB243F078039BB21B0403F46D
S214402900FE0343F4807319461046334B98477B6862
S2144029101A693B681B88DBB2194610462F4B98470E
S2144029200AE07B681A693B681B881B0403F4FE03B5
S21440293019461046284B984700237B6120E07B6869
S2144029401B691846264B9847F860FB6803F480736B
S214402950002B03D06FF001033B6104E0FB6803F0FB
S2144029600403002BEBD07B6818693B689A687B6948
S21440297013441B7819461B4B98477B6901337B6190
S2144029803B685B681A467B699A42D8D83B685B8846
S2144029909BB21BB2002B11DA7B681B6902211846DA
S2144029A0114B984700BF7B681B6918460F4B9847EA
S2144029B0034683F00103DBB2002BF4D17B685B88CF
S2144029C09BB223F480739AB27B685A803B69184660
S2144029D01837BD4680BD00BF95264000B126400052
S2144029E06D274000792640005D26400021274000A4
S2144029F090B585B000AF786039603B685B889BB225
S214402A0043F480739AB23B685A803B681B8803F451
S214402A108063002B1BD07B681A693B681B881B0AA7
S214402A209BB243F078039BB21B0403F4FE0343F4CB
S214402A30885319461046384B98477B681A693B6856
S214402A401B88DBB219461046344B98470CE07B682F
S214402A501A693B681B881B0403F4FE0343F4805347
S214402A60194610462C4B98477B681A693B685B684A
S214402A70012B01D1032300E0012319461046284BC1
S214402A8098470023FB6027E000BF7B681B69184619
S214402A90244B9847034683F00103DBB2002BF4D166
S214402AA03B689A68FB68D4187B681B6918461E4BBF
S214402AB098470346DBB223703B685B68023B1A4686
S214402AC0FB689A4205D17B681B6902211846144B65
S214402AD09847FB680133FB603B685B681A46FB68B7
S214402AE09A42D1D800BF7B681B6918460F4B98475F
S214402AF0034683F00103DBB2002BF4D17B685B888E
S214402B009BB223F480739AB27B685A80002318469F
S214402B101437BD4690BD00BF95264000B126400004
S214402B205D2640004727400085274000212740007B
S214402B3080B483B000AF0346FB71094997F907306C
S214402B405B09FA7902F01F02012000FA02F241F80E
S214402B50232000BF0C37BD465DF8047B704700BF9E
S214402B6000E100E080B483B000AF0346FB71094942
S214402B7097F907305B09FA7902F01F02012000FA44
S214402B8002F2203341F8232000BF0C37BD465DF8E3
S214402B90047B704700E100E080B483B000AF03469A
S214402BA0FB71094997F907305B09FA7902F01F0271
S214402BB0012000FA02F2603341F8232000BF0C37B0
S214402BC0BD465DF8047B704700E100E080B483B00A
S214402BD000AF78607B681B6903F00103002B14BFCD
S214402BE001230023DBB218460C37BD465DF8047B54
S214402BF0704780B483B000AF78607B6802229A60EA
S214402C0000BF0C37BD465DF8047B704780B483B088
S214402C1000AF78607B681B695B0803F00103002BFC
S214402C2014BF01230023DBB218460C37BD465DF8BF
S214402C30047B704780B483B000AF78607B68022224
S214402C40DA6000BF0C37BD465DF8047B704780B441
S214402C5083B000AF78607B684FF400729A6000BF24
S214402C600C37BD465DF8047B704780B483B000AF38
S214402C7078607B681B695B0A03F00103002B14BF76
S214402C8001230023DBB218460C37BD465DF8047BB3
S214402C90704780B483B000AF78607B684FF40072B2
S214402CA0DA6000BF0C37BD465DF8047B704780B4E1
S214402CB083B000AF786039607B683A681A6000BFBE
S214402CC00C37BD465DF8047B704780B483B000AFD8
S214402CD0786039607B683A68DA6100BF0C37BD4679
S214402CE05DF8047B704780B483B000AF786039608D
S214402CF07B683A685A6000BF0C37BD465DF8047B77
S214402D00704780B483B000AF786039607B683A68BB
S214402D101A6200BF0C37BD465DF8047B704780B42E
S214402D2083B000AF786039607B683A68C3F8E420C7
S214402D3000BF0C37BD465DF8047B704780B483B057
S214402D4000AF78607B685B6903F00103002B14BF1B
S214402D5001230023DBB218460C37BD465DF8047BE2
S214402D60704780B483B000AF78607B685B6903F0DF
S214402D700203002B14BF01230023DBB218460C3796
S214402D80BD465DF8047B704780B483B000AF786082
S214402D907B685B6903F40073002B14BF0123002398
S214402DA0DBB218460C37BD465DF8047B704780B4EE
S214402DB083B000AF78607B685B6918460C37BD46C9
S214402DC05DF8047B704780B483B000AF78607B6862
S214402DD09B69DBB218460C37BD465DF8047B7047EE
S214402DE080B483B000AF78607B689B6918460C3728
S214402DF0BD465DF8047B704780B584B000AF786010
S214402E007868124B98470346FB73FB7B042B17D816
S214402E1001A252F823F000BF2D2E4000312E400074
S214402E20352E4000392E40003D2E4000072308E056
S214402E30082306E02C2304E02D2302E02E2300E0A6
S214402E40FF2318461037BD4680BD00BF11304000F6
S214402E5080B483B000AF786039607B68054A93429F
S214402E6002D1054A3B68136000BF0C37BD465DF88B
S214402E70047B7047001E0E40D800402080B582B0CC
S214402E8000AF786039607B683A681A603868034BF0
S214402E909847034618460837BD4680BD0D32400069
S214402EA080B584B000AF786039603868154B984775
S214402EB0F860FB68002B01D0FB681FE07B683A682F
S214402EC09A6179683868104B984738680F4B98472E
S214402ED003465BB218460E4B984738680B4B9847EC
S214402EE003465BB218460B4B98473868074B9847E3
S214402EF003465BB21846084B9847002318461037DF
S214402F00BD4680BD0D324000512E4000F92D400098
S214402F10652B4000992B4000312B400080B582B095
S214402F2000AF78600B46FB707B681B68FA781146EA
S214402F301846034B984700BF0837BD4680BD00BFC4
S214402F40CB2C400080B582B000AF78600B46FB705B
S214402F507B689B69FA7811461846034B984700BF32
S214402F600837BD4680BD00BFCB2C400080B582B040
S214402F7000AF78607B681B681846044B984703464A
S214402F80DBB218460837BD4680BD00BFC72D40009F
S214402F9080B582B000AF78607B681B681846034BEC
S214402FA09847034618460837BD4680BD632D400007
S214402FB080B582B000AF78607B681B681846034BCC
S214402FC09847034618460837BD4680BD3D2D40000D
S214402FD080B582B000AF78607B689B691846034B2B
S214402FE0984700BF0837BD4680BD00BFF32B400062
S214402FF080B582B000AF78607B689B691846034B0B
S214403000984700BF0837BD4680BD00BF4F2C4000E4
S21440301080B483B000AF78607B68124A934201D197
S214403020002318E07B68104A934201D1012312E046
S2144030307B680E4A934201D102230CE07B680C4A1F
S214403040934201D1032306E07B680A4A934201D1AA
S214403050042300E0FF2318460C37BD465DF8047B8A
S214403060704700BF00080E40000A0E40001A0E408F
S214403070001C0E40001E0E4080B400AF00231846D1
S214403080BD465DF8047B704780B400AF0023184609
S214403090BD465DF8047B704790B585B000AF78605C
S2144030A07B689B69FB60F868314B98470346002B6A
S2144030B00DD0F8682F4B98470346002B07D0F8688A
S2144030C02D4B98477B681B68786898474CE0F868B3
S2144030D02A4B98470346002B0DD0F868284B984754
S2144030E00346002B07D0F868264B98477B689B68BA
S2144030F07868984738E0F868234B98470346002B93
S21440310021D0F868214B98470346002B1BD0F8681F
S2144031101F4B9847034603F0E003002B08D0F8689F
S2144031201C4B98474FF48071F8681B4B98471BE040
S2144031307B685C68F868194B98470346DBB21946CB
S2144031407868A04710E0F868114B9847034603F0AC
S214403150E003002B08D04FF48071F8680E4B984778
S2144031607B68DB68786898471437BD4690BD00BFDB
S214403170632D40000D2C4000352C4000892D40002A
S2144031806B2C4000932C40003D2D4000CD2B400042
S214403190AF2D4000E12D4000AF2C4000C72D400031
S2144031A080B500AF034B1B681846034B984700BFDB
S2144031B080BD00BFD80040209930400080B584B024
S2144031C000AF786078680F4B98470346BB73002380
S2144031D0FB730FE0FA7B0C4913465B0013449B00DD
S2144031E00B441B78BA7B9A4201D1FB7B06E0FB7B03
S2144031F00133FB73FB7B012BECD9002318461037B9
S214403200BD4680BD113040000800402080B584B0E7
S21440321000AF78607868184B98470346FB731749A9
S2144032207868174B9847AC217868164B98474FF408
S21440323080717868134B9847FA7B134913465B00B6
S21440324013449B000B4404331B68194678680F4BA5
S2144032509847FA7B0C4913465B0013449B000B448B
S21440326008331B6819467868094B98470023184668
S2144032701037BD4680BD00BFBD31400000524155AD
S2144032801F2D4000AF2C400008004020E72C400097
S214403290032D400080B483B000AF78607B68012285
S2144032A09A6100BF0C37BD465DF8047B704780B41A
S2144032B083B000AF78607B6810225A6100BF0C373D
S2144032C0BD465DF8047B704780B483B000AF78603D
S2144032D039607B683A689A6100BF0C37BD465DF836
S2144032E0047B704780B483B000AF78607B681B690E
S2144032F018460C37BD465DF8047B704780B483B0F3
S21440330000AF786039607B683A685A6100BF0C3716
S214403310BD465DF8047B704780B483B000AF7860EC
S2144033200B46FB70FA787B684C3253F822309B0889
S21440333003F00103002B14BF01230023DBB2184621
S2144033400C37BD465DF8047B704780B483B000AF51
S21440335078600B46FB70FA787B684C3253F8223024
S2144033609B0903F00103002B14BF01230023DBB2AB
S21440337018460C37BD465DF8047B704780B483B072
S21440338000AF78600B46FB70FA787B684C3253F897
S21440339022301B0C03F00103002B14BF0123002333
S2144033A0DBB218460C37BD465DF8047B704780B4E8
S2144033B087B000AFF8600B467A60FB72FA7AFB681B
S2144033C04C3253F822307B617A697B6813407B61CC
S2144033D07B6918461C37BD465DF8047B704780B451
S2144033E083B000AF78600B46FB70FA787B684C324F
S2144033F053F8223018460C37BD465DF8047B7047BC
S21440340080B485B000AFF8600B467A60FB72FA7AFB
S214403410FB685832796843F8221000BF1437BD461F
S2144034205DF8047B704780B483B000AF7860396045
S2144034307B683A689A6000BF0C37BD465DF8047BEF
S214403440704780B485B000AFF8600B467A60FB7278
S214403450FA7AFB686432796843F8221000BF143762
S214403460BD465DF8047B704780B485B000AFF86019
S2144034700B467A60FB72FA7AFB687C32796843F8CE
S214403480221000BF1437BD465DF8047B704780B4F9
S21440349085B000AFF8600B467A60FB72FA7AFB683C
S2144034A08832796843F8221000BF1437BD465DF86D
S2144034B0047B704780B483B000AF78607B681B683D
S2144034C043F080027B681A6000BF0C37BD465DF84B
S2144034D0047B704780B483B000AF78607B681B681D
S2144034E023F080027B681A6000BF0C37BD465DF84B
S2144034F0047B704780B485B000AF786039607B68E5
S2144035001B68FB60FB6823F07F03FB603B6803F0AF
S2144035107F03FA681343FB607B68FA681A6000BF53
S2144035201437BD465DF8047B704780B483B000AF67
S214403530786039607B683A681A6000BF0C37BD46D1
S2144035405DF8047B704780B483B000AF78600B466C
S214403550FB70FA78F9787B68403153F8213043F4B1
S21440356000717B68403243F8221000BF0C37BD46DE
S2144035705DF8047B704780B483B000AF78600B463C
S214403580FB70FA78F9787B68403153F8213023F4A1
S21440359000717B68403243F8221000BF0C37BD46AE
S2144035A05DF8047B704780B485B000AF78600B460A
S2144035B0FB70FA787B68403253F82230FB60FB6839
S2144035C0DB0A03F00303FB60FB6818461437BD466E
S2144035D05DF8047B704780B485B000AF78607B6848
S2144035E0D3F80038FB60FB68DB0B03F00103FB609D
S2144035F0FB68002B14BF01230023DBB218461437A8
S214403600BD465DF8047B704780B483B000AF7860F9
S21440361039607B683A68C3F8002800BF0C37BD465F
S2144036205DF8047B704780B483B000AF78607B68F9
S2144036305B6818460C37BD465DF8047B704780B41F
S21440364083B000AF78600B46FB70FA787B687032C8
S21440365053F8223018460C37BD465DF8047B704759
S21440366080B485B000AFF8600B467A60FB72FB7A98
S214403670FA6831331B01134404337A681A6000BF7A
S2144036801437BD465DF8047B704780B485B000AF04
S214403690F8600B467A60FB72FB7AFA681B011344AB
S2144036A003F546737A681A6000BF1437BD465DF866
S2144036B0047B704780B483B000AF78600B46FB70E5
S2144036C0FB787A681B01134403F547731B6803F0C5
S2144036D00103002B14BF01230023DBB218460C372E
S2144036E0BD465DF8047B704780B483B000AF786019
S2144036F00B46FB70FB787A681B01134403F547734F
S2144037001B681B0903F00103002B14BF0123002391
S214403710DBB218460C37BD465DF8047B704780B474
S21440372083B000AF78600B46FB70FB787A681B016D
S214403730134403F547731B681B0C9BB218460C37A3
S214403740BD465DF8047B704780B483B000AF7860B8
S214403750396000BF0C37BD465DF8047B704780B4C7
S21440376083B000AF78603960002318460C37BD46FA
S2144037705DF8047B7047000080B582B000AF03461A
S2144037803960FB71FB793A6819460348034B984702
S21440379000BF0837BD4680BD00800340013440006E
S2144037A080B582B000AF03463960FB71FB793A685A
S2144037B019460848084B9847FB794FF4805202FA5E
S2144037C003F319460348054B984700BF0837BD46E4
S2144037D080BD00BF0080034069344000C9324000CD
S2144037E080B582B000AF03463960FB71FB793A681A
S2144037F019460348034B984700BF0837BD4680BD6F
S214403800008003408F34400080B582B000AF03464E
S214403810FB71FB7919460648064B98470346002B32
S2144038200CBF01230023DBB218460837BD4680BDD7
S21440383000800340A735400080B584B000AF034603
S2144038400A46FB711346BB710B4BFB60BB79002BE2
S21440385007D0FB794FF400221946F868074B984783
S21440386006E0FB794FF400221946F868044B984767
S21440387000BF1037BD4680BD00800340693440001D
S2144038808F34400080B582B000AF0346FB71FB79B1
S21440389019460448044B9847034618460837BD4621
S2144038A080BD00BF008003404B33400080B582B0EF
S2144038B000AF0346FB71FB7940211846024B984700
S2144038C000BF0837BD4680BD7937400080B582B01E
S2144038D000AF03460A46FB711346BB71BB79002B0B
S2144038E005D0FB7940211846054B984704E0FB7904
S2144038F040211846034B984700BF0837BD4680BD59
S214403900A1374000E137400080B582B000AF0346A3
S214403910FB71FB79042219460348044B984700BFC5
S2144039200837BD4680BD00BF008003408F3440004E
S21440393080B582B000AF0346FB71FB791946044858
S214403940044B9847034618460837BD4680BD00BF1F
S214403950008003401933400080B582B000AF034674
S214403960FB71FB7904211846024B984700BF083785
S214403970BD4680BD7937400080B584B000AF034671
S214403980FB71064BFB60FB794FF480221946F868C2
S214403990034B984700BF1037BD4680BD00800340AC
S2144039A06934400080B582B000AF0346FB71FB79B6
S2144039B0054A19460548064B984703461B0D9BB2D9
S2144039C018460837BD4680BD0000F07F00800340A3
S2144039D0AF33400080B584B000AF0346FB710C4B5C
S2144039E0FB60FB7901221946F8680A4B9847FB7939
S2144039F008221946F868074B9847FB79082219466B
S214403A00F868054B984700BF1037BD4680BD00BFDD
S214403A1000800340013440006934400080B584B0E3
S214403A2000AF03460A46FB711346BB710A4BFB6068
S214403A30BB79002B06D0FB7901221946F868074B64
S214403A40984705E0FB7901221946F868044B9847E9
S214403A5000BF1037BD4680BD0080034001344000A3
S214403A604334400080B584B000AF03460A46FB713D
S214403A701346BB710A4BFB60BB79002B06D0FB7923
S214403A8002221946F868074B984705E0FB79022260
S214403A901946F868044B984700BF1037BD4680BDAE
S214403AA000800340433440000134400080B500AFFE
S214403AB004210448044B9847044B1B68984700BFB2
S214403AC080BD00BF0080034027344000DC0040201B
S214403AD080B500AF02210448044B9847044B1B684E
S214403AE0984700BF80BD00BF008003402734400099
S214403AF0DC00402080B582B000AF0A4B7B601021CE
S214403B007868094B98477868084B98477868084B18
S214403B109847084B5B6800210220984700BF08374B
S214403B20BD4680BD0080034027344000AF32400091
S214403B3095324000DC00402080B582B000AF0C4B90
S214403B407B60082178680B4B9847702178680A4B51
S214403B50984701217868094B9847094B9847094B85
S214403B605B6800210120984700BF0837BD4680BDEE
S214403B700080034027344000FD324000C9324000F8
S214403B80A5454000DC00402080B582B000AF0B4B1E
S214403B907B60012178680A4B984701210748094B0A
S214403BA0984770210548084B9847084B5B680021AA
S214403BB00420984700BF0837BD4680BD00800340BC
S214403BC027344000FD324000C9324000DC0040202F
S214403BD080B582B000AF0123FB711F481F4B98474A
S214403BE00346BB801C481E4B984703469AB2BB8888
S214403BF01340BB80BB8803F00403002B03D0194B53
S214403C009847012323E0BB8803F00203002B03D030
S214403C10154B984701231AE0BB8803F07003002B2E
S214403C2002D0124B984711E0BB8803F00803002BE4
S214403C3002D00F4B984709E0BB8803F00103002BE6
S214403C4002D00C4B984701E00023FB71FB791846E5
S214403C500837BD4680BD00BF008003402736400081
S214403C60E5324000AD3A4000D13A4000F53A4000D7
S214403C70393B4000893B400080B58AB000AF786051
S214403C80654B3B627B689B7C03F00F03FB77FB7FB7
S214403C90DA03624B1344BB617B68DB68FB827B685C
S214403CA01B8A40F2FF32934203D17B681B8A1BB2C9
S214403CB004E07B681B8A013B9BB21BB2B7F9162017
S214403CC013401BB2BB827B68DB7C03F00703DBB28E
S214403CD0012B0CBF01230023FB747B689A687B682A
S214403CE05B689A4258D37B68DB7C03F01003DBB2F8
S214403CF0002B19D07B680022DA607A68D37C6FF399
S214403D000413D374FB7F1846454B9847FB7C83F0DF
S214403D100103DBB2002B78D0FB7F4FF4804219467C
S214403D20386A404B984770E0FB7F01221946386A54
S214403D303C4B9847FB7C83F00103DBB2002B08D05A
S214403D40FB7F4FF4805202FA03F31946386A364B2B
S214403D5098477B689A687B685A607B681B8ABA8AF1
S214403D609A4214D17A68D37C6FF38613D3742F4B60
S214403D70DB687A68907C7A68926811469847034672
S214403D80002B44D17A68D37C43F04003D37400219F
S214403D907868274B98473BE07B685B689AB27B68BD
S214403DA09B689BB2D31AFB847B681B8AFA8C9A4228
S214403DB002D97B681B8AFB847B681A687B689B6891
S214403DC01344FB60FB8C1A46F968B869194B984750
S214403DD0FA8C7B68DA607B689A68FB8C1A447B684E
S214403DE09A60FB7F01221946386A134B9847FB7C42
S214403DF083F00103DBB2002B0AD0FB7F4FF48042F6
S214403E001946386A074B984702E000BF00E000BFFB
S214403E102837BD4680BD00BF00800340000010A08C
S214403E20D53940008F344000FD324000DC00402051
S214403E3081484000A55140000134400080B588B01C
S214403E4000AF7860474BBB617B689B7C03F00F03F9
S214403E50FB75FB7D1846444B98470346FB837B68BF
S214403E605B689AB27B689B689BB2D31ABB82FB7D29
S214403E70DA033E4B13443B6100237B7700233B77BA
S214403E807B68DB7C03F00703DBB2012B0CBF01230E
S214403E900023FB73FB7D02221946B869344B9847D2
S214403EA0FB8B002B21D0FA8BBB8A9A4203D9BB8A64
S214403EB0FB8301237B777B681A687B689B68134487
S214403EC0FA8B396918462B4B98477B689A68FB8B68
S214403ED01A447B689A60FA8B7B68DA60FB7D4FF405
S214403EE080421946B869244B98477B681B8AFA8BF0
S214403EF09A4207D27A68D37C6FF30413D3740123B3
S214403F003B7707E07B689A687B685B689A4201D398
S214403F1001237B777B7F002B02D13B7F002B1CD07D
S214403F20FB7D02221946B869134B9847FB7B83F00A
S214403F300103DBB2002B08D0FB7D4FF4805202FA1F
S214403F4003F31946B8690D4B98477B689A687B68B7
S214403F505A60002178680A4B984700BF2037BD4614
S214403F6080BD00BF00800340A5394000000010A07F
S214403F7001344000A55140008F344000FD324000DF
S214403F808148400080B586B000AF7860614BFB60EA
S214403F907B689B7C03F00F03FB727B68DB7C03F043
S214403FA04003DBB2002B00F0B0807B689A687B68E9
S214403FB05B689A4273D07B685A687B689B68D31A62
S214403FC07B617B69B3F5803F05D94FF480337B61D5
S214403FD000233B6102E07B691B043B617B68DB7C22
S214403FE023F07F03DBB2002B0BD07B68DB7C03F037
S214403FF01003DBB2002B04D13B6943F008033B615E
S21440400010E07B68DB7C03F00703DBB2022B05D1B4
S2144040107B681B8A1A467B699A4203D33B6943F006
S21440402014033B61FB7A013BD9B27B681A687B6814
S2144040309B6813441A46F868374B98473B6943F0E9
S21440404021033B61FB7A013BDBB21946F868334BF0
S2144040509847034683F00103DBB2002B1BD0FB7A64
S214404060013BDBB23A691946F8682D4B98477B68A6
S2144040709A687B691A447B689A607B687A69DA60DA
S214404080FB7A013B4FF0007202FA03F31946F868D8
S214404090244B98473AE07B689A687B685A607B680E
S2144040A0DB7C23F07F03DBB2002B29D07B68DB7CF4
S2144040B003F01003DBB2002B22D0FB7A0121184616
S2144040C0194B9847FB7A1946F868184B98470346A9
S2144040D0002B05D0FB7A01221946F868144B984706
S2144040E0FB7A01221946F868124B9847FB7A4FF440
S2144040F0805202FA03F31946F8680A4B984705E0DF
S214404100002178680C4B984700E000BF1837BD4642
S21440411080BD00BF0080034061364000E936400065
S2144041208B364000C9324000793740007D3340002E
S21440413043344000693440008148400080B584B034
S21440414000AF78607B689B7C03F00F03FB737B6853
S214404150DB7C03F00703DBB2012B0CBF01230023FB
S214404160BB73BB7B83F00103DBB2002B08D0FB7B29
S21440417018461A4B9847FB7B1846194B98472AE037
S2144041807B68DB7C03F04003DBB2002B0ED07A6802
S214404190D37C6FF38613D374FB7B00211846114BF8
S2144041A09847FB7B002118460F4B98477A68D37C8C
S2144041B06FF3C303D374FB7B182118460B4B984709
S2144041C0FB7B182118460A4B98470A4B9B687A682F
S2144041D0927C104698471037BD4680BD59394000FE
S2144041E0093940001D3A4000653A400079374000A2
S2144041F0E1374000DC00402080B584B000AF7860F6
S2144042007B689B7C03F00F03FB73FB7B0021184607
S214404210044B984701217868034B984700BF1037F6
S214404220BD4680BDCD3840008148400080B584B052
S21440423000AF78600F4BFB607B689B7C03F00F03FE
S214404240FB72FB7A20221946F8680B4B98477B682E
S214404250DB7CC3F3C013DBB2002B14BF0123002367
S214404260DBB2042219467868044B984700BF1037E3
S214404270BD4680BD0080034001344000C948400030
S21440428080B582B000AF78600B46FB70FB7803F0D9
S2144042900403002B03D07868074B984707E0FB7869
S2144042A003F04003002B02D07868044B984700BFC9
S2144042B00837BD4680BD00BF3D414000F941400043
S2144042C080B582B000AF78600B46FB70FB7803F099
S2144042D00103002B03D078680A4B98470EE07B68B2
S2144042E0DB7C03F00703DBB2012B07D1FB7803F03E
S2144042F00403002B02D07868034B984700BF08376A
S214404300BD4680BD793C40003D41400080B582B00E
S21440431000AF78600B46FB70FB7803F02003002B61
S21440432003D078680F4B984717E0FB7803F00203FA
S214404330002B03D078680C4B98470EE07B68DB7CFC
S21440434003F00703DBB2012B07D1FB7803F004032D
S214404350002B02D07868054B984700BF0837BD460B
S21440436080BD00BF2D4240003D3E40003D414000E4
S21440437080B584B000AF78603960284BFB603B68FE
S2144043809B7C03F00F03FB72FB7A01229A407B680A
S2144043901340002B3DD0FB7A1946F868204B9847CF
S2144043A00346BB72FB7A1946F8681E4B984703468D
S2144043B07B72BA7A7B7A1340BB72BB7A002B29D0C9
S2144043C0BB7A03F04003002B03D03868164B98475F
S2144043D020E03B68DB7C03F04003DBB2002B05D1DA
S2144043E0BB7A19463868114B984713E03B68DB7C2C
S2144043F023F07F03DBB2002B05D0BB7A1946386822
S2144044000B4B984706E0BB7A19463868094B9847E5
S21440441000E000BF1037BD4680BD00BF00800340AF
S214404420DF3340003F364000F941400081424000C3
S214404430C14240000D43400080B586B000AF786072
S2144044403960214B7B613B689B7C03F00F03FB7418
S214404450FB7C013B01229A407B681340002B2CD00A
S214404460FB7C013BDBB219467869184B98470346FC
S214404470002B24D1FB7C013B4FF0007202FA03F381
S21440448019467869124B9847FB7C013BDBB21946CC
S2144044907869104B9847F860FB68002B09D03B685A
S2144044A09A68FB68D21A3B689A603B689A683B6891
S2144044B05A603868084B984702E000BF00E000BFEB
S2144044C01837BD4680BD00BF00800340B53640006B
S2144044D0FD3240001F374000853F400090B587B012
S2144044E000AF294B3B613869284B984704463869EA
S2144044F0274B984703462340FB60FB681B0BC3F3E0
S2144045000B03BB60FB685B0E7B60BB68002B07D170
S2144045107B68002B04D11F4B98470346002B2ED1B7
S2144045200023FB7527E0FA7D13469B0013449B004F
S2144045301033194A134404333B603B689B7CFF2B83
S21440454015D0BB68002B04D03968B868134B984721
S2144045500EE07B68002B0BD0FB7D002B08D0FB7D4C
S214404560062B05D8396878680D4B984700E000BFA1
S214404570FB7D0133FB75FB7D032BD4D900E000BFE8
S2144045801C37BD4690BD00BF008003402736400024
S214404590E5324000D13B4000DC0040207143400003
S2144045A03944400080B582B000AF1C481C4B984749
S2144045B000211A481B4B984718481B4B9847002326
S2144045C0FB7123E0FA7913469B0013449B0010339B
S2144045D0164A1344043303211846154B9847FA7974
S2144045E0124913469B0013449B000B442633FF227C
S2144045F01A70FA790D4913469B0013449B000B44EE
S214404600273300221A70FB790133FB71FB79032BA9
S214404610D8D900BF0837BD4680BD00BF00800340E4
S214404620D5344000F5344000B5344000DC0040202E
S2144046308148400090B589B000AF1D4BFB61022316
S214404640FB761C4B3C1D0FCB84E80F00F8691A4BD9
S21440465098470346002B02D06FF0100324E0174B18
S214404660174A1A60154B164A5A60144B144A9A60F9
S214404670124B144ADA60114B114A1A61124B984792
S2144046804FF00071F869114B9847FB7E9B0007F18D
S2144046902002134453F81C3C43F480737B617969D1
S2144046A0F8690B4B9847002318462437BD4690BD03
S2144046B0008003402C524000D7354000DC004020AC
S2144046C0493740005F374000A54540000936400066
S2144046D02B35400080B483B000AF78607B68DB7CCD
S2144046E0C3F3C003DBB218460C37BD465DF8047B07
S2144046F07047000080B584B000AF78607B689B7CD4
S21440470003F00F03FB73FB7B032B02D96FF0090307
S21440471016E07B68DB7C03F00803DBB2002B0ED18F
S2144047207A68D37C43F00803D374FB7B4021184659
S214404730054B9847FB7B01211846044B98470023BE
S21440474018461037BD4680BDA13740003938400076
S21440475080B584B000AF78607B689B7C03F00F0325
S214404760FB737B68DB7C03F00803DBB2002B01D1D4
S214404770002335E0FB7B002118461B4B9847FB7B0C
S21440478040211846194B9847FB7B1846184B9847CC
S2144047900346002B07D0FB7B1846164B9847FB7BFF
S2144047A01846154B98477B68DB7C03F00703DBB263
S2144047B0012B0FD1FB7B19461048114B98470346F7
S2144047C003F04003002B0AD17A68D37C6FF3C3030F
S2144047D0D37404E07A68D37C6FF3C303D3740023A6
S2144047E018461037BD4680BD39384000E137400096
S2144047F085384000AD38400079394000008003409D
S214404800DF33400080B586B000AF03460A46FB71F2
S2144048101346BB71FB7903F00F03FB74FA7C134617
S2144048209B0013449B001033114A13440433FB602F
S214404830FB7C032B02D96FF0110314E0BB79012BEC
S21440484004D1F8680B4B984778610BE0BB79002B96
S21440485004D1F868084B9847786103E0F868074B3E
S214404860984778617B6918461837BD4680BD00BFBB
S214404870DC004020F546400051474000D546400009
S21440488080B582B000AF786039607B689B7CFF2B38
S21440489014D07B68DB7C03F04003DBB2002B0DD0EA
S2144048A07A68D37C6FF38613D374064B1B697A6899
S2144048B0907C7A6892683968984700E000BF08376D
S2144048C0BD4680BDDC00402080B586B000AFF860B5
S2144048D00B467A60FB72FB689B7C03F00F03FB750C
S2144048E0FB689B7CFF2B19D0FB68DB7C03F0400306
S2144048F0DBB2002B12D0FB7A002B05D0FB7D0021CB
S2144049001846084B984704E0FB7D00211846064BA6
S21440491098477968F868054B984700E000BF183715
S214404920BD4680BD1D3A4000653A40008148400083
S21440493080B584B000AF03463960FB71FB7903F065
S2144049400F03FB73FB7B18461C4B98470346BB8103
S214404950FB7B032B02D83B68002B02D16FF0110380
S21440496027E0FB7B1846164B9847034683F0010327
S214404970DBB2002B02D06FF012031AE0FB7B184626
S214404980104B9847034683F00103DBB2002B01D05F
S21440499000230EE0FB7BDA030B4B1344BB6008227C
S2144049A0B9683868094B9847FB7B1846084B9847C8
S2144049B0BB8918461037BD4680BD00BFA5394000AC
S2144049C00938400031394000000010A0A551400091
S2144049D05939400080B588B000AF7860644BFB61C1
S2144049E07B681B7A03F00F03FB767B681B7A03F029
S2144049F08003002B14BF01230023BB76FA7E1346A8
S214404A009B0013449B0010335A4A134404337B6183
S214404A107B691B8A40F2FF32934204D07B691B8A33
S214404A20013B9BB201E040F2FF337B827B685A68D1
S214404A307B8A1340002B14BF012300237B747B69C1
S214404A40DB7C03F00703DBB2012B0CBF0123002302
S214404A503B74FB7E032B02D96FF0110383E07B6926
S214404A60DB7C03F00803DBB2002B01D002237AE0A4
S214404A7007F10C031846404B98477B69DB7C03F0F4
S214404A804003DBB2002B06D007F10C0318463B4B25
S214404A909847012367E07A69D37C43F04003D37498
S214404AA007F10C031846354B98477B681A687B69B4
S214404AB01A607B685A687B695A607B6900229A60F4
S214404AC07B690022DA607A69D37CB97E61F3C713CA
S214404AD0D3747B685B7A002B07D07B7C83F0010322
S214404AE0DBB2002B01D0012300E00023DBB203F051
S214404AF00103D9B27A69D37C61F30413D374FB7E85
S214404B00002B0BD0FB7E062B08D8FB7E1946F86997
S214404B101B4B984778691B4B984723E03B7C83F0B8
S214404B200103DBB2002B08D0FB7E4FF4805202FA22
S214404B3003F31946F869144B9847FB7E1946F86903
S214404B40124B9847BB7E002B06D0FB7E01221946AF
S214404B50F8690F4B984705E0FB7E02221946F86934
S214404B600B4B9847002318462037BD4680BD00BFF4
S214404B7000800340DC004020ED0B4000130C40005A
S214404B8047354000853F4000C932400077354000F9
S214404B906934400080B485B000AF03463960FB718D
S214404BA03B68002B01D03B6800E00E4BFB60FB7976
S214404BB0002B03D10C4AFB6893600CE0FB79012B79
S214404BC003D1094AFB68D36005E0FB79022B02D18A
S214404BD0054AFB68136100BF1437BD465DF8047B89
S214404BE0704700BF49374000DC00402080B485B0A5
S214404BF000AFF8600B467A60FB72FB7AFA689B015E
S214404C00134460337A681A6000BF1437BD465DF8B7
S214404C10047B704780B485B000AFF8600B467A607E
S214404C20FB72FB7AFA689B01134464337A681A6015
S214404C3000BF1437BD465DF8047B704780B485B02E
S214404C4000AFF8600B467A60FB72FB7AFA689B010D
S214404C50134470337A681A6000BF1437BD465DF857
S214404C60047B704780B487B000AFF8600B467A602C
S214404C70FB72FB7AFA689B01134478331B687B61AE
S214404C807B68DA027B691340DB0A03F003037B612F
S214404C907B6918461C37BD465DF8047B704780B478
S214404CA085B000AF78600B46FB70FB787A689B0156
S214404CB0134478331B68FB60FB68DB0A03F003038E
S214404CC0FB60FB6818461437BD465DF8047B7047AA
S214404CD080B487B000AFF8600B467A60FB72FB7A10
S214404CE0FA689B01134478331B687B617B6923F425
S214404CF040337B617B681B0403F440337A6913437B
S214404D007B61FB7AFA689B01134478337A691A60B0
S214404D1000BF1C37BD465DF8047B704780B487B043
S214404D2000AFF8600B467A60FB72FB7AFA689B012C
S214404D3013447C331B687B617A690A4B13407B6162
S214404D407B689BB27A6913437B61FB7AFA689B0166
S214404D5013447C337A691A6000BF1C37BD465DF841
S214404D60047B70470000FFFF80B483B000AF7860DC
S214404D700B46FB70FB787A689B0113445C331B68D8
S214404D8018460C37BD465DF8047B704780B483B048
S214404D9000AF786039607B683A68DA6100BF0C37EC
S214404DA0BD465DF8047B704780B483B000AF786042
S214404DB039607B683A689A6300BF0C37BD465DF839
S214404DC0047B704780B483B000AF78607B689B6993
S214404DD018460C37BD465DF8047B704780B582B0F8
S214404DE000AF03463960FB713A68FB7919460448C0
S214404DF0044B9847002318460837BD4680BD00BF81
S214404E0000800740154C400080B582B000AF034696
S214404E103960FB713A68FB7919460448044B984759
S214404E20002318460837BD4680BD00BF00800740B7
S214404E30ED4B400080B582B000AF03460A46FB719A
S214404E401346BB71BB7983F00103DBB2002B15D050
S214404E50FB7919460F48104B98470346022B0DD056
S214404E60FB79032219460B480C4B9847FB794FF0C9
S214404E70FF32194607480A4B984705E0BA79FB794E
S214404E8019460448054B9847002318460837BD4640
S214404E9080BD00BF008007409F4C4000D14C400082
S214404EA01D4D400080B584B000AF03463960FB71AD
S214404EB0FB79032219460948094B98470346FB737A
S214404EC0FB7B3A68DA40FB7919460448054B98471D
S214404ED0002318461037BD4680BD00BF00800740FF
S214404EE0654C40003D4C400080B582B000AF034664
S214404EF00A46FB711346BB71FB79012202FA03F3A3
S214404F0019460948094B9847BB79002B07D0FB79CF
S214404F10012202FA03F319460348054B984700233B
S214404F2018460837BD4680BD008007408D4D40007E
S214404F30A94D400080B483B000AF78600B46FB704C
S214404F40FA7813465B0013449B00054A1A447B6874
S214404F501A60002318460C37BD465DF8047B704740
S214404F604001402080B584B000AFFF23FB7321484A
S214404F70214B9847B8600023BB730DE0BB7BBA68F3
S214404F8022FA03F303F00103002B02D0BB7BFB7332
S214404F9005E0BB7B0133BB73BB7B172BEED997F980
S214404FA00F30002B22DB97F90F2013465B0013448B
S214404FB09B00124A13447B60FB7B19460D48104BFE
S214404FC0984738603B6803F07003002B04D07B683A
S214404FD05B68786898470AE03B6803F00103002B5B
S214404FE005D07B681B687868984700E000BF10379C
S214404FF0BD4680BD00800740C54D40004001402072
S214405000694D400080B483B000AF786039607B68FB
S2144050103A681A6300BF0C37BD465DF8047B70479C
S21440502080B485B000AF786039607B689B6BFB606E
S214405030FA683B681340FB60FB6818461437BD4669
S2144050405DF8047B704780B483B000AF7860396009
S2144050507B683A685A6300BF0C37BD465DF8047BF0
S2144050607047000080B483B000AF0346FB71FB7905
S2144050705B021A46034B134418460C37BD465DF890
S214405080047B7047000E0E4080B586B000AF0346E6
S2144050903960FB71FB7918460C4B98477861396844
S2144050A078690B4B984738613B69DA433B68134055
S2144050B0FB60F9687869074B984739697869064B09
S2144050C0984700BF1837BD4680BD00BF65504000BA
S2144050D021504000055040004750400080B582B007
S2144050E000AF0346FB71FB795B09D8B2FB7903F04E
S2144050F01F03012202FA03F31946034B984700BFE9
S2144051000837BD4680BD00BF8950400080B582B09C
S21440511000AF5420074B984700233B6005E0FB79DF
S2144051200133FB713B6801333B603B68024A934264
S214405130F5D9EEE7DD5040007FD1F00880B582B06B
S21440514000AF044B9847044B98477B6801337B601D
S214405150FBE700BFAD0140000D51400070B50D4E5D
S2144051600D4CA41BA4100025A54209D10B4E0C4C97
S21440517000F066F8A41BA4100025A54205D170BD1A
S21440518056F8253098470135EEE756F825309847CB
S2144051900135F2E74C5240004C5240004C52400021
S2144051A05052400010B5431E0A44914200D110BDF3
S2144051B011F8014B03F8014FF7E7024403469342C8
S2144051C000D1704703F8011BF9E70000010000001A
S2144051D00100000001000000010000000000000087
S2144051E001000000000000000100000000000080F8
S2144051F001000000820C9604FFFF00000080014082
S214405200200000000000000000000000BABA0200C3
S214405210F049020000C001402000000000000000ED
S21440522000000000BABA0200F04902000010000078
S214405230000C00000000000000000000010200001A
S214405240F8B500BFF8BC08BC9E46704765014000F4
S214405250F8B500BFF8BC08BC9E4670474101400008
S21440526000000001000000000000000000080000F0
S214405270510000000400000000080000510000003B
S804400000BB
